{"abi":[{"inputs":[{"internalType":"uint256","name":"","type":"uint256"}],"name":"campaings","outputs":[{"internalType":"contract Campaing","name":"","type":"address"}],"stateMutability":"view","type":"function"},{"inputs":[{"internalType":"uint256","name":"min","type":"uint256"},{"internalType":"string","name":"name","type":"string"},{"internalType":"string","name":"description","type":"string"}],"name":"createCampaing","outputs":[],"stateMutability":"nonpayable","type":"function"},{"inputs":[],"name":"getCampaings","outputs":[{"internalType":"contract Campaing[]","name":"","type":"address[]"}],"stateMutability":"view","type":"function"}],"devdoc":{"kind":"dev","methods":{},"version":1},"evm":{"assembly":"    /* \"campaing.sol\":83:479  contract CampaingFactory {... */\n  mstore(0x40, 0x80)\n  callvalue\n  dup1\n  iszero\n  tag_1\n  jumpi\n  0x00\n  dup1\n  revert\ntag_1:\n  pop\n  dataSize(sub_0)\n  dup1\n  dataOffset(sub_0)\n  0x00\n  codecopy\n  0x00\n  return\nstop\n\nsub_0: assembly {\n        /* \"campaing.sol\":83:479  contract CampaingFactory {... */\n      mstore(0x40, 0x80)\n      callvalue\n      dup1\n      iszero\n      tag_1\n      jumpi\n      0x00\n      dup1\n      revert\n    tag_1:\n      pop\n      jumpi(tag_2, lt(calldatasize, 0x04))\n      shr(0xe0, calldataload(0x00))\n      dup1\n      0x2a3a4d8a\n      eq\n      tag_3\n      jumpi\n      dup1\n      0xb2395a14\n      eq\n      tag_4\n      jumpi\n      dup1\n      0xeb478942\n      eq\n      tag_5\n      jumpi\n    tag_2:\n      0x00\n      dup1\n      revert\n        /* \"campaing.sol\":367:473  function getCampaings() public view returns (Campaing[] memory ) {... */\n    tag_3:\n      tag_6\n      tag_7\n      jump\t// in\n    tag_6:\n      mload(0x40)\n      tag_8\n      swap2\n      swap1\n      tag_9\n      jump\t// in\n    tag_8:\n      mload(0x40)\n      dup1\n      swap2\n      sub\n      swap1\n      return\n        /* \"campaing.sol\":118:145  Campaing[] public campaings */\n    tag_4:\n      tag_10\n      0x04\n      dup1\n      calldatasize\n      sub\n      dup2\n      add\n      swap1\n      tag_11\n      swap2\n      swap1\n      tag_12\n      jump\t// in\n    tag_11:\n      tag_13\n      jump\t// in\n    tag_10:\n      mload(0x40)\n      tag_14\n      swap2\n      swap1\n      tag_15\n      jump\t// in\n    tag_14:\n      mload(0x40)\n      dup1\n      swap2\n      sub\n      swap1\n      return\n        /* \"campaing.sol\":156:357  function createCampaing(uint min,string memory name, string memory description) public {... */\n    tag_5:\n      tag_16\n      0x04\n      dup1\n      calldatasize\n      sub\n      dup2\n      add\n      swap1\n      tag_17\n      swap2\n      swap1\n      tag_18\n      jump\t// in\n    tag_17:\n      tag_19\n      jump\t// in\n    tag_16:\n      stop\n        /* \"campaing.sol\":367:473  function getCampaings() public view returns (Campaing[] memory ) {... */\n    tag_7:\n        /* \"campaing.sol\":412:429  Campaing[] memory */\n      0x60\n        /* \"campaing.sol\":453:462  campaings */\n      0x00\n        /* \"campaing.sol\":446:462  return campaings */\n      dup1\n      sload\n      dup1\n      0x20\n      mul\n      0x20\n      add\n      mload(0x40)\n      swap1\n      dup2\n      add\n      0x40\n      mstore\n      dup1\n      swap3\n      swap2\n      swap1\n      dup2\n      dup2\n      mstore\n      0x20\n      add\n      dup3\n      dup1\n      sload\n      dup1\n      iszero\n      tag_21\n      jumpi\n      0x20\n      mul\n      dup3\n      add\n      swap2\n      swap1\n      0x00\n      mstore\n      keccak256(0x00, 0x20)\n      swap1\n    tag_22:\n      dup2\n      0x00\n      swap1\n      sload\n      swap1\n      0x0100\n      exp\n      swap1\n      div\n      0xffffffffffffffffffffffffffffffffffffffff\n      and\n      0xffffffffffffffffffffffffffffffffffffffff\n      and\n      dup2\n      mstore\n      0x20\n      add\n      swap1\n      0x01\n      add\n      swap1\n      dup1\n      dup4\n      gt\n      tag_22\n      jumpi\n    tag_21:\n      pop\n      pop\n      pop\n      pop\n      pop\n      swap1\n      pop\n        /* \"campaing.sol\":367:473  function getCampaings() public view returns (Campaing[] memory ) {... */\n      swap1\n      jump\t// out\n        /* \"campaing.sol\":118:145  Campaing[] public campaings */\n    tag_13:\n      0x00\n      dup2\n      dup2\n      sload\n      dup2\n      lt\n      tag_23\n      jumpi\n      0x00\n      dup1\n      revert\n    tag_23:\n      swap1\n      0x00\n      mstore\n      keccak256(0x00, 0x20)\n      add\n      0x00\n      swap2\n      pop\n      sload\n      swap1\n      0x0100\n      exp\n      swap1\n      div\n      0xffffffffffffffffffffffffffffffffffffffff\n      and\n      dup2\n      jump\t// out\n        /* \"campaing.sol\":156:357  function createCampaing(uint min,string memory name, string memory description) public {... */\n    tag_19:\n        /* \"campaing.sol\":257:267  Campaing c */\n      0x00\n        /* \"campaing.sol\":283:286  min */\n      dup4\n        /* \"campaing.sol\":287:297  msg.sender */\n      caller\n        /* \"campaing.sol\":298:302  name */\n      dup5\n        /* \"campaing.sol\":303:314  description */\n      dup5\n        /* \"campaing.sol\":270:315  new Campaing(min,msg.sender,name,description) */\n      mload(0x40)\n      tag_26\n      swap1\n      tag_27\n      jump\t// in\n    tag_26:\n      tag_28\n      swap5\n      swap4\n      swap3\n      swap2\n      swap1\n      tag_29\n      jump\t// in\n    tag_28:\n      mload(0x40)\n      dup1\n      swap2\n      sub\n      swap1\n      0x00\n      create\n      dup1\n      iszero\n      dup1\n      iszero\n      tag_30\n      jumpi\n      returndatasize\n      0x00\n      dup1\n      returndatacopy\n      revert(0x00, returndatasize)\n    tag_30:\n      pop\n        /* \"campaing.sol\":257:315  Campaing c = new Campaing(min,msg.sender,name,description) */\n      swap1\n      pop\n        /* \"campaing.sol\":329:338  campaings */\n      0x00\n        /* \"campaing.sol\":344:345  c */\n      dup2\n        /* \"campaing.sol\":329:346  campaings.push(c) */\n      swap1\n      dup1\n      0x01\n      dup2\n      sload\n      add\n      dup1\n      dup3\n      sstore\n      dup1\n      swap2\n      pop\n      pop\n      0x01\n      swap1\n      sub\n      swap1\n      0x00\n      mstore\n      keccak256(0x00, 0x20)\n      add\n      0x00\n      swap1\n      swap2\n      swap1\n      swap2\n      swap1\n      swap2\n      0x0100\n      exp\n      dup2\n      sload\n      dup2\n      0xffffffffffffffffffffffffffffffffffffffff\n      mul\n      not\n      and\n      swap1\n      dup4\n      0xffffffffffffffffffffffffffffffffffffffff\n      and\n      mul\n      or\n      swap1\n      sstore\n      pop\n        /* \"campaing.sol\":243:357  {... */\n      pop\n        /* \"campaing.sol\":156:357  function createCampaing(uint min,string memory name, string memory description) public {... */\n      pop\n      pop\n      pop\n      jump\t// out\n    tag_27:\n      dataSize(sub_0)\n      dup1\n      dataOffset(sub_0)\n      dup4\n      codecopy\n      add\n      swap1\n      jump\t// out\n        /* \"#utility.yul\":7:137   */\n    tag_32:\n        /* \"#utility.yul\":90:96   */\n      0x00\n        /* \"#utility.yul\":124:129   */\n      dup2\n        /* \"#utility.yul\":118:130   */\n      mload\n        /* \"#utility.yul\":108:130   */\n      swap1\n      pop\n        /* \"#utility.yul\":7:137   */\n      swap2\n      swap1\n      pop\n      jump\t// out\n        /* \"#utility.yul\":143:327   */\n    tag_33:\n        /* \"#utility.yul\":242:253   */\n      0x00\n        /* \"#utility.yul\":276:282   */\n      dup3\n        /* \"#utility.yul\":271:274   */\n      dup3\n        /* \"#utility.yul\":264:283   */\n      mstore\n        /* \"#utility.yul\":316:320   */\n      0x20\n        /* \"#utility.yul\":311:314   */\n      dup3\n        /* \"#utility.yul\":307:321   */\n      add\n        /* \"#utility.yul\":292:321   */\n      swap1\n      pop\n        /* \"#utility.yul\":143:327   */\n      swap3\n      swap2\n      pop\n      pop\n      jump\t// out\n        /* \"#utility.yul\":333:481   */\n    tag_34:\n        /* \"#utility.yul\":416:420   */\n      0x00\n        /* \"#utility.yul\":439:442   */\n      dup2\n        /* \"#utility.yul\":431:442   */\n      swap1\n      pop\n        /* \"#utility.yul\":469:473   */\n      0x20\n        /* \"#utility.yul\":464:467   */\n      dup3\n        /* \"#utility.yul\":460:474   */\n      add\n        /* \"#utility.yul\":452:474   */\n      swap1\n      pop\n        /* \"#utility.yul\":333:481   */\n      swap2\n      swap1\n      pop\n      jump\t// out\n        /* \"#utility.yul\":487:613   */\n    tag_35:\n        /* \"#utility.yul\":524:531   */\n      0x00\n        /* \"#utility.yul\":564:606   */\n      0xffffffffffffffffffffffffffffffffffffffff\n        /* \"#utility.yul\":557:562   */\n      dup3\n        /* \"#utility.yul\":553:607   */\n      and\n        /* \"#utility.yul\":542:607   */\n      swap1\n      pop\n        /* \"#utility.yul\":487:613   */\n      swap2\n      swap1\n      pop\n      jump\t// out\n        /* \"#utility.yul\":619:679   */\n    tag_36:\n        /* \"#utility.yul\":647:650   */\n      0x00\n        /* \"#utility.yul\":668:673   */\n      dup2\n        /* \"#utility.yul\":661:673   */\n      swap1\n      pop\n        /* \"#utility.yul\":619:679   */\n      swap2\n      swap1\n      pop\n      jump\t// out\n        /* \"#utility.yul\":685:827   */\n    tag_37:\n        /* \"#utility.yul\":735:744   */\n      0x00\n        /* \"#utility.yul\":768:821   */\n      tag_75\n        /* \"#utility.yul\":786:820   */\n      tag_76\n        /* \"#utility.yul\":795:819   */\n      tag_77\n        /* \"#utility.yul\":813:818   */\n      dup5\n        /* \"#utility.yul\":795:819   */\n      tag_35\n      jump\t// in\n    tag_77:\n        /* \"#utility.yul\":786:820   */\n      tag_36\n      jump\t// in\n    tag_76:\n        /* \"#utility.yul\":768:821   */\n      tag_35\n      jump\t// in\n    tag_75:\n        /* \"#utility.yul\":755:821   */\n      swap1\n      pop\n        /* \"#utility.yul\":685:827   */\n      swap2\n      swap1\n      pop\n      jump\t// out\n        /* \"#utility.yul\":833:959   */\n    tag_38:\n        /* \"#utility.yul\":883:892   */\n      0x00\n        /* \"#utility.yul\":916:953   */\n      tag_79\n        /* \"#utility.yul\":947:952   */\n      dup3\n        /* \"#utility.yul\":916:953   */\n      tag_37\n      jump\t// in\n    tag_79:\n        /* \"#utility.yul\":903:953   */\n      swap1\n      pop\n        /* \"#utility.yul\":833:959   */\n      swap2\n      swap1\n      pop\n      jump\t// out\n        /* \"#utility.yul\":965:1107   */\n    tag_39:\n        /* \"#utility.yul\":1031:1040   */\n      0x00\n        /* \"#utility.yul\":1064:1101   */\n      tag_81\n        /* \"#utility.yul\":1095:1100   */\n      dup3\n        /* \"#utility.yul\":1064:1101   */\n      tag_38\n      jump\t// in\n    tag_81:\n        /* \"#utility.yul\":1051:1101   */\n      swap1\n      pop\n        /* \"#utility.yul\":965:1107   */\n      swap2\n      swap1\n      pop\n      jump\t// out\n        /* \"#utility.yul\":1113:1266   */\n    tag_40:\n        /* \"#utility.yul\":1206:1259   */\n      tag_83\n        /* \"#utility.yul\":1253:1258   */\n      dup2\n        /* \"#utility.yul\":1206:1259   */\n      tag_39\n      jump\t// in\n    tag_83:\n        /* \"#utility.yul\":1201:1204   */\n      dup3\n        /* \"#utility.yul\":1194:1260   */\n      mstore\n        /* \"#utility.yul\":1113:1266   */\n      pop\n      pop\n      jump\t// out\n        /* \"#utility.yul\":1272:1483   */\n    tag_41:\n        /* \"#utility.yul\":1357:1367   */\n      0x00\n        /* \"#utility.yul\":1378:1440   */\n      tag_85\n        /* \"#utility.yul\":1436:1439   */\n      dup4\n        /* \"#utility.yul\":1428:1434   */\n      dup4\n        /* \"#utility.yul\":1378:1440   */\n      tag_40\n      jump\t// in\n    tag_85:\n        /* \"#utility.yul\":1472:1476   */\n      0x20\n        /* \"#utility.yul\":1467:1470   */\n      dup4\n        /* \"#utility.yul\":1463:1477   */\n      add\n        /* \"#utility.yul\":1449:1477   */\n      swap1\n      pop\n        /* \"#utility.yul\":1272:1483   */\n      swap3\n      swap2\n      pop\n      pop\n      jump\t// out\n        /* \"#utility.yul\":1489:1618   */\n    tag_42:\n        /* \"#utility.yul\":1575:1579   */\n      0x00\n        /* \"#utility.yul\":1607:1611   */\n      0x20\n        /* \"#utility.yul\":1602:1605   */\n      dup3\n        /* \"#utility.yul\":1598:1612   */\n      add\n        /* \"#utility.yul\":1590:1612   */\n      swap1\n      pop\n        /* \"#utility.yul\":1489:1618   */\n      swap2\n      swap1\n      pop\n      jump\t// out\n        /* \"#utility.yul\":1664:2476   */\n    tag_43:\n        /* \"#utility.yul\":1799:1802   */\n      0x00\n        /* \"#utility.yul\":1828:1898   */\n      tag_88\n        /* \"#utility.yul\":1892:1897   */\n      dup3\n        /* \"#utility.yul\":1828:1898   */\n      tag_32\n      jump\t// in\n    tag_88:\n        /* \"#utility.yul\":1914:2000   */\n      tag_89\n        /* \"#utility.yul\":1993:1999   */\n      dup2\n        /* \"#utility.yul\":1988:1991   */\n      dup6\n        /* \"#utility.yul\":1914:2000   */\n      tag_33\n      jump\t// in\n    tag_89:\n        /* \"#utility.yul\":1907:2000   */\n      swap4\n      pop\n        /* \"#utility.yul\":2024:2096   */\n      tag_90\n        /* \"#utility.yul\":2090:2095   */\n      dup4\n        /* \"#utility.yul\":2024:2096   */\n      tag_34\n      jump\t// in\n    tag_90:\n        /* \"#utility.yul\":2119:2126   */\n      dup1\n        /* \"#utility.yul\":2150:2151   */\n      0x00\n        /* \"#utility.yul\":2135:2451   */\n    tag_91:\n        /* \"#utility.yul\":2160:2166   */\n      dup4\n        /* \"#utility.yul\":2157:2158   */\n      dup2\n        /* \"#utility.yul\":2154:2167   */\n      lt\n        /* \"#utility.yul\":2135:2451   */\n      iszero\n      tag_93\n      jumpi\n        /* \"#utility.yul\":2236:2242   */\n      dup2\n        /* \"#utility.yul\":2230:2243   */\n      mload\n        /* \"#utility.yul\":2263:2342   */\n      tag_94\n        /* \"#utility.yul\":2338:2341   */\n      dup9\n        /* \"#utility.yul\":2323:2336   */\n      dup3\n        /* \"#utility.yul\":2263:2342   */\n      tag_41\n      jump\t// in\n    tag_94:\n        /* \"#utility.yul\":2256:2342   */\n      swap8\n      pop\n        /* \"#utility.yul\":2365:2441   */\n      tag_95\n        /* \"#utility.yul\":2434:2440   */\n      dup4\n        /* \"#utility.yul\":2365:2441   */\n      tag_42\n      jump\t// in\n    tag_95:\n        /* \"#utility.yul\":2355:2441   */\n      swap3\n      pop\n        /* \"#utility.yul\":2195:2451   */\n      pop\n        /* \"#utility.yul\":2182:2183   */\n      0x01\n        /* \"#utility.yul\":2179:2180   */\n      dup2\n        /* \"#utility.yul\":2175:2184   */\n      add\n        /* \"#utility.yul\":2170:2184   */\n      swap1\n      pop\n        /* \"#utility.yul\":2135:2451   */\n      jump(tag_91)\n    tag_93:\n        /* \"#utility.yul\":2139:2153   */\n      pop\n        /* \"#utility.yul\":2467:2470   */\n      dup6\n        /* \"#utility.yul\":2460:2470   */\n      swap4\n      pop\n        /* \"#utility.yul\":1804:2476   */\n      pop\n      pop\n      pop\n        /* \"#utility.yul\":1664:2476   */\n      swap3\n      swap2\n      pop\n      pop\n      jump\t// out\n        /* \"#utility.yul\":2482:2887   */\n    tag_9:\n        /* \"#utility.yul\":2641:2645   */\n      0x00\n        /* \"#utility.yul\":2679:2681   */\n      0x20\n        /* \"#utility.yul\":2668:2677   */\n      dup3\n        /* \"#utility.yul\":2664:2682   */\n      add\n        /* \"#utility.yul\":2656:2682   */\n      swap1\n      pop\n        /* \"#utility.yul\":2728:2737   */\n      dup2\n        /* \"#utility.yul\":2722:2726   */\n      dup2\n        /* \"#utility.yul\":2718:2738   */\n      sub\n        /* \"#utility.yul\":2714:2715   */\n      0x00\n        /* \"#utility.yul\":2703:2712   */\n      dup4\n        /* \"#utility.yul\":2699:2716   */\n      add\n        /* \"#utility.yul\":2692:2739   */\n      mstore\n        /* \"#utility.yul\":2756:2880   */\n      tag_97\n        /* \"#utility.yul\":2875:2879   */\n      dup2\n        /* \"#utility.yul\":2866:2872   */\n      dup5\n        /* \"#utility.yul\":2756:2880   */\n      tag_43\n      jump\t// in\n    tag_97:\n        /* \"#utility.yul\":2748:2880   */\n      swap1\n      pop\n        /* \"#utility.yul\":2482:2887   */\n      swap3\n      swap2\n      pop\n      pop\n      jump\t// out\n        /* \"#utility.yul\":2893:2968   */\n    tag_44:\n        /* \"#utility.yul\":2926:2932   */\n      0x00\n        /* \"#utility.yul\":2959:2961   */\n      0x40\n        /* \"#utility.yul\":2953:2962   */\n      mload\n        /* \"#utility.yul\":2943:2962   */\n      swap1\n      pop\n        /* \"#utility.yul\":2893:2968   */\n      swap1\n      jump\t// out\n        /* \"#utility.yul\":2974:3091   */\n    tag_45:\n        /* \"#utility.yul\":3083:3084   */\n      0x00\n        /* \"#utility.yul\":3080:3081   */\n      dup1\n        /* \"#utility.yul\":3073:3085   */\n      revert\n        /* \"#utility.yul\":3097:3214   */\n    tag_46:\n        /* \"#utility.yul\":3206:3207   */\n      0x00\n        /* \"#utility.yul\":3203:3204   */\n      dup1\n        /* \"#utility.yul\":3196:3208   */\n      revert\n        /* \"#utility.yul\":3220:3297   */\n    tag_47:\n        /* \"#utility.yul\":3257:3264   */\n      0x00\n        /* \"#utility.yul\":3286:3291   */\n      dup2\n        /* \"#utility.yul\":3275:3291   */\n      swap1\n      pop\n        /* \"#utility.yul\":3220:3297   */\n      swap2\n      swap1\n      pop\n      jump\t// out\n        /* \"#utility.yul\":3303:3425   */\n    tag_48:\n        /* \"#utility.yul\":3376:3400   */\n      tag_103\n        /* \"#utility.yul\":3394:3399   */\n      dup2\n        /* \"#utility.yul\":3376:3400   */\n      tag_47\n      jump\t// in\n    tag_103:\n        /* \"#utility.yul\":3369:3374   */\n      dup2\n        /* \"#utility.yul\":3366:3401   */\n      eq\n        /* \"#utility.yul\":3356:3419   */\n      tag_104\n      jumpi\n        /* \"#utility.yul\":3415:3416   */\n      0x00\n        /* \"#utility.yul\":3412:3413   */\n      dup1\n        /* \"#utility.yul\":3405:3417   */\n      revert\n        /* \"#utility.yul\":3356:3419   */\n    tag_104:\n        /* \"#utility.yul\":3303:3425   */\n      pop\n      jump\t// out\n        /* \"#utility.yul\":3431:3570   */\n    tag_49:\n        /* \"#utility.yul\":3477:3482   */\n      0x00\n        /* \"#utility.yul\":3515:3521   */\n      dup2\n        /* \"#utility.yul\":3502:3522   */\n      calldataload\n        /* \"#utility.yul\":3493:3522   */\n      swap1\n      pop\n        /* \"#utility.yul\":3531:3564   */\n      tag_106\n        /* \"#utility.yul\":3558:3563   */\n      dup2\n        /* \"#utility.yul\":3531:3564   */\n      tag_48\n      jump\t// in\n    tag_106:\n        /* \"#utility.yul\":3431:3570   */\n      swap3\n      swap2\n      pop\n      pop\n      jump\t// out\n        /* \"#utility.yul\":3576:3905   */\n    tag_12:\n        /* \"#utility.yul\":3635:3641   */\n      0x00\n        /* \"#utility.yul\":3684:3686   */\n      0x20\n        /* \"#utility.yul\":3672:3681   */\n      dup3\n        /* \"#utility.yul\":3663:3670   */\n      dup5\n        /* \"#utility.yul\":3659:3682   */\n      sub\n        /* \"#utility.yul\":3655:3687   */\n      slt\n        /* \"#utility.yul\":3652:3771   */\n      iszero\n      tag_108\n      jumpi\n        /* \"#utility.yul\":3690:3769   */\n      tag_109\n      tag_45\n      jump\t// in\n    tag_109:\n        /* \"#utility.yul\":3652:3771   */\n    tag_108:\n        /* \"#utility.yul\":3810:3811   */\n      0x00\n        /* \"#utility.yul\":3835:3888   */\n      tag_110\n        /* \"#utility.yul\":3880:3887   */\n      dup5\n        /* \"#utility.yul\":3871:3877   */\n      dup3\n        /* \"#utility.yul\":3860:3869   */\n      dup6\n        /* \"#utility.yul\":3856:3878   */\n      add\n        /* \"#utility.yul\":3835:3888   */\n      tag_49\n      jump\t// in\n    tag_110:\n        /* \"#utility.yul\":3825:3888   */\n      swap2\n      pop\n        /* \"#utility.yul\":3781:3898   */\n      pop\n        /* \"#utility.yul\":3576:3905   */\n      swap3\n      swap2\n      pop\n      pop\n      jump\t// out\n        /* \"#utility.yul\":3911:4074   */\n    tag_50:\n        /* \"#utility.yul\":4014:4067   */\n      tag_112\n        /* \"#utility.yul\":4061:4066   */\n      dup2\n        /* \"#utility.yul\":4014:4067   */\n      tag_39\n      jump\t// in\n    tag_112:\n        /* \"#utility.yul\":4009:4012   */\n      dup3\n        /* \"#utility.yul\":4002:4068   */\n      mstore\n        /* \"#utility.yul\":3911:4074   */\n      pop\n      pop\n      jump\t// out\n        /* \"#utility.yul\":4080:4334   */\n    tag_15:\n        /* \"#utility.yul\":4189:4193   */\n      0x00\n        /* \"#utility.yul\":4227:4229   */\n      0x20\n        /* \"#utility.yul\":4216:4225   */\n      dup3\n        /* \"#utility.yul\":4212:4230   */\n      add\n        /* \"#utility.yul\":4204:4230   */\n      swap1\n      pop\n        /* \"#utility.yul\":4240:4327   */\n      tag_114\n        /* \"#utility.yul\":4324:4325   */\n      0x00\n        /* \"#utility.yul\":4313:4322   */\n      dup4\n        /* \"#utility.yul\":4309:4326   */\n      add\n        /* \"#utility.yul\":4300:4306   */\n      dup5\n        /* \"#utility.yul\":4240:4327   */\n      tag_50\n      jump\t// in\n    tag_114:\n        /* \"#utility.yul\":4080:4334   */\n      swap3\n      swap2\n      pop\n      pop\n      jump\t// out\n        /* \"#utility.yul\":4340:4457   */\n    tag_51:\n        /* \"#utility.yul\":4449:4450   */\n      0x00\n        /* \"#utility.yul\":4446:4447   */\n      dup1\n        /* \"#utility.yul\":4439:4451   */\n      revert\n        /* \"#utility.yul\":4463:4580   */\n    tag_52:\n        /* \"#utility.yul\":4572:4573   */\n      0x00\n        /* \"#utility.yul\":4569:4570   */\n      dup1\n        /* \"#utility.yul\":4562:4574   */\n      revert\n        /* \"#utility.yul\":4586:4688   */\n    tag_53:\n        /* \"#utility.yul\":4627:4633   */\n      0x00\n        /* \"#utility.yul\":4678:4680   */\n      0x1f\n        /* \"#utility.yul\":4674:4681   */\n      not\n        /* \"#utility.yul\":4669:4671   */\n      0x1f\n        /* \"#utility.yul\":4662:4667   */\n      dup4\n        /* \"#utility.yul\":4658:4672   */\n      add\n        /* \"#utility.yul\":4654:4682   */\n      and\n        /* \"#utility.yul\":4644:4682   */\n      swap1\n      pop\n        /* \"#utility.yul\":4586:4688   */\n      swap2\n      swap1\n      pop\n      jump\t// out\n        /* \"#utility.yul\":4694:4874   */\n    tag_54:\n        /* \"#utility.yul\":4742:4819   */\n      0x4e487b7100000000000000000000000000000000000000000000000000000000\n        /* \"#utility.yul\":4739:4740   */\n      0x00\n        /* \"#utility.yul\":4732:4820   */\n      mstore\n        /* \"#utility.yul\":4839:4843   */\n      0x41\n        /* \"#utility.yul\":4836:4837   */\n      0x04\n        /* \"#utility.yul\":4829:4844   */\n      mstore\n        /* \"#utility.yul\":4863:4867   */\n      0x24\n        /* \"#utility.yul\":4860:4861   */\n      0x00\n        /* \"#utility.yul\":4853:4868   */\n      revert\n        /* \"#utility.yul\":4880:5161   */\n    tag_55:\n        /* \"#utility.yul\":4963:4990   */\n      tag_120\n        /* \"#utility.yul\":4985:4989   */\n      dup3\n        /* \"#utility.yul\":4963:4990   */\n      tag_53\n      jump\t// in\n    tag_120:\n        /* \"#utility.yul\":4955:4961   */\n      dup2\n        /* \"#utility.yul\":4951:4991   */\n      add\n        /* \"#utility.yul\":5093:5099   */\n      dup2\n        /* \"#utility.yul\":5081:5091   */\n      dup2\n        /* \"#utility.yul\":5078:5100   */\n      lt\n        /* \"#utility.yul\":5057:5075   */\n      0xffffffffffffffff\n        /* \"#utility.yul\":5045:5055   */\n      dup3\n        /* \"#utility.yul\":5042:5076   */\n      gt\n        /* \"#utility.yul\":5039:5101   */\n      or\n        /* \"#utility.yul\":5036:5124   */\n      iszero\n      tag_121\n      jumpi\n        /* \"#utility.yul\":5104:5122   */\n      tag_122\n      tag_54\n      jump\t// in\n    tag_122:\n        /* \"#utility.yul\":5036:5124   */\n    tag_121:\n        /* \"#utility.yul\":5144:5154   */\n      dup1\n        /* \"#utility.yul\":5140:5142   */\n      0x40\n        /* \"#utility.yul\":5133:5155   */\n      mstore\n        /* \"#utility.yul\":4923:5161   */\n      pop\n        /* \"#utility.yul\":4880:5161   */\n      pop\n      pop\n      jump\t// out\n        /* \"#utility.yul\":5167:5296   */\n    tag_56:\n        /* \"#utility.yul\":5201:5207   */\n      0x00\n        /* \"#utility.yul\":5228:5248   */\n      tag_124\n      tag_44\n      jump\t// in\n    tag_124:\n        /* \"#utility.yul\":5218:5248   */\n      swap1\n      pop\n        /* \"#utility.yul\":5257:5290   */\n      tag_125\n        /* \"#utility.yul\":5285:5289   */\n      dup3\n        /* \"#utility.yul\":5277:5283   */\n      dup3\n        /* \"#utility.yul\":5257:5290   */\n      tag_55\n      jump\t// in\n    tag_125:\n        /* \"#utility.yul\":5167:5296   */\n      swap2\n      swap1\n      pop\n      jump\t// out\n        /* \"#utility.yul\":5302:5610   */\n    tag_57:\n        /* \"#utility.yul\":5364:5368   */\n      0x00\n        /* \"#utility.yul\":5454:5472   */\n      0xffffffffffffffff\n        /* \"#utility.yul\":5446:5452   */\n      dup3\n        /* \"#utility.yul\":5443:5473   */\n      gt\n        /* \"#utility.yul\":5440:5496   */\n      iszero\n      tag_127\n      jumpi\n        /* \"#utility.yul\":5476:5494   */\n      tag_128\n      tag_54\n      jump\t// in\n    tag_128:\n        /* \"#utility.yul\":5440:5496   */\n    tag_127:\n        /* \"#utility.yul\":5514:5543   */\n      tag_129\n        /* \"#utility.yul\":5536:5542   */\n      dup3\n        /* \"#utility.yul\":5514:5543   */\n      tag_53\n      jump\t// in\n    tag_129:\n        /* \"#utility.yul\":5506:5543   */\n      swap1\n      pop\n        /* \"#utility.yul\":5598:5602   */\n      0x20\n        /* \"#utility.yul\":5592:5596   */\n      dup2\n        /* \"#utility.yul\":5588:5603   */\n      add\n        /* \"#utility.yul\":5580:5603   */\n      swap1\n      pop\n        /* \"#utility.yul\":5302:5610   */\n      swap2\n      swap1\n      pop\n      jump\t// out\n        /* \"#utility.yul\":5616:5770   */\n    tag_58:\n        /* \"#utility.yul\":5700:5706   */\n      dup3\n        /* \"#utility.yul\":5695:5698   */\n      dup2\n        /* \"#utility.yul\":5690:5693   */\n      dup4\n        /* \"#utility.yul\":5677:5707   */\n      calldatacopy\n        /* \"#utility.yul\":5762:5763   */\n      0x00\n        /* \"#utility.yul\":5753:5759   */\n      dup4\n        /* \"#utility.yul\":5748:5751   */\n      dup4\n        /* \"#utility.yul\":5744:5760   */\n      add\n        /* \"#utility.yul\":5737:5764   */\n      mstore\n        /* \"#utility.yul\":5616:5770   */\n      pop\n      pop\n      pop\n      jump\t// out\n        /* \"#utility.yul\":5776:6188   */\n    tag_59:\n        /* \"#utility.yul\":5854:5859   */\n      0x00\n        /* \"#utility.yul\":5879:5945   */\n      tag_132\n        /* \"#utility.yul\":5895:5944   */\n      tag_133\n        /* \"#utility.yul\":5937:5943   */\n      dup5\n        /* \"#utility.yul\":5895:5944   */\n      tag_57\n      jump\t// in\n    tag_133:\n        /* \"#utility.yul\":5879:5945   */\n      tag_56\n      jump\t// in\n    tag_132:\n        /* \"#utility.yul\":5870:5945   */\n      swap1\n      pop\n        /* \"#utility.yul\":5968:5974   */\n      dup3\n        /* \"#utility.yul\":5961:5966   */\n      dup2\n        /* \"#utility.yul\":5954:5975   */\n      mstore\n        /* \"#utility.yul\":6006:6010   */\n      0x20\n        /* \"#utility.yul\":5999:6004   */\n      dup2\n        /* \"#utility.yul\":5995:6011   */\n      add\n        /* \"#utility.yul\":6044:6047   */\n      dup5\n        /* \"#utility.yul\":6035:6041   */\n      dup5\n        /* \"#utility.yul\":6030:6033   */\n      dup5\n        /* \"#utility.yul\":6026:6042   */\n      add\n        /* \"#utility.yul\":6023:6048   */\n      gt\n        /* \"#utility.yul\":6020:6132   */\n      iszero\n      tag_134\n      jumpi\n        /* \"#utility.yul\":6051:6130   */\n      tag_135\n      tag_52\n      jump\t// in\n    tag_135:\n        /* \"#utility.yul\":6020:6132   */\n    tag_134:\n        /* \"#utility.yul\":6141:6182   */\n      tag_136\n        /* \"#utility.yul\":6175:6181   */\n      dup5\n        /* \"#utility.yul\":6170:6173   */\n      dup3\n        /* \"#utility.yul\":6165:6168   */\n      dup6\n        /* \"#utility.yul\":6141:6182   */\n      tag_58\n      jump\t// in\n    tag_136:\n        /* \"#utility.yul\":5860:6188   */\n      pop\n        /* \"#utility.yul\":5776:6188   */\n      swap4\n      swap3\n      pop\n      pop\n      pop\n      jump\t// out\n        /* \"#utility.yul\":6208:6548   */\n    tag_60:\n        /* \"#utility.yul\":6264:6269   */\n      0x00\n        /* \"#utility.yul\":6313:6316   */\n      dup3\n        /* \"#utility.yul\":6306:6310   */\n      0x1f\n        /* \"#utility.yul\":6298:6304   */\n      dup4\n        /* \"#utility.yul\":6294:6311   */\n      add\n        /* \"#utility.yul\":6290:6317   */\n      slt\n        /* \"#utility.yul\":6280:6402   */\n      tag_138\n      jumpi\n        /* \"#utility.yul\":6321:6400   */\n      tag_139\n      tag_51\n      jump\t// in\n    tag_139:\n        /* \"#utility.yul\":6280:6402   */\n    tag_138:\n        /* \"#utility.yul\":6438:6444   */\n      dup2\n        /* \"#utility.yul\":6425:6445   */\n      calldataload\n        /* \"#utility.yul\":6463:6542   */\n      tag_140\n        /* \"#utility.yul\":6538:6541   */\n      dup5\n        /* \"#utility.yul\":6530:6536   */\n      dup3\n        /* \"#utility.yul\":6523:6527   */\n      0x20\n        /* \"#utility.yul\":6515:6521   */\n      dup7\n        /* \"#utility.yul\":6511:6528   */\n      add\n        /* \"#utility.yul\":6463:6542   */\n      tag_59\n      jump\t// in\n    tag_140:\n        /* \"#utility.yul\":6454:6542   */\n      swap2\n      pop\n        /* \"#utility.yul\":6270:6548   */\n      pop\n        /* \"#utility.yul\":6208:6548   */\n      swap3\n      swap2\n      pop\n      pop\n      jump\t// out\n        /* \"#utility.yul\":6554:7533   */\n    tag_18:\n        /* \"#utility.yul\":6651:6657   */\n      0x00\n        /* \"#utility.yul\":6659:6665   */\n      dup1\n        /* \"#utility.yul\":6667:6673   */\n      0x00\n        /* \"#utility.yul\":6716:6718   */\n      0x60\n        /* \"#utility.yul\":6704:6713   */\n      dup5\n        /* \"#utility.yul\":6695:6702   */\n      dup7\n        /* \"#utility.yul\":6691:6714   */\n      sub\n        /* \"#utility.yul\":6687:6719   */\n      slt\n        /* \"#utility.yul\":6684:6803   */\n      iszero\n      tag_142\n      jumpi\n        /* \"#utility.yul\":6722:6801   */\n      tag_143\n      tag_45\n      jump\t// in\n    tag_143:\n        /* \"#utility.yul\":6684:6803   */\n    tag_142:\n        /* \"#utility.yul\":6842:6843   */\n      0x00\n        /* \"#utility.yul\":6867:6920   */\n      tag_144\n        /* \"#utility.yul\":6912:6919   */\n      dup7\n        /* \"#utility.yul\":6903:6909   */\n      dup3\n        /* \"#utility.yul\":6892:6901   */\n      dup8\n        /* \"#utility.yul\":6888:6910   */\n      add\n        /* \"#utility.yul\":6867:6920   */\n      tag_49\n      jump\t// in\n    tag_144:\n        /* \"#utility.yul\":6857:6920   */\n      swap4\n      pop\n        /* \"#utility.yul\":6813:6930   */\n      pop\n        /* \"#utility.yul\":6997:6999   */\n      0x20\n        /* \"#utility.yul\":6986:6995   */\n      dup5\n        /* \"#utility.yul\":6982:7000   */\n      add\n        /* \"#utility.yul\":6969:7001   */\n      calldataload\n        /* \"#utility.yul\":7028:7046   */\n      0xffffffffffffffff\n        /* \"#utility.yul\":7020:7026   */\n      dup2\n        /* \"#utility.yul\":7017:7047   */\n      gt\n        /* \"#utility.yul\":7014:7131   */\n      iszero\n      tag_145\n      jumpi\n        /* \"#utility.yul\":7050:7129   */\n      tag_146\n      tag_46\n      jump\t// in\n    tag_146:\n        /* \"#utility.yul\":7014:7131   */\n    tag_145:\n        /* \"#utility.yul\":7155:7218   */\n      tag_147\n        /* \"#utility.yul\":7210:7217   */\n      dup7\n        /* \"#utility.yul\":7201:7207   */\n      dup3\n        /* \"#utility.yul\":7190:7199   */\n      dup8\n        /* \"#utility.yul\":7186:7208   */\n      add\n        /* \"#utility.yul\":7155:7218   */\n      tag_60\n      jump\t// in\n    tag_147:\n        /* \"#utility.yul\":7145:7218   */\n      swap3\n      pop\n        /* \"#utility.yul\":6940:7228   */\n      pop\n        /* \"#utility.yul\":7295:7297   */\n      0x40\n        /* \"#utility.yul\":7284:7293   */\n      dup5\n        /* \"#utility.yul\":7280:7298   */\n      add\n        /* \"#utility.yul\":7267:7299   */\n      calldataload\n        /* \"#utility.yul\":7326:7344   */\n      0xffffffffffffffff\n        /* \"#utility.yul\":7318:7324   */\n      dup2\n        /* \"#utility.yul\":7315:7345   */\n      gt\n        /* \"#utility.yul\":7312:7429   */\n      iszero\n      tag_148\n      jumpi\n        /* \"#utility.yul\":7348:7427   */\n      tag_149\n      tag_46\n      jump\t// in\n    tag_149:\n        /* \"#utility.yul\":7312:7429   */\n    tag_148:\n        /* \"#utility.yul\":7453:7516   */\n      tag_150\n        /* \"#utility.yul\":7508:7515   */\n      dup7\n        /* \"#utility.yul\":7499:7505   */\n      dup3\n        /* \"#utility.yul\":7488:7497   */\n      dup8\n        /* \"#utility.yul\":7484:7506   */\n      add\n        /* \"#utility.yul\":7453:7516   */\n      tag_60\n      jump\t// in\n    tag_150:\n        /* \"#utility.yul\":7443:7516   */\n      swap2\n      pop\n        /* \"#utility.yul\":7238:7526   */\n      pop\n        /* \"#utility.yul\":6554:7533   */\n      swap3\n      pop\n      swap3\n      pop\n      swap3\n      jump\t// out\n        /* \"#utility.yul\":7539:7657   */\n    tag_61:\n        /* \"#utility.yul\":7626:7650   */\n      tag_152\n        /* \"#utility.yul\":7644:7649   */\n      dup2\n        /* \"#utility.yul\":7626:7650   */\n      tag_47\n      jump\t// in\n    tag_152:\n        /* \"#utility.yul\":7621:7624   */\n      dup3\n        /* \"#utility.yul\":7614:7651   */\n      mstore\n        /* \"#utility.yul\":7539:7657   */\n      pop\n      pop\n      jump\t// out\n        /* \"#utility.yul\":7663:7759   */\n    tag_62:\n        /* \"#utility.yul\":7700:7707   */\n      0x00\n        /* \"#utility.yul\":7729:7753   */\n      tag_154\n        /* \"#utility.yul\":7747:7752   */\n      dup3\n        /* \"#utility.yul\":7729:7753   */\n      tag_35\n      jump\t// in\n    tag_154:\n        /* \"#utility.yul\":7718:7753   */\n      swap1\n      pop\n        /* \"#utility.yul\":7663:7759   */\n      swap2\n      swap1\n      pop\n      jump\t// out\n        /* \"#utility.yul\":7765:7883   */\n    tag_63:\n        /* \"#utility.yul\":7852:7876   */\n      tag_156\n        /* \"#utility.yul\":7870:7875   */\n      dup2\n        /* \"#utility.yul\":7852:7876   */\n      tag_62\n      jump\t// in\n    tag_156:\n        /* \"#utility.yul\":7847:7850   */\n      dup3\n        /* \"#utility.yul\":7840:7877   */\n      mstore\n        /* \"#utility.yul\":7765:7883   */\n      pop\n      pop\n      jump\t// out\n        /* \"#utility.yul\":7889:7988   */\n    tag_64:\n        /* \"#utility.yul\":7941:7947   */\n      0x00\n        /* \"#utility.yul\":7975:7980   */\n      dup2\n        /* \"#utility.yul\":7969:7981   */\n      mload\n        /* \"#utility.yul\":7959:7981   */\n      swap1\n      pop\n        /* \"#utility.yul\":7889:7988   */\n      swap2\n      swap1\n      pop\n      jump\t// out\n        /* \"#utility.yul\":7994:8163   */\n    tag_65:\n        /* \"#utility.yul\":8078:8089   */\n      0x00\n        /* \"#utility.yul\":8112:8118   */\n      dup3\n        /* \"#utility.yul\":8107:8110   */\n      dup3\n        /* \"#utility.yul\":8100:8119   */\n      mstore\n        /* \"#utility.yul\":8152:8156   */\n      0x20\n        /* \"#utility.yul\":8147:8150   */\n      dup3\n        /* \"#utility.yul\":8143:8157   */\n      add\n        /* \"#utility.yul\":8128:8157   */\n      swap1\n      pop\n        /* \"#utility.yul\":7994:8163   */\n      swap3\n      swap2\n      pop\n      pop\n      jump\t// out\n        /* \"#utility.yul\":8169:8476   */\n    tag_66:\n        /* \"#utility.yul\":8237:8238   */\n      0x00\n        /* \"#utility.yul\":8247:8360   */\n    tag_160:\n        /* \"#utility.yul\":8261:8267   */\n      dup4\n        /* \"#utility.yul\":8258:8259   */\n      dup2\n        /* \"#utility.yul\":8255:8268   */\n      lt\n        /* \"#utility.yul\":8247:8360   */\n      iszero\n      tag_162\n      jumpi\n        /* \"#utility.yul\":8346:8347   */\n      dup1\n        /* \"#utility.yul\":8341:8344   */\n      dup3\n        /* \"#utility.yul\":8337:8348   */\n      add\n        /* \"#utility.yul\":8331:8349   */\n      mload\n        /* \"#utility.yul\":8327:8328   */\n      dup2\n        /* \"#utility.yul\":8322:8325   */\n      dup5\n        /* \"#utility.yul\":8318:8329   */\n      add\n        /* \"#utility.yul\":8311:8350   */\n      mstore\n        /* \"#utility.yul\":8283:8285   */\n      0x20\n        /* \"#utility.yul\":8280:8281   */\n      dup2\n        /* \"#utility.yul\":8276:8286   */\n      add\n        /* \"#utility.yul\":8271:8286   */\n      swap1\n      pop\n        /* \"#utility.yul\":8247:8360   */\n      jump(tag_160)\n    tag_162:\n        /* \"#utility.yul\":8378:8384   */\n      dup4\n        /* \"#utility.yul\":8375:8376   */\n      dup2\n        /* \"#utility.yul\":8372:8385   */\n      gt\n        /* \"#utility.yul\":8369:8470   */\n      iszero\n      tag_163\n      jumpi\n        /* \"#utility.yul\":8458:8459   */\n      0x00\n        /* \"#utility.yul\":8449:8455   */\n      dup5\n        /* \"#utility.yul\":8444:8447   */\n      dup5\n        /* \"#utility.yul\":8440:8456   */\n      add\n        /* \"#utility.yul\":8433:8460   */\n      mstore\n        /* \"#utility.yul\":8369:8470   */\n    tag_163:\n        /* \"#utility.yul\":8218:8476   */\n      pop\n        /* \"#utility.yul\":8169:8476   */\n      pop\n      pop\n      pop\n      jump\t// out\n        /* \"#utility.yul\":8482:8846   */\n    tag_67:\n        /* \"#utility.yul\":8570:8573   */\n      0x00\n        /* \"#utility.yul\":8598:8637   */\n      tag_165\n        /* \"#utility.yul\":8631:8636   */\n      dup3\n        /* \"#utility.yul\":8598:8637   */\n      tag_64\n      jump\t// in\n    tag_165:\n        /* \"#utility.yul\":8653:8724   */\n      tag_166\n        /* \"#utility.yul\":8717:8723   */\n      dup2\n        /* \"#utility.yul\":8712:8715   */\n      dup6\n        /* \"#utility.yul\":8653:8724   */\n      tag_65\n      jump\t// in\n    tag_166:\n        /* \"#utility.yul\":8646:8724   */\n      swap4\n      pop\n        /* \"#utility.yul\":8733:8785   */\n      tag_167\n        /* \"#utility.yul\":8778:8784   */\n      dup2\n        /* \"#utility.yul\":8773:8776   */\n      dup6\n        /* \"#utility.yul\":8766:8770   */\n      0x20\n        /* \"#utility.yul\":8759:8764   */\n      dup7\n        /* \"#utility.yul\":8755:8771   */\n      add\n        /* \"#utility.yul\":8733:8785   */\n      tag_66\n      jump\t// in\n    tag_167:\n        /* \"#utility.yul\":8810:8839   */\n      tag_168\n        /* \"#utility.yul\":8832:8838   */\n      dup2\n        /* \"#utility.yul\":8810:8839   */\n      tag_53\n      jump\t// in\n    tag_168:\n        /* \"#utility.yul\":8805:8808   */\n      dup5\n        /* \"#utility.yul\":8801:8840   */\n      add\n        /* \"#utility.yul\":8794:8840   */\n      swap2\n      pop\n        /* \"#utility.yul\":8574:8846   */\n      pop\n        /* \"#utility.yul\":8482:8846   */\n      swap3\n      swap2\n      pop\n      pop\n      jump\t// out\n        /* \"#utility.yul\":8852:9587   */\n    tag_29:\n        /* \"#utility.yul\":9069:9073   */\n      0x00\n        /* \"#utility.yul\":9107:9110   */\n      0x80\n        /* \"#utility.yul\":9096:9105   */\n      dup3\n        /* \"#utility.yul\":9092:9111   */\n      add\n        /* \"#utility.yul\":9084:9111   */\n      swap1\n      pop\n        /* \"#utility.yul\":9121:9192   */\n      tag_170\n        /* \"#utility.yul\":9189:9190   */\n      0x00\n        /* \"#utility.yul\":9178:9187   */\n      dup4\n        /* \"#utility.yul\":9174:9191   */\n      add\n        /* \"#utility.yul\":9165:9171   */\n      dup8\n        /* \"#utility.yul\":9121:9192   */\n      tag_61\n      jump\t// in\n    tag_170:\n        /* \"#utility.yul\":9202:9274   */\n      tag_171\n        /* \"#utility.yul\":9270:9272   */\n      0x20\n        /* \"#utility.yul\":9259:9268   */\n      dup4\n        /* \"#utility.yul\":9255:9273   */\n      add\n        /* \"#utility.yul\":9246:9252   */\n      dup7\n        /* \"#utility.yul\":9202:9274   */\n      tag_63\n      jump\t// in\n    tag_171:\n        /* \"#utility.yul\":9321:9330   */\n      dup2\n        /* \"#utility.yul\":9315:9319   */\n      dup2\n        /* \"#utility.yul\":9311:9331   */\n      sub\n        /* \"#utility.yul\":9306:9308   */\n      0x40\n        /* \"#utility.yul\":9295:9304   */\n      dup4\n        /* \"#utility.yul\":9291:9309   */\n      add\n        /* \"#utility.yul\":9284:9332   */\n      mstore\n        /* \"#utility.yul\":9349:9427   */\n      tag_172\n        /* \"#utility.yul\":9422:9426   */\n      dup2\n        /* \"#utility.yul\":9413:9419   */\n      dup6\n        /* \"#utility.yul\":9349:9427   */\n      tag_67\n      jump\t// in\n    tag_172:\n        /* \"#utility.yul\":9341:9427   */\n      swap1\n      pop\n        /* \"#utility.yul\":9474:9483   */\n      dup2\n        /* \"#utility.yul\":9468:9472   */\n      dup2\n        /* \"#utility.yul\":9464:9484   */\n      sub\n        /* \"#utility.yul\":9459:9461   */\n      0x60\n        /* \"#utility.yul\":9448:9457   */\n      dup4\n        /* \"#utility.yul\":9444:9462   */\n      add\n        /* \"#utility.yul\":9437:9485   */\n      mstore\n        /* \"#utility.yul\":9502:9580   */\n      tag_173\n        /* \"#utility.yul\":9575:9579   */\n      dup2\n        /* \"#utility.yul\":9566:9572   */\n      dup5\n        /* \"#utility.yul\":9502:9580   */\n      tag_67\n      jump\t// in\n    tag_173:\n        /* \"#utility.yul\":9494:9580   */\n      swap1\n      pop\n        /* \"#utility.yul\":8852:9587   */\n      swap6\n      swap5\n      pop\n      pop\n      pop\n      pop\n      pop\n      jump\t// out\n    stop\n\n    sub_0: assembly {\n            /* \"campaing.sol\":485:2924  contract Campaing{... */\n          mstore(0x40, 0x80)\n            /* \"campaing.sol\":1192:1454  constructor(uint _min_contribution,address _manager,string memory _name,  string memory _description) {... */\n          callvalue\n          dup1\n          iszero\n          tag_1\n          jumpi\n          0x00\n          dup1\n          revert\n        tag_1:\n          pop\n          mload(0x40)\n          sub(codesize, bytecodeSize)\n          dup1\n          bytecodeSize\n          dup4\n          codecopy\n          dup2\n          dup2\n          add\n          0x40\n          mstore\n          dup2\n          add\n          swap1\n          tag_2\n          swap2\n          swap1\n          tag_3\n          jump\t// in\n        tag_2:\n            /* \"campaing.sol\":1319:1327  _manager */\n          dup3\n            /* \"campaing.sol\":1309:1316  manager */\n          0x04\n          0x00\n            /* \"campaing.sol\":1309:1327  manager = _manager */\n          0x0100\n          exp\n          dup2\n          sload\n          dup2\n          0xffffffffffffffffffffffffffffffffffffffff\n          mul\n          not\n          and\n          swap1\n          dup4\n          0xffffffffffffffffffffffffffffffffffffffff\n          and\n          mul\n          or\n          swap1\n          sstore\n          pop\n            /* \"campaing.sol\":1348:1353  _name */\n          dup2\n            /* \"campaing.sol\":1341:1345  name */\n          0x00\n            /* \"campaing.sol\":1341:1353  name = _name */\n          swap1\n          dup1\n          mload\n          swap1\n          0x20\n          add\n          swap1\n          tag_6\n          swap3\n          swap2\n          swap1\n          tag_7\n          jump\t// in\n        tag_6:\n          pop\n            /* \"campaing.sol\":1381:1393  _description */\n          dup1\n            /* \"campaing.sol\":1367:1378  description */\n          0x01\n            /* \"campaing.sol\":1367:1393  description = _description */\n          swap1\n          dup1\n          mload\n          swap1\n          0x20\n          add\n          swap1\n          tag_8\n          swap3\n          swap2\n          swap1\n          tag_7\n          jump\t// in\n        tag_8:\n          pop\n            /* \"campaing.sol\":1425:1442  _min_contribution */\n          dup4\n            /* \"campaing.sol\":1407:1422  minContribution */\n          0x05\n            /* \"campaing.sol\":1407:1442  minContribution = _min_contribution */\n          dup2\n          swap1\n          sstore\n          pop\n            /* \"campaing.sol\":1192:1454  constructor(uint _min_contribution,address _manager,string memory _name,  string memory _description) {... */\n          pop\n          pop\n          pop\n          pop\n            /* \"campaing.sol\":485:2924  contract Campaing{... */\n          jump(tag_9)\n        tag_7:\n          dup3\n          dup1\n          sload\n          tag_10\n          swap1\n          tag_11\n          jump\t// in\n        tag_10:\n          swap1\n          0x00\n          mstore\n          keccak256(0x00, 0x20)\n          swap1\n          0x1f\n          add\n          0x20\n          swap1\n          div\n          dup2\n          add\n          swap3\n          dup3\n          tag_13\n          jumpi\n          0x00\n          dup6\n          sstore\n          jump(tag_12)\n        tag_13:\n          dup3\n          0x1f\n          lt\n          tag_14\n          jumpi\n          dup1\n          mload\n          not(0xff)\n          and\n          dup4\n          dup1\n          add\n          or\n          dup6\n          sstore\n          jump(tag_12)\n        tag_14:\n          dup3\n          dup1\n          add\n          0x01\n          add\n          dup6\n          sstore\n          dup3\n          iszero\n          tag_12\n          jumpi\n          swap2\n          dup3\n          add\n        tag_15:\n          dup3\n          dup2\n          gt\n          iszero\n          tag_16\n          jumpi\n          dup3\n          mload\n          dup3\n          sstore\n          swap2\n          0x20\n          add\n          swap2\n          swap1\n          0x01\n          add\n          swap1\n          jump(tag_15)\n        tag_16:\n        tag_12:\n          pop\n          swap1\n          pop\n          tag_17\n          swap2\n          swap1\n          tag_18\n          jump\t// in\n        tag_17:\n          pop\n          swap1\n          jump\t// out\n        tag_18:\n        tag_19:\n          dup1\n          dup3\n          gt\n          iszero\n          tag_20\n          jumpi\n          0x00\n          dup2\n          0x00\n          swap1\n          sstore\n          pop\n          0x01\n          add\n          jump(tag_19)\n        tag_20:\n          pop\n          swap1\n          jump\t// out\n            /* \"#utility.yul\":7:82   */\n        tag_21:\n            /* \"#utility.yul\":40:46   */\n          0x00\n            /* \"#utility.yul\":73:75   */\n          0x40\n            /* \"#utility.yul\":67:76   */\n          mload\n            /* \"#utility.yul\":57:76   */\n          swap1\n          pop\n            /* \"#utility.yul\":7:82   */\n          swap1\n          jump\t// out\n            /* \"#utility.yul\":88:205   */\n        tag_22:\n            /* \"#utility.yul\":197:198   */\n          0x00\n            /* \"#utility.yul\":194:195   */\n          dup1\n            /* \"#utility.yul\":187:199   */\n          revert\n            /* \"#utility.yul\":211:328   */\n        tag_23:\n            /* \"#utility.yul\":320:321   */\n          0x00\n            /* \"#utility.yul\":317:318   */\n          dup1\n            /* \"#utility.yul\":310:322   */\n          revert\n            /* \"#utility.yul\":334:411   */\n        tag_24:\n            /* \"#utility.yul\":371:378   */\n          0x00\n            /* \"#utility.yul\":400:405   */\n          dup2\n            /* \"#utility.yul\":389:405   */\n          swap1\n          pop\n            /* \"#utility.yul\":334:411   */\n          swap2\n          swap1\n          pop\n          jump\t// out\n            /* \"#utility.yul\":417:539   */\n        tag_25:\n            /* \"#utility.yul\":490:514   */\n          tag_48\n            /* \"#utility.yul\":508:513   */\n          dup2\n            /* \"#utility.yul\":490:514   */\n          tag_24\n          jump\t// in\n        tag_48:\n            /* \"#utility.yul\":483:488   */\n          dup2\n            /* \"#utility.yul\":480:515   */\n          eq\n            /* \"#utility.yul\":470:533   */\n          tag_49\n          jumpi\n            /* \"#utility.yul\":529:530   */\n          0x00\n            /* \"#utility.yul\":526:527   */\n          dup1\n            /* \"#utility.yul\":519:531   */\n          revert\n            /* \"#utility.yul\":470:533   */\n        tag_49:\n            /* \"#utility.yul\":417:539   */\n          pop\n          jump\t// out\n            /* \"#utility.yul\":545:688   */\n        tag_26:\n            /* \"#utility.yul\":602:607   */\n          0x00\n            /* \"#utility.yul\":633:639   */\n          dup2\n            /* \"#utility.yul\":627:640   */\n          mload\n            /* \"#utility.yul\":618:640   */\n          swap1\n          pop\n            /* \"#utility.yul\":649:682   */\n          tag_51\n            /* \"#utility.yul\":676:681   */\n          dup2\n            /* \"#utility.yul\":649:682   */\n          tag_25\n          jump\t// in\n        tag_51:\n            /* \"#utility.yul\":545:688   */\n          swap3\n          swap2\n          pop\n          pop\n          jump\t// out\n            /* \"#utility.yul\":694:820   */\n        tag_27:\n            /* \"#utility.yul\":731:738   */\n          0x00\n            /* \"#utility.yul\":771:813   */\n          0xffffffffffffffffffffffffffffffffffffffff\n            /* \"#utility.yul\":764:769   */\n          dup3\n            /* \"#utility.yul\":760:814   */\n          and\n            /* \"#utility.yul\":749:814   */\n          swap1\n          pop\n            /* \"#utility.yul\":694:820   */\n          swap2\n          swap1\n          pop\n          jump\t// out\n            /* \"#utility.yul\":826:922   */\n        tag_28:\n            /* \"#utility.yul\":863:870   */\n          0x00\n            /* \"#utility.yul\":892:916   */\n          tag_54\n            /* \"#utility.yul\":910:915   */\n          dup3\n            /* \"#utility.yul\":892:916   */\n          tag_27\n          jump\t// in\n        tag_54:\n            /* \"#utility.yul\":881:916   */\n          swap1\n          pop\n            /* \"#utility.yul\":826:922   */\n          swap2\n          swap1\n          pop\n          jump\t// out\n            /* \"#utility.yul\":928:1050   */\n        tag_29:\n            /* \"#utility.yul\":1001:1025   */\n          tag_56\n            /* \"#utility.yul\":1019:1024   */\n          dup2\n            /* \"#utility.yul\":1001:1025   */\n          tag_28\n          jump\t// in\n        tag_56:\n            /* \"#utility.yul\":994:999   */\n          dup2\n            /* \"#utility.yul\":991:1026   */\n          eq\n            /* \"#utility.yul\":981:1044   */\n          tag_57\n          jumpi\n            /* \"#utility.yul\":1040:1041   */\n          0x00\n            /* \"#utility.yul\":1037:1038   */\n          dup1\n            /* \"#utility.yul\":1030:1042   */\n          revert\n            /* \"#utility.yul\":981:1044   */\n        tag_57:\n            /* \"#utility.yul\":928:1050   */\n          pop\n          jump\t// out\n            /* \"#utility.yul\":1056:1199   */\n        tag_30:\n            /* \"#utility.yul\":1113:1118   */\n          0x00\n            /* \"#utility.yul\":1144:1150   */\n          dup2\n            /* \"#utility.yul\":1138:1151   */\n          mload\n            /* \"#utility.yul\":1129:1151   */\n          swap1\n          pop\n            /* \"#utility.yul\":1160:1193   */\n          tag_59\n            /* \"#utility.yul\":1187:1192   */\n          dup2\n            /* \"#utility.yul\":1160:1193   */\n          tag_29\n          jump\t// in\n        tag_59:\n            /* \"#utility.yul\":1056:1199   */\n          swap3\n          swap2\n          pop\n          pop\n          jump\t// out\n            /* \"#utility.yul\":1205:1322   */\n        tag_31:\n            /* \"#utility.yul\":1314:1315   */\n          0x00\n            /* \"#utility.yul\":1311:1312   */\n          dup1\n            /* \"#utility.yul\":1304:1316   */\n          revert\n            /* \"#utility.yul\":1328:1445   */\n        tag_32:\n            /* \"#utility.yul\":1437:1438   */\n          0x00\n            /* \"#utility.yul\":1434:1435   */\n          dup1\n            /* \"#utility.yul\":1427:1439   */\n          revert\n            /* \"#utility.yul\":1451:1553   */\n        tag_33:\n            /* \"#utility.yul\":1492:1498   */\n          0x00\n            /* \"#utility.yul\":1543:1545   */\n          0x1f\n            /* \"#utility.yul\":1539:1546   */\n          not\n            /* \"#utility.yul\":1534:1536   */\n          0x1f\n            /* \"#utility.yul\":1527:1532   */\n          dup4\n            /* \"#utility.yul\":1523:1537   */\n          add\n            /* \"#utility.yul\":1519:1547   */\n          and\n            /* \"#utility.yul\":1509:1547   */\n          swap1\n          pop\n            /* \"#utility.yul\":1451:1553   */\n          swap2\n          swap1\n          pop\n          jump\t// out\n            /* \"#utility.yul\":1559:1739   */\n        tag_34:\n            /* \"#utility.yul\":1607:1684   */\n          0x4e487b7100000000000000000000000000000000000000000000000000000000\n            /* \"#utility.yul\":1604:1605   */\n          0x00\n            /* \"#utility.yul\":1597:1685   */\n          mstore\n            /* \"#utility.yul\":1704:1708   */\n          0x41\n            /* \"#utility.yul\":1701:1702   */\n          0x04\n            /* \"#utility.yul\":1694:1709   */\n          mstore\n            /* \"#utility.yul\":1728:1732   */\n          0x24\n            /* \"#utility.yul\":1725:1726   */\n          0x00\n            /* \"#utility.yul\":1718:1733   */\n          revert\n            /* \"#utility.yul\":1745:2026   */\n        tag_35:\n            /* \"#utility.yul\":1828:1855   */\n          tag_65\n            /* \"#utility.yul\":1850:1854   */\n          dup3\n            /* \"#utility.yul\":1828:1855   */\n          tag_33\n          jump\t// in\n        tag_65:\n            /* \"#utility.yul\":1820:1826   */\n          dup2\n            /* \"#utility.yul\":1816:1856   */\n          add\n            /* \"#utility.yul\":1958:1964   */\n          dup2\n            /* \"#utility.yul\":1946:1956   */\n          dup2\n            /* \"#utility.yul\":1943:1965   */\n          lt\n            /* \"#utility.yul\":1922:1940   */\n          0xffffffffffffffff\n            /* \"#utility.yul\":1910:1920   */\n          dup3\n            /* \"#utility.yul\":1907:1941   */\n          gt\n            /* \"#utility.yul\":1904:1966   */\n          or\n            /* \"#utility.yul\":1901:1989   */\n          iszero\n          tag_66\n          jumpi\n            /* \"#utility.yul\":1969:1987   */\n          tag_67\n          tag_34\n          jump\t// in\n        tag_67:\n            /* \"#utility.yul\":1901:1989   */\n        tag_66:\n            /* \"#utility.yul\":2009:2019   */\n          dup1\n            /* \"#utility.yul\":2005:2007   */\n          0x40\n            /* \"#utility.yul\":1998:2020   */\n          mstore\n            /* \"#utility.yul\":1788:2026   */\n          pop\n            /* \"#utility.yul\":1745:2026   */\n          pop\n          pop\n          jump\t// out\n            /* \"#utility.yul\":2032:2161   */\n        tag_36:\n            /* \"#utility.yul\":2066:2072   */\n          0x00\n            /* \"#utility.yul\":2093:2113   */\n          tag_69\n          tag_21\n          jump\t// in\n        tag_69:\n            /* \"#utility.yul\":2083:2113   */\n          swap1\n          pop\n            /* \"#utility.yul\":2122:2155   */\n          tag_70\n            /* \"#utility.yul\":2150:2154   */\n          dup3\n            /* \"#utility.yul\":2142:2148   */\n          dup3\n            /* \"#utility.yul\":2122:2155   */\n          tag_35\n          jump\t// in\n        tag_70:\n            /* \"#utility.yul\":2032:2161   */\n          swap2\n          swap1\n          pop\n          jump\t// out\n            /* \"#utility.yul\":2167:2475   */\n        tag_37:\n            /* \"#utility.yul\":2229:2233   */\n          0x00\n            /* \"#utility.yul\":2319:2337   */\n          0xffffffffffffffff\n            /* \"#utility.yul\":2311:2317   */\n          dup3\n            /* \"#utility.yul\":2308:2338   */\n          gt\n            /* \"#utility.yul\":2305:2361   */\n          iszero\n          tag_72\n          jumpi\n            /* \"#utility.yul\":2341:2359   */\n          tag_73\n          tag_34\n          jump\t// in\n        tag_73:\n            /* \"#utility.yul\":2305:2361   */\n        tag_72:\n            /* \"#utility.yul\":2379:2408   */\n          tag_74\n            /* \"#utility.yul\":2401:2407   */\n          dup3\n            /* \"#utility.yul\":2379:2408   */\n          tag_33\n          jump\t// in\n        tag_74:\n            /* \"#utility.yul\":2371:2408   */\n          swap1\n          pop\n            /* \"#utility.yul\":2463:2467   */\n          0x20\n            /* \"#utility.yul\":2457:2461   */\n          dup2\n            /* \"#utility.yul\":2453:2468   */\n          add\n            /* \"#utility.yul\":2445:2468   */\n          swap1\n          pop\n            /* \"#utility.yul\":2167:2475   */\n          swap2\n          swap1\n          pop\n          jump\t// out\n            /* \"#utility.yul\":2481:2788   */\n        tag_38:\n            /* \"#utility.yul\":2549:2550   */\n          0x00\n            /* \"#utility.yul\":2559:2672   */\n        tag_76:\n            /* \"#utility.yul\":2573:2579   */\n          dup4\n            /* \"#utility.yul\":2570:2571   */\n          dup2\n            /* \"#utility.yul\":2567:2580   */\n          lt\n            /* \"#utility.yul\":2559:2672   */\n          iszero\n          tag_78\n          jumpi\n            /* \"#utility.yul\":2658:2659   */\n          dup1\n            /* \"#utility.yul\":2653:2656   */\n          dup3\n            /* \"#utility.yul\":2649:2660   */\n          add\n            /* \"#utility.yul\":2643:2661   */\n          mload\n            /* \"#utility.yul\":2639:2640   */\n          dup2\n            /* \"#utility.yul\":2634:2637   */\n          dup5\n            /* \"#utility.yul\":2630:2641   */\n          add\n            /* \"#utility.yul\":2623:2662   */\n          mstore\n            /* \"#utility.yul\":2595:2597   */\n          0x20\n            /* \"#utility.yul\":2592:2593   */\n          dup2\n            /* \"#utility.yul\":2588:2598   */\n          add\n            /* \"#utility.yul\":2583:2598   */\n          swap1\n          pop\n            /* \"#utility.yul\":2559:2672   */\n          jump(tag_76)\n        tag_78:\n            /* \"#utility.yul\":2690:2696   */\n          dup4\n            /* \"#utility.yul\":2687:2688   */\n          dup2\n            /* \"#utility.yul\":2684:2697   */\n          gt\n            /* \"#utility.yul\":2681:2782   */\n          iszero\n          tag_79\n          jumpi\n            /* \"#utility.yul\":2770:2771   */\n          0x00\n            /* \"#utility.yul\":2761:2767   */\n          dup5\n            /* \"#utility.yul\":2756:2759   */\n          dup5\n            /* \"#utility.yul\":2752:2768   */\n          add\n            /* \"#utility.yul\":2745:2772   */\n          mstore\n            /* \"#utility.yul\":2681:2782   */\n        tag_79:\n            /* \"#utility.yul\":2530:2788   */\n          pop\n            /* \"#utility.yul\":2481:2788   */\n          pop\n          pop\n          pop\n          jump\t// out\n            /* \"#utility.yul\":2794:3215   */\n        tag_39:\n            /* \"#utility.yul\":2883:2888   */\n          0x00\n            /* \"#utility.yul\":2908:2974   */\n          tag_81\n            /* \"#utility.yul\":2924:2973   */\n          tag_82\n            /* \"#utility.yul\":2966:2972   */\n          dup5\n            /* \"#utility.yul\":2924:2973   */\n          tag_37\n          jump\t// in\n        tag_82:\n            /* \"#utility.yul\":2908:2974   */\n          tag_36\n          jump\t// in\n        tag_81:\n            /* \"#utility.yul\":2899:2974   */\n          swap1\n          pop\n            /* \"#utility.yul\":2997:3003   */\n          dup3\n            /* \"#utility.yul\":2990:2995   */\n          dup2\n            /* \"#utility.yul\":2983:3004   */\n          mstore\n            /* \"#utility.yul\":3035:3039   */\n          0x20\n            /* \"#utility.yul\":3028:3033   */\n          dup2\n            /* \"#utility.yul\":3024:3040   */\n          add\n            /* \"#utility.yul\":3073:3076   */\n          dup5\n            /* \"#utility.yul\":3064:3070   */\n          dup5\n            /* \"#utility.yul\":3059:3062   */\n          dup5\n            /* \"#utility.yul\":3055:3071   */\n          add\n            /* \"#utility.yul\":3052:3077   */\n          gt\n            /* \"#utility.yul\":3049:3161   */\n          iszero\n          tag_83\n          jumpi\n            /* \"#utility.yul\":3080:3159   */\n          tag_84\n          tag_32\n          jump\t// in\n        tag_84:\n            /* \"#utility.yul\":3049:3161   */\n        tag_83:\n            /* \"#utility.yul\":3170:3209   */\n          tag_85\n            /* \"#utility.yul\":3202:3208   */\n          dup5\n            /* \"#utility.yul\":3197:3200   */\n          dup3\n            /* \"#utility.yul\":3192:3195   */\n          dup6\n            /* \"#utility.yul\":3170:3209   */\n          tag_38\n          jump\t// in\n        tag_85:\n            /* \"#utility.yul\":2889:3215   */\n          pop\n            /* \"#utility.yul\":2794:3215   */\n          swap4\n          swap3\n          pop\n          pop\n          pop\n          jump\t// out\n            /* \"#utility.yul\":3235:3590   */\n        tag_40:\n            /* \"#utility.yul\":3302:3307   */\n          0x00\n            /* \"#utility.yul\":3351:3354   */\n          dup3\n            /* \"#utility.yul\":3344:3348   */\n          0x1f\n            /* \"#utility.yul\":3336:3342   */\n          dup4\n            /* \"#utility.yul\":3332:3349   */\n          add\n            /* \"#utility.yul\":3328:3355   */\n          slt\n            /* \"#utility.yul\":3318:3440   */\n          tag_87\n          jumpi\n            /* \"#utility.yul\":3359:3438   */\n          tag_88\n          tag_31\n          jump\t// in\n        tag_88:\n            /* \"#utility.yul\":3318:3440   */\n        tag_87:\n            /* \"#utility.yul\":3469:3475   */\n          dup2\n            /* \"#utility.yul\":3463:3476   */\n          mload\n            /* \"#utility.yul\":3494:3584   */\n          tag_89\n            /* \"#utility.yul\":3580:3583   */\n          dup5\n            /* \"#utility.yul\":3572:3578   */\n          dup3\n            /* \"#utility.yul\":3565:3569   */\n          0x20\n            /* \"#utility.yul\":3557:3563   */\n          dup7\n            /* \"#utility.yul\":3553:3570   */\n          add\n            /* \"#utility.yul\":3494:3584   */\n          tag_39\n          jump\t// in\n        tag_89:\n            /* \"#utility.yul\":3485:3584   */\n          swap2\n          pop\n            /* \"#utility.yul\":3308:3590   */\n          pop\n            /* \"#utility.yul\":3235:3590   */\n          swap3\n          swap2\n          pop\n          pop\n          jump\t// out\n            /* \"#utility.yul\":3596:4762   */\n        tag_3:\n            /* \"#utility.yul\":3713:3719   */\n          0x00\n            /* \"#utility.yul\":3721:3727   */\n          dup1\n            /* \"#utility.yul\":3729:3735   */\n          0x00\n            /* \"#utility.yul\":3737:3743   */\n          dup1\n            /* \"#utility.yul\":3786:3789   */\n          0x80\n            /* \"#utility.yul\":3774:3783   */\n          dup6\n            /* \"#utility.yul\":3765:3772   */\n          dup8\n            /* \"#utility.yul\":3761:3784   */\n          sub\n            /* \"#utility.yul\":3757:3790   */\n          slt\n            /* \"#utility.yul\":3754:3874   */\n          iszero\n          tag_91\n          jumpi\n            /* \"#utility.yul\":3793:3872   */\n          tag_92\n          tag_22\n          jump\t// in\n        tag_92:\n            /* \"#utility.yul\":3754:3874   */\n        tag_91:\n            /* \"#utility.yul\":3913:3914   */\n          0x00\n            /* \"#utility.yul\":3938:4002   */\n          tag_93\n            /* \"#utility.yul\":3994:4001   */\n          dup8\n            /* \"#utility.yul\":3985:3991   */\n          dup3\n            /* \"#utility.yul\":3974:3983   */\n          dup9\n            /* \"#utility.yul\":3970:3992   */\n          add\n            /* \"#utility.yul\":3938:4002   */\n          tag_26\n          jump\t// in\n        tag_93:\n            /* \"#utility.yul\":3928:4002   */\n          swap5\n          pop\n            /* \"#utility.yul\":3884:4012   */\n          pop\n            /* \"#utility.yul\":4051:4053   */\n          0x20\n            /* \"#utility.yul\":4077:4141   */\n          tag_94\n            /* \"#utility.yul\":4133:4140   */\n          dup8\n            /* \"#utility.yul\":4124:4130   */\n          dup3\n            /* \"#utility.yul\":4113:4122   */\n          dup9\n            /* \"#utility.yul\":4109:4131   */\n          add\n            /* \"#utility.yul\":4077:4141   */\n          tag_30\n          jump\t// in\n        tag_94:\n            /* \"#utility.yul\":4067:4141   */\n          swap4\n          pop\n            /* \"#utility.yul\":4022:4151   */\n          pop\n            /* \"#utility.yul\":4211:4213   */\n          0x40\n            /* \"#utility.yul\":4200:4209   */\n          dup6\n            /* \"#utility.yul\":4196:4214   */\n          add\n            /* \"#utility.yul\":4190:4215   */\n          mload\n            /* \"#utility.yul\":4242:4260   */\n          0xffffffffffffffff\n            /* \"#utility.yul\":4234:4240   */\n          dup2\n            /* \"#utility.yul\":4231:4261   */\n          gt\n            /* \"#utility.yul\":4228:4345   */\n          iszero\n          tag_95\n          jumpi\n            /* \"#utility.yul\":4264:4343   */\n          tag_96\n          tag_23\n          jump\t// in\n        tag_96:\n            /* \"#utility.yul\":4228:4345   */\n        tag_95:\n            /* \"#utility.yul\":4369:4443   */\n          tag_97\n            /* \"#utility.yul\":4435:4442   */\n          dup8\n            /* \"#utility.yul\":4426:4432   */\n          dup3\n            /* \"#utility.yul\":4415:4424   */\n          dup9\n            /* \"#utility.yul\":4411:4433   */\n          add\n            /* \"#utility.yul\":4369:4443   */\n          tag_40\n          jump\t// in\n        tag_97:\n            /* \"#utility.yul\":4359:4443   */\n          swap3\n          pop\n            /* \"#utility.yul\":4161:4453   */\n          pop\n            /* \"#utility.yul\":4513:4515   */\n          0x60\n            /* \"#utility.yul\":4502:4511   */\n          dup6\n            /* \"#utility.yul\":4498:4516   */\n          add\n            /* \"#utility.yul\":4492:4517   */\n          mload\n            /* \"#utility.yul\":4544:4562   */\n          0xffffffffffffffff\n            /* \"#utility.yul\":4536:4542   */\n          dup2\n            /* \"#utility.yul\":4533:4563   */\n          gt\n            /* \"#utility.yul\":4530:4647   */\n          iszero\n          tag_98\n          jumpi\n            /* \"#utility.yul\":4566:4645   */\n          tag_99\n          tag_23\n          jump\t// in\n        tag_99:\n            /* \"#utility.yul\":4530:4647   */\n        tag_98:\n            /* \"#utility.yul\":4671:4745   */\n          tag_100\n            /* \"#utility.yul\":4737:4744   */\n          dup8\n            /* \"#utility.yul\":4728:4734   */\n          dup3\n            /* \"#utility.yul\":4717:4726   */\n          dup9\n            /* \"#utility.yul\":4713:4735   */\n          add\n            /* \"#utility.yul\":4671:4745   */\n          tag_40\n          jump\t// in\n        tag_100:\n            /* \"#utility.yul\":4661:4745   */\n          swap2\n          pop\n            /* \"#utility.yul\":4463:4755   */\n          pop\n            /* \"#utility.yul\":3596:4762   */\n          swap3\n          swap6\n          swap2\n          swap5\n          pop\n          swap3\n          pop\n          jump\t// out\n            /* \"#utility.yul\":4768:4948   */\n        tag_41:\n            /* \"#utility.yul\":4816:4893   */\n          0x4e487b7100000000000000000000000000000000000000000000000000000000\n            /* \"#utility.yul\":4813:4814   */\n          0x00\n            /* \"#utility.yul\":4806:4894   */\n          mstore\n            /* \"#utility.yul\":4913:4917   */\n          0x22\n            /* \"#utility.yul\":4910:4911   */\n          0x04\n            /* \"#utility.yul\":4903:4918   */\n          mstore\n            /* \"#utility.yul\":4937:4941   */\n          0x24\n            /* \"#utility.yul\":4934:4935   */\n          0x00\n            /* \"#utility.yul\":4927:4942   */\n          revert\n            /* \"#utility.yul\":4954:5274   */\n        tag_11:\n            /* \"#utility.yul\":4998:5004   */\n          0x00\n            /* \"#utility.yul\":5035:5036   */\n          0x02\n            /* \"#utility.yul\":5029:5033   */\n          dup3\n            /* \"#utility.yul\":5025:5037   */\n          div\n            /* \"#utility.yul\":5015:5037   */\n          swap1\n          pop\n            /* \"#utility.yul\":5082:5083   */\n          0x01\n            /* \"#utility.yul\":5076:5080   */\n          dup3\n            /* \"#utility.yul\":5072:5084   */\n          and\n            /* \"#utility.yul\":5103:5121   */\n          dup1\n            /* \"#utility.yul\":5093:5174   */\n          tag_103\n          jumpi\n            /* \"#utility.yul\":5159:5163   */\n          0x7f\n            /* \"#utility.yul\":5151:5157   */\n          dup3\n            /* \"#utility.yul\":5147:5164   */\n          and\n            /* \"#utility.yul\":5137:5164   */\n          swap2\n          pop\n            /* \"#utility.yul\":5093:5174   */\n        tag_103:\n            /* \"#utility.yul\":5221:5223   */\n          0x20\n            /* \"#utility.yul\":5213:5219   */\n          dup3\n            /* \"#utility.yul\":5210:5224   */\n          lt\n            /* \"#utility.yul\":5190:5208   */\n          dup2\n            /* \"#utility.yul\":5187:5225   */\n          eq\n            /* \"#utility.yul\":5184:5268   */\n          iszero\n          tag_104\n          jumpi\n            /* \"#utility.yul\":5240:5258   */\n          tag_105\n          tag_41\n          jump\t// in\n        tag_105:\n            /* \"#utility.yul\":5184:5268   */\n        tag_104:\n            /* \"#utility.yul\":5005:5274   */\n          pop\n            /* \"#utility.yul\":4954:5274   */\n          swap2\n          swap1\n          pop\n          jump\t// out\n            /* \"campaing.sol\":485:2924  contract Campaing{... */\n        tag_9:\n          dataSize(sub_0)\n          dup1\n          dataOffset(sub_0)\n          0x00\n          codecopy\n          0x00\n          return\n        stop\n\n        sub_0: assembly {\n                /* \"campaing.sol\":485:2924  contract Campaing{... */\n              mstore(0x40, 0x80)\n              jumpi(tag_1, lt(calldatasize, 0x04))\n              shr(0xe0, calldataload(0x00))\n              dup1\n              0x481c6a75\n              gt\n              tag_13\n              jumpi\n              dup1\n              0x481c6a75\n              eq\n              tag_7\n              jumpi\n              dup1\n              0x7284e416\n              eq\n              tag_8\n              jumpi\n              dup1\n              0x75f66b77\n              eq\n              tag_9\n              jumpi\n              dup1\n              0x81d12c58\n              eq\n              tag_10\n              jumpi\n              dup1\n              0xaaffadf3\n              eq\n              tag_11\n              jumpi\n              dup1\n              0xd7bb99ba\n              eq\n              tag_12\n              jumpi\n              jump(tag_1)\n            tag_13:\n              dup1\n              0x06fdde03\n              eq\n              tag_2\n              jumpi\n              dup1\n              0x0a144391\n              eq\n              tag_3\n              jumpi\n              dup1\n              0x0bfd66c9\n              eq\n              tag_4\n              jumpi\n              dup1\n              0x0fe19d75\n              eq\n              tag_5\n              jumpi\n              dup1\n              0x12065fe0\n              eq\n              tag_6\n              jumpi\n            tag_1:\n              0x00\n              dup1\n              revert\n                /* \"campaing.sol\":800:832  string    public            name */\n            tag_2:\n              callvalue\n              dup1\n              iszero\n              tag_14\n              jumpi\n              0x00\n              dup1\n              revert\n            tag_14:\n              pop\n              tag_15\n              tag_16\n              jump\t// in\n            tag_15:\n              mload(0x40)\n              tag_17\n              swap2\n              swap1\n              tag_18\n              jump\t// in\n            tag_17:\n              mload(0x40)\n              dup1\n              swap2\n              sub\n              swap1\n              return\n                /* \"campaing.sol\":1136:1181  mapping(address => bool) public     approvers */\n            tag_3:\n              callvalue\n              dup1\n              iszero\n              tag_19\n              jumpi\n              0x00\n              dup1\n              revert\n            tag_19:\n              pop\n              tag_20\n              0x04\n              dup1\n              calldatasize\n              sub\n              dup2\n              add\n              swap1\n              tag_21\n              swap2\n              swap1\n              tag_22\n              jump\t// in\n            tag_21:\n              tag_23\n              jump\t// in\n            tag_20:\n              mload(0x40)\n              tag_24\n              swap2\n              swap1\n              tag_25\n              jump\t// in\n            tag_24:\n              mload(0x40)\n              dup1\n              swap2\n              sub\n              swap1\n              return\n                /* \"campaing.sol\":1855:2309  function makeRequest(string memory _description, uint  _value,address  _recipent) public restircted{... */\n            tag_4:\n              callvalue\n              dup1\n              iszero\n              tag_26\n              jumpi\n              0x00\n              dup1\n              revert\n            tag_26:\n              pop\n              tag_27\n              0x04\n              dup1\n              calldatasize\n              sub\n              dup2\n              add\n              swap1\n              tag_28\n              swap2\n              swap1\n              tag_29\n              jump\t// in\n            tag_28:\n              tag_30\n              jump\t// in\n            tag_27:\n              stop\n                /* \"campaing.sol\":891:932  uint      public           count_requests */\n            tag_5:\n              callvalue\n              dup1\n              iszero\n              tag_31\n              jumpi\n              0x00\n              dup1\n              revert\n            tag_31:\n              pop\n              tag_32\n              tag_33\n              jump\t// in\n            tag_32:\n              mload(0x40)\n              tag_34\n              swap2\n              swap1\n              tag_35\n              jump\t// in\n            tag_34:\n              mload(0x40)\n              dup1\n              swap2\n              sub\n              swap1\n              return\n                /* \"campaing.sol\":1745:1845  function getBalance() public view returns(uint){... */\n            tag_6:\n              callvalue\n              dup1\n              iszero\n              tag_36\n              jumpi\n              0x00\n              dup1\n              revert\n            tag_36:\n              pop\n              tag_37\n              tag_38\n              jump\t// in\n            tag_37:\n              mload(0x40)\n              tag_39\n              swap2\n              swap1\n              tag_35\n              jump\t// in\n            tag_39:\n              mload(0x40)\n              dup1\n              swap2\n              sub\n              swap1\n              return\n                /* \"campaing.sol\":992:1027  address   public            manager */\n            tag_7:\n              callvalue\n              dup1\n              iszero\n              tag_40\n              jumpi\n              0x00\n              dup1\n              revert\n            tag_40:\n              pop\n              tag_41\n              tag_42\n              jump\t// in\n            tag_41:\n              mload(0x40)\n              tag_43\n              swap2\n              swap1\n              tag_44\n              jump\t// in\n            tag_43:\n              mload(0x40)\n              dup1\n              swap2\n              sub\n              swap1\n              return\n                /* \"campaing.sol\":842:881  string    public            description */\n            tag_8:\n              callvalue\n              dup1\n              iszero\n              tag_45\n              jumpi\n              0x00\n              dup1\n              revert\n            tag_45:\n              pop\n              tag_46\n              tag_47\n              jump\t// in\n            tag_46:\n              mload(0x40)\n              tag_48\n              swap2\n              swap1\n              tag_18\n              jump\t// in\n            tag_48:\n              mload(0x40)\n              dup1\n              swap2\n              sub\n              swap1\n              return\n                /* \"campaing.sol\":2319:2917  function aproveRequest(uint id,bool vote) public  {... */\n            tag_9:\n              callvalue\n              dup1\n              iszero\n              tag_49\n              jumpi\n              0x00\n              dup1\n              revert\n            tag_49:\n              pop\n              tag_50\n              0x04\n              dup1\n              calldatasize\n              sub\n              dup2\n              add\n              swap1\n              tag_51\n              swap2\n              swap1\n              tag_52\n              jump\t// in\n            tag_51:\n              tag_53\n              jump\t// in\n            tag_50:\n              stop\n                /* \"campaing.sol\":1090:1126  Request[] public            requests */\n            tag_10:\n              callvalue\n              dup1\n              iszero\n              tag_54\n              jumpi\n              0x00\n              dup1\n              revert\n            tag_54:\n              pop\n              tag_55\n              0x04\n              dup1\n              calldatasize\n              sub\n              dup2\n              add\n              swap1\n              tag_56\n              swap2\n              swap1\n              tag_57\n              jump\t// in\n            tag_56:\n              tag_58\n              jump\t// in\n            tag_55:\n              mload(0x40)\n              tag_59\n              swap7\n              swap6\n              swap5\n              swap4\n              swap3\n              swap2\n              swap1\n              tag_60\n              jump\t// in\n            tag_59:\n              mload(0x40)\n              dup1\n              swap2\n              sub\n              swap1\n              return\n                /* \"campaing.sol\":1037:1080  uint      public            minContribution */\n            tag_11:\n              callvalue\n              dup1\n              iszero\n              tag_61\n              jumpi\n              0x00\n              dup1\n              revert\n            tag_61:\n              pop\n              tag_62\n              tag_63\n              jump\t// in\n            tag_62:\n              mload(0x40)\n              tag_64\n              swap2\n              swap1\n              tag_35\n              jump\t// in\n            tag_64:\n              mload(0x40)\n              dup1\n              swap2\n              sub\n              swap1\n              return\n                /* \"campaing.sol\":1566:1735  function contribute() public payable {... */\n            tag_12:\n              tag_65\n              tag_66\n              jump\t// in\n            tag_65:\n              stop\n                /* \"campaing.sol\":800:832  string    public            name */\n            tag_16:\n              0x00\n              dup1\n              sload\n              tag_67\n              swap1\n              tag_68\n              jump\t// in\n            tag_67:\n              dup1\n              0x1f\n              add\n              0x20\n              dup1\n              swap2\n              div\n              mul\n              0x20\n              add\n              mload(0x40)\n              swap1\n              dup2\n              add\n              0x40\n              mstore\n              dup1\n              swap3\n              swap2\n              swap1\n              dup2\n              dup2\n              mstore\n              0x20\n              add\n              dup3\n              dup1\n              sload\n              tag_69\n              swap1\n              tag_68\n              jump\t// in\n            tag_69:\n              dup1\n              iszero\n              tag_70\n              jumpi\n              dup1\n              0x1f\n              lt\n              tag_71\n              jumpi\n              0x0100\n              dup1\n              dup4\n              sload\n              div\n              mul\n              dup4\n              mstore\n              swap2\n              0x20\n              add\n              swap2\n              jump(tag_70)\n            tag_71:\n              dup3\n              add\n              swap2\n              swap1\n              0x00\n              mstore\n              keccak256(0x00, 0x20)\n              swap1\n            tag_72:\n              dup2\n              sload\n              dup2\n              mstore\n              swap1\n              0x01\n              add\n              swap1\n              0x20\n              add\n              dup1\n              dup4\n              gt\n              tag_72\n              jumpi\n              dup3\n              swap1\n              sub\n              0x1f\n              and\n              dup3\n              add\n              swap2\n            tag_70:\n              pop\n              pop\n              pop\n              pop\n              pop\n              dup2\n              jump\t// out\n                /* \"campaing.sol\":1136:1181  mapping(address => bool) public     approvers */\n            tag_23:\n              mstore(0x20, 0x07)\n              dup1\n              0x00\n              mstore\n              keccak256(0x00, 0x40)\n              0x00\n              swap2\n              pop\n              sload\n              swap1\n              0x0100\n              exp\n              swap1\n              div\n              0xff\n              and\n              dup2\n              jump\t// out\n                /* \"campaing.sol\":1855:2309  function makeRequest(string memory _description, uint  _value,address  _recipent) public restircted{... */\n            tag_30:\n                /* \"campaing.sol\":1522:1529  manager */\n              0x04\n              0x00\n              swap1\n              sload\n              swap1\n              0x0100\n              exp\n              swap1\n              div\n              0xffffffffffffffffffffffffffffffffffffffff\n              and\n                /* \"campaing.sol\":1508:1529  msg.sender == manager */\n              0xffffffffffffffffffffffffffffffffffffffff\n              and\n                /* \"campaing.sol\":1508:1518  msg.sender */\n              caller\n                /* \"campaing.sol\":1508:1529  msg.sender == manager */\n              0xffffffffffffffffffffffffffffffffffffffff\n              and\n              eq\n                /* \"campaing.sol\":1500:1530  require(msg.sender == manager) */\n              tag_74\n              jumpi\n              0x00\n              dup1\n              revert\n            tag_74:\n                /* \"campaing.sol\":1986:1987  1 */\n              0x01\n                /* \"campaing.sol\":1968:1982  count_requests */\n              0x02\n              0x00\n                /* \"campaing.sol\":1968:1987  count_requests += 1 */\n              dup3\n              dup3\n              sload\n              tag_76\n              swap2\n              swap1\n              tag_77\n              jump\t// in\n            tag_76:\n              swap3\n              pop\n              pop\n              dup2\n              swap1\n              sstore\n              pop\n                /* \"campaing.sol\":2018:2039  address(this).balance */\n              selfbalance\n                /* \"campaing.sol\":2009:2015  _value */\n              dup3\n                /* \"campaing.sol\":2009:2039  _value < address(this).balance */\n              lt\n                /* \"campaing.sol\":2001:2040  require(_value < address(this).balance) */\n              tag_78\n              jumpi\n              0x00\n              dup1\n              revert\n            tag_78:\n                /* \"campaing.sol\":2054:2071  Request storage r */\n              0x00\n                /* \"campaing.sol\":2075:2083  requests */\n              0x06\n                /* \"campaing.sol\":2075:2090  requests.push() */\n              0x01\n              dup2\n              0x01\n              dup2\n              sload\n              add\n              dup1\n              dup3\n              sstore\n              dup1\n              swap2\n              pop\n              pop\n              sub\n              swap1\n              0x00\n              mstore\n              keccak256(0x00, 0x20)\n              swap1\n              0x07\n              mul\n              add\n                /* \"campaing.sol\":2054:2090  Request storage r  = requests.push() */\n              swap1\n              pop\n                /* \"campaing.sol\":2111:2125  count_requests */\n              sload(0x02)\n                /* \"campaing.sol\":2104:2105  r */\n              dup2\n                /* \"campaing.sol\":2104:2108  r.id */\n              0x00\n              add\n                /* \"campaing.sol\":2104:2125  r.id = count_requests */\n              dup2\n              swap1\n              sstore\n              pop\n                /* \"campaing.sol\":2156:2168  _description */\n              dup4\n                /* \"campaing.sol\":2139:2140  r */\n              dup2\n                /* \"campaing.sol\":2139:2152  r.description */\n              0x01\n              add\n                /* \"campaing.sol\":2139:2168  r.description =  _description */\n              swap1\n              dup1\n              mload\n              swap1\n              0x20\n              add\n              swap1\n              tag_80\n              swap3\n              swap2\n              swap1\n              tag_81\n              jump\t// in\n            tag_80:\n              pop\n                /* \"campaing.sol\":2193:2199  _value */\n              dup3\n                /* \"campaing.sol\":2182:2183  r */\n              dup2\n                /* \"campaing.sol\":2182:2189  r.value */\n              0x02\n              add\n                /* \"campaing.sol\":2182:2199  r.value =  _value */\n              dup2\n              swap1\n              sstore\n              pop\n                /* \"campaing.sol\":2227:2236  _recipent */\n              dup2\n                /* \"campaing.sol\":2213:2214  r */\n              dup2\n                /* \"campaing.sol\":2213:2223  r.recipent */\n              0x03\n              add\n              0x00\n                /* \"campaing.sol\":2213:2236  r.recipent =  _recipent */\n              0x0100\n              exp\n              dup2\n              sload\n              dup2\n              0xffffffffffffffffffffffffffffffffffffffff\n              mul\n              not\n              and\n              swap1\n              dup4\n              0xffffffffffffffffffffffffffffffffffffffff\n              and\n              mul\n              or\n              swap1\n              sstore\n              pop\n                /* \"campaing.sol\":2264:2265  0 */\n              0x00\n                /* \"campaing.sol\":2250:2251  r */\n              dup2\n                /* \"campaing.sol\":2250:2260  r.vote_yes */\n              0x04\n              add\n                /* \"campaing.sol\":2250:2265  r.vote_yes =  0 */\n              dup2\n              swap1\n              sstore\n              pop\n                /* \"campaing.sol\":2293:2298  false */\n              0x00\n                /* \"campaing.sol\":2279:2280  r */\n              dup2\n                /* \"campaing.sol\":2279:2289  r.complete */\n              0x05\n              add\n              0x00\n                /* \"campaing.sol\":2279:2298  r.complete =  false */\n              0x0100\n              exp\n              dup2\n              sload\n              dup2\n              0xff\n              mul\n              not\n              and\n              swap1\n              dup4\n              iszero\n              iszero\n              mul\n              or\n              swap1\n              sstore\n              pop\n                /* \"campaing.sol\":1954:2309  {... */\n              pop\n                /* \"campaing.sol\":1855:2309  function makeRequest(string memory _description, uint  _value,address  _recipent) public restircted{... */\n              pop\n              pop\n              pop\n              jump\t// out\n                /* \"campaing.sol\":891:932  uint      public           count_requests */\n            tag_33:\n              sload(0x02)\n              dup2\n              jump\t// out\n                /* \"campaing.sol\":1745:1845  function getBalance() public view returns(uint){... */\n            tag_38:\n                /* \"campaing.sol\":1787:1791  uint */\n              0x00\n                /* \"campaing.sol\":1813:1834  address(this).balance */\n              selfbalance\n                /* \"campaing.sol\":1806:1834  return address(this).balance */\n              swap1\n              pop\n                /* \"campaing.sol\":1745:1845  function getBalance() public view returns(uint){... */\n              swap1\n              jump\t// out\n                /* \"campaing.sol\":992:1027  address   public            manager */\n            tag_42:\n              0x04\n              0x00\n              swap1\n              sload\n              swap1\n              0x0100\n              exp\n              swap1\n              div\n              0xffffffffffffffffffffffffffffffffffffffff\n              and\n              dup2\n              jump\t// out\n                /* \"campaing.sol\":842:881  string    public            description */\n            tag_47:\n              0x01\n              dup1\n              sload\n              tag_83\n              swap1\n              tag_68\n              jump\t// in\n            tag_83:\n              dup1\n              0x1f\n              add\n              0x20\n              dup1\n              swap2\n              div\n              mul\n              0x20\n              add\n              mload(0x40)\n              swap1\n              dup2\n              add\n              0x40\n              mstore\n              dup1\n              swap3\n              swap2\n              swap1\n              dup2\n              dup2\n              mstore\n              0x20\n              add\n              dup3\n              dup1\n              sload\n              tag_84\n              swap1\n              tag_68\n              jump\t// in\n            tag_84:\n              dup1\n              iszero\n              tag_85\n              jumpi\n              dup1\n              0x1f\n              lt\n              tag_86\n              jumpi\n              0x0100\n              dup1\n              dup4\n              sload\n              div\n              mul\n              dup4\n              mstore\n              swap2\n              0x20\n              add\n              swap2\n              jump(tag_85)\n            tag_86:\n              dup3\n              add\n              swap2\n              swap1\n              0x00\n              mstore\n              keccak256(0x00, 0x20)\n              swap1\n            tag_87:\n              dup2\n              sload\n              dup2\n              mstore\n              swap1\n              0x01\n              add\n              swap1\n              0x20\n              add\n              dup1\n              dup4\n              gt\n              tag_87\n              jumpi\n              dup3\n              swap1\n              sub\n              0x1f\n              and\n              dup3\n              add\n              swap2\n            tag_85:\n              pop\n              pop\n              pop\n              pop\n              pop\n              dup2\n              jump\t// out\n                /* \"campaing.sol\":2319:2917  function aproveRequest(uint id,bool vote) public  {... */\n            tag_53:\n                /* \"campaing.sol\":2391:2400  approvers */\n              0x07\n                /* \"campaing.sol\":2391:2412  approvers[msg.sender] */\n              0x00\n                /* \"campaing.sol\":2401:2411  msg.sender */\n              caller\n                /* \"campaing.sol\":2391:2412  approvers[msg.sender] */\n              0xffffffffffffffffffffffffffffffffffffffff\n              and\n              0xffffffffffffffffffffffffffffffffffffffff\n              and\n              dup2\n              mstore\n              0x20\n              add\n              swap1\n              dup2\n              mstore\n              0x20\n              add\n              0x00\n              keccak256\n              0x00\n              swap1\n              sload\n              swap1\n              0x0100\n              exp\n              swap1\n              div\n              0xff\n              and\n                /* \"campaing.sol\":2383:2413  require(approvers[msg.sender]) */\n              tag_89\n              jumpi\n              0x00\n              dup1\n              revert\n            tag_89:\n                /* \"campaing.sol\":2473:2481  requests */\n              0x06\n                /* \"campaing.sol\":2482:2484  id */\n              dup3\n                /* \"campaing.sol\":2473:2485  requests[id] */\n              dup2\n              sload\n              dup2\n              lt\n              tag_90\n              jumpi\n              tag_91\n              tag_92\n              jump\t// in\n            tag_91:\n            tag_90:\n              swap1\n              0x00\n              mstore\n              keccak256(0x00, 0x20)\n              swap1\n              0x07\n              mul\n              add\n                /* \"campaing.sol\":2473:2494  requests[id].complete */\n              0x05\n              add\n              0x00\n              swap1\n              sload\n              swap1\n              0x0100\n              exp\n              swap1\n              div\n              0xff\n              and\n                /* \"campaing.sol\":2472:2494  !requests[id].complete */\n              iszero\n                /* \"campaing.sol\":2464:2495  require(!requests[id].complete) */\n              tag_94\n              jumpi\n              0x00\n              dup1\n              revert\n            tag_94:\n                /* \"campaing.sol\":2518:2526  requests */\n              0x06\n                /* \"campaing.sol\":2527:2529  id */\n              dup3\n                /* \"campaing.sol\":2518:2530  requests[id] */\n              dup2\n              sload\n              dup2\n              lt\n              tag_95\n              jumpi\n              tag_96\n              tag_92\n              jump\t// in\n            tag_96:\n            tag_95:\n              swap1\n              0x00\n              mstore\n              keccak256(0x00, 0x20)\n              swap1\n              0x07\n              mul\n              add\n                /* \"campaing.sol\":2518:2540  requests[id].approvals */\n              0x06\n              add\n                /* \"campaing.sol\":2518:2552  requests[id].approvals[msg.sender] */\n              0x00\n                /* \"campaing.sol\":2541:2551  msg.sender */\n              caller\n                /* \"campaing.sol\":2518:2552  requests[id].approvals[msg.sender] */\n              0xffffffffffffffffffffffffffffffffffffffff\n              and\n              0xffffffffffffffffffffffffffffffffffffffff\n              and\n              dup2\n              mstore\n              0x20\n              add\n              swap1\n              dup2\n              mstore\n              0x20\n              add\n              0x00\n              keccak256\n              0x00\n              swap1\n              sload\n              swap1\n              0x0100\n              exp\n              swap1\n              div\n              0xff\n              and\n                /* \"campaing.sol\":2517:2552  !requests[id].approvals[msg.sender] */\n              iszero\n                /* \"campaing.sol\":2509:2553  require(!requests[id].approvals[msg.sender]) */\n              tag_98\n              jumpi\n              0x00\n              dup1\n              revert\n            tag_98:\n                /* \"campaing.sol\":2604:2608  vote */\n              dup1\n                /* \"campaing.sol\":2567:2575  requests */\n              0x06\n                /* \"campaing.sol\":2576:2578  id */\n              dup4\n                /* \"campaing.sol\":2567:2579  requests[id] */\n              dup2\n              sload\n              dup2\n              lt\n              tag_99\n              jumpi\n              tag_100\n              tag_92\n              jump\t// in\n            tag_100:\n            tag_99:\n              swap1\n              0x00\n              mstore\n              keccak256(0x00, 0x20)\n              swap1\n              0x07\n              mul\n              add\n                /* \"campaing.sol\":2567:2589  requests[id].approvals */\n              0x06\n              add\n                /* \"campaing.sol\":2567:2601  requests[id].approvals[msg.sender] */\n              0x00\n                /* \"campaing.sol\":2590:2600  msg.sender */\n              caller\n                /* \"campaing.sol\":2567:2601  requests[id].approvals[msg.sender] */\n              0xffffffffffffffffffffffffffffffffffffffff\n              and\n              0xffffffffffffffffffffffffffffffffffffffff\n              and\n              dup2\n              mstore\n              0x20\n              add\n              swap1\n              dup2\n              mstore\n              0x20\n              add\n              0x00\n              keccak256\n              0x00\n                /* \"campaing.sol\":2567:2608  requests[id].approvals[msg.sender] = vote */\n              0x0100\n              exp\n              dup2\n              sload\n              dup2\n              0xff\n              mul\n              not\n              and\n              swap1\n              dup4\n              iszero\n              iszero\n              mul\n              or\n              swap1\n              sstore\n              pop\n                /* \"campaing.sol\":2625:2629  vote */\n              dup1\n                /* \"campaing.sol\":2622:2699  if(vote)... */\n              iszero\n              tag_102\n              jumpi\n                /* \"campaing.sol\":2661:2669  requests */\n              0x06\n                /* \"campaing.sol\":2670:2672  id */\n              dup3\n                /* \"campaing.sol\":2661:2673  requests[id] */\n              dup2\n              sload\n              dup2\n              lt\n              tag_103\n              jumpi\n              tag_104\n              tag_92\n              jump\t// in\n            tag_104:\n            tag_103:\n              swap1\n              0x00\n              mstore\n              keccak256(0x00, 0x20)\n              swap1\n              0x07\n              mul\n              add\n                /* \"campaing.sol\":2661:2682  requests[id].vote_yes */\n              0x04\n              add\n              0x00\n                /* \"campaing.sol\":2661:2684  requests[id].vote_yes++ */\n              dup2\n              sload\n              dup1\n              swap3\n              swap2\n              swap1\n              tag_106\n              swap1\n              tag_107\n              jump\t// in\n            tag_106:\n              swap2\n              swap1\n              pop\n              sstore\n              pop\n                /* \"campaing.sol\":2622:2699  if(vote)... */\n            tag_102:\n                /* \"campaing.sol\":2754:2755  2 */\n              0x02\n                /* \"campaing.sol\":2739:2751  contributors */\n              sload(0x03)\n                /* \"campaing.sol\":2739:2755  contributors / 2 */\n              tag_108\n              swap2\n              swap1\n              tag_109\n              jump\t// in\n            tag_108:\n                /* \"campaing.sol\":2715:2723  requests */\n              0x06\n                /* \"campaing.sol\":2724:2726  id */\n              dup4\n                /* \"campaing.sol\":2715:2727  requests[id] */\n              dup2\n              sload\n              dup2\n              lt\n              tag_110\n              jumpi\n              tag_111\n              tag_92\n              jump\t// in\n            tag_111:\n            tag_110:\n              swap1\n              0x00\n              mstore\n              keccak256(0x00, 0x20)\n              swap1\n              0x07\n              mul\n              add\n                /* \"campaing.sol\":2715:2736  requests[id].vote_yes */\n              0x04\n              add\n              sload\n                /* \"campaing.sol\":2715:2755  requests[id].vote_yes > contributors / 2 */\n              gt\n                /* \"campaing.sol\":2712:2907  if(requests[id].vote_yes > contributors / 2)... */\n              iszero\n              tag_113\n              jumpi\n                /* \"campaing.sol\":2811:2815  true */\n              0x01\n                /* \"campaing.sol\":2787:2795  requests */\n              0x06\n                /* \"campaing.sol\":2796:2798  id */\n              dup4\n                /* \"campaing.sol\":2787:2799  requests[id] */\n              dup2\n              sload\n              dup2\n              lt\n              tag_114\n              jumpi\n              tag_115\n              tag_92\n              jump\t// in\n            tag_115:\n            tag_114:\n              swap1\n              0x00\n              mstore\n              keccak256(0x00, 0x20)\n              swap1\n              0x07\n              mul\n              add\n                /* \"campaing.sol\":2787:2808  requests[id].complete */\n              0x05\n              add\n              0x00\n                /* \"campaing.sol\":2787:2815  requests[id].complete = true */\n              0x0100\n              exp\n              dup2\n              sload\n              dup2\n              0xff\n              mul\n              not\n              and\n              swap1\n              dup4\n              iszero\n              iszero\n              mul\n              or\n              swap1\n              sstore\n              pop\n                /* \"campaing.sol\":2841:2849  requests */\n              0x06\n                /* \"campaing.sol\":2850:2852  id */\n              dup3\n                /* \"campaing.sol\":2841:2853  requests[id] */\n              dup2\n              sload\n              dup2\n              lt\n              tag_117\n              jumpi\n              tag_118\n              tag_92\n              jump\t// in\n            tag_118:\n            tag_117:\n              swap1\n              0x00\n              mstore\n              keccak256(0x00, 0x20)\n              swap1\n              0x07\n              mul\n              add\n                /* \"campaing.sol\":2841:2862  requests[id].recipent */\n              0x03\n              add\n              0x00\n              swap1\n              sload\n              swap1\n              0x0100\n              exp\n              swap1\n              div\n              0xffffffffffffffffffffffffffffffffffffffff\n              and\n                /* \"campaing.sol\":2833:2872  payable(requests[id].recipent).transfer */\n              0xffffffffffffffffffffffffffffffffffffffff\n              and\n                /* \"campaing.sol\":2833:2892  payable(requests[id].recipent).transfer(requests[id].value) */\n              0x08fc\n                /* \"campaing.sol\":2873:2881  requests */\n              0x06\n                /* \"campaing.sol\":2882:2884  id */\n              dup5\n                /* \"campaing.sol\":2873:2885  requests[id] */\n              dup2\n              sload\n              dup2\n              lt\n              tag_120\n              jumpi\n              tag_121\n              tag_92\n              jump\t// in\n            tag_121:\n            tag_120:\n              swap1\n              0x00\n              mstore\n              keccak256(0x00, 0x20)\n              swap1\n              0x07\n              mul\n              add\n                /* \"campaing.sol\":2873:2891  requests[id].value */\n              0x02\n              add\n              sload\n                /* \"campaing.sol\":2833:2892  payable(requests[id].recipent).transfer(requests[id].value) */\n              swap1\n              dup2\n              iszero\n              mul\n              swap1\n              mload(0x40)\n              0x00\n              mload(0x40)\n              dup1\n              dup4\n              sub\n              dup2\n              dup6\n              dup9\n              dup9\n              call\n              swap4\n              pop\n              pop\n              pop\n              pop\n              iszero\n              dup1\n              iszero\n              tag_124\n              jumpi\n              returndatasize\n              0x00\n              dup1\n              returndatacopy\n              revert(0x00, returndatasize)\n            tag_124:\n              pop\n                /* \"campaing.sol\":2712:2907  if(requests[id].vote_yes > contributors / 2)... */\n            tag_113:\n                /* \"campaing.sol\":2319:2917  function aproveRequest(uint id,bool vote) public  {... */\n              pop\n              pop\n              jump\t// out\n                /* \"campaing.sol\":1090:1126  Request[] public            requests */\n            tag_58:\n              0x06\n              dup2\n              dup2\n              sload\n              dup2\n              lt\n              tag_125\n              jumpi\n              0x00\n              dup1\n              revert\n            tag_125:\n              swap1\n              0x00\n              mstore\n              keccak256(0x00, 0x20)\n              swap1\n              0x07\n              mul\n              add\n              0x00\n              swap2\n              pop\n              swap1\n              pop\n              dup1\n              0x00\n              add\n              sload\n              swap1\n              dup1\n              0x01\n              add\n              dup1\n              sload\n              tag_127\n              swap1\n              tag_68\n              jump\t// in\n            tag_127:\n              dup1\n              0x1f\n              add\n              0x20\n              dup1\n              swap2\n              div\n              mul\n              0x20\n              add\n              mload(0x40)\n              swap1\n              dup2\n              add\n              0x40\n              mstore\n              dup1\n              swap3\n              swap2\n              swap1\n              dup2\n              dup2\n              mstore\n              0x20\n              add\n              dup3\n              dup1\n              sload\n              tag_128\n              swap1\n              tag_68\n              jump\t// in\n            tag_128:\n              dup1\n              iszero\n              tag_129\n              jumpi\n              dup1\n              0x1f\n              lt\n              tag_130\n              jumpi\n              0x0100\n              dup1\n              dup4\n              sload\n              div\n              mul\n              dup4\n              mstore\n              swap2\n              0x20\n              add\n              swap2\n              jump(tag_129)\n            tag_130:\n              dup3\n              add\n              swap2\n              swap1\n              0x00\n              mstore\n              keccak256(0x00, 0x20)\n              swap1\n            tag_131:\n              dup2\n              sload\n              dup2\n              mstore\n              swap1\n              0x01\n              add\n              swap1\n              0x20\n              add\n              dup1\n              dup4\n              gt\n              tag_131\n              jumpi\n              dup3\n              swap1\n              sub\n              0x1f\n              and\n              dup3\n              add\n              swap2\n            tag_129:\n              pop\n              pop\n              pop\n              pop\n              pop\n              swap1\n              dup1\n              0x02\n              add\n              sload\n              swap1\n              dup1\n              0x03\n              add\n              0x00\n              swap1\n              sload\n              swap1\n              0x0100\n              exp\n              swap1\n              div\n              0xffffffffffffffffffffffffffffffffffffffff\n              and\n              swap1\n              dup1\n              0x04\n              add\n              sload\n              swap1\n              dup1\n              0x05\n              add\n              0x00\n              swap1\n              sload\n              swap1\n              0x0100\n              exp\n              swap1\n              div\n              0xff\n              and\n              swap1\n              pop\n              dup7\n              jump\t// out\n                /* \"campaing.sol\":1037:1080  uint      public            minContribution */\n            tag_63:\n              sload(0x05)\n              dup2\n              jump\t// out\n                /* \"campaing.sol\":1566:1735  function contribute() public payable {... */\n            tag_66:\n                /* \"campaing.sol\":1638:1653  minContribution */\n              sload(0x05)\n                /* \"campaing.sol\":1625:1634  msg.value */\n              callvalue\n                /* \"campaing.sol\":1625:1653  msg.value >= minContribution */\n              lt\n              iszero\n                /* \"campaing.sol\":1617:1654  require(msg.value >= minContribution) */\n              tag_133\n              jumpi\n              0x00\n              dup1\n              revert\n            tag_133:\n                /* \"campaing.sol\":1668:1680  contributors */\n              0x03\n              0x00\n                /* \"campaing.sol\":1668:1682  contributors++ */\n              dup2\n              sload\n              dup1\n              swap3\n              swap2\n              swap1\n              tag_134\n              swap1\n              tag_107\n              jump\t// in\n            tag_134:\n              swap2\n              swap1\n              pop\n              sstore\n              pop\n                /* \"campaing.sol\":1720:1724  true */\n              0x01\n                /* \"campaing.sol\":1696:1705  approvers */\n              0x07\n                /* \"campaing.sol\":1696:1717  approvers[msg.sender] */\n              0x00\n                /* \"campaing.sol\":1706:1716  msg.sender */\n              caller\n                /* \"campaing.sol\":1696:1717  approvers[msg.sender] */\n              0xffffffffffffffffffffffffffffffffffffffff\n              and\n              0xffffffffffffffffffffffffffffffffffffffff\n              and\n              dup2\n              mstore\n              0x20\n              add\n              swap1\n              dup2\n              mstore\n              0x20\n              add\n              0x00\n              keccak256\n              0x00\n                /* \"campaing.sol\":1696:1724  approvers[msg.sender] = true */\n              0x0100\n              exp\n              dup2\n              sload\n              dup2\n              0xff\n              mul\n              not\n              and\n              swap1\n              dup4\n              iszero\n              iszero\n              mul\n              or\n              swap1\n              sstore\n              pop\n                /* \"campaing.sol\":1566:1735  function contribute() public payable {... */\n              jump\t// out\n            tag_81:\n              dup3\n              dup1\n              sload\n              tag_135\n              swap1\n              tag_68\n              jump\t// in\n            tag_135:\n              swap1\n              0x00\n              mstore\n              keccak256(0x00, 0x20)\n              swap1\n              0x1f\n              add\n              0x20\n              swap1\n              div\n              dup2\n              add\n              swap3\n              dup3\n              tag_137\n              jumpi\n              0x00\n              dup6\n              sstore\n              jump(tag_136)\n            tag_137:\n              dup3\n              0x1f\n              lt\n              tag_138\n              jumpi\n              dup1\n              mload\n              not(0xff)\n              and\n              dup4\n              dup1\n              add\n              or\n              dup6\n              sstore\n              jump(tag_136)\n            tag_138:\n              dup3\n              dup1\n              add\n              0x01\n              add\n              dup6\n              sstore\n              dup3\n              iszero\n              tag_136\n              jumpi\n              swap2\n              dup3\n              add\n            tag_139:\n              dup3\n              dup2\n              gt\n              iszero\n              tag_140\n              jumpi\n              dup3\n              mload\n              dup3\n              sstore\n              swap2\n              0x20\n              add\n              swap2\n              swap1\n              0x01\n              add\n              swap1\n              jump(tag_139)\n            tag_140:\n            tag_136:\n              pop\n              swap1\n              pop\n              tag_141\n              swap2\n              swap1\n              tag_142\n              jump\t// in\n            tag_141:\n              pop\n              swap1\n              jump\t// out\n            tag_142:\n            tag_143:\n              dup1\n              dup3\n              gt\n              iszero\n              tag_144\n              jumpi\n              0x00\n              dup2\n              0x00\n              swap1\n              sstore\n              pop\n              0x01\n              add\n              jump(tag_143)\n            tag_144:\n              pop\n              swap1\n              jump\t// out\n                /* \"#utility.yul\":7:106   */\n            tag_145:\n                /* \"#utility.yul\":59:65   */\n              0x00\n                /* \"#utility.yul\":93:98   */\n              dup2\n                /* \"#utility.yul\":87:99   */\n              mload\n                /* \"#utility.yul\":77:99   */\n              swap1\n              pop\n                /* \"#utility.yul\":7:106   */\n              swap2\n              swap1\n              pop\n              jump\t// out\n                /* \"#utility.yul\":112:281   */\n            tag_146:\n                /* \"#utility.yul\":196:207   */\n              0x00\n                /* \"#utility.yul\":230:236   */\n              dup3\n                /* \"#utility.yul\":225:228   */\n              dup3\n                /* \"#utility.yul\":218:237   */\n              mstore\n                /* \"#utility.yul\":270:274   */\n              0x20\n                /* \"#utility.yul\":265:268   */\n              dup3\n                /* \"#utility.yul\":261:275   */\n              add\n                /* \"#utility.yul\":246:275   */\n              swap1\n              pop\n                /* \"#utility.yul\":112:281   */\n              swap3\n              swap2\n              pop\n              pop\n              jump\t// out\n                /* \"#utility.yul\":287:594   */\n            tag_147:\n                /* \"#utility.yul\":355:356   */\n              0x00\n                /* \"#utility.yul\":365:478   */\n            tag_182:\n                /* \"#utility.yul\":379:385   */\n              dup4\n                /* \"#utility.yul\":376:377   */\n              dup2\n                /* \"#utility.yul\":373:386   */\n              lt\n                /* \"#utility.yul\":365:478   */\n              iszero\n              tag_184\n              jumpi\n                /* \"#utility.yul\":464:465   */\n              dup1\n                /* \"#utility.yul\":459:462   */\n              dup3\n                /* \"#utility.yul\":455:466   */\n              add\n                /* \"#utility.yul\":449:467   */\n              mload\n                /* \"#utility.yul\":445:446   */\n              dup2\n                /* \"#utility.yul\":440:443   */\n              dup5\n                /* \"#utility.yul\":436:447   */\n              add\n                /* \"#utility.yul\":429:468   */\n              mstore\n                /* \"#utility.yul\":401:403   */\n              0x20\n                /* \"#utility.yul\":398:399   */\n              dup2\n                /* \"#utility.yul\":394:404   */\n              add\n                /* \"#utility.yul\":389:404   */\n              swap1\n              pop\n                /* \"#utility.yul\":365:478   */\n              jump(tag_182)\n            tag_184:\n                /* \"#utility.yul\":496:502   */\n              dup4\n                /* \"#utility.yul\":493:494   */\n              dup2\n                /* \"#utility.yul\":490:503   */\n              gt\n                /* \"#utility.yul\":487:588   */\n              iszero\n              tag_185\n              jumpi\n                /* \"#utility.yul\":576:577   */\n              0x00\n                /* \"#utility.yul\":567:573   */\n              dup5\n                /* \"#utility.yul\":562:565   */\n              dup5\n                /* \"#utility.yul\":558:574   */\n              add\n                /* \"#utility.yul\":551:578   */\n              mstore\n                /* \"#utility.yul\":487:588   */\n            tag_185:\n                /* \"#utility.yul\":336:594   */\n              pop\n                /* \"#utility.yul\":287:594   */\n              pop\n              pop\n              pop\n              jump\t// out\n                /* \"#utility.yul\":600:702   */\n            tag_148:\n                /* \"#utility.yul\":641:647   */\n              0x00\n                /* \"#utility.yul\":692:694   */\n              0x1f\n                /* \"#utility.yul\":688:695   */\n              not\n                /* \"#utility.yul\":683:685   */\n              0x1f\n                /* \"#utility.yul\":676:681   */\n              dup4\n                /* \"#utility.yul\":672:686   */\n              add\n                /* \"#utility.yul\":668:696   */\n              and\n                /* \"#utility.yul\":658:696   */\n              swap1\n              pop\n                /* \"#utility.yul\":600:702   */\n              swap2\n              swap1\n              pop\n              jump\t// out\n                /* \"#utility.yul\":708:1072   */\n            tag_149:\n                /* \"#utility.yul\":796:799   */\n              0x00\n                /* \"#utility.yul\":824:863   */\n              tag_188\n                /* \"#utility.yul\":857:862   */\n              dup3\n                /* \"#utility.yul\":824:863   */\n              tag_145\n              jump\t// in\n            tag_188:\n                /* \"#utility.yul\":879:950   */\n              tag_189\n                /* \"#utility.yul\":943:949   */\n              dup2\n                /* \"#utility.yul\":938:941   */\n              dup6\n                /* \"#utility.yul\":879:950   */\n              tag_146\n              jump\t// in\n            tag_189:\n                /* \"#utility.yul\":872:950   */\n              swap4\n              pop\n                /* \"#utility.yul\":959:1011   */\n              tag_190\n                /* \"#utility.yul\":1004:1010   */\n              dup2\n                /* \"#utility.yul\":999:1002   */\n              dup6\n                /* \"#utility.yul\":992:996   */\n              0x20\n                /* \"#utility.yul\":985:990   */\n              dup7\n                /* \"#utility.yul\":981:997   */\n              add\n                /* \"#utility.yul\":959:1011   */\n              tag_147\n              jump\t// in\n            tag_190:\n                /* \"#utility.yul\":1036:1065   */\n              tag_191\n                /* \"#utility.yul\":1058:1064   */\n              dup2\n                /* \"#utility.yul\":1036:1065   */\n              tag_148\n              jump\t// in\n            tag_191:\n                /* \"#utility.yul\":1031:1034   */\n              dup5\n                /* \"#utility.yul\":1027:1066   */\n              add\n                /* \"#utility.yul\":1020:1066   */\n              swap2\n              pop\n                /* \"#utility.yul\":800:1072   */\n              pop\n                /* \"#utility.yul\":708:1072   */\n              swap3\n              swap2\n              pop\n              pop\n              jump\t// out\n                /* \"#utility.yul\":1078:1391   */\n            tag_18:\n                /* \"#utility.yul\":1191:1195   */\n              0x00\n                /* \"#utility.yul\":1229:1231   */\n              0x20\n                /* \"#utility.yul\":1218:1227   */\n              dup3\n                /* \"#utility.yul\":1214:1232   */\n              add\n                /* \"#utility.yul\":1206:1232   */\n              swap1\n              pop\n                /* \"#utility.yul\":1278:1287   */\n              dup2\n                /* \"#utility.yul\":1272:1276   */\n              dup2\n                /* \"#utility.yul\":1268:1288   */\n              sub\n                /* \"#utility.yul\":1264:1265   */\n              0x00\n                /* \"#utility.yul\":1253:1262   */\n              dup4\n                /* \"#utility.yul\":1249:1266   */\n              add\n                /* \"#utility.yul\":1242:1289   */\n              mstore\n                /* \"#utility.yul\":1306:1384   */\n              tag_193\n                /* \"#utility.yul\":1379:1383   */\n              dup2\n                /* \"#utility.yul\":1370:1376   */\n              dup5\n                /* \"#utility.yul\":1306:1384   */\n              tag_149\n              jump\t// in\n            tag_193:\n                /* \"#utility.yul\":1298:1384   */\n              swap1\n              pop\n                /* \"#utility.yul\":1078:1391   */\n              swap3\n              swap2\n              pop\n              pop\n              jump\t// out\n                /* \"#utility.yul\":1397:1472   */\n            tag_150:\n                /* \"#utility.yul\":1430:1436   */\n              0x00\n                /* \"#utility.yul\":1463:1465   */\n              0x40\n                /* \"#utility.yul\":1457:1466   */\n              mload\n                /* \"#utility.yul\":1447:1466   */\n              swap1\n              pop\n                /* \"#utility.yul\":1397:1472   */\n              swap1\n              jump\t// out\n                /* \"#utility.yul\":1478:1595   */\n            tag_151:\n                /* \"#utility.yul\":1587:1588   */\n              0x00\n                /* \"#utility.yul\":1584:1585   */\n              dup1\n                /* \"#utility.yul\":1577:1589   */\n              revert\n                /* \"#utility.yul\":1601:1718   */\n            tag_152:\n                /* \"#utility.yul\":1710:1711   */\n              0x00\n                /* \"#utility.yul\":1707:1708   */\n              dup1\n                /* \"#utility.yul\":1700:1712   */\n              revert\n                /* \"#utility.yul\":1724:1850   */\n            tag_153:\n                /* \"#utility.yul\":1761:1768   */\n              0x00\n                /* \"#utility.yul\":1801:1843   */\n              0xffffffffffffffffffffffffffffffffffffffff\n                /* \"#utility.yul\":1794:1799   */\n              dup3\n                /* \"#utility.yul\":1790:1844   */\n              and\n                /* \"#utility.yul\":1779:1844   */\n              swap1\n              pop\n                /* \"#utility.yul\":1724:1850   */\n              swap2\n              swap1\n              pop\n              jump\t// out\n                /* \"#utility.yul\":1856:1952   */\n            tag_154:\n                /* \"#utility.yul\":1893:1900   */\n              0x00\n                /* \"#utility.yul\":1922:1946   */\n              tag_199\n                /* \"#utility.yul\":1940:1945   */\n              dup3\n                /* \"#utility.yul\":1922:1946   */\n              tag_153\n              jump\t// in\n            tag_199:\n                /* \"#utility.yul\":1911:1946   */\n              swap1\n              pop\n                /* \"#utility.yul\":1856:1952   */\n              swap2\n              swap1\n              pop\n              jump\t// out\n                /* \"#utility.yul\":1958:2080   */\n            tag_155:\n                /* \"#utility.yul\":2031:2055   */\n              tag_201\n                /* \"#utility.yul\":2049:2054   */\n              dup2\n                /* \"#utility.yul\":2031:2055   */\n              tag_154\n              jump\t// in\n            tag_201:\n                /* \"#utility.yul\":2024:2029   */\n              dup2\n                /* \"#utility.yul\":2021:2056   */\n              eq\n                /* \"#utility.yul\":2011:2074   */\n              tag_202\n              jumpi\n                /* \"#utility.yul\":2070:2071   */\n              0x00\n                /* \"#utility.yul\":2067:2068   */\n              dup1\n                /* \"#utility.yul\":2060:2072   */\n              revert\n                /* \"#utility.yul\":2011:2074   */\n            tag_202:\n                /* \"#utility.yul\":1958:2080   */\n              pop\n              jump\t// out\n                /* \"#utility.yul\":2086:2225   */\n            tag_156:\n                /* \"#utility.yul\":2132:2137   */\n              0x00\n                /* \"#utility.yul\":2170:2176   */\n              dup2\n                /* \"#utility.yul\":2157:2177   */\n              calldataload\n                /* \"#utility.yul\":2148:2177   */\n              swap1\n              pop\n                /* \"#utility.yul\":2186:2219   */\n              tag_204\n                /* \"#utility.yul\":2213:2218   */\n              dup2\n                /* \"#utility.yul\":2186:2219   */\n              tag_155\n              jump\t// in\n            tag_204:\n                /* \"#utility.yul\":2086:2225   */\n              swap3\n              swap2\n              pop\n              pop\n              jump\t// out\n                /* \"#utility.yul\":2231:2560   */\n            tag_22:\n                /* \"#utility.yul\":2290:2296   */\n              0x00\n                /* \"#utility.yul\":2339:2341   */\n              0x20\n                /* \"#utility.yul\":2327:2336   */\n              dup3\n                /* \"#utility.yul\":2318:2325   */\n              dup5\n                /* \"#utility.yul\":2314:2337   */\n              sub\n                /* \"#utility.yul\":2310:2342   */\n              slt\n                /* \"#utility.yul\":2307:2426   */\n              iszero\n              tag_206\n              jumpi\n                /* \"#utility.yul\":2345:2424   */\n              tag_207\n              tag_151\n              jump\t// in\n            tag_207:\n                /* \"#utility.yul\":2307:2426   */\n            tag_206:\n                /* \"#utility.yul\":2465:2466   */\n              0x00\n                /* \"#utility.yul\":2490:2543   */\n              tag_208\n                /* \"#utility.yul\":2535:2542   */\n              dup5\n                /* \"#utility.yul\":2526:2532   */\n              dup3\n                /* \"#utility.yul\":2515:2524   */\n              dup6\n                /* \"#utility.yul\":2511:2533   */\n              add\n                /* \"#utility.yul\":2490:2543   */\n              tag_156\n              jump\t// in\n            tag_208:\n                /* \"#utility.yul\":2480:2543   */\n              swap2\n              pop\n                /* \"#utility.yul\":2436:2553   */\n              pop\n                /* \"#utility.yul\":2231:2560   */\n              swap3\n              swap2\n              pop\n              pop\n              jump\t// out\n                /* \"#utility.yul\":2566:2656   */\n            tag_157:\n                /* \"#utility.yul\":2600:2607   */\n              0x00\n                /* \"#utility.yul\":2643:2648   */\n              dup2\n                /* \"#utility.yul\":2636:2649   */\n              iszero\n                /* \"#utility.yul\":2629:2650   */\n              iszero\n                /* \"#utility.yul\":2618:2650   */\n              swap1\n              pop\n                /* \"#utility.yul\":2566:2656   */\n              swap2\n              swap1\n              pop\n              jump\t// out\n                /* \"#utility.yul\":2662:2771   */\n            tag_158:\n                /* \"#utility.yul\":2743:2764   */\n              tag_211\n                /* \"#utility.yul\":2758:2763   */\n              dup2\n                /* \"#utility.yul\":2743:2764   */\n              tag_157\n              jump\t// in\n            tag_211:\n                /* \"#utility.yul\":2738:2741   */\n              dup3\n                /* \"#utility.yul\":2731:2765   */\n              mstore\n                /* \"#utility.yul\":2662:2771   */\n              pop\n              pop\n              jump\t// out\n                /* \"#utility.yul\":2777:2987   */\n            tag_25:\n                /* \"#utility.yul\":2864:2868   */\n              0x00\n                /* \"#utility.yul\":2902:2904   */\n              0x20\n                /* \"#utility.yul\":2891:2900   */\n              dup3\n                /* \"#utility.yul\":2887:2905   */\n              add\n                /* \"#utility.yul\":2879:2905   */\n              swap1\n              pop\n                /* \"#utility.yul\":2915:2980   */\n              tag_213\n                /* \"#utility.yul\":2977:2978   */\n              0x00\n                /* \"#utility.yul\":2966:2975   */\n              dup4\n                /* \"#utility.yul\":2962:2979   */\n              add\n                /* \"#utility.yul\":2953:2959   */\n              dup5\n                /* \"#utility.yul\":2915:2980   */\n              tag_158\n              jump\t// in\n            tag_213:\n                /* \"#utility.yul\":2777:2987   */\n              swap3\n              swap2\n              pop\n              pop\n              jump\t// out\n                /* \"#utility.yul\":2993:3110   */\n            tag_159:\n                /* \"#utility.yul\":3102:3103   */\n              0x00\n                /* \"#utility.yul\":3099:3100   */\n              dup1\n                /* \"#utility.yul\":3092:3104   */\n              revert\n                /* \"#utility.yul\":3116:3233   */\n            tag_160:\n                /* \"#utility.yul\":3225:3226   */\n              0x00\n                /* \"#utility.yul\":3222:3223   */\n              dup1\n                /* \"#utility.yul\":3215:3227   */\n              revert\n                /* \"#utility.yul\":3239:3419   */\n            tag_161:\n                /* \"#utility.yul\":3287:3364   */\n              0x4e487b7100000000000000000000000000000000000000000000000000000000\n                /* \"#utility.yul\":3284:3285   */\n              0x00\n                /* \"#utility.yul\":3277:3365   */\n              mstore\n                /* \"#utility.yul\":3384:3388   */\n              0x41\n                /* \"#utility.yul\":3381:3382   */\n              0x04\n                /* \"#utility.yul\":3374:3389   */\n              mstore\n                /* \"#utility.yul\":3408:3412   */\n              0x24\n                /* \"#utility.yul\":3405:3406   */\n              0x00\n                /* \"#utility.yul\":3398:3413   */\n              revert\n                /* \"#utility.yul\":3425:3706   */\n            tag_162:\n                /* \"#utility.yul\":3508:3535   */\n              tag_218\n                /* \"#utility.yul\":3530:3534   */\n              dup3\n                /* \"#utility.yul\":3508:3535   */\n              tag_148\n              jump\t// in\n            tag_218:\n                /* \"#utility.yul\":3500:3506   */\n              dup2\n                /* \"#utility.yul\":3496:3536   */\n              add\n                /* \"#utility.yul\":3638:3644   */\n              dup2\n                /* \"#utility.yul\":3626:3636   */\n              dup2\n                /* \"#utility.yul\":3623:3645   */\n              lt\n                /* \"#utility.yul\":3602:3620   */\n              0xffffffffffffffff\n                /* \"#utility.yul\":3590:3600   */\n              dup3\n                /* \"#utility.yul\":3587:3621   */\n              gt\n                /* \"#utility.yul\":3584:3646   */\n              or\n                /* \"#utility.yul\":3581:3669   */\n              iszero\n              tag_219\n              jumpi\n                /* \"#utility.yul\":3649:3667   */\n              tag_220\n              tag_161\n              jump\t// in\n            tag_220:\n                /* \"#utility.yul\":3581:3669   */\n            tag_219:\n                /* \"#utility.yul\":3689:3699   */\n              dup1\n                /* \"#utility.yul\":3685:3687   */\n              0x40\n                /* \"#utility.yul\":3678:3700   */\n              mstore\n                /* \"#utility.yul\":3468:3706   */\n              pop\n                /* \"#utility.yul\":3425:3706   */\n              pop\n              pop\n              jump\t// out\n                /* \"#utility.yul\":3712:3841   */\n            tag_163:\n                /* \"#utility.yul\":3746:3752   */\n              0x00\n                /* \"#utility.yul\":3773:3793   */\n              tag_222\n              tag_150\n              jump\t// in\n            tag_222:\n                /* \"#utility.yul\":3763:3793   */\n              swap1\n              pop\n                /* \"#utility.yul\":3802:3835   */\n              tag_223\n                /* \"#utility.yul\":3830:3834   */\n              dup3\n                /* \"#utility.yul\":3822:3828   */\n              dup3\n                /* \"#utility.yul\":3802:3835   */\n              tag_162\n              jump\t// in\n            tag_223:\n                /* \"#utility.yul\":3712:3841   */\n              swap2\n              swap1\n              pop\n              jump\t// out\n                /* \"#utility.yul\":3847:4155   */\n            tag_164:\n                /* \"#utility.yul\":3909:3913   */\n              0x00\n                /* \"#utility.yul\":3999:4017   */\n              0xffffffffffffffff\n                /* \"#utility.yul\":3991:3997   */\n              dup3\n                /* \"#utility.yul\":3988:4018   */\n              gt\n                /* \"#utility.yul\":3985:4041   */\n              iszero\n              tag_225\n              jumpi\n                /* \"#utility.yul\":4021:4039   */\n              tag_226\n              tag_161\n              jump\t// in\n            tag_226:\n                /* \"#utility.yul\":3985:4041   */\n            tag_225:\n                /* \"#utility.yul\":4059:4088   */\n              tag_227\n                /* \"#utility.yul\":4081:4087   */\n              dup3\n                /* \"#utility.yul\":4059:4088   */\n              tag_148\n              jump\t// in\n            tag_227:\n                /* \"#utility.yul\":4051:4088   */\n              swap1\n              pop\n                /* \"#utility.yul\":4143:4147   */\n              0x20\n                /* \"#utility.yul\":4137:4141   */\n              dup2\n                /* \"#utility.yul\":4133:4148   */\n              add\n                /* \"#utility.yul\":4125:4148   */\n              swap1\n              pop\n                /* \"#utility.yul\":3847:4155   */\n              swap2\n              swap1\n              pop\n              jump\t// out\n                /* \"#utility.yul\":4161:4315   */\n            tag_165:\n                /* \"#utility.yul\":4245:4251   */\n              dup3\n                /* \"#utility.yul\":4240:4243   */\n              dup2\n                /* \"#utility.yul\":4235:4238   */\n              dup4\n                /* \"#utility.yul\":4222:4252   */\n              calldatacopy\n                /* \"#utility.yul\":4307:4308   */\n              0x00\n                /* \"#utility.yul\":4298:4304   */\n              dup4\n                /* \"#utility.yul\":4293:4296   */\n              dup4\n                /* \"#utility.yul\":4289:4305   */\n              add\n                /* \"#utility.yul\":4282:4309   */\n              mstore\n                /* \"#utility.yul\":4161:4315   */\n              pop\n              pop\n              pop\n              jump\t// out\n                /* \"#utility.yul\":4321:4733   */\n            tag_166:\n                /* \"#utility.yul\":4399:4404   */\n              0x00\n                /* \"#utility.yul\":4424:4490   */\n              tag_230\n                /* \"#utility.yul\":4440:4489   */\n              tag_231\n                /* \"#utility.yul\":4482:4488   */\n              dup5\n                /* \"#utility.yul\":4440:4489   */\n              tag_164\n              jump\t// in\n            tag_231:\n                /* \"#utility.yul\":4424:4490   */\n              tag_163\n              jump\t// in\n            tag_230:\n                /* \"#utility.yul\":4415:4490   */\n              swap1\n              pop\n                /* \"#utility.yul\":4513:4519   */\n              dup3\n                /* \"#utility.yul\":4506:4511   */\n              dup2\n                /* \"#utility.yul\":4499:4520   */\n              mstore\n                /* \"#utility.yul\":4551:4555   */\n              0x20\n                /* \"#utility.yul\":4544:4549   */\n              dup2\n                /* \"#utility.yul\":4540:4556   */\n              add\n                /* \"#utility.yul\":4589:4592   */\n              dup5\n                /* \"#utility.yul\":4580:4586   */\n              dup5\n                /* \"#utility.yul\":4575:4578   */\n              dup5\n                /* \"#utility.yul\":4571:4587   */\n              add\n                /* \"#utility.yul\":4568:4593   */\n              gt\n                /* \"#utility.yul\":4565:4677   */\n              iszero\n              tag_232\n              jumpi\n                /* \"#utility.yul\":4596:4675   */\n              tag_233\n              tag_160\n              jump\t// in\n            tag_233:\n                /* \"#utility.yul\":4565:4677   */\n            tag_232:\n                /* \"#utility.yul\":4686:4727   */\n              tag_234\n                /* \"#utility.yul\":4720:4726   */\n              dup5\n                /* \"#utility.yul\":4715:4718   */\n              dup3\n                /* \"#utility.yul\":4710:4713   */\n              dup6\n                /* \"#utility.yul\":4686:4727   */\n              tag_165\n              jump\t// in\n            tag_234:\n                /* \"#utility.yul\":4405:4733   */\n              pop\n                /* \"#utility.yul\":4321:4733   */\n              swap4\n              swap3\n              pop\n              pop\n              pop\n              jump\t// out\n                /* \"#utility.yul\":4753:5093   */\n            tag_167:\n                /* \"#utility.yul\":4809:4814   */\n              0x00\n                /* \"#utility.yul\":4858:4861   */\n              dup3\n                /* \"#utility.yul\":4851:4855   */\n              0x1f\n                /* \"#utility.yul\":4843:4849   */\n              dup4\n                /* \"#utility.yul\":4839:4856   */\n              add\n                /* \"#utility.yul\":4835:4862   */\n              slt\n                /* \"#utility.yul\":4825:4947   */\n              tag_236\n              jumpi\n                /* \"#utility.yul\":4866:4945   */\n              tag_237\n              tag_159\n              jump\t// in\n            tag_237:\n                /* \"#utility.yul\":4825:4947   */\n            tag_236:\n                /* \"#utility.yul\":4983:4989   */\n              dup2\n                /* \"#utility.yul\":4970:4990   */\n              calldataload\n                /* \"#utility.yul\":5008:5087   */\n              tag_238\n                /* \"#utility.yul\":5083:5086   */\n              dup5\n                /* \"#utility.yul\":5075:5081   */\n              dup3\n                /* \"#utility.yul\":5068:5072   */\n              0x20\n                /* \"#utility.yul\":5060:5066   */\n              dup7\n                /* \"#utility.yul\":5056:5073   */\n              add\n                /* \"#utility.yul\":5008:5087   */\n              tag_166\n              jump\t// in\n            tag_238:\n                /* \"#utility.yul\":4999:5087   */\n              swap2\n              pop\n                /* \"#utility.yul\":4815:5093   */\n              pop\n                /* \"#utility.yul\":4753:5093   */\n              swap3\n              swap2\n              pop\n              pop\n              jump\t// out\n                /* \"#utility.yul\":5099:5176   */\n            tag_168:\n                /* \"#utility.yul\":5136:5143   */\n              0x00\n                /* \"#utility.yul\":5165:5170   */\n              dup2\n                /* \"#utility.yul\":5154:5170   */\n              swap1\n              pop\n                /* \"#utility.yul\":5099:5176   */\n              swap2\n              swap1\n              pop\n              jump\t// out\n                /* \"#utility.yul\":5182:5304   */\n            tag_169:\n                /* \"#utility.yul\":5255:5279   */\n              tag_241\n                /* \"#utility.yul\":5273:5278   */\n              dup2\n                /* \"#utility.yul\":5255:5279   */\n              tag_168\n              jump\t// in\n            tag_241:\n                /* \"#utility.yul\":5248:5253   */\n              dup2\n                /* \"#utility.yul\":5245:5280   */\n              eq\n                /* \"#utility.yul\":5235:5298   */\n              tag_242\n              jumpi\n                /* \"#utility.yul\":5294:5295   */\n              0x00\n                /* \"#utility.yul\":5291:5292   */\n              dup1\n                /* \"#utility.yul\":5284:5296   */\n              revert\n                /* \"#utility.yul\":5235:5298   */\n            tag_242:\n                /* \"#utility.yul\":5182:5304   */\n              pop\n              jump\t// out\n                /* \"#utility.yul\":5310:5449   */\n            tag_170:\n                /* \"#utility.yul\":5356:5361   */\n              0x00\n                /* \"#utility.yul\":5394:5400   */\n              dup2\n                /* \"#utility.yul\":5381:5401   */\n              calldataload\n                /* \"#utility.yul\":5372:5401   */\n              swap1\n              pop\n                /* \"#utility.yul\":5410:5443   */\n              tag_244\n                /* \"#utility.yul\":5437:5442   */\n              dup2\n                /* \"#utility.yul\":5410:5443   */\n              tag_169\n              jump\t// in\n            tag_244:\n                /* \"#utility.yul\":5310:5449   */\n              swap3\n              swap2\n              pop\n              pop\n              jump\t// out\n                /* \"#utility.yul\":5455:6254   */\n            tag_29:\n                /* \"#utility.yul\":5542:5548   */\n              0x00\n                /* \"#utility.yul\":5550:5556   */\n              dup1\n                /* \"#utility.yul\":5558:5564   */\n              0x00\n                /* \"#utility.yul\":5607:5609   */\n              0x60\n                /* \"#utility.yul\":5595:5604   */\n              dup5\n                /* \"#utility.yul\":5586:5593   */\n              dup7\n                /* \"#utility.yul\":5582:5605   */\n              sub\n                /* \"#utility.yul\":5578:5610   */\n              slt\n                /* \"#utility.yul\":5575:5694   */\n              iszero\n              tag_246\n              jumpi\n                /* \"#utility.yul\":5613:5692   */\n              tag_247\n              tag_151\n              jump\t// in\n            tag_247:\n                /* \"#utility.yul\":5575:5694   */\n            tag_246:\n                /* \"#utility.yul\":5761:5762   */\n              0x00\n                /* \"#utility.yul\":5750:5759   */\n              dup5\n                /* \"#utility.yul\":5746:5763   */\n              add\n                /* \"#utility.yul\":5733:5764   */\n              calldataload\n                /* \"#utility.yul\":5791:5809   */\n              0xffffffffffffffff\n                /* \"#utility.yul\":5783:5789   */\n              dup2\n                /* \"#utility.yul\":5780:5810   */\n              gt\n                /* \"#utility.yul\":5777:5894   */\n              iszero\n              tag_248\n              jumpi\n                /* \"#utility.yul\":5813:5892   */\n              tag_249\n              tag_152\n              jump\t// in\n            tag_249:\n                /* \"#utility.yul\":5777:5894   */\n            tag_248:\n                /* \"#utility.yul\":5918:5981   */\n              tag_250\n                /* \"#utility.yul\":5973:5980   */\n              dup7\n                /* \"#utility.yul\":5964:5970   */\n              dup3\n                /* \"#utility.yul\":5953:5962   */\n              dup8\n                /* \"#utility.yul\":5949:5971   */\n              add\n                /* \"#utility.yul\":5918:5981   */\n              tag_167\n              jump\t// in\n            tag_250:\n                /* \"#utility.yul\":5908:5981   */\n              swap4\n              pop\n                /* \"#utility.yul\":5704:5991   */\n              pop\n                /* \"#utility.yul\":6030:6032   */\n              0x20\n                /* \"#utility.yul\":6056:6109   */\n              tag_251\n                /* \"#utility.yul\":6101:6108   */\n              dup7\n                /* \"#utility.yul\":6092:6098   */\n              dup3\n                /* \"#utility.yul\":6081:6090   */\n              dup8\n                /* \"#utility.yul\":6077:6099   */\n              add\n                /* \"#utility.yul\":6056:6109   */\n              tag_170\n              jump\t// in\n            tag_251:\n                /* \"#utility.yul\":6046:6109   */\n              swap3\n              pop\n                /* \"#utility.yul\":6001:6119   */\n              pop\n                /* \"#utility.yul\":6158:6160   */\n              0x40\n                /* \"#utility.yul\":6184:6237   */\n              tag_252\n                /* \"#utility.yul\":6229:6236   */\n              dup7\n                /* \"#utility.yul\":6220:6226   */\n              dup3\n                /* \"#utility.yul\":6209:6218   */\n              dup8\n                /* \"#utility.yul\":6205:6227   */\n              add\n                /* \"#utility.yul\":6184:6237   */\n              tag_156\n              jump\t// in\n            tag_252:\n                /* \"#utility.yul\":6174:6237   */\n              swap2\n              pop\n                /* \"#utility.yul\":6129:6247   */\n              pop\n                /* \"#utility.yul\":5455:6254   */\n              swap3\n              pop\n              swap3\n              pop\n              swap3\n              jump\t// out\n                /* \"#utility.yul\":6260:6378   */\n            tag_171:\n                /* \"#utility.yul\":6347:6371   */\n              tag_254\n                /* \"#utility.yul\":6365:6370   */\n              dup2\n                /* \"#utility.yul\":6347:6371   */\n              tag_168\n              jump\t// in\n            tag_254:\n                /* \"#utility.yul\":6342:6345   */\n              dup3\n                /* \"#utility.yul\":6335:6372   */\n              mstore\n                /* \"#utility.yul\":6260:6378   */\n              pop\n              pop\n              jump\t// out\n                /* \"#utility.yul\":6384:6606   */\n            tag_35:\n                /* \"#utility.yul\":6477:6481   */\n              0x00\n                /* \"#utility.yul\":6515:6517   */\n              0x20\n                /* \"#utility.yul\":6504:6513   */\n              dup3\n                /* \"#utility.yul\":6500:6518   */\n              add\n                /* \"#utility.yul\":6492:6518   */\n              swap1\n              pop\n                /* \"#utility.yul\":6528:6599   */\n              tag_256\n                /* \"#utility.yul\":6596:6597   */\n              0x00\n                /* \"#utility.yul\":6585:6594   */\n              dup4\n                /* \"#utility.yul\":6581:6598   */\n              add\n                /* \"#utility.yul\":6572:6578   */\n              dup5\n                /* \"#utility.yul\":6528:6599   */\n              tag_171\n              jump\t// in\n            tag_256:\n                /* \"#utility.yul\":6384:6606   */\n              swap3\n              swap2\n              pop\n              pop\n              jump\t// out\n                /* \"#utility.yul\":6612:6730   */\n            tag_172:\n                /* \"#utility.yul\":6699:6723   */\n              tag_258\n                /* \"#utility.yul\":6717:6722   */\n              dup2\n                /* \"#utility.yul\":6699:6723   */\n              tag_154\n              jump\t// in\n            tag_258:\n                /* \"#utility.yul\":6694:6697   */\n              dup3\n                /* \"#utility.yul\":6687:6724   */\n              mstore\n                /* \"#utility.yul\":6612:6730   */\n              pop\n              pop\n              jump\t// out\n                /* \"#utility.yul\":6736:6958   */\n            tag_44:\n                /* \"#utility.yul\":6829:6833   */\n              0x00\n                /* \"#utility.yul\":6867:6869   */\n              0x20\n                /* \"#utility.yul\":6856:6865   */\n              dup3\n                /* \"#utility.yul\":6852:6870   */\n              add\n                /* \"#utility.yul\":6844:6870   */\n              swap1\n              pop\n                /* \"#utility.yul\":6880:6951   */\n              tag_260\n                /* \"#utility.yul\":6948:6949   */\n              0x00\n                /* \"#utility.yul\":6937:6946   */\n              dup4\n                /* \"#utility.yul\":6933:6950   */\n              add\n                /* \"#utility.yul\":6924:6930   */\n              dup5\n                /* \"#utility.yul\":6880:6951   */\n              tag_172\n              jump\t// in\n            tag_260:\n                /* \"#utility.yul\":6736:6958   */\n              swap3\n              swap2\n              pop\n              pop\n              jump\t// out\n                /* \"#utility.yul\":6964:7080   */\n            tag_173:\n                /* \"#utility.yul\":7034:7055   */\n              tag_262\n                /* \"#utility.yul\":7049:7054   */\n              dup2\n                /* \"#utility.yul\":7034:7055   */\n              tag_157\n              jump\t// in\n            tag_262:\n                /* \"#utility.yul\":7027:7032   */\n              dup2\n                /* \"#utility.yul\":7024:7056   */\n              eq\n                /* \"#utility.yul\":7014:7074   */\n              tag_263\n              jumpi\n                /* \"#utility.yul\":7070:7071   */\n              0x00\n                /* \"#utility.yul\":7067:7068   */\n              dup1\n                /* \"#utility.yul\":7060:7072   */\n              revert\n                /* \"#utility.yul\":7014:7074   */\n            tag_263:\n                /* \"#utility.yul\":6964:7080   */\n              pop\n              jump\t// out\n                /* \"#utility.yul\":7086:7219   */\n            tag_174:\n                /* \"#utility.yul\":7129:7134   */\n              0x00\n                /* \"#utility.yul\":7167:7173   */\n              dup2\n                /* \"#utility.yul\":7154:7174   */\n              calldataload\n                /* \"#utility.yul\":7145:7174   */\n              swap1\n              pop\n                /* \"#utility.yul\":7183:7213   */\n              tag_265\n                /* \"#utility.yul\":7207:7212   */\n              dup2\n                /* \"#utility.yul\":7183:7213   */\n              tag_173\n              jump\t// in\n            tag_265:\n                /* \"#utility.yul\":7086:7219   */\n              swap3\n              swap2\n              pop\n              pop\n              jump\t// out\n                /* \"#utility.yul\":7225:7693   */\n            tag_52:\n                /* \"#utility.yul\":7290:7296   */\n              0x00\n                /* \"#utility.yul\":7298:7304   */\n              dup1\n                /* \"#utility.yul\":7347:7349   */\n              0x40\n                /* \"#utility.yul\":7335:7344   */\n              dup4\n                /* \"#utility.yul\":7326:7333   */\n              dup6\n                /* \"#utility.yul\":7322:7345   */\n              sub\n                /* \"#utility.yul\":7318:7350   */\n              slt\n                /* \"#utility.yul\":7315:7434   */\n              iszero\n              tag_267\n              jumpi\n                /* \"#utility.yul\":7353:7432   */\n              tag_268\n              tag_151\n              jump\t// in\n            tag_268:\n                /* \"#utility.yul\":7315:7434   */\n            tag_267:\n                /* \"#utility.yul\":7473:7474   */\n              0x00\n                /* \"#utility.yul\":7498:7551   */\n              tag_269\n                /* \"#utility.yul\":7543:7550   */\n              dup6\n                /* \"#utility.yul\":7534:7540   */\n              dup3\n                /* \"#utility.yul\":7523:7532   */\n              dup7\n                /* \"#utility.yul\":7519:7541   */\n              add\n                /* \"#utility.yul\":7498:7551   */\n              tag_170\n              jump\t// in\n            tag_269:\n                /* \"#utility.yul\":7488:7551   */\n              swap3\n              pop\n                /* \"#utility.yul\":7444:7561   */\n              pop\n                /* \"#utility.yul\":7600:7602   */\n              0x20\n                /* \"#utility.yul\":7626:7676   */\n              tag_270\n                /* \"#utility.yul\":7668:7675   */\n              dup6\n                /* \"#utility.yul\":7659:7665   */\n              dup3\n                /* \"#utility.yul\":7648:7657   */\n              dup7\n                /* \"#utility.yul\":7644:7666   */\n              add\n                /* \"#utility.yul\":7626:7676   */\n              tag_174\n              jump\t// in\n            tag_270:\n                /* \"#utility.yul\":7616:7676   */\n              swap2\n              pop\n                /* \"#utility.yul\":7571:7686   */\n              pop\n                /* \"#utility.yul\":7225:7693   */\n              swap3\n              pop\n              swap3\n              swap1\n              pop\n              jump\t// out\n                /* \"#utility.yul\":7699:8028   */\n            tag_57:\n                /* \"#utility.yul\":7758:7764   */\n              0x00\n                /* \"#utility.yul\":7807:7809   */\n              0x20\n                /* \"#utility.yul\":7795:7804   */\n              dup3\n                /* \"#utility.yul\":7786:7793   */\n              dup5\n                /* \"#utility.yul\":7782:7805   */\n              sub\n                /* \"#utility.yul\":7778:7810   */\n              slt\n                /* \"#utility.yul\":7775:7894   */\n              iszero\n              tag_272\n              jumpi\n                /* \"#utility.yul\":7813:7892   */\n              tag_273\n              tag_151\n              jump\t// in\n            tag_273:\n                /* \"#utility.yul\":7775:7894   */\n            tag_272:\n                /* \"#utility.yul\":7933:7934   */\n              0x00\n                /* \"#utility.yul\":7958:8011   */\n              tag_274\n                /* \"#utility.yul\":8003:8010   */\n              dup5\n                /* \"#utility.yul\":7994:8000   */\n              dup3\n                /* \"#utility.yul\":7983:7992   */\n              dup6\n                /* \"#utility.yul\":7979:8001   */\n              add\n                /* \"#utility.yul\":7958:8011   */\n              tag_170\n              jump\t// in\n            tag_274:\n                /* \"#utility.yul\":7948:8011   */\n              swap2\n              pop\n                /* \"#utility.yul\":7904:8021   */\n              pop\n                /* \"#utility.yul\":7699:8028   */\n              swap3\n              swap2\n              pop\n              pop\n              jump\t// out\n                /* \"#utility.yul\":8034:8888   */\n            tag_60:\n                /* \"#utility.yul\":8281:8285   */\n              0x00\n                /* \"#utility.yul\":8319:8322   */\n              0xc0\n                /* \"#utility.yul\":8308:8317   */\n              dup3\n                /* \"#utility.yul\":8304:8323   */\n              add\n                /* \"#utility.yul\":8296:8323   */\n              swap1\n              pop\n                /* \"#utility.yul\":8333:8404   */\n              tag_276\n                /* \"#utility.yul\":8401:8402   */\n              0x00\n                /* \"#utility.yul\":8390:8399   */\n              dup4\n                /* \"#utility.yul\":8386:8403   */\n              add\n                /* \"#utility.yul\":8377:8383   */\n              dup10\n                /* \"#utility.yul\":8333:8404   */\n              tag_171\n              jump\t// in\n            tag_276:\n                /* \"#utility.yul\":8451:8460   */\n              dup2\n                /* \"#utility.yul\":8445:8449   */\n              dup2\n                /* \"#utility.yul\":8441:8461   */\n              sub\n                /* \"#utility.yul\":8436:8438   */\n              0x20\n                /* \"#utility.yul\":8425:8434   */\n              dup4\n                /* \"#utility.yul\":8421:8439   */\n              add\n                /* \"#utility.yul\":8414:8462   */\n              mstore\n                /* \"#utility.yul\":8479:8557   */\n              tag_277\n                /* \"#utility.yul\":8552:8556   */\n              dup2\n                /* \"#utility.yul\":8543:8549   */\n              dup9\n                /* \"#utility.yul\":8479:8557   */\n              tag_149\n              jump\t// in\n            tag_277:\n                /* \"#utility.yul\":8471:8557   */\n              swap1\n              pop\n                /* \"#utility.yul\":8567:8639   */\n              tag_278\n                /* \"#utility.yul\":8635:8637   */\n              0x40\n                /* \"#utility.yul\":8624:8633   */\n              dup4\n                /* \"#utility.yul\":8620:8638   */\n              add\n                /* \"#utility.yul\":8611:8617   */\n              dup8\n                /* \"#utility.yul\":8567:8639   */\n              tag_171\n              jump\t// in\n            tag_278:\n                /* \"#utility.yul\":8649:8721   */\n              tag_279\n                /* \"#utility.yul\":8717:8719   */\n              0x60\n                /* \"#utility.yul\":8706:8715   */\n              dup4\n                /* \"#utility.yul\":8702:8720   */\n              add\n                /* \"#utility.yul\":8693:8699   */\n              dup7\n                /* \"#utility.yul\":8649:8721   */\n              tag_172\n              jump\t// in\n            tag_279:\n                /* \"#utility.yul\":8731:8804   */\n              tag_280\n                /* \"#utility.yul\":8799:8802   */\n              0x80\n                /* \"#utility.yul\":8788:8797   */\n              dup4\n                /* \"#utility.yul\":8784:8803   */\n              add\n                /* \"#utility.yul\":8775:8781   */\n              dup6\n                /* \"#utility.yul\":8731:8804   */\n              tag_171\n              jump\t// in\n            tag_280:\n                /* \"#utility.yul\":8814:8881   */\n              tag_281\n                /* \"#utility.yul\":8876:8879   */\n              0xa0\n                /* \"#utility.yul\":8865:8874   */\n              dup4\n                /* \"#utility.yul\":8861:8880   */\n              add\n                /* \"#utility.yul\":8852:8858   */\n              dup5\n                /* \"#utility.yul\":8814:8881   */\n              tag_158\n              jump\t// in\n            tag_281:\n                /* \"#utility.yul\":8034:8888   */\n              swap8\n              swap7\n              pop\n              pop\n              pop\n              pop\n              pop\n              pop\n              pop\n              jump\t// out\n                /* \"#utility.yul\":8894:9074   */\n            tag_175:\n                /* \"#utility.yul\":8942:9019   */\n              0x4e487b7100000000000000000000000000000000000000000000000000000000\n                /* \"#utility.yul\":8939:8940   */\n              0x00\n                /* \"#utility.yul\":8932:9020   */\n              mstore\n                /* \"#utility.yul\":9039:9043   */\n              0x22\n                /* \"#utility.yul\":9036:9037   */\n              0x04\n                /* \"#utility.yul\":9029:9044   */\n              mstore\n                /* \"#utility.yul\":9063:9067   */\n              0x24\n                /* \"#utility.yul\":9060:9061   */\n              0x00\n                /* \"#utility.yul\":9053:9068   */\n              revert\n                /* \"#utility.yul\":9080:9400   */\n            tag_68:\n                /* \"#utility.yul\":9124:9130   */\n              0x00\n                /* \"#utility.yul\":9161:9162   */\n              0x02\n                /* \"#utility.yul\":9155:9159   */\n              dup3\n                /* \"#utility.yul\":9151:9163   */\n              div\n                /* \"#utility.yul\":9141:9163   */\n              swap1\n              pop\n                /* \"#utility.yul\":9208:9209   */\n              0x01\n                /* \"#utility.yul\":9202:9206   */\n              dup3\n                /* \"#utility.yul\":9198:9210   */\n              and\n                /* \"#utility.yul\":9229:9247   */\n              dup1\n                /* \"#utility.yul\":9219:9300   */\n              tag_284\n              jumpi\n                /* \"#utility.yul\":9285:9289   */\n              0x7f\n                /* \"#utility.yul\":9277:9283   */\n              dup3\n                /* \"#utility.yul\":9273:9290   */\n              and\n                /* \"#utility.yul\":9263:9290   */\n              swap2\n              pop\n                /* \"#utility.yul\":9219:9300   */\n            tag_284:\n                /* \"#utility.yul\":9347:9349   */\n              0x20\n                /* \"#utility.yul\":9339:9345   */\n              dup3\n                /* \"#utility.yul\":9336:9350   */\n              lt\n                /* \"#utility.yul\":9316:9334   */\n              dup2\n                /* \"#utility.yul\":9313:9351   */\n              eq\n                /* \"#utility.yul\":9310:9394   */\n              iszero\n              tag_285\n              jumpi\n                /* \"#utility.yul\":9366:9384   */\n              tag_286\n              tag_175\n              jump\t// in\n            tag_286:\n                /* \"#utility.yul\":9310:9394   */\n            tag_285:\n                /* \"#utility.yul\":9131:9400   */\n              pop\n                /* \"#utility.yul\":9080:9400   */\n              swap2\n              swap1\n              pop\n              jump\t// out\n                /* \"#utility.yul\":9406:9586   */\n            tag_176:\n                /* \"#utility.yul\":9454:9531   */\n              0x4e487b7100000000000000000000000000000000000000000000000000000000\n                /* \"#utility.yul\":9451:9452   */\n              0x00\n                /* \"#utility.yul\":9444:9532   */\n              mstore\n                /* \"#utility.yul\":9551:9555   */\n              0x11\n                /* \"#utility.yul\":9548:9549   */\n              0x04\n                /* \"#utility.yul\":9541:9556   */\n              mstore\n                /* \"#utility.yul\":9575:9579   */\n              0x24\n                /* \"#utility.yul\":9572:9573   */\n              0x00\n                /* \"#utility.yul\":9565:9580   */\n              revert\n                /* \"#utility.yul\":9592:9897   */\n            tag_77:\n                /* \"#utility.yul\":9632:9635   */\n              0x00\n                /* \"#utility.yul\":9651:9671   */\n              tag_289\n                /* \"#utility.yul\":9669:9670   */\n              dup3\n                /* \"#utility.yul\":9651:9671   */\n              tag_168\n              jump\t// in\n            tag_289:\n                /* \"#utility.yul\":9646:9671   */\n              swap2\n              pop\n                /* \"#utility.yul\":9685:9705   */\n              tag_290\n                /* \"#utility.yul\":9703:9704   */\n              dup4\n                /* \"#utility.yul\":9685:9705   */\n              tag_168\n              jump\t// in\n            tag_290:\n                /* \"#utility.yul\":9680:9705   */\n              swap3\n              pop\n                /* \"#utility.yul\":9839:9840   */\n              dup3\n                /* \"#utility.yul\":9771:9837   */\n              0xffffffffffffffffffffffffffffffffffffffffffffffffffffffffffffffff\n                /* \"#utility.yul\":9767:9841   */\n              sub\n                /* \"#utility.yul\":9764:9765   */\n              dup3\n                /* \"#utility.yul\":9761:9842   */\n              gt\n                /* \"#utility.yul\":9758:9865   */\n              iszero\n              tag_291\n              jumpi\n                /* \"#utility.yul\":9845:9863   */\n              tag_292\n              tag_176\n              jump\t// in\n            tag_292:\n                /* \"#utility.yul\":9758:9865   */\n            tag_291:\n                /* \"#utility.yul\":9889:9890   */\n              dup3\n                /* \"#utility.yul\":9886:9887   */\n              dup3\n                /* \"#utility.yul\":9882:9891   */\n              add\n                /* \"#utility.yul\":9875:9891   */\n              swap1\n              pop\n                /* \"#utility.yul\":9592:9897   */\n              swap3\n              swap2\n              pop\n              pop\n              jump\t// out\n                /* \"#utility.yul\":9903:10083   */\n            tag_92:\n                /* \"#utility.yul\":9951:10028   */\n              0x4e487b7100000000000000000000000000000000000000000000000000000000\n                /* \"#utility.yul\":9948:9949   */\n              0x00\n                /* \"#utility.yul\":9941:10029   */\n              mstore\n                /* \"#utility.yul\":10048:10052   */\n              0x32\n                /* \"#utility.yul\":10045:10046   */\n              0x04\n                /* \"#utility.yul\":10038:10053   */\n              mstore\n                /* \"#utility.yul\":10072:10076   */\n              0x24\n                /* \"#utility.yul\":10069:10070   */\n              0x00\n                /* \"#utility.yul\":10062:10077   */\n              revert\n                /* \"#utility.yul\":10089:10322   */\n            tag_107:\n                /* \"#utility.yul\":10128:10131   */\n              0x00\n                /* \"#utility.yul\":10151:10175   */\n              tag_295\n                /* \"#utility.yul\":10169:10174   */\n              dup3\n                /* \"#utility.yul\":10151:10175   */\n              tag_168\n              jump\t// in\n            tag_295:\n                /* \"#utility.yul\":10142:10175   */\n              swap2\n              pop\n                /* \"#utility.yul\":10197:10263   */\n              0xffffffffffffffffffffffffffffffffffffffffffffffffffffffffffffffff\n                /* \"#utility.yul\":10190:10195   */\n              dup3\n                /* \"#utility.yul\":10187:10264   */\n              eq\n                /* \"#utility.yul\":10184:10287   */\n              iszero\n              tag_296\n              jumpi\n                /* \"#utility.yul\":10267:10285   */\n              tag_297\n              tag_176\n              jump\t// in\n            tag_297:\n                /* \"#utility.yul\":10184:10287   */\n            tag_296:\n                /* \"#utility.yul\":10314:10315   */\n              0x01\n                /* \"#utility.yul\":10307:10312   */\n              dup3\n                /* \"#utility.yul\":10303:10316   */\n              add\n                /* \"#utility.yul\":10296:10316   */\n              swap1\n              pop\n                /* \"#utility.yul\":10089:10322   */\n              swap2\n              swap1\n              pop\n              jump\t// out\n                /* \"#utility.yul\":10328:10508   */\n            tag_177:\n                /* \"#utility.yul\":10376:10453   */\n              0x4e487b7100000000000000000000000000000000000000000000000000000000\n                /* \"#utility.yul\":10373:10374   */\n              0x00\n                /* \"#utility.yul\":10366:10454   */\n              mstore\n                /* \"#utility.yul\":10473:10477   */\n              0x12\n                /* \"#utility.yul\":10470:10471   */\n              0x04\n                /* \"#utility.yul\":10463:10478   */\n              mstore\n                /* \"#utility.yul\":10497:10501   */\n              0x24\n                /* \"#utility.yul\":10494:10495   */\n              0x00\n                /* \"#utility.yul\":10487:10502   */\n              revert\n                /* \"#utility.yul\":10514:10699   */\n            tag_109:\n                /* \"#utility.yul\":10554:10555   */\n              0x00\n                /* \"#utility.yul\":10571:10591   */\n              tag_300\n                /* \"#utility.yul\":10589:10590   */\n              dup3\n                /* \"#utility.yul\":10571:10591   */\n              tag_168\n              jump\t// in\n            tag_300:\n                /* \"#utility.yul\":10566:10591   */\n              swap2\n              pop\n                /* \"#utility.yul\":10605:10625   */\n              tag_301\n                /* \"#utility.yul\":10623:10624   */\n              dup4\n                /* \"#utility.yul\":10605:10625   */\n              tag_168\n              jump\t// in\n            tag_301:\n                /* \"#utility.yul\":10600:10625   */\n              swap3\n              pop\n                /* \"#utility.yul\":10644:10645   */\n              dup3\n                /* \"#utility.yul\":10634:10669   */\n              tag_302\n              jumpi\n                /* \"#utility.yul\":10649:10667   */\n              tag_303\n              tag_177\n              jump\t// in\n            tag_303:\n                /* \"#utility.yul\":10634:10669   */\n            tag_302:\n                /* \"#utility.yul\":10691:10692   */\n              dup3\n                /* \"#utility.yul\":10688:10689   */\n              dup3\n                /* \"#utility.yul\":10684:10693   */\n              div\n                /* \"#utility.yul\":10679:10693   */\n              swap1\n              pop\n                /* \"#utility.yul\":10514:10699   */\n              swap3\n              swap2\n              pop\n              pop\n              jump\t// out\n\n            auxdata: 0xa264697066735822122042a156c7504112f7b69fca2eb60a8ffd3dfbcf26055e04d75215fc25261d9b8e64736f6c634300080b0033\n        }\n    }\n\n    auxdata: 0xa264697066735822122086900c55caba4a1df1e3fd2bfd1d703ef937fc7fbe4e9f9e661e1c26864a90a264736f6c634300080b0033\n}\n","bytecode":{"linkReferences":{},"object":"608060405234801561001057600080fd5b50611d90806100206000396000f3fe60806040523480156200001157600080fd5b5060043610620000465760003560e01c80632a3a4d8a146200004b578063b2395a14146200006d578063eb47894214620000a3575b600080fd5b62000055620000c3565b60405162000064919062000395565b60405180910390f35b6200008b600480360381019062000085919062000408565b62000153565b6040516200009a91906200044b565b60405180910390f35b620000c16004803603810190620000bb9190620005ca565b62000193565b005b606060008054806020026020016040519081016040528092919081815260200182805480156200014957602002820191906000526020600020905b8160009054906101000a900473ffffffffffffffffffffffffffffffffffffffff1673ffffffffffffffffffffffffffffffffffffffff1681526020019060010190808311620000fe575b5050505050905090565b600081815481106200016457600080fd5b906000526020600020016000915054906101000a900473ffffffffffffffffffffffffffffffffffffffff1681565b600083338484604051620001a7906200023f565b620001b694939291906200072d565b604051809103906000f080158015620001d3573d6000803e3d6000fd5b5090506000819080600181540180825580915050600190039060005260206000200160009091909190916101000a81548173ffffffffffffffffffffffffffffffffffffffff021916908373ffffffffffffffffffffffffffffffffffffffff16021790555050505050565b6115d2806200078983390190565b600081519050919050565b600082825260208201905092915050565b6000819050602082019050919050565b600073ffffffffffffffffffffffffffffffffffffffff82169050919050565b6000819050919050565b6000620002c4620002be620002b88462000279565b62000299565b62000279565b9050919050565b6000620002d882620002a3565b9050919050565b6000620002ec82620002cb565b9050919050565b620002fe81620002df565b82525050565b6000620003128383620002f3565b60208301905092915050565b6000602082019050919050565b600062000338826200024d565b62000344818562000258565b9350620003518362000269565b8060005b83811015620003885781516200036c888262000304565b975062000379836200031e565b92505060018101905062000355565b5085935050505092915050565b60006020820190508181036000830152620003b181846200032b565b905092915050565b6000604051905090565b600080fd5b600080fd5b6000819050919050565b620003e281620003cd565b8114620003ee57600080fd5b50565b6000813590506200040281620003d7565b92915050565b600060208284031215620004215762000420620003c3565b5b60006200043184828501620003f1565b91505092915050565b6200044581620002df565b82525050565b60006020820190506200046260008301846200043a565b92915050565b600080fd5b600080fd5b6000601f19601f8301169050919050565b7f4e487b7100000000000000000000000000000000000000000000000000000000600052604160045260246000fd5b620004bd8262000472565b810181811067ffffffffffffffff82111715620004df57620004de62000483565b5b80604052505050565b6000620004f4620003b9565b9050620005028282620004b2565b919050565b600067ffffffffffffffff82111562000525576200052462000483565b5b620005308262000472565b9050602081019050919050565b82818337600083830152505050565b6000620005636200055d8462000507565b620004e8565b9050828152602081018484840111156200058257620005816200046d565b5b6200058f8482856200053d565b509392505050565b600082601f830112620005af57620005ae62000468565b5b8135620005c18482602086016200054c565b91505092915050565b600080600060608486031215620005e657620005e5620003c3565b5b6000620005f686828701620003f1565b935050602084013567ffffffffffffffff8111156200061a5762000619620003c8565b5b620006288682870162000597565b925050604084013567ffffffffffffffff8111156200064c576200064b620003c8565b5b6200065a8682870162000597565b9150509250925092565b6200066f81620003cd565b82525050565b6000620006828262000279565b9050919050565b620006948162000675565b82525050565b600081519050919050565b600082825260208201905092915050565b60005b83811015620006d6578082015181840152602081019050620006b9565b83811115620006e6576000848401525b50505050565b6000620006f9826200069a565b620007058185620006a5565b935062000717818560208601620006b6565b620007228162000472565b840191505092915050565b600060808201905062000744600083018762000664565b62000753602083018662000689565b8181036040830152620007678185620006ec565b905081810360608301526200077d8184620006ec565b90509594505050505056fe60806040523480156200001157600080fd5b50604051620015d2380380620015d28339818101604052810190620000379190620003a8565b82600460006101000a81548173ffffffffffffffffffffffffffffffffffffffff021916908373ffffffffffffffffffffffffffffffffffffffff160217905550816000908051906020019062000090929190620000bb565b508060019080519060200190620000a9929190620000bb565b508360058190555050505050620004bd565b828054620000c99062000487565b90600052602060002090601f016020900481019282620000ed576000855562000139565b82601f106200010857805160ff191683800117855562000139565b8280016001018555821562000139579182015b82811115620001385782518255916020019190600101906200011b565b5b5090506200014891906200014c565b5090565b5b80821115620001675760008160009055506001016200014d565b5090565b6000604051905090565b600080fd5b600080fd5b6000819050919050565b62000194816200017f565b8114620001a057600080fd5b50565b600081519050620001b48162000189565b92915050565b600073ffffffffffffffffffffffffffffffffffffffff82169050919050565b6000620001e782620001ba565b9050919050565b620001f981620001da565b81146200020557600080fd5b50565b6000815190506200021981620001ee565b92915050565b600080fd5b600080fd5b6000601f19601f8301169050919050565b7f4e487b7100000000000000000000000000000000000000000000000000000000600052604160045260246000fd5b620002748262000229565b810181811067ffffffffffffffff821117156200029657620002956200023a565b5b80604052505050565b6000620002ab6200016b565b9050620002b9828262000269565b919050565b600067ffffffffffffffff821115620002dc57620002db6200023a565b5b620002e78262000229565b9050602081019050919050565b60005b8381101562000314578082015181840152602081019050620002f7565b8381111562000324576000848401525b50505050565b6000620003416200033b84620002be565b6200029f565b90508281526020810184848401111562000360576200035f62000224565b5b6200036d848285620002f4565b509392505050565b600082601f8301126200038d576200038c6200021f565b5b81516200039f8482602086016200032a565b91505092915050565b60008060008060808587031215620003c557620003c462000175565b5b6000620003d587828801620001a3565b9450506020620003e88782880162000208565b935050604085015167ffffffffffffffff8111156200040c576200040b6200017a565b5b6200041a8782880162000375565b925050606085015167ffffffffffffffff8111156200043e576200043d6200017a565b5b6200044c8782880162000375565b91505092959194509250565b7f4e487b7100000000000000000000000000000000000000000000000000000000600052602260045260246000fd5b60006002820490506001821680620004a057607f821691505b60208210811415620004b757620004b662000458565b5b50919050565b61110580620004cd6000396000f3fe60806040526004361061009c5760003560e01c8063481c6a7511610064578063481c6a75146101885780637284e416146101b357806375f66b77146101de57806381d12c5814610207578063aaffadf314610249578063d7bb99ba146102745761009c565b806306fdde03146100a15780630a144391146100cc5780630bfd66c9146101095780630fe19d751461013257806312065fe01461015d575b600080fd5b3480156100ad57600080fd5b506100b661027e565b6040516100c39190610aeb565b60405180910390f35b3480156100d857600080fd5b506100f360048036038101906100ee9190610b7f565b61030c565b6040516101009190610bc7565b60405180910390f35b34801561011557600080fd5b50610130600480360381019061012b9190610d4d565b61032c565b005b34801561013e57600080fd5b5061014761046d565b6040516101549190610dcb565b60405180910390f35b34801561016957600080fd5b50610172610473565b60405161017f9190610dcb565b60405180910390f35b34801561019457600080fd5b5061019d61047b565b6040516101aa9190610df5565b60405180910390f35b3480156101bf57600080fd5b506101c86104a1565b6040516101d59190610aeb565b60405180910390f35b3480156101ea57600080fd5b5061020560048036038101906102009190610e3c565b61052f565b005b34801561021357600080fd5b5061022e60048036038101906102299190610e7c565b610827565b60405161024096959493929190610ea9565b60405180910390f35b34801561025557600080fd5b5061025e610928565b60405161026b9190610dcb565b60405180910390f35b61027c61092e565b005b6000805461028b90610f40565b80601f01602080910402602001604051908101604052809291908181526020018280546102b790610f40565b80156103045780601f106102d957610100808354040283529160200191610304565b820191906000526020600020905b8154815290600101906020018083116102e757829003601f168201915b505050505081565b60076020528060005260406000206000915054906101000a900460ff1681565b600460009054906101000a900473ffffffffffffffffffffffffffffffffffffffff1673ffffffffffffffffffffffffffffffffffffffff163373ffffffffffffffffffffffffffffffffffffffff161461038657600080fd5b6001600260008282546103999190610fa1565b925050819055504782106103ac57600080fd5b6000600660018160018154018082558091505003906000526020600020906007020190506002548160000181905550838160010190805190602001906103f39291906109af565b50828160020181905550818160030160006101000a81548173ffffffffffffffffffffffffffffffffffffffff021916908373ffffffffffffffffffffffffffffffffffffffff1602179055506000816004018190555060008160050160006101000a81548160ff02191690831515021790555050505050565b60025481565b600047905090565b600460009054906101000a900473ffffffffffffffffffffffffffffffffffffffff1681565b600180546104ae90610f40565b80601f01602080910402602001604051908101604052809291908181526020018280546104da90610f40565b80156105275780601f106104fc57610100808354040283529160200191610527565b820191906000526020600020905b81548152906001019060200180831161050a57829003601f168201915b505050505081565b600760003373ffffffffffffffffffffffffffffffffffffffff1673ffffffffffffffffffffffffffffffffffffffff16815260200190815260200160002060009054906101000a900460ff1661058557600080fd5b6006828154811061059957610598610ff7565b5b906000526020600020906007020160050160009054906101000a900460ff16156105c257600080fd5b600682815481106105d6576105d5610ff7565b5b906000526020600020906007020160060160003373ffffffffffffffffffffffffffffffffffffffff1673ffffffffffffffffffffffffffffffffffffffff16815260200190815260200160002060009054906101000a900460ff161561063c57600080fd5b806006838154811061065157610650610ff7565b5b906000526020600020906007020160060160003373ffffffffffffffffffffffffffffffffffffffff1673ffffffffffffffffffffffffffffffffffffffff16815260200190815260200160002060006101000a81548160ff02191690831515021790555080156106f857600682815481106106d0576106cf610ff7565b5b906000526020600020906007020160040160008154809291906106f290611026565b91905055505b6002600354610707919061109e565b6006838154811061071b5761071a610ff7565b5b90600052602060002090600702016004015411156108235760016006838154811061074957610748610ff7565b5b906000526020600020906007020160050160006101000a81548160ff0219169083151502179055506006828154811061078557610784610ff7565b5b906000526020600020906007020160030160009054906101000a900473ffffffffffffffffffffffffffffffffffffffff1673ffffffffffffffffffffffffffffffffffffffff166108fc600684815481106107e4576107e3610ff7565b5b9060005260206000209060070201600201549081150290604051600060405180830381858888f19350505050158015610821573d6000803e3d6000fd5b505b5050565b6006818154811061083757600080fd5b906000526020600020906007020160009150905080600001549080600101805461086090610f40565b80601f016020809104026020016040519081016040528092919081815260200182805461088c90610f40565b80156108d95780601f106108ae576101008083540402835291602001916108d9565b820191906000526020600020905b8154815290600101906020018083116108bc57829003601f168201915b5050505050908060020154908060030160009054906101000a900473ffffffffffffffffffffffffffffffffffffffff16908060040154908060050160009054906101000a900460ff16905086565b60055481565b60055434101561093d57600080fd5b6003600081548092919061095090611026565b91905055506001600760003373ffffffffffffffffffffffffffffffffffffffff1673ffffffffffffffffffffffffffffffffffffffff16815260200190815260200160002060006101000a81548160ff021916908315150217905550565b8280546109bb90610f40565b90600052602060002090601f0160209004810192826109dd5760008555610a24565b82601f106109f657805160ff1916838001178555610a24565b82800160010185558215610a24579182015b82811115610a23578251825591602001919060010190610a08565b5b509050610a319190610a35565b5090565b5b80821115610a4e576000816000905550600101610a36565b5090565b600081519050919050565b600082825260208201905092915050565b60005b83811015610a8c578082015181840152602081019050610a71565b83811115610a9b576000848401525b50505050565b6000601f19601f8301169050919050565b6000610abd82610a52565b610ac78185610a5d565b9350610ad7818560208601610a6e565b610ae081610aa1565b840191505092915050565b60006020820190508181036000830152610b058184610ab2565b905092915050565b6000604051905090565b600080fd5b600080fd5b600073ffffffffffffffffffffffffffffffffffffffff82169050919050565b6000610b4c82610b21565b9050919050565b610b5c81610b41565b8114610b6757600080fd5b50565b600081359050610b7981610b53565b92915050565b600060208284031215610b9557610b94610b17565b5b6000610ba384828501610b6a565b91505092915050565b60008115159050919050565b610bc181610bac565b82525050565b6000602082019050610bdc6000830184610bb8565b92915050565b600080fd5b600080fd5b7f4e487b7100000000000000000000000000000000000000000000000000000000600052604160045260246000fd5b610c2482610aa1565b810181811067ffffffffffffffff82111715610c4357610c42610bec565b5b80604052505050565b6000610c56610b0d565b9050610c628282610c1b565b919050565b600067ffffffffffffffff821115610c8257610c81610bec565b5b610c8b82610aa1565b9050602081019050919050565b82818337600083830152505050565b6000610cba610cb584610c67565b610c4c565b905082815260208101848484011115610cd657610cd5610be7565b5b610ce1848285610c98565b509392505050565b600082601f830112610cfe57610cfd610be2565b5b8135610d0e848260208601610ca7565b91505092915050565b6000819050919050565b610d2a81610d17565b8114610d3557600080fd5b50565b600081359050610d4781610d21565b92915050565b600080600060608486031215610d6657610d65610b17565b5b600084013567ffffffffffffffff811115610d8457610d83610b1c565b5b610d9086828701610ce9565b9350506020610da186828701610d38565b9250506040610db286828701610b6a565b9150509250925092565b610dc581610d17565b82525050565b6000602082019050610de06000830184610dbc565b92915050565b610def81610b41565b82525050565b6000602082019050610e0a6000830184610de6565b92915050565b610e1981610bac565b8114610e2457600080fd5b50565b600081359050610e3681610e10565b92915050565b60008060408385031215610e5357610e52610b17565b5b6000610e6185828601610d38565b9250506020610e7285828601610e27565b9150509250929050565b600060208284031215610e9257610e91610b17565b5b6000610ea084828501610d38565b91505092915050565b600060c082019050610ebe6000830189610dbc565b8181036020830152610ed08188610ab2565b9050610edf6040830187610dbc565b610eec6060830186610de6565b610ef96080830185610dbc565b610f0660a0830184610bb8565b979650505050505050565b7f4e487b7100000000000000000000000000000000000000000000000000000000600052602260045260246000fd5b60006002820490506001821680610f5857607f821691505b60208210811415610f6c57610f6b610f11565b5b50919050565b7f4e487b7100000000000000000000000000000000000000000000000000000000600052601160045260246000fd5b6000610fac82610d17565b9150610fb783610d17565b9250827fffffffffffffffffffffffffffffffffffffffffffffffffffffffffffffffff03821115610fec57610feb610f72565b5b828201905092915050565b7f4e487b7100000000000000000000000000000000000000000000000000000000600052603260045260246000fd5b600061103182610d17565b91507fffffffffffffffffffffffffffffffffffffffffffffffffffffffffffffffff82141561106457611063610f72565b5b600182019050919050565b7f4e487b7100000000000000000000000000000000000000000000000000000000600052601260045260246000fd5b60006110a982610d17565b91506110b483610d17565b9250826110c4576110c361106f565b5b82820490509291505056fea264697066735822122042a156c7504112f7b69fca2eb60a8ffd3dfbcf26055e04d75215fc25261d9b8e64736f6c634300080b0033a264697066735822122086900c55caba4a1df1e3fd2bfd1d703ef937fc7fbe4e9f9e661e1c26864a90a264736f6c634300080b0033","opcodes":"PUSH1 0x80 PUSH1 0x40 MSTORE CALLVALUE DUP1 ISZERO PUSH2 0x10 JUMPI PUSH1 0x0 DUP1 REVERT JUMPDEST POP PUSH2 0x1D90 DUP1 PUSH2 0x20 PUSH1 0x0 CODECOPY PUSH1 0x0 RETURN INVALID PUSH1 0x80 PUSH1 0x40 MSTORE CALLVALUE DUP1 ISZERO PUSH3 0x11 JUMPI PUSH1 0x0 DUP1 REVERT JUMPDEST POP PUSH1 0x4 CALLDATASIZE LT PUSH3 0x46 JUMPI PUSH1 0x0 CALLDATALOAD PUSH1 0xE0 SHR DUP1 PUSH4 0x2A3A4D8A EQ PUSH3 0x4B JUMPI DUP1 PUSH4 0xB2395A14 EQ PUSH3 0x6D JUMPI DUP1 PUSH4 0xEB478942 EQ PUSH3 0xA3 JUMPI JUMPDEST PUSH1 0x0 DUP1 REVERT JUMPDEST PUSH3 0x55 PUSH3 0xC3 JUMP JUMPDEST PUSH1 0x40 MLOAD PUSH3 0x64 SWAP2 SWAP1 PUSH3 0x395 JUMP JUMPDEST PUSH1 0x40 MLOAD DUP1 SWAP2 SUB SWAP1 RETURN JUMPDEST PUSH3 0x8B PUSH1 0x4 DUP1 CALLDATASIZE SUB DUP2 ADD SWAP1 PUSH3 0x85 SWAP2 SWAP1 PUSH3 0x408 JUMP JUMPDEST PUSH3 0x153 JUMP JUMPDEST PUSH1 0x40 MLOAD PUSH3 0x9A SWAP2 SWAP1 PUSH3 0x44B JUMP JUMPDEST PUSH1 0x40 MLOAD DUP1 SWAP2 SUB SWAP1 RETURN JUMPDEST PUSH3 0xC1 PUSH1 0x4 DUP1 CALLDATASIZE SUB DUP2 ADD SWAP1 PUSH3 0xBB SWAP2 SWAP1 PUSH3 0x5CA JUMP JUMPDEST PUSH3 0x193 JUMP JUMPDEST STOP JUMPDEST PUSH1 0x60 PUSH1 0x0 DUP1 SLOAD DUP1 PUSH1 0x20 MUL PUSH1 0x20 ADD PUSH1 0x40 MLOAD SWAP1 DUP2 ADD PUSH1 0x40 MSTORE DUP1 SWAP3 SWAP2 SWAP1 DUP2 DUP2 MSTORE PUSH1 0x20 ADD DUP3 DUP1 SLOAD DUP1 ISZERO PUSH3 0x149 JUMPI PUSH1 0x20 MUL DUP3 ADD SWAP2 SWAP1 PUSH1 0x0 MSTORE PUSH1 0x20 PUSH1 0x0 KECCAK256 SWAP1 JUMPDEST DUP2 PUSH1 0x0 SWAP1 SLOAD SWAP1 PUSH2 0x100 EXP SWAP1 DIV PUSH20 0xFFFFFFFFFFFFFFFFFFFFFFFFFFFFFFFFFFFFFFFF AND PUSH20 0xFFFFFFFFFFFFFFFFFFFFFFFFFFFFFFFFFFFFFFFF AND DUP2 MSTORE PUSH1 0x20 ADD SWAP1 PUSH1 0x1 ADD SWAP1 DUP1 DUP4 GT PUSH3 0xFE JUMPI JUMPDEST POP POP POP POP POP SWAP1 POP SWAP1 JUMP JUMPDEST PUSH1 0x0 DUP2 DUP2 SLOAD DUP2 LT PUSH3 0x164 JUMPI PUSH1 0x0 DUP1 REVERT JUMPDEST SWAP1 PUSH1 0x0 MSTORE PUSH1 0x20 PUSH1 0x0 KECCAK256 ADD PUSH1 0x0 SWAP2 POP SLOAD SWAP1 PUSH2 0x100 EXP SWAP1 DIV PUSH20 0xFFFFFFFFFFFFFFFFFFFFFFFFFFFFFFFFFFFFFFFF AND DUP2 JUMP JUMPDEST PUSH1 0x0 DUP4 CALLER DUP5 DUP5 PUSH1 0x40 MLOAD PUSH3 0x1A7 SWAP1 PUSH3 0x23F JUMP JUMPDEST PUSH3 0x1B6 SWAP5 SWAP4 SWAP3 SWAP2 SWAP1 PUSH3 0x72D JUMP JUMPDEST PUSH1 0x40 MLOAD DUP1 SWAP2 SUB SWAP1 PUSH1 0x0 CREATE DUP1 ISZERO DUP1 ISZERO PUSH3 0x1D3 JUMPI RETURNDATASIZE PUSH1 0x0 DUP1 RETURNDATACOPY RETURNDATASIZE PUSH1 0x0 REVERT JUMPDEST POP SWAP1 POP PUSH1 0x0 DUP2 SWAP1 DUP1 PUSH1 0x1 DUP2 SLOAD ADD DUP1 DUP3 SSTORE DUP1 SWAP2 POP POP PUSH1 0x1 SWAP1 SUB SWAP1 PUSH1 0x0 MSTORE PUSH1 0x20 PUSH1 0x0 KECCAK256 ADD PUSH1 0x0 SWAP1 SWAP2 SWAP1 SWAP2 SWAP1 SWAP2 PUSH2 0x100 EXP DUP2 SLOAD DUP2 PUSH20 0xFFFFFFFFFFFFFFFFFFFFFFFFFFFFFFFFFFFFFFFF MUL NOT AND SWAP1 DUP4 PUSH20 0xFFFFFFFFFFFFFFFFFFFFFFFFFFFFFFFFFFFFFFFF AND MUL OR SWAP1 SSTORE POP POP POP POP POP JUMP JUMPDEST PUSH2 0x15D2 DUP1 PUSH3 0x789 DUP4 CODECOPY ADD SWAP1 JUMP JUMPDEST PUSH1 0x0 DUP2 MLOAD SWAP1 POP SWAP2 SWAP1 POP JUMP JUMPDEST PUSH1 0x0 DUP3 DUP3 MSTORE PUSH1 0x20 DUP3 ADD SWAP1 POP SWAP3 SWAP2 POP POP JUMP JUMPDEST PUSH1 0x0 DUP2 SWAP1 POP PUSH1 0x20 DUP3 ADD SWAP1 POP SWAP2 SWAP1 POP JUMP JUMPDEST PUSH1 0x0 PUSH20 0xFFFFFFFFFFFFFFFFFFFFFFFFFFFFFFFFFFFFFFFF DUP3 AND SWAP1 POP SWAP2 SWAP1 POP JUMP JUMPDEST PUSH1 0x0 DUP2 SWAP1 POP SWAP2 SWAP1 POP JUMP JUMPDEST PUSH1 0x0 PUSH3 0x2C4 PUSH3 0x2BE PUSH3 0x2B8 DUP5 PUSH3 0x279 JUMP JUMPDEST PUSH3 0x299 JUMP JUMPDEST PUSH3 0x279 JUMP JUMPDEST SWAP1 POP SWAP2 SWAP1 POP JUMP JUMPDEST PUSH1 0x0 PUSH3 0x2D8 DUP3 PUSH3 0x2A3 JUMP JUMPDEST SWAP1 POP SWAP2 SWAP1 POP JUMP JUMPDEST PUSH1 0x0 PUSH3 0x2EC DUP3 PUSH3 0x2CB JUMP JUMPDEST SWAP1 POP SWAP2 SWAP1 POP JUMP JUMPDEST PUSH3 0x2FE DUP2 PUSH3 0x2DF JUMP JUMPDEST DUP3 MSTORE POP POP JUMP JUMPDEST PUSH1 0x0 PUSH3 0x312 DUP4 DUP4 PUSH3 0x2F3 JUMP JUMPDEST PUSH1 0x20 DUP4 ADD SWAP1 POP SWAP3 SWAP2 POP POP JUMP JUMPDEST PUSH1 0x0 PUSH1 0x20 DUP3 ADD SWAP1 POP SWAP2 SWAP1 POP JUMP JUMPDEST PUSH1 0x0 PUSH3 0x338 DUP3 PUSH3 0x24D JUMP JUMPDEST PUSH3 0x344 DUP2 DUP6 PUSH3 0x258 JUMP JUMPDEST SWAP4 POP PUSH3 0x351 DUP4 PUSH3 0x269 JUMP JUMPDEST DUP1 PUSH1 0x0 JUMPDEST DUP4 DUP2 LT ISZERO PUSH3 0x388 JUMPI DUP2 MLOAD PUSH3 0x36C DUP9 DUP3 PUSH3 0x304 JUMP JUMPDEST SWAP8 POP PUSH3 0x379 DUP4 PUSH3 0x31E JUMP JUMPDEST SWAP3 POP POP PUSH1 0x1 DUP2 ADD SWAP1 POP PUSH3 0x355 JUMP JUMPDEST POP DUP6 SWAP4 POP POP POP POP SWAP3 SWAP2 POP POP JUMP JUMPDEST PUSH1 0x0 PUSH1 0x20 DUP3 ADD SWAP1 POP DUP2 DUP2 SUB PUSH1 0x0 DUP4 ADD MSTORE PUSH3 0x3B1 DUP2 DUP5 PUSH3 0x32B JUMP JUMPDEST SWAP1 POP SWAP3 SWAP2 POP POP JUMP JUMPDEST PUSH1 0x0 PUSH1 0x40 MLOAD SWAP1 POP SWAP1 JUMP JUMPDEST PUSH1 0x0 DUP1 REVERT JUMPDEST PUSH1 0x0 DUP1 REVERT JUMPDEST PUSH1 0x0 DUP2 SWAP1 POP SWAP2 SWAP1 POP JUMP JUMPDEST PUSH3 0x3E2 DUP2 PUSH3 0x3CD JUMP JUMPDEST DUP2 EQ PUSH3 0x3EE JUMPI PUSH1 0x0 DUP1 REVERT JUMPDEST POP JUMP JUMPDEST PUSH1 0x0 DUP2 CALLDATALOAD SWAP1 POP PUSH3 0x402 DUP2 PUSH3 0x3D7 JUMP JUMPDEST SWAP3 SWAP2 POP POP JUMP JUMPDEST PUSH1 0x0 PUSH1 0x20 DUP3 DUP5 SUB SLT ISZERO PUSH3 0x421 JUMPI PUSH3 0x420 PUSH3 0x3C3 JUMP JUMPDEST JUMPDEST PUSH1 0x0 PUSH3 0x431 DUP5 DUP3 DUP6 ADD PUSH3 0x3F1 JUMP JUMPDEST SWAP2 POP POP SWAP3 SWAP2 POP POP JUMP JUMPDEST PUSH3 0x445 DUP2 PUSH3 0x2DF JUMP JUMPDEST DUP3 MSTORE POP POP JUMP JUMPDEST PUSH1 0x0 PUSH1 0x20 DUP3 ADD SWAP1 POP PUSH3 0x462 PUSH1 0x0 DUP4 ADD DUP5 PUSH3 0x43A JUMP JUMPDEST SWAP3 SWAP2 POP POP JUMP JUMPDEST PUSH1 0x0 DUP1 REVERT JUMPDEST PUSH1 0x0 DUP1 REVERT JUMPDEST PUSH1 0x0 PUSH1 0x1F NOT PUSH1 0x1F DUP4 ADD AND SWAP1 POP SWAP2 SWAP1 POP JUMP JUMPDEST PUSH32 0x4E487B7100000000000000000000000000000000000000000000000000000000 PUSH1 0x0 MSTORE PUSH1 0x41 PUSH1 0x4 MSTORE PUSH1 0x24 PUSH1 0x0 REVERT JUMPDEST PUSH3 0x4BD DUP3 PUSH3 0x472 JUMP JUMPDEST DUP2 ADD DUP2 DUP2 LT PUSH8 0xFFFFFFFFFFFFFFFF DUP3 GT OR ISZERO PUSH3 0x4DF JUMPI PUSH3 0x4DE PUSH3 0x483 JUMP JUMPDEST JUMPDEST DUP1 PUSH1 0x40 MSTORE POP POP POP JUMP JUMPDEST PUSH1 0x0 PUSH3 0x4F4 PUSH3 0x3B9 JUMP JUMPDEST SWAP1 POP PUSH3 0x502 DUP3 DUP3 PUSH3 0x4B2 JUMP JUMPDEST SWAP2 SWAP1 POP JUMP JUMPDEST PUSH1 0x0 PUSH8 0xFFFFFFFFFFFFFFFF DUP3 GT ISZERO PUSH3 0x525 JUMPI PUSH3 0x524 PUSH3 0x483 JUMP JUMPDEST JUMPDEST PUSH3 0x530 DUP3 PUSH3 0x472 JUMP JUMPDEST SWAP1 POP PUSH1 0x20 DUP2 ADD SWAP1 POP SWAP2 SWAP1 POP JUMP JUMPDEST DUP3 DUP2 DUP4 CALLDATACOPY PUSH1 0x0 DUP4 DUP4 ADD MSTORE POP POP POP JUMP JUMPDEST PUSH1 0x0 PUSH3 0x563 PUSH3 0x55D DUP5 PUSH3 0x507 JUMP JUMPDEST PUSH3 0x4E8 JUMP JUMPDEST SWAP1 POP DUP3 DUP2 MSTORE PUSH1 0x20 DUP2 ADD DUP5 DUP5 DUP5 ADD GT ISZERO PUSH3 0x582 JUMPI PUSH3 0x581 PUSH3 0x46D JUMP JUMPDEST JUMPDEST PUSH3 0x58F DUP5 DUP3 DUP6 PUSH3 0x53D JUMP JUMPDEST POP SWAP4 SWAP3 POP POP POP JUMP JUMPDEST PUSH1 0x0 DUP3 PUSH1 0x1F DUP4 ADD SLT PUSH3 0x5AF JUMPI PUSH3 0x5AE PUSH3 0x468 JUMP JUMPDEST JUMPDEST DUP2 CALLDATALOAD PUSH3 0x5C1 DUP5 DUP3 PUSH1 0x20 DUP7 ADD PUSH3 0x54C JUMP JUMPDEST SWAP2 POP POP SWAP3 SWAP2 POP POP JUMP JUMPDEST PUSH1 0x0 DUP1 PUSH1 0x0 PUSH1 0x60 DUP5 DUP7 SUB SLT ISZERO PUSH3 0x5E6 JUMPI PUSH3 0x5E5 PUSH3 0x3C3 JUMP JUMPDEST JUMPDEST PUSH1 0x0 PUSH3 0x5F6 DUP7 DUP3 DUP8 ADD PUSH3 0x3F1 JUMP JUMPDEST SWAP4 POP POP PUSH1 0x20 DUP5 ADD CALLDATALOAD PUSH8 0xFFFFFFFFFFFFFFFF DUP2 GT ISZERO PUSH3 0x61A JUMPI PUSH3 0x619 PUSH3 0x3C8 JUMP JUMPDEST JUMPDEST PUSH3 0x628 DUP7 DUP3 DUP8 ADD PUSH3 0x597 JUMP JUMPDEST SWAP3 POP POP PUSH1 0x40 DUP5 ADD CALLDATALOAD PUSH8 0xFFFFFFFFFFFFFFFF DUP2 GT ISZERO PUSH3 0x64C JUMPI PUSH3 0x64B PUSH3 0x3C8 JUMP JUMPDEST JUMPDEST PUSH3 0x65A DUP7 DUP3 DUP8 ADD PUSH3 0x597 JUMP JUMPDEST SWAP2 POP POP SWAP3 POP SWAP3 POP SWAP3 JUMP JUMPDEST PUSH3 0x66F DUP2 PUSH3 0x3CD JUMP JUMPDEST DUP3 MSTORE POP POP JUMP JUMPDEST PUSH1 0x0 PUSH3 0x682 DUP3 PUSH3 0x279 JUMP JUMPDEST SWAP1 POP SWAP2 SWAP1 POP JUMP JUMPDEST PUSH3 0x694 DUP2 PUSH3 0x675 JUMP JUMPDEST DUP3 MSTORE POP POP JUMP JUMPDEST PUSH1 0x0 DUP2 MLOAD SWAP1 POP SWAP2 SWAP1 POP JUMP JUMPDEST PUSH1 0x0 DUP3 DUP3 MSTORE PUSH1 0x20 DUP3 ADD SWAP1 POP SWAP3 SWAP2 POP POP JUMP JUMPDEST PUSH1 0x0 JUMPDEST DUP4 DUP2 LT ISZERO PUSH3 0x6D6 JUMPI DUP1 DUP3 ADD MLOAD DUP2 DUP5 ADD MSTORE PUSH1 0x20 DUP2 ADD SWAP1 POP PUSH3 0x6B9 JUMP JUMPDEST DUP4 DUP2 GT ISZERO PUSH3 0x6E6 JUMPI PUSH1 0x0 DUP5 DUP5 ADD MSTORE JUMPDEST POP POP POP POP JUMP JUMPDEST PUSH1 0x0 PUSH3 0x6F9 DUP3 PUSH3 0x69A JUMP JUMPDEST PUSH3 0x705 DUP2 DUP6 PUSH3 0x6A5 JUMP JUMPDEST SWAP4 POP PUSH3 0x717 DUP2 DUP6 PUSH1 0x20 DUP7 ADD PUSH3 0x6B6 JUMP JUMPDEST PUSH3 0x722 DUP2 PUSH3 0x472 JUMP JUMPDEST DUP5 ADD SWAP2 POP POP SWAP3 SWAP2 POP POP JUMP JUMPDEST PUSH1 0x0 PUSH1 0x80 DUP3 ADD SWAP1 POP PUSH3 0x744 PUSH1 0x0 DUP4 ADD DUP8 PUSH3 0x664 JUMP JUMPDEST PUSH3 0x753 PUSH1 0x20 DUP4 ADD DUP7 PUSH3 0x689 JUMP JUMPDEST DUP2 DUP2 SUB PUSH1 0x40 DUP4 ADD MSTORE PUSH3 0x767 DUP2 DUP6 PUSH3 0x6EC JUMP JUMPDEST SWAP1 POP DUP2 DUP2 SUB PUSH1 0x60 DUP4 ADD MSTORE PUSH3 0x77D DUP2 DUP5 PUSH3 0x6EC JUMP JUMPDEST SWAP1 POP SWAP6 SWAP5 POP POP POP POP POP JUMP INVALID PUSH1 0x80 PUSH1 0x40 MSTORE CALLVALUE DUP1 ISZERO PUSH3 0x11 JUMPI PUSH1 0x0 DUP1 REVERT JUMPDEST POP PUSH1 0x40 MLOAD PUSH3 0x15D2 CODESIZE SUB DUP1 PUSH3 0x15D2 DUP4 CODECOPY DUP2 DUP2 ADD PUSH1 0x40 MSTORE DUP2 ADD SWAP1 PUSH3 0x37 SWAP2 SWAP1 PUSH3 0x3A8 JUMP JUMPDEST DUP3 PUSH1 0x4 PUSH1 0x0 PUSH2 0x100 EXP DUP2 SLOAD DUP2 PUSH20 0xFFFFFFFFFFFFFFFFFFFFFFFFFFFFFFFFFFFFFFFF MUL NOT AND SWAP1 DUP4 PUSH20 0xFFFFFFFFFFFFFFFFFFFFFFFFFFFFFFFFFFFFFFFF AND MUL OR SWAP1 SSTORE POP DUP2 PUSH1 0x0 SWAP1 DUP1 MLOAD SWAP1 PUSH1 0x20 ADD SWAP1 PUSH3 0x90 SWAP3 SWAP2 SWAP1 PUSH3 0xBB JUMP JUMPDEST POP DUP1 PUSH1 0x1 SWAP1 DUP1 MLOAD SWAP1 PUSH1 0x20 ADD SWAP1 PUSH3 0xA9 SWAP3 SWAP2 SWAP1 PUSH3 0xBB JUMP JUMPDEST POP DUP4 PUSH1 0x5 DUP2 SWAP1 SSTORE POP POP POP POP POP PUSH3 0x4BD JUMP JUMPDEST DUP3 DUP1 SLOAD PUSH3 0xC9 SWAP1 PUSH3 0x487 JUMP JUMPDEST SWAP1 PUSH1 0x0 MSTORE PUSH1 0x20 PUSH1 0x0 KECCAK256 SWAP1 PUSH1 0x1F ADD PUSH1 0x20 SWAP1 DIV DUP2 ADD SWAP3 DUP3 PUSH3 0xED JUMPI PUSH1 0x0 DUP6 SSTORE PUSH3 0x139 JUMP JUMPDEST DUP3 PUSH1 0x1F LT PUSH3 0x108 JUMPI DUP1 MLOAD PUSH1 0xFF NOT AND DUP4 DUP1 ADD OR DUP6 SSTORE PUSH3 0x139 JUMP JUMPDEST DUP3 DUP1 ADD PUSH1 0x1 ADD DUP6 SSTORE DUP3 ISZERO PUSH3 0x139 JUMPI SWAP2 DUP3 ADD JUMPDEST DUP3 DUP2 GT ISZERO PUSH3 0x138 JUMPI DUP3 MLOAD DUP3 SSTORE SWAP2 PUSH1 0x20 ADD SWAP2 SWAP1 PUSH1 0x1 ADD SWAP1 PUSH3 0x11B JUMP JUMPDEST JUMPDEST POP SWAP1 POP PUSH3 0x148 SWAP2 SWAP1 PUSH3 0x14C JUMP JUMPDEST POP SWAP1 JUMP JUMPDEST JUMPDEST DUP1 DUP3 GT ISZERO PUSH3 0x167 JUMPI PUSH1 0x0 DUP2 PUSH1 0x0 SWAP1 SSTORE POP PUSH1 0x1 ADD PUSH3 0x14D JUMP JUMPDEST POP SWAP1 JUMP JUMPDEST PUSH1 0x0 PUSH1 0x40 MLOAD SWAP1 POP SWAP1 JUMP JUMPDEST PUSH1 0x0 DUP1 REVERT JUMPDEST PUSH1 0x0 DUP1 REVERT JUMPDEST PUSH1 0x0 DUP2 SWAP1 POP SWAP2 SWAP1 POP JUMP JUMPDEST PUSH3 0x194 DUP2 PUSH3 0x17F JUMP JUMPDEST DUP2 EQ PUSH3 0x1A0 JUMPI PUSH1 0x0 DUP1 REVERT JUMPDEST POP JUMP JUMPDEST PUSH1 0x0 DUP2 MLOAD SWAP1 POP PUSH3 0x1B4 DUP2 PUSH3 0x189 JUMP JUMPDEST SWAP3 SWAP2 POP POP JUMP JUMPDEST PUSH1 0x0 PUSH20 0xFFFFFFFFFFFFFFFFFFFFFFFFFFFFFFFFFFFFFFFF DUP3 AND SWAP1 POP SWAP2 SWAP1 POP JUMP JUMPDEST PUSH1 0x0 PUSH3 0x1E7 DUP3 PUSH3 0x1BA JUMP JUMPDEST SWAP1 POP SWAP2 SWAP1 POP JUMP JUMPDEST PUSH3 0x1F9 DUP2 PUSH3 0x1DA JUMP JUMPDEST DUP2 EQ PUSH3 0x205 JUMPI PUSH1 0x0 DUP1 REVERT JUMPDEST POP JUMP JUMPDEST PUSH1 0x0 DUP2 MLOAD SWAP1 POP PUSH3 0x219 DUP2 PUSH3 0x1EE JUMP JUMPDEST SWAP3 SWAP2 POP POP JUMP JUMPDEST PUSH1 0x0 DUP1 REVERT JUMPDEST PUSH1 0x0 DUP1 REVERT JUMPDEST PUSH1 0x0 PUSH1 0x1F NOT PUSH1 0x1F DUP4 ADD AND SWAP1 POP SWAP2 SWAP1 POP JUMP JUMPDEST PUSH32 0x4E487B7100000000000000000000000000000000000000000000000000000000 PUSH1 0x0 MSTORE PUSH1 0x41 PUSH1 0x4 MSTORE PUSH1 0x24 PUSH1 0x0 REVERT JUMPDEST PUSH3 0x274 DUP3 PUSH3 0x229 JUMP JUMPDEST DUP2 ADD DUP2 DUP2 LT PUSH8 0xFFFFFFFFFFFFFFFF DUP3 GT OR ISZERO PUSH3 0x296 JUMPI PUSH3 0x295 PUSH3 0x23A JUMP JUMPDEST JUMPDEST DUP1 PUSH1 0x40 MSTORE POP POP POP JUMP JUMPDEST PUSH1 0x0 PUSH3 0x2AB PUSH3 0x16B JUMP JUMPDEST SWAP1 POP PUSH3 0x2B9 DUP3 DUP3 PUSH3 0x269 JUMP JUMPDEST SWAP2 SWAP1 POP JUMP JUMPDEST PUSH1 0x0 PUSH8 0xFFFFFFFFFFFFFFFF DUP3 GT ISZERO PUSH3 0x2DC JUMPI PUSH3 0x2DB PUSH3 0x23A JUMP JUMPDEST JUMPDEST PUSH3 0x2E7 DUP3 PUSH3 0x229 JUMP JUMPDEST SWAP1 POP PUSH1 0x20 DUP2 ADD SWAP1 POP SWAP2 SWAP1 POP JUMP JUMPDEST PUSH1 0x0 JUMPDEST DUP4 DUP2 LT ISZERO PUSH3 0x314 JUMPI DUP1 DUP3 ADD MLOAD DUP2 DUP5 ADD MSTORE PUSH1 0x20 DUP2 ADD SWAP1 POP PUSH3 0x2F7 JUMP JUMPDEST DUP4 DUP2 GT ISZERO PUSH3 0x324 JUMPI PUSH1 0x0 DUP5 DUP5 ADD MSTORE JUMPDEST POP POP POP POP JUMP JUMPDEST PUSH1 0x0 PUSH3 0x341 PUSH3 0x33B DUP5 PUSH3 0x2BE JUMP JUMPDEST PUSH3 0x29F JUMP JUMPDEST SWAP1 POP DUP3 DUP2 MSTORE PUSH1 0x20 DUP2 ADD DUP5 DUP5 DUP5 ADD GT ISZERO PUSH3 0x360 JUMPI PUSH3 0x35F PUSH3 0x224 JUMP JUMPDEST JUMPDEST PUSH3 0x36D DUP5 DUP3 DUP6 PUSH3 0x2F4 JUMP JUMPDEST POP SWAP4 SWAP3 POP POP POP JUMP JUMPDEST PUSH1 0x0 DUP3 PUSH1 0x1F DUP4 ADD SLT PUSH3 0x38D JUMPI PUSH3 0x38C PUSH3 0x21F JUMP JUMPDEST JUMPDEST DUP2 MLOAD PUSH3 0x39F DUP5 DUP3 PUSH1 0x20 DUP7 ADD PUSH3 0x32A JUMP JUMPDEST SWAP2 POP POP SWAP3 SWAP2 POP POP JUMP JUMPDEST PUSH1 0x0 DUP1 PUSH1 0x0 DUP1 PUSH1 0x80 DUP6 DUP8 SUB SLT ISZERO PUSH3 0x3C5 JUMPI PUSH3 0x3C4 PUSH3 0x175 JUMP JUMPDEST JUMPDEST PUSH1 0x0 PUSH3 0x3D5 DUP8 DUP3 DUP9 ADD PUSH3 0x1A3 JUMP JUMPDEST SWAP5 POP POP PUSH1 0x20 PUSH3 0x3E8 DUP8 DUP3 DUP9 ADD PUSH3 0x208 JUMP JUMPDEST SWAP4 POP POP PUSH1 0x40 DUP6 ADD MLOAD PUSH8 0xFFFFFFFFFFFFFFFF DUP2 GT ISZERO PUSH3 0x40C JUMPI PUSH3 0x40B PUSH3 0x17A JUMP JUMPDEST JUMPDEST PUSH3 0x41A DUP8 DUP3 DUP9 ADD PUSH3 0x375 JUMP JUMPDEST SWAP3 POP POP PUSH1 0x60 DUP6 ADD MLOAD PUSH8 0xFFFFFFFFFFFFFFFF DUP2 GT ISZERO PUSH3 0x43E JUMPI PUSH3 0x43D PUSH3 0x17A JUMP JUMPDEST JUMPDEST PUSH3 0x44C DUP8 DUP3 DUP9 ADD PUSH3 0x375 JUMP JUMPDEST SWAP2 POP POP SWAP3 SWAP6 SWAP2 SWAP5 POP SWAP3 POP JUMP JUMPDEST PUSH32 0x4E487B7100000000000000000000000000000000000000000000000000000000 PUSH1 0x0 MSTORE PUSH1 0x22 PUSH1 0x4 MSTORE PUSH1 0x24 PUSH1 0x0 REVERT JUMPDEST PUSH1 0x0 PUSH1 0x2 DUP3 DIV SWAP1 POP PUSH1 0x1 DUP3 AND DUP1 PUSH3 0x4A0 JUMPI PUSH1 0x7F DUP3 AND SWAP2 POP JUMPDEST PUSH1 0x20 DUP3 LT DUP2 EQ ISZERO PUSH3 0x4B7 JUMPI PUSH3 0x4B6 PUSH3 0x458 JUMP JUMPDEST JUMPDEST POP SWAP2 SWAP1 POP JUMP JUMPDEST PUSH2 0x1105 DUP1 PUSH3 0x4CD PUSH1 0x0 CODECOPY PUSH1 0x0 RETURN INVALID PUSH1 0x80 PUSH1 0x40 MSTORE PUSH1 0x4 CALLDATASIZE LT PUSH2 0x9C JUMPI PUSH1 0x0 CALLDATALOAD PUSH1 0xE0 SHR DUP1 PUSH4 0x481C6A75 GT PUSH2 0x64 JUMPI DUP1 PUSH4 0x481C6A75 EQ PUSH2 0x188 JUMPI DUP1 PUSH4 0x7284E416 EQ PUSH2 0x1B3 JUMPI DUP1 PUSH4 0x75F66B77 EQ PUSH2 0x1DE JUMPI DUP1 PUSH4 0x81D12C58 EQ PUSH2 0x207 JUMPI DUP1 PUSH4 0xAAFFADF3 EQ PUSH2 0x249 JUMPI DUP1 PUSH4 0xD7BB99BA EQ PUSH2 0x274 JUMPI PUSH2 0x9C JUMP JUMPDEST DUP1 PUSH4 0x6FDDE03 EQ PUSH2 0xA1 JUMPI DUP1 PUSH4 0xA144391 EQ PUSH2 0xCC JUMPI DUP1 PUSH4 0xBFD66C9 EQ PUSH2 0x109 JUMPI DUP1 PUSH4 0xFE19D75 EQ PUSH2 0x132 JUMPI DUP1 PUSH4 0x12065FE0 EQ PUSH2 0x15D JUMPI JUMPDEST PUSH1 0x0 DUP1 REVERT JUMPDEST CALLVALUE DUP1 ISZERO PUSH2 0xAD JUMPI PUSH1 0x0 DUP1 REVERT JUMPDEST POP PUSH2 0xB6 PUSH2 0x27E JUMP JUMPDEST PUSH1 0x40 MLOAD PUSH2 0xC3 SWAP2 SWAP1 PUSH2 0xAEB JUMP JUMPDEST PUSH1 0x40 MLOAD DUP1 SWAP2 SUB SWAP1 RETURN JUMPDEST CALLVALUE DUP1 ISZERO PUSH2 0xD8 JUMPI PUSH1 0x0 DUP1 REVERT JUMPDEST POP PUSH2 0xF3 PUSH1 0x4 DUP1 CALLDATASIZE SUB DUP2 ADD SWAP1 PUSH2 0xEE SWAP2 SWAP1 PUSH2 0xB7F JUMP JUMPDEST PUSH2 0x30C JUMP JUMPDEST PUSH1 0x40 MLOAD PUSH2 0x100 SWAP2 SWAP1 PUSH2 0xBC7 JUMP JUMPDEST PUSH1 0x40 MLOAD DUP1 SWAP2 SUB SWAP1 RETURN JUMPDEST CALLVALUE DUP1 ISZERO PUSH2 0x115 JUMPI PUSH1 0x0 DUP1 REVERT JUMPDEST POP PUSH2 0x130 PUSH1 0x4 DUP1 CALLDATASIZE SUB DUP2 ADD SWAP1 PUSH2 0x12B SWAP2 SWAP1 PUSH2 0xD4D JUMP JUMPDEST PUSH2 0x32C JUMP JUMPDEST STOP JUMPDEST CALLVALUE DUP1 ISZERO PUSH2 0x13E JUMPI PUSH1 0x0 DUP1 REVERT JUMPDEST POP PUSH2 0x147 PUSH2 0x46D JUMP JUMPDEST PUSH1 0x40 MLOAD PUSH2 0x154 SWAP2 SWAP1 PUSH2 0xDCB JUMP JUMPDEST PUSH1 0x40 MLOAD DUP1 SWAP2 SUB SWAP1 RETURN JUMPDEST CALLVALUE DUP1 ISZERO PUSH2 0x169 JUMPI PUSH1 0x0 DUP1 REVERT JUMPDEST POP PUSH2 0x172 PUSH2 0x473 JUMP JUMPDEST PUSH1 0x40 MLOAD PUSH2 0x17F SWAP2 SWAP1 PUSH2 0xDCB JUMP JUMPDEST PUSH1 0x40 MLOAD DUP1 SWAP2 SUB SWAP1 RETURN JUMPDEST CALLVALUE DUP1 ISZERO PUSH2 0x194 JUMPI PUSH1 0x0 DUP1 REVERT JUMPDEST POP PUSH2 0x19D PUSH2 0x47B JUMP JUMPDEST PUSH1 0x40 MLOAD PUSH2 0x1AA SWAP2 SWAP1 PUSH2 0xDF5 JUMP JUMPDEST PUSH1 0x40 MLOAD DUP1 SWAP2 SUB SWAP1 RETURN JUMPDEST CALLVALUE DUP1 ISZERO PUSH2 0x1BF JUMPI PUSH1 0x0 DUP1 REVERT JUMPDEST POP PUSH2 0x1C8 PUSH2 0x4A1 JUMP JUMPDEST PUSH1 0x40 MLOAD PUSH2 0x1D5 SWAP2 SWAP1 PUSH2 0xAEB JUMP JUMPDEST PUSH1 0x40 MLOAD DUP1 SWAP2 SUB SWAP1 RETURN JUMPDEST CALLVALUE DUP1 ISZERO PUSH2 0x1EA JUMPI PUSH1 0x0 DUP1 REVERT JUMPDEST POP PUSH2 0x205 PUSH1 0x4 DUP1 CALLDATASIZE SUB DUP2 ADD SWAP1 PUSH2 0x200 SWAP2 SWAP1 PUSH2 0xE3C JUMP JUMPDEST PUSH2 0x52F JUMP JUMPDEST STOP JUMPDEST CALLVALUE DUP1 ISZERO PUSH2 0x213 JUMPI PUSH1 0x0 DUP1 REVERT JUMPDEST POP PUSH2 0x22E PUSH1 0x4 DUP1 CALLDATASIZE SUB DUP2 ADD SWAP1 PUSH2 0x229 SWAP2 SWAP1 PUSH2 0xE7C JUMP JUMPDEST PUSH2 0x827 JUMP JUMPDEST PUSH1 0x40 MLOAD PUSH2 0x240 SWAP7 SWAP6 SWAP5 SWAP4 SWAP3 SWAP2 SWAP1 PUSH2 0xEA9 JUMP JUMPDEST PUSH1 0x40 MLOAD DUP1 SWAP2 SUB SWAP1 RETURN JUMPDEST CALLVALUE DUP1 ISZERO PUSH2 0x255 JUMPI PUSH1 0x0 DUP1 REVERT JUMPDEST POP PUSH2 0x25E PUSH2 0x928 JUMP JUMPDEST PUSH1 0x40 MLOAD PUSH2 0x26B SWAP2 SWAP1 PUSH2 0xDCB JUMP JUMPDEST PUSH1 0x40 MLOAD DUP1 SWAP2 SUB SWAP1 RETURN JUMPDEST PUSH2 0x27C PUSH2 0x92E JUMP JUMPDEST STOP JUMPDEST PUSH1 0x0 DUP1 SLOAD PUSH2 0x28B SWAP1 PUSH2 0xF40 JUMP JUMPDEST DUP1 PUSH1 0x1F ADD PUSH1 0x20 DUP1 SWAP2 DIV MUL PUSH1 0x20 ADD PUSH1 0x40 MLOAD SWAP1 DUP2 ADD PUSH1 0x40 MSTORE DUP1 SWAP3 SWAP2 SWAP1 DUP2 DUP2 MSTORE PUSH1 0x20 ADD DUP3 DUP1 SLOAD PUSH2 0x2B7 SWAP1 PUSH2 0xF40 JUMP JUMPDEST DUP1 ISZERO PUSH2 0x304 JUMPI DUP1 PUSH1 0x1F LT PUSH2 0x2D9 JUMPI PUSH2 0x100 DUP1 DUP4 SLOAD DIV MUL DUP4 MSTORE SWAP2 PUSH1 0x20 ADD SWAP2 PUSH2 0x304 JUMP JUMPDEST DUP3 ADD SWAP2 SWAP1 PUSH1 0x0 MSTORE PUSH1 0x20 PUSH1 0x0 KECCAK256 SWAP1 JUMPDEST DUP2 SLOAD DUP2 MSTORE SWAP1 PUSH1 0x1 ADD SWAP1 PUSH1 0x20 ADD DUP1 DUP4 GT PUSH2 0x2E7 JUMPI DUP3 SWAP1 SUB PUSH1 0x1F AND DUP3 ADD SWAP2 JUMPDEST POP POP POP POP POP DUP2 JUMP JUMPDEST PUSH1 0x7 PUSH1 0x20 MSTORE DUP1 PUSH1 0x0 MSTORE PUSH1 0x40 PUSH1 0x0 KECCAK256 PUSH1 0x0 SWAP2 POP SLOAD SWAP1 PUSH2 0x100 EXP SWAP1 DIV PUSH1 0xFF AND DUP2 JUMP JUMPDEST PUSH1 0x4 PUSH1 0x0 SWAP1 SLOAD SWAP1 PUSH2 0x100 EXP SWAP1 DIV PUSH20 0xFFFFFFFFFFFFFFFFFFFFFFFFFFFFFFFFFFFFFFFF AND PUSH20 0xFFFFFFFFFFFFFFFFFFFFFFFFFFFFFFFFFFFFFFFF AND CALLER PUSH20 0xFFFFFFFFFFFFFFFFFFFFFFFFFFFFFFFFFFFFFFFF AND EQ PUSH2 0x386 JUMPI PUSH1 0x0 DUP1 REVERT JUMPDEST PUSH1 0x1 PUSH1 0x2 PUSH1 0x0 DUP3 DUP3 SLOAD PUSH2 0x399 SWAP2 SWAP1 PUSH2 0xFA1 JUMP JUMPDEST SWAP3 POP POP DUP2 SWAP1 SSTORE POP SELFBALANCE DUP3 LT PUSH2 0x3AC JUMPI PUSH1 0x0 DUP1 REVERT JUMPDEST PUSH1 0x0 PUSH1 0x6 PUSH1 0x1 DUP2 PUSH1 0x1 DUP2 SLOAD ADD DUP1 DUP3 SSTORE DUP1 SWAP2 POP POP SUB SWAP1 PUSH1 0x0 MSTORE PUSH1 0x20 PUSH1 0x0 KECCAK256 SWAP1 PUSH1 0x7 MUL ADD SWAP1 POP PUSH1 0x2 SLOAD DUP2 PUSH1 0x0 ADD DUP2 SWAP1 SSTORE POP DUP4 DUP2 PUSH1 0x1 ADD SWAP1 DUP1 MLOAD SWAP1 PUSH1 0x20 ADD SWAP1 PUSH2 0x3F3 SWAP3 SWAP2 SWAP1 PUSH2 0x9AF JUMP JUMPDEST POP DUP3 DUP2 PUSH1 0x2 ADD DUP2 SWAP1 SSTORE POP DUP2 DUP2 PUSH1 0x3 ADD PUSH1 0x0 PUSH2 0x100 EXP DUP2 SLOAD DUP2 PUSH20 0xFFFFFFFFFFFFFFFFFFFFFFFFFFFFFFFFFFFFFFFF MUL NOT AND SWAP1 DUP4 PUSH20 0xFFFFFFFFFFFFFFFFFFFFFFFFFFFFFFFFFFFFFFFF AND MUL OR SWAP1 SSTORE POP PUSH1 0x0 DUP2 PUSH1 0x4 ADD DUP2 SWAP1 SSTORE POP PUSH1 0x0 DUP2 PUSH1 0x5 ADD PUSH1 0x0 PUSH2 0x100 EXP DUP2 SLOAD DUP2 PUSH1 0xFF MUL NOT AND SWAP1 DUP4 ISZERO ISZERO MUL OR SWAP1 SSTORE POP POP POP POP POP JUMP JUMPDEST PUSH1 0x2 SLOAD DUP2 JUMP JUMPDEST PUSH1 0x0 SELFBALANCE SWAP1 POP SWAP1 JUMP JUMPDEST PUSH1 0x4 PUSH1 0x0 SWAP1 SLOAD SWAP1 PUSH2 0x100 EXP SWAP1 DIV PUSH20 0xFFFFFFFFFFFFFFFFFFFFFFFFFFFFFFFFFFFFFFFF AND DUP2 JUMP JUMPDEST PUSH1 0x1 DUP1 SLOAD PUSH2 0x4AE SWAP1 PUSH2 0xF40 JUMP JUMPDEST DUP1 PUSH1 0x1F ADD PUSH1 0x20 DUP1 SWAP2 DIV MUL PUSH1 0x20 ADD PUSH1 0x40 MLOAD SWAP1 DUP2 ADD PUSH1 0x40 MSTORE DUP1 SWAP3 SWAP2 SWAP1 DUP2 DUP2 MSTORE PUSH1 0x20 ADD DUP3 DUP1 SLOAD PUSH2 0x4DA SWAP1 PUSH2 0xF40 JUMP JUMPDEST DUP1 ISZERO PUSH2 0x527 JUMPI DUP1 PUSH1 0x1F LT PUSH2 0x4FC JUMPI PUSH2 0x100 DUP1 DUP4 SLOAD DIV MUL DUP4 MSTORE SWAP2 PUSH1 0x20 ADD SWAP2 PUSH2 0x527 JUMP JUMPDEST DUP3 ADD SWAP2 SWAP1 PUSH1 0x0 MSTORE PUSH1 0x20 PUSH1 0x0 KECCAK256 SWAP1 JUMPDEST DUP2 SLOAD DUP2 MSTORE SWAP1 PUSH1 0x1 ADD SWAP1 PUSH1 0x20 ADD DUP1 DUP4 GT PUSH2 0x50A JUMPI DUP3 SWAP1 SUB PUSH1 0x1F AND DUP3 ADD SWAP2 JUMPDEST POP POP POP POP POP DUP2 JUMP JUMPDEST PUSH1 0x7 PUSH1 0x0 CALLER PUSH20 0xFFFFFFFFFFFFFFFFFFFFFFFFFFFFFFFFFFFFFFFF AND PUSH20 0xFFFFFFFFFFFFFFFFFFFFFFFFFFFFFFFFFFFFFFFF AND DUP2 MSTORE PUSH1 0x20 ADD SWAP1 DUP2 MSTORE PUSH1 0x20 ADD PUSH1 0x0 KECCAK256 PUSH1 0x0 SWAP1 SLOAD SWAP1 PUSH2 0x100 EXP SWAP1 DIV PUSH1 0xFF AND PUSH2 0x585 JUMPI PUSH1 0x0 DUP1 REVERT JUMPDEST PUSH1 0x6 DUP3 DUP2 SLOAD DUP2 LT PUSH2 0x599 JUMPI PUSH2 0x598 PUSH2 0xFF7 JUMP JUMPDEST JUMPDEST SWAP1 PUSH1 0x0 MSTORE PUSH1 0x20 PUSH1 0x0 KECCAK256 SWAP1 PUSH1 0x7 MUL ADD PUSH1 0x5 ADD PUSH1 0x0 SWAP1 SLOAD SWAP1 PUSH2 0x100 EXP SWAP1 DIV PUSH1 0xFF AND ISZERO PUSH2 0x5C2 JUMPI PUSH1 0x0 DUP1 REVERT JUMPDEST PUSH1 0x6 DUP3 DUP2 SLOAD DUP2 LT PUSH2 0x5D6 JUMPI PUSH2 0x5D5 PUSH2 0xFF7 JUMP JUMPDEST JUMPDEST SWAP1 PUSH1 0x0 MSTORE PUSH1 0x20 PUSH1 0x0 KECCAK256 SWAP1 PUSH1 0x7 MUL ADD PUSH1 0x6 ADD PUSH1 0x0 CALLER PUSH20 0xFFFFFFFFFFFFFFFFFFFFFFFFFFFFFFFFFFFFFFFF AND PUSH20 0xFFFFFFFFFFFFFFFFFFFFFFFFFFFFFFFFFFFFFFFF AND DUP2 MSTORE PUSH1 0x20 ADD SWAP1 DUP2 MSTORE PUSH1 0x20 ADD PUSH1 0x0 KECCAK256 PUSH1 0x0 SWAP1 SLOAD SWAP1 PUSH2 0x100 EXP SWAP1 DIV PUSH1 0xFF AND ISZERO PUSH2 0x63C JUMPI PUSH1 0x0 DUP1 REVERT JUMPDEST DUP1 PUSH1 0x6 DUP4 DUP2 SLOAD DUP2 LT PUSH2 0x651 JUMPI PUSH2 0x650 PUSH2 0xFF7 JUMP JUMPDEST JUMPDEST SWAP1 PUSH1 0x0 MSTORE PUSH1 0x20 PUSH1 0x0 KECCAK256 SWAP1 PUSH1 0x7 MUL ADD PUSH1 0x6 ADD PUSH1 0x0 CALLER PUSH20 0xFFFFFFFFFFFFFFFFFFFFFFFFFFFFFFFFFFFFFFFF AND PUSH20 0xFFFFFFFFFFFFFFFFFFFFFFFFFFFFFFFFFFFFFFFF AND DUP2 MSTORE PUSH1 0x20 ADD SWAP1 DUP2 MSTORE PUSH1 0x20 ADD PUSH1 0x0 KECCAK256 PUSH1 0x0 PUSH2 0x100 EXP DUP2 SLOAD DUP2 PUSH1 0xFF MUL NOT AND SWAP1 DUP4 ISZERO ISZERO MUL OR SWAP1 SSTORE POP DUP1 ISZERO PUSH2 0x6F8 JUMPI PUSH1 0x6 DUP3 DUP2 SLOAD DUP2 LT PUSH2 0x6D0 JUMPI PUSH2 0x6CF PUSH2 0xFF7 JUMP JUMPDEST JUMPDEST SWAP1 PUSH1 0x0 MSTORE PUSH1 0x20 PUSH1 0x0 KECCAK256 SWAP1 PUSH1 0x7 MUL ADD PUSH1 0x4 ADD PUSH1 0x0 DUP2 SLOAD DUP1 SWAP3 SWAP2 SWAP1 PUSH2 0x6F2 SWAP1 PUSH2 0x1026 JUMP JUMPDEST SWAP2 SWAP1 POP SSTORE POP JUMPDEST PUSH1 0x2 PUSH1 0x3 SLOAD PUSH2 0x707 SWAP2 SWAP1 PUSH2 0x109E JUMP JUMPDEST PUSH1 0x6 DUP4 DUP2 SLOAD DUP2 LT PUSH2 0x71B JUMPI PUSH2 0x71A PUSH2 0xFF7 JUMP JUMPDEST JUMPDEST SWAP1 PUSH1 0x0 MSTORE PUSH1 0x20 PUSH1 0x0 KECCAK256 SWAP1 PUSH1 0x7 MUL ADD PUSH1 0x4 ADD SLOAD GT ISZERO PUSH2 0x823 JUMPI PUSH1 0x1 PUSH1 0x6 DUP4 DUP2 SLOAD DUP2 LT PUSH2 0x749 JUMPI PUSH2 0x748 PUSH2 0xFF7 JUMP JUMPDEST JUMPDEST SWAP1 PUSH1 0x0 MSTORE PUSH1 0x20 PUSH1 0x0 KECCAK256 SWAP1 PUSH1 0x7 MUL ADD PUSH1 0x5 ADD PUSH1 0x0 PUSH2 0x100 EXP DUP2 SLOAD DUP2 PUSH1 0xFF MUL NOT AND SWAP1 DUP4 ISZERO ISZERO MUL OR SWAP1 SSTORE POP PUSH1 0x6 DUP3 DUP2 SLOAD DUP2 LT PUSH2 0x785 JUMPI PUSH2 0x784 PUSH2 0xFF7 JUMP JUMPDEST JUMPDEST SWAP1 PUSH1 0x0 MSTORE PUSH1 0x20 PUSH1 0x0 KECCAK256 SWAP1 PUSH1 0x7 MUL ADD PUSH1 0x3 ADD PUSH1 0x0 SWAP1 SLOAD SWAP1 PUSH2 0x100 EXP SWAP1 DIV PUSH20 0xFFFFFFFFFFFFFFFFFFFFFFFFFFFFFFFFFFFFFFFF AND PUSH20 0xFFFFFFFFFFFFFFFFFFFFFFFFFFFFFFFFFFFFFFFF AND PUSH2 0x8FC PUSH1 0x6 DUP5 DUP2 SLOAD DUP2 LT PUSH2 0x7E4 JUMPI PUSH2 0x7E3 PUSH2 0xFF7 JUMP JUMPDEST JUMPDEST SWAP1 PUSH1 0x0 MSTORE PUSH1 0x20 PUSH1 0x0 KECCAK256 SWAP1 PUSH1 0x7 MUL ADD PUSH1 0x2 ADD SLOAD SWAP1 DUP2 ISZERO MUL SWAP1 PUSH1 0x40 MLOAD PUSH1 0x0 PUSH1 0x40 MLOAD DUP1 DUP4 SUB DUP2 DUP6 DUP9 DUP9 CALL SWAP4 POP POP POP POP ISZERO DUP1 ISZERO PUSH2 0x821 JUMPI RETURNDATASIZE PUSH1 0x0 DUP1 RETURNDATACOPY RETURNDATASIZE PUSH1 0x0 REVERT JUMPDEST POP JUMPDEST POP POP JUMP JUMPDEST PUSH1 0x6 DUP2 DUP2 SLOAD DUP2 LT PUSH2 0x837 JUMPI PUSH1 0x0 DUP1 REVERT JUMPDEST SWAP1 PUSH1 0x0 MSTORE PUSH1 0x20 PUSH1 0x0 KECCAK256 SWAP1 PUSH1 0x7 MUL ADD PUSH1 0x0 SWAP2 POP SWAP1 POP DUP1 PUSH1 0x0 ADD SLOAD SWAP1 DUP1 PUSH1 0x1 ADD DUP1 SLOAD PUSH2 0x860 SWAP1 PUSH2 0xF40 JUMP JUMPDEST DUP1 PUSH1 0x1F ADD PUSH1 0x20 DUP1 SWAP2 DIV MUL PUSH1 0x20 ADD PUSH1 0x40 MLOAD SWAP1 DUP2 ADD PUSH1 0x40 MSTORE DUP1 SWAP3 SWAP2 SWAP1 DUP2 DUP2 MSTORE PUSH1 0x20 ADD DUP3 DUP1 SLOAD PUSH2 0x88C SWAP1 PUSH2 0xF40 JUMP JUMPDEST DUP1 ISZERO PUSH2 0x8D9 JUMPI DUP1 PUSH1 0x1F LT PUSH2 0x8AE JUMPI PUSH2 0x100 DUP1 DUP4 SLOAD DIV MUL DUP4 MSTORE SWAP2 PUSH1 0x20 ADD SWAP2 PUSH2 0x8D9 JUMP JUMPDEST DUP3 ADD SWAP2 SWAP1 PUSH1 0x0 MSTORE PUSH1 0x20 PUSH1 0x0 KECCAK256 SWAP1 JUMPDEST DUP2 SLOAD DUP2 MSTORE SWAP1 PUSH1 0x1 ADD SWAP1 PUSH1 0x20 ADD DUP1 DUP4 GT PUSH2 0x8BC JUMPI DUP3 SWAP1 SUB PUSH1 0x1F AND DUP3 ADD SWAP2 JUMPDEST POP POP POP POP POP SWAP1 DUP1 PUSH1 0x2 ADD SLOAD SWAP1 DUP1 PUSH1 0x3 ADD PUSH1 0x0 SWAP1 SLOAD SWAP1 PUSH2 0x100 EXP SWAP1 DIV PUSH20 0xFFFFFFFFFFFFFFFFFFFFFFFFFFFFFFFFFFFFFFFF AND SWAP1 DUP1 PUSH1 0x4 ADD SLOAD SWAP1 DUP1 PUSH1 0x5 ADD PUSH1 0x0 SWAP1 SLOAD SWAP1 PUSH2 0x100 EXP SWAP1 DIV PUSH1 0xFF AND SWAP1 POP DUP7 JUMP JUMPDEST PUSH1 0x5 SLOAD DUP2 JUMP JUMPDEST PUSH1 0x5 SLOAD CALLVALUE LT ISZERO PUSH2 0x93D JUMPI PUSH1 0x0 DUP1 REVERT JUMPDEST PUSH1 0x3 PUSH1 0x0 DUP2 SLOAD DUP1 SWAP3 SWAP2 SWAP1 PUSH2 0x950 SWAP1 PUSH2 0x1026 JUMP JUMPDEST SWAP2 SWAP1 POP SSTORE POP PUSH1 0x1 PUSH1 0x7 PUSH1 0x0 CALLER PUSH20 0xFFFFFFFFFFFFFFFFFFFFFFFFFFFFFFFFFFFFFFFF AND PUSH20 0xFFFFFFFFFFFFFFFFFFFFFFFFFFFFFFFFFFFFFFFF AND DUP2 MSTORE PUSH1 0x20 ADD SWAP1 DUP2 MSTORE PUSH1 0x20 ADD PUSH1 0x0 KECCAK256 PUSH1 0x0 PUSH2 0x100 EXP DUP2 SLOAD DUP2 PUSH1 0xFF MUL NOT AND SWAP1 DUP4 ISZERO ISZERO MUL OR SWAP1 SSTORE POP JUMP JUMPDEST DUP3 DUP1 SLOAD PUSH2 0x9BB SWAP1 PUSH2 0xF40 JUMP JUMPDEST SWAP1 PUSH1 0x0 MSTORE PUSH1 0x20 PUSH1 0x0 KECCAK256 SWAP1 PUSH1 0x1F ADD PUSH1 0x20 SWAP1 DIV DUP2 ADD SWAP3 DUP3 PUSH2 0x9DD JUMPI PUSH1 0x0 DUP6 SSTORE PUSH2 0xA24 JUMP JUMPDEST DUP3 PUSH1 0x1F LT PUSH2 0x9F6 JUMPI DUP1 MLOAD PUSH1 0xFF NOT AND DUP4 DUP1 ADD OR DUP6 SSTORE PUSH2 0xA24 JUMP JUMPDEST DUP3 DUP1 ADD PUSH1 0x1 ADD DUP6 SSTORE DUP3 ISZERO PUSH2 0xA24 JUMPI SWAP2 DUP3 ADD JUMPDEST DUP3 DUP2 GT ISZERO PUSH2 0xA23 JUMPI DUP3 MLOAD DUP3 SSTORE SWAP2 PUSH1 0x20 ADD SWAP2 SWAP1 PUSH1 0x1 ADD SWAP1 PUSH2 0xA08 JUMP JUMPDEST JUMPDEST POP SWAP1 POP PUSH2 0xA31 SWAP2 SWAP1 PUSH2 0xA35 JUMP JUMPDEST POP SWAP1 JUMP JUMPDEST JUMPDEST DUP1 DUP3 GT ISZERO PUSH2 0xA4E JUMPI PUSH1 0x0 DUP2 PUSH1 0x0 SWAP1 SSTORE POP PUSH1 0x1 ADD PUSH2 0xA36 JUMP JUMPDEST POP SWAP1 JUMP JUMPDEST PUSH1 0x0 DUP2 MLOAD SWAP1 POP SWAP2 SWAP1 POP JUMP JUMPDEST PUSH1 0x0 DUP3 DUP3 MSTORE PUSH1 0x20 DUP3 ADD SWAP1 POP SWAP3 SWAP2 POP POP JUMP JUMPDEST PUSH1 0x0 JUMPDEST DUP4 DUP2 LT ISZERO PUSH2 0xA8C JUMPI DUP1 DUP3 ADD MLOAD DUP2 DUP5 ADD MSTORE PUSH1 0x20 DUP2 ADD SWAP1 POP PUSH2 0xA71 JUMP JUMPDEST DUP4 DUP2 GT ISZERO PUSH2 0xA9B JUMPI PUSH1 0x0 DUP5 DUP5 ADD MSTORE JUMPDEST POP POP POP POP JUMP JUMPDEST PUSH1 0x0 PUSH1 0x1F NOT PUSH1 0x1F DUP4 ADD AND SWAP1 POP SWAP2 SWAP1 POP JUMP JUMPDEST PUSH1 0x0 PUSH2 0xABD DUP3 PUSH2 0xA52 JUMP JUMPDEST PUSH2 0xAC7 DUP2 DUP6 PUSH2 0xA5D JUMP JUMPDEST SWAP4 POP PUSH2 0xAD7 DUP2 DUP6 PUSH1 0x20 DUP7 ADD PUSH2 0xA6E JUMP JUMPDEST PUSH2 0xAE0 DUP2 PUSH2 0xAA1 JUMP JUMPDEST DUP5 ADD SWAP2 POP POP SWAP3 SWAP2 POP POP JUMP JUMPDEST PUSH1 0x0 PUSH1 0x20 DUP3 ADD SWAP1 POP DUP2 DUP2 SUB PUSH1 0x0 DUP4 ADD MSTORE PUSH2 0xB05 DUP2 DUP5 PUSH2 0xAB2 JUMP JUMPDEST SWAP1 POP SWAP3 SWAP2 POP POP JUMP JUMPDEST PUSH1 0x0 PUSH1 0x40 MLOAD SWAP1 POP SWAP1 JUMP JUMPDEST PUSH1 0x0 DUP1 REVERT JUMPDEST PUSH1 0x0 DUP1 REVERT JUMPDEST PUSH1 0x0 PUSH20 0xFFFFFFFFFFFFFFFFFFFFFFFFFFFFFFFFFFFFFFFF DUP3 AND SWAP1 POP SWAP2 SWAP1 POP JUMP JUMPDEST PUSH1 0x0 PUSH2 0xB4C DUP3 PUSH2 0xB21 JUMP JUMPDEST SWAP1 POP SWAP2 SWAP1 POP JUMP JUMPDEST PUSH2 0xB5C DUP2 PUSH2 0xB41 JUMP JUMPDEST DUP2 EQ PUSH2 0xB67 JUMPI PUSH1 0x0 DUP1 REVERT JUMPDEST POP JUMP JUMPDEST PUSH1 0x0 DUP2 CALLDATALOAD SWAP1 POP PUSH2 0xB79 DUP2 PUSH2 0xB53 JUMP JUMPDEST SWAP3 SWAP2 POP POP JUMP JUMPDEST PUSH1 0x0 PUSH1 0x20 DUP3 DUP5 SUB SLT ISZERO PUSH2 0xB95 JUMPI PUSH2 0xB94 PUSH2 0xB17 JUMP JUMPDEST JUMPDEST PUSH1 0x0 PUSH2 0xBA3 DUP5 DUP3 DUP6 ADD PUSH2 0xB6A JUMP JUMPDEST SWAP2 POP POP SWAP3 SWAP2 POP POP JUMP JUMPDEST PUSH1 0x0 DUP2 ISZERO ISZERO SWAP1 POP SWAP2 SWAP1 POP JUMP JUMPDEST PUSH2 0xBC1 DUP2 PUSH2 0xBAC JUMP JUMPDEST DUP3 MSTORE POP POP JUMP JUMPDEST PUSH1 0x0 PUSH1 0x20 DUP3 ADD SWAP1 POP PUSH2 0xBDC PUSH1 0x0 DUP4 ADD DUP5 PUSH2 0xBB8 JUMP JUMPDEST SWAP3 SWAP2 POP POP JUMP JUMPDEST PUSH1 0x0 DUP1 REVERT JUMPDEST PUSH1 0x0 DUP1 REVERT JUMPDEST PUSH32 0x4E487B7100000000000000000000000000000000000000000000000000000000 PUSH1 0x0 MSTORE PUSH1 0x41 PUSH1 0x4 MSTORE PUSH1 0x24 PUSH1 0x0 REVERT JUMPDEST PUSH2 0xC24 DUP3 PUSH2 0xAA1 JUMP JUMPDEST DUP2 ADD DUP2 DUP2 LT PUSH8 0xFFFFFFFFFFFFFFFF DUP3 GT OR ISZERO PUSH2 0xC43 JUMPI PUSH2 0xC42 PUSH2 0xBEC JUMP JUMPDEST JUMPDEST DUP1 PUSH1 0x40 MSTORE POP POP POP JUMP JUMPDEST PUSH1 0x0 PUSH2 0xC56 PUSH2 0xB0D JUMP JUMPDEST SWAP1 POP PUSH2 0xC62 DUP3 DUP3 PUSH2 0xC1B JUMP JUMPDEST SWAP2 SWAP1 POP JUMP JUMPDEST PUSH1 0x0 PUSH8 0xFFFFFFFFFFFFFFFF DUP3 GT ISZERO PUSH2 0xC82 JUMPI PUSH2 0xC81 PUSH2 0xBEC JUMP JUMPDEST JUMPDEST PUSH2 0xC8B DUP3 PUSH2 0xAA1 JUMP JUMPDEST SWAP1 POP PUSH1 0x20 DUP2 ADD SWAP1 POP SWAP2 SWAP1 POP JUMP JUMPDEST DUP3 DUP2 DUP4 CALLDATACOPY PUSH1 0x0 DUP4 DUP4 ADD MSTORE POP POP POP JUMP JUMPDEST PUSH1 0x0 PUSH2 0xCBA PUSH2 0xCB5 DUP5 PUSH2 0xC67 JUMP JUMPDEST PUSH2 0xC4C JUMP JUMPDEST SWAP1 POP DUP3 DUP2 MSTORE PUSH1 0x20 DUP2 ADD DUP5 DUP5 DUP5 ADD GT ISZERO PUSH2 0xCD6 JUMPI PUSH2 0xCD5 PUSH2 0xBE7 JUMP JUMPDEST JUMPDEST PUSH2 0xCE1 DUP5 DUP3 DUP6 PUSH2 0xC98 JUMP JUMPDEST POP SWAP4 SWAP3 POP POP POP JUMP JUMPDEST PUSH1 0x0 DUP3 PUSH1 0x1F DUP4 ADD SLT PUSH2 0xCFE JUMPI PUSH2 0xCFD PUSH2 0xBE2 JUMP JUMPDEST JUMPDEST DUP2 CALLDATALOAD PUSH2 0xD0E DUP5 DUP3 PUSH1 0x20 DUP7 ADD PUSH2 0xCA7 JUMP JUMPDEST SWAP2 POP POP SWAP3 SWAP2 POP POP JUMP JUMPDEST PUSH1 0x0 DUP2 SWAP1 POP SWAP2 SWAP1 POP JUMP JUMPDEST PUSH2 0xD2A DUP2 PUSH2 0xD17 JUMP JUMPDEST DUP2 EQ PUSH2 0xD35 JUMPI PUSH1 0x0 DUP1 REVERT JUMPDEST POP JUMP JUMPDEST PUSH1 0x0 DUP2 CALLDATALOAD SWAP1 POP PUSH2 0xD47 DUP2 PUSH2 0xD21 JUMP JUMPDEST SWAP3 SWAP2 POP POP JUMP JUMPDEST PUSH1 0x0 DUP1 PUSH1 0x0 PUSH1 0x60 DUP5 DUP7 SUB SLT ISZERO PUSH2 0xD66 JUMPI PUSH2 0xD65 PUSH2 0xB17 JUMP JUMPDEST JUMPDEST PUSH1 0x0 DUP5 ADD CALLDATALOAD PUSH8 0xFFFFFFFFFFFFFFFF DUP2 GT ISZERO PUSH2 0xD84 JUMPI PUSH2 0xD83 PUSH2 0xB1C JUMP JUMPDEST JUMPDEST PUSH2 0xD90 DUP7 DUP3 DUP8 ADD PUSH2 0xCE9 JUMP JUMPDEST SWAP4 POP POP PUSH1 0x20 PUSH2 0xDA1 DUP7 DUP3 DUP8 ADD PUSH2 0xD38 JUMP JUMPDEST SWAP3 POP POP PUSH1 0x40 PUSH2 0xDB2 DUP7 DUP3 DUP8 ADD PUSH2 0xB6A JUMP JUMPDEST SWAP2 POP POP SWAP3 POP SWAP3 POP SWAP3 JUMP JUMPDEST PUSH2 0xDC5 DUP2 PUSH2 0xD17 JUMP JUMPDEST DUP3 MSTORE POP POP JUMP JUMPDEST PUSH1 0x0 PUSH1 0x20 DUP3 ADD SWAP1 POP PUSH2 0xDE0 PUSH1 0x0 DUP4 ADD DUP5 PUSH2 0xDBC JUMP JUMPDEST SWAP3 SWAP2 POP POP JUMP JUMPDEST PUSH2 0xDEF DUP2 PUSH2 0xB41 JUMP JUMPDEST DUP3 MSTORE POP POP JUMP JUMPDEST PUSH1 0x0 PUSH1 0x20 DUP3 ADD SWAP1 POP PUSH2 0xE0A PUSH1 0x0 DUP4 ADD DUP5 PUSH2 0xDE6 JUMP JUMPDEST SWAP3 SWAP2 POP POP JUMP JUMPDEST PUSH2 0xE19 DUP2 PUSH2 0xBAC JUMP JUMPDEST DUP2 EQ PUSH2 0xE24 JUMPI PUSH1 0x0 DUP1 REVERT JUMPDEST POP JUMP JUMPDEST PUSH1 0x0 DUP2 CALLDATALOAD SWAP1 POP PUSH2 0xE36 DUP2 PUSH2 0xE10 JUMP JUMPDEST SWAP3 SWAP2 POP POP JUMP JUMPDEST PUSH1 0x0 DUP1 PUSH1 0x40 DUP4 DUP6 SUB SLT ISZERO PUSH2 0xE53 JUMPI PUSH2 0xE52 PUSH2 0xB17 JUMP JUMPDEST JUMPDEST PUSH1 0x0 PUSH2 0xE61 DUP6 DUP3 DUP7 ADD PUSH2 0xD38 JUMP JUMPDEST SWAP3 POP POP PUSH1 0x20 PUSH2 0xE72 DUP6 DUP3 DUP7 ADD PUSH2 0xE27 JUMP JUMPDEST SWAP2 POP POP SWAP3 POP SWAP3 SWAP1 POP JUMP JUMPDEST PUSH1 0x0 PUSH1 0x20 DUP3 DUP5 SUB SLT ISZERO PUSH2 0xE92 JUMPI PUSH2 0xE91 PUSH2 0xB17 JUMP JUMPDEST JUMPDEST PUSH1 0x0 PUSH2 0xEA0 DUP5 DUP3 DUP6 ADD PUSH2 0xD38 JUMP JUMPDEST SWAP2 POP POP SWAP3 SWAP2 POP POP JUMP JUMPDEST PUSH1 0x0 PUSH1 0xC0 DUP3 ADD SWAP1 POP PUSH2 0xEBE PUSH1 0x0 DUP4 ADD DUP10 PUSH2 0xDBC JUMP JUMPDEST DUP2 DUP2 SUB PUSH1 0x20 DUP4 ADD MSTORE PUSH2 0xED0 DUP2 DUP9 PUSH2 0xAB2 JUMP JUMPDEST SWAP1 POP PUSH2 0xEDF PUSH1 0x40 DUP4 ADD DUP8 PUSH2 0xDBC JUMP JUMPDEST PUSH2 0xEEC PUSH1 0x60 DUP4 ADD DUP7 PUSH2 0xDE6 JUMP JUMPDEST PUSH2 0xEF9 PUSH1 0x80 DUP4 ADD DUP6 PUSH2 0xDBC JUMP JUMPDEST PUSH2 0xF06 PUSH1 0xA0 DUP4 ADD DUP5 PUSH2 0xBB8 JUMP JUMPDEST SWAP8 SWAP7 POP POP POP POP POP POP POP JUMP JUMPDEST PUSH32 0x4E487B7100000000000000000000000000000000000000000000000000000000 PUSH1 0x0 MSTORE PUSH1 0x22 PUSH1 0x4 MSTORE PUSH1 0x24 PUSH1 0x0 REVERT JUMPDEST PUSH1 0x0 PUSH1 0x2 DUP3 DIV SWAP1 POP PUSH1 0x1 DUP3 AND DUP1 PUSH2 0xF58 JUMPI PUSH1 0x7F DUP3 AND SWAP2 POP JUMPDEST PUSH1 0x20 DUP3 LT DUP2 EQ ISZERO PUSH2 0xF6C JUMPI PUSH2 0xF6B PUSH2 0xF11 JUMP JUMPDEST JUMPDEST POP SWAP2 SWAP1 POP JUMP JUMPDEST PUSH32 0x4E487B7100000000000000000000000000000000000000000000000000000000 PUSH1 0x0 MSTORE PUSH1 0x11 PUSH1 0x4 MSTORE PUSH1 0x24 PUSH1 0x0 REVERT JUMPDEST PUSH1 0x0 PUSH2 0xFAC DUP3 PUSH2 0xD17 JUMP JUMPDEST SWAP2 POP PUSH2 0xFB7 DUP4 PUSH2 0xD17 JUMP JUMPDEST SWAP3 POP DUP3 PUSH32 0xFFFFFFFFFFFFFFFFFFFFFFFFFFFFFFFFFFFFFFFFFFFFFFFFFFFFFFFFFFFFFFFF SUB DUP3 GT ISZERO PUSH2 0xFEC JUMPI PUSH2 0xFEB PUSH2 0xF72 JUMP JUMPDEST JUMPDEST DUP3 DUP3 ADD SWAP1 POP SWAP3 SWAP2 POP POP JUMP JUMPDEST PUSH32 0x4E487B7100000000000000000000000000000000000000000000000000000000 PUSH1 0x0 MSTORE PUSH1 0x32 PUSH1 0x4 MSTORE PUSH1 0x24 PUSH1 0x0 REVERT JUMPDEST PUSH1 0x0 PUSH2 0x1031 DUP3 PUSH2 0xD17 JUMP JUMPDEST SWAP2 POP PUSH32 0xFFFFFFFFFFFFFFFFFFFFFFFFFFFFFFFFFFFFFFFFFFFFFFFFFFFFFFFFFFFFFFFF DUP3 EQ ISZERO PUSH2 0x1064 JUMPI PUSH2 0x1063 PUSH2 0xF72 JUMP JUMPDEST JUMPDEST PUSH1 0x1 DUP3 ADD SWAP1 POP SWAP2 SWAP1 POP JUMP JUMPDEST PUSH32 0x4E487B7100000000000000000000000000000000000000000000000000000000 PUSH1 0x0 MSTORE PUSH1 0x12 PUSH1 0x4 MSTORE PUSH1 0x24 PUSH1 0x0 REVERT JUMPDEST PUSH1 0x0 PUSH2 0x10A9 DUP3 PUSH2 0xD17 JUMP JUMPDEST SWAP2 POP PUSH2 0x10B4 DUP4 PUSH2 0xD17 JUMP JUMPDEST SWAP3 POP DUP3 PUSH2 0x10C4 JUMPI PUSH2 0x10C3 PUSH2 0x106F JUMP JUMPDEST JUMPDEST DUP3 DUP3 DIV SWAP1 POP SWAP3 SWAP2 POP POP JUMP INVALID LOG2 PUSH5 0x6970667358 0x22 SLT KECCAK256 TIMESTAMP LOG1 JUMP 0xC7 POP COINBASE SLT 0xF7 0xB6 SWAP16 0xCA 0x2E 0xB6 EXP DUP16 REVERT RETURNDATASIZE 0xFB 0xCF 0x26 SDIV 0x5E DIV 0xD7 MSTORE ISZERO 0xFC 0x25 0x26 SAR SWAP12 DUP15 PUSH5 0x736F6C6343 STOP ADDMOD SIGNEXTEND STOP CALLER LOG2 PUSH5 0x6970667358 0x22 SLT KECCAK256 DUP7 SWAP1 0xC SSTORE 0xCA 0xBA 0x4A SAR CALL 0xE3 REVERT 0x2B REVERT SAR PUSH17 0x3EF937FC7FBE4E9F9E661E1C26864A90A2 PUSH5 0x736F6C6343 STOP ADDMOD SIGNEXTEND STOP CALLER "},"gasEstimates":{"creation":{"codeDepositCost":"1513600","executionCost":"1582","totalCost":"1515182"},"external":{"campaings(uint256)":"infinite","createCampaing(uint256,string,string)":"infinite","getCampaings()":"infinite"}},"methodIdentifiers":{"campaings(uint256)":"b2395a14","createCampaing(uint256,string,string)":"eb478942","getCampaings()":"2a3a4d8a"}},"storageLayout":{"storage":[{"astId":5,"contract":"campaing.sol:CampaingFactory","label":"campaings","offset":0,"slot":"0","type":"t_array(t_contract(Campaing)308)dyn_storage"}],"types":{"t_array(t_contract(Campaing)308)dyn_storage":{"base":"t_contract(Campaing)308","encoding":"dynamic_array","label":"contract Campaing[]","numberOfBytes":"32"},"t_contract(Campaing)308":{"encoding":"inplace","label":"contract Campaing","numberOfBytes":"20"}}},"userdoc":{"kind":"user","methods":{},"version":1}}