{"abi":[{"inputs":[{"internalType":"uint256","name":"_min_contribution","type":"uint256"},{"internalType":"address","name":"_manager","type":"address"},{"internalType":"string","name":"_name","type":"string"},{"internalType":"string","name":"_description","type":"string"}],"stateMutability":"nonpayable","type":"constructor"},{"inputs":[{"internalType":"address","name":"","type":"address"}],"name":"approvers","outputs":[{"internalType":"bool","name":"","type":"bool"}],"stateMutability":"view","type":"function"},{"inputs":[{"internalType":"uint256","name":"id","type":"uint256"},{"internalType":"bool","name":"vote","type":"bool"}],"name":"aproveRequest","outputs":[],"stateMutability":"nonpayable","type":"function"},{"inputs":[],"name":"contribute","outputs":[],"stateMutability":"payable","type":"function"},{"inputs":[],"name":"description","outputs":[{"internalType":"string","name":"","type":"string"}],"stateMutability":"view","type":"function"},{"inputs":[{"internalType":"string","name":"_description","type":"string"},{"internalType":"uint256","name":"_value","type":"uint256"},{"internalType":"address","name":"_recipent","type":"address"}],"name":"makeRequest","outputs":[],"stateMutability":"nonpayable","type":"function"},{"inputs":[],"name":"manager","outputs":[{"internalType":"address","name":"","type":"address"}],"stateMutability":"view","type":"function"},{"inputs":[],"name":"minContribution","outputs":[{"internalType":"uint256","name":"","type":"uint256"}],"stateMutability":"view","type":"function"},{"inputs":[],"name":"name","outputs":[{"internalType":"string","name":"","type":"string"}],"stateMutability":"view","type":"function"},{"inputs":[{"internalType":"uint256","name":"","type":"uint256"}],"name":"requests","outputs":[{"internalType":"uint256","name":"id","type":"uint256"},{"internalType":"string","name":"description","type":"string"},{"internalType":"uint256","name":"value","type":"uint256"},{"internalType":"address","name":"recipent","type":"address"},{"internalType":"uint256","name":"vote_yes","type":"uint256"},{"internalType":"bool","name":"complete","type":"bool"}],"stateMutability":"view","type":"function"}],"devdoc":{"kind":"dev","methods":{},"version":1},"evm":{"assembly":"    /* \"campaing.sol\":485:2815  contract Campaing{... */\n  mstore(0x40, 0x80)\n    /* \"campaing.sol\":1193:1455  constructor(uint _min_contribution,address _manager,string memory _name,  string memory _description) {... */\n  callvalue\n  dup1\n  iszero\n  tag_1\n  jumpi\n  0x00\n  dup1\n  revert\ntag_1:\n  pop\n  mload(0x40)\n  sub(codesize, bytecodeSize)\n  dup1\n  bytecodeSize\n  dup4\n  codecopy\n  dup2\n  dup2\n  add\n  0x40\n  mstore\n  dup2\n  add\n  swap1\n  tag_2\n  swap2\n  swap1\n  tag_3\n  jump\t// in\ntag_2:\n    /* \"campaing.sol\":1320:1328  _manager */\n  dup3\n    /* \"campaing.sol\":1310:1317  manager */\n  0x04\n  0x00\n    /* \"campaing.sol\":1310:1328  manager = _manager */\n  0x0100\n  exp\n  dup2\n  sload\n  dup2\n  0xffffffffffffffffffffffffffffffffffffffff\n  mul\n  not\n  and\n  swap1\n  dup4\n  0xffffffffffffffffffffffffffffffffffffffff\n  and\n  mul\n  or\n  swap1\n  sstore\n  pop\n    /* \"campaing.sol\":1349:1354  _name */\n  dup2\n    /* \"campaing.sol\":1342:1346  name */\n  0x00\n    /* \"campaing.sol\":1342:1354  name = _name */\n  swap1\n  dup1\n  mload\n  swap1\n  0x20\n  add\n  swap1\n  tag_6\n  swap3\n  swap2\n  swap1\n  tag_7\n  jump\t// in\ntag_6:\n  pop\n    /* \"campaing.sol\":1382:1394  _description */\n  dup1\n    /* \"campaing.sol\":1368:1379  description */\n  0x01\n    /* \"campaing.sol\":1368:1394  description = _description */\n  swap1\n  dup1\n  mload\n  swap1\n  0x20\n  add\n  swap1\n  tag_8\n  swap3\n  swap2\n  swap1\n  tag_7\n  jump\t// in\ntag_8:\n  pop\n    /* \"campaing.sol\":1426:1443  _min_contribution */\n  dup4\n    /* \"campaing.sol\":1408:1423  minContribution */\n  0x05\n    /* \"campaing.sol\":1408:1443  minContribution = _min_contribution */\n  dup2\n  swap1\n  sstore\n  pop\n    /* \"campaing.sol\":1193:1455  constructor(uint _min_contribution,address _manager,string memory _name,  string memory _description) {... */\n  pop\n  pop\n  pop\n  pop\n    /* \"campaing.sol\":485:2815  contract Campaing{... */\n  jump(tag_9)\ntag_7:\n  dup3\n  dup1\n  sload\n  tag_10\n  swap1\n  tag_11\n  jump\t// in\ntag_10:\n  swap1\n  0x00\n  mstore\n  keccak256(0x00, 0x20)\n  swap1\n  0x1f\n  add\n  0x20\n  swap1\n  div\n  dup2\n  add\n  swap3\n  dup3\n  tag_13\n  jumpi\n  0x00\n  dup6\n  sstore\n  jump(tag_12)\ntag_13:\n  dup3\n  0x1f\n  lt\n  tag_14\n  jumpi\n  dup1\n  mload\n  not(0xff)\n  and\n  dup4\n  dup1\n  add\n  or\n  dup6\n  sstore\n  jump(tag_12)\ntag_14:\n  dup3\n  dup1\n  add\n  0x01\n  add\n  dup6\n  sstore\n  dup3\n  iszero\n  tag_12\n  jumpi\n  swap2\n  dup3\n  add\ntag_15:\n  dup3\n  dup2\n  gt\n  iszero\n  tag_16\n  jumpi\n  dup3\n  mload\n  dup3\n  sstore\n  swap2\n  0x20\n  add\n  swap2\n  swap1\n  0x01\n  add\n  swap1\n  jump(tag_15)\ntag_16:\ntag_12:\n  pop\n  swap1\n  pop\n  tag_17\n  swap2\n  swap1\n  tag_18\n  jump\t// in\ntag_17:\n  pop\n  swap1\n  jump\t// out\ntag_18:\ntag_19:\n  dup1\n  dup3\n  gt\n  iszero\n  tag_20\n  jumpi\n  0x00\n  dup2\n  0x00\n  swap1\n  sstore\n  pop\n  0x01\n  add\n  jump(tag_19)\ntag_20:\n  pop\n  swap1\n  jump\t// out\n    /* \"#utility.yul\":7:82   */\ntag_21:\n    /* \"#utility.yul\":40:46   */\n  0x00\n    /* \"#utility.yul\":73:75   */\n  0x40\n    /* \"#utility.yul\":67:76   */\n  mload\n    /* \"#utility.yul\":57:76   */\n  swap1\n  pop\n    /* \"#utility.yul\":7:82   */\n  swap1\n  jump\t// out\n    /* \"#utility.yul\":88:205   */\ntag_22:\n    /* \"#utility.yul\":197:198   */\n  0x00\n    /* \"#utility.yul\":194:195   */\n  dup1\n    /* \"#utility.yul\":187:199   */\n  revert\n    /* \"#utility.yul\":211:328   */\ntag_23:\n    /* \"#utility.yul\":320:321   */\n  0x00\n    /* \"#utility.yul\":317:318   */\n  dup1\n    /* \"#utility.yul\":310:322   */\n  revert\n    /* \"#utility.yul\":334:411   */\ntag_24:\n    /* \"#utility.yul\":371:378   */\n  0x00\n    /* \"#utility.yul\":400:405   */\n  dup2\n    /* \"#utility.yul\":389:405   */\n  swap1\n  pop\n    /* \"#utility.yul\":334:411   */\n  swap2\n  swap1\n  pop\n  jump\t// out\n    /* \"#utility.yul\":417:539   */\ntag_25:\n    /* \"#utility.yul\":490:514   */\n  tag_48\n    /* \"#utility.yul\":508:513   */\n  dup2\n    /* \"#utility.yul\":490:514   */\n  tag_24\n  jump\t// in\ntag_48:\n    /* \"#utility.yul\":483:488   */\n  dup2\n    /* \"#utility.yul\":480:515   */\n  eq\n    /* \"#utility.yul\":470:533   */\n  tag_49\n  jumpi\n    /* \"#utility.yul\":529:530   */\n  0x00\n    /* \"#utility.yul\":526:527   */\n  dup1\n    /* \"#utility.yul\":519:531   */\n  revert\n    /* \"#utility.yul\":470:533   */\ntag_49:\n    /* \"#utility.yul\":417:539   */\n  pop\n  jump\t// out\n    /* \"#utility.yul\":545:688   */\ntag_26:\n    /* \"#utility.yul\":602:607   */\n  0x00\n    /* \"#utility.yul\":633:639   */\n  dup2\n    /* \"#utility.yul\":627:640   */\n  mload\n    /* \"#utility.yul\":618:640   */\n  swap1\n  pop\n    /* \"#utility.yul\":649:682   */\n  tag_51\n    /* \"#utility.yul\":676:681   */\n  dup2\n    /* \"#utility.yul\":649:682   */\n  tag_25\n  jump\t// in\ntag_51:\n    /* \"#utility.yul\":545:688   */\n  swap3\n  swap2\n  pop\n  pop\n  jump\t// out\n    /* \"#utility.yul\":694:820   */\ntag_27:\n    /* \"#utility.yul\":731:738   */\n  0x00\n    /* \"#utility.yul\":771:813   */\n  0xffffffffffffffffffffffffffffffffffffffff\n    /* \"#utility.yul\":764:769   */\n  dup3\n    /* \"#utility.yul\":760:814   */\n  and\n    /* \"#utility.yul\":749:814   */\n  swap1\n  pop\n    /* \"#utility.yul\":694:820   */\n  swap2\n  swap1\n  pop\n  jump\t// out\n    /* \"#utility.yul\":826:922   */\ntag_28:\n    /* \"#utility.yul\":863:870   */\n  0x00\n    /* \"#utility.yul\":892:916   */\n  tag_54\n    /* \"#utility.yul\":910:915   */\n  dup3\n    /* \"#utility.yul\":892:916   */\n  tag_27\n  jump\t// in\ntag_54:\n    /* \"#utility.yul\":881:916   */\n  swap1\n  pop\n    /* \"#utility.yul\":826:922   */\n  swap2\n  swap1\n  pop\n  jump\t// out\n    /* \"#utility.yul\":928:1050   */\ntag_29:\n    /* \"#utility.yul\":1001:1025   */\n  tag_56\n    /* \"#utility.yul\":1019:1024   */\n  dup2\n    /* \"#utility.yul\":1001:1025   */\n  tag_28\n  jump\t// in\ntag_56:\n    /* \"#utility.yul\":994:999   */\n  dup2\n    /* \"#utility.yul\":991:1026   */\n  eq\n    /* \"#utility.yul\":981:1044   */\n  tag_57\n  jumpi\n    /* \"#utility.yul\":1040:1041   */\n  0x00\n    /* \"#utility.yul\":1037:1038   */\n  dup1\n    /* \"#utility.yul\":1030:1042   */\n  revert\n    /* \"#utility.yul\":981:1044   */\ntag_57:\n    /* \"#utility.yul\":928:1050   */\n  pop\n  jump\t// out\n    /* \"#utility.yul\":1056:1199   */\ntag_30:\n    /* \"#utility.yul\":1113:1118   */\n  0x00\n    /* \"#utility.yul\":1144:1150   */\n  dup2\n    /* \"#utility.yul\":1138:1151   */\n  mload\n    /* \"#utility.yul\":1129:1151   */\n  swap1\n  pop\n    /* \"#utility.yul\":1160:1193   */\n  tag_59\n    /* \"#utility.yul\":1187:1192   */\n  dup2\n    /* \"#utility.yul\":1160:1193   */\n  tag_29\n  jump\t// in\ntag_59:\n    /* \"#utility.yul\":1056:1199   */\n  swap3\n  swap2\n  pop\n  pop\n  jump\t// out\n    /* \"#utility.yul\":1205:1322   */\ntag_31:\n    /* \"#utility.yul\":1314:1315   */\n  0x00\n    /* \"#utility.yul\":1311:1312   */\n  dup1\n    /* \"#utility.yul\":1304:1316   */\n  revert\n    /* \"#utility.yul\":1328:1445   */\ntag_32:\n    /* \"#utility.yul\":1437:1438   */\n  0x00\n    /* \"#utility.yul\":1434:1435   */\n  dup1\n    /* \"#utility.yul\":1427:1439   */\n  revert\n    /* \"#utility.yul\":1451:1553   */\ntag_33:\n    /* \"#utility.yul\":1492:1498   */\n  0x00\n    /* \"#utility.yul\":1543:1545   */\n  0x1f\n    /* \"#utility.yul\":1539:1546   */\n  not\n    /* \"#utility.yul\":1534:1536   */\n  0x1f\n    /* \"#utility.yul\":1527:1532   */\n  dup4\n    /* \"#utility.yul\":1523:1537   */\n  add\n    /* \"#utility.yul\":1519:1547   */\n  and\n    /* \"#utility.yul\":1509:1547   */\n  swap1\n  pop\n    /* \"#utility.yul\":1451:1553   */\n  swap2\n  swap1\n  pop\n  jump\t// out\n    /* \"#utility.yul\":1559:1739   */\ntag_34:\n    /* \"#utility.yul\":1607:1684   */\n  0x4e487b7100000000000000000000000000000000000000000000000000000000\n    /* \"#utility.yul\":1604:1605   */\n  0x00\n    /* \"#utility.yul\":1597:1685   */\n  mstore\n    /* \"#utility.yul\":1704:1708   */\n  0x41\n    /* \"#utility.yul\":1701:1702   */\n  0x04\n    /* \"#utility.yul\":1694:1709   */\n  mstore\n    /* \"#utility.yul\":1728:1732   */\n  0x24\n    /* \"#utility.yul\":1725:1726   */\n  0x00\n    /* \"#utility.yul\":1718:1733   */\n  revert\n    /* \"#utility.yul\":1745:2026   */\ntag_35:\n    /* \"#utility.yul\":1828:1855   */\n  tag_65\n    /* \"#utility.yul\":1850:1854   */\n  dup3\n    /* \"#utility.yul\":1828:1855   */\n  tag_33\n  jump\t// in\ntag_65:\n    /* \"#utility.yul\":1820:1826   */\n  dup2\n    /* \"#utility.yul\":1816:1856   */\n  add\n    /* \"#utility.yul\":1958:1964   */\n  dup2\n    /* \"#utility.yul\":1946:1956   */\n  dup2\n    /* \"#utility.yul\":1943:1965   */\n  lt\n    /* \"#utility.yul\":1922:1940   */\n  0xffffffffffffffff\n    /* \"#utility.yul\":1910:1920   */\n  dup3\n    /* \"#utility.yul\":1907:1941   */\n  gt\n    /* \"#utility.yul\":1904:1966   */\n  or\n    /* \"#utility.yul\":1901:1989   */\n  iszero\n  tag_66\n  jumpi\n    /* \"#utility.yul\":1969:1987   */\n  tag_67\n  tag_34\n  jump\t// in\ntag_67:\n    /* \"#utility.yul\":1901:1989   */\ntag_66:\n    /* \"#utility.yul\":2009:2019   */\n  dup1\n    /* \"#utility.yul\":2005:2007   */\n  0x40\n    /* \"#utility.yul\":1998:2020   */\n  mstore\n    /* \"#utility.yul\":1788:2026   */\n  pop\n    /* \"#utility.yul\":1745:2026   */\n  pop\n  pop\n  jump\t// out\n    /* \"#utility.yul\":2032:2161   */\ntag_36:\n    /* \"#utility.yul\":2066:2072   */\n  0x00\n    /* \"#utility.yul\":2093:2113   */\n  tag_69\n  tag_21\n  jump\t// in\ntag_69:\n    /* \"#utility.yul\":2083:2113   */\n  swap1\n  pop\n    /* \"#utility.yul\":2122:2155   */\n  tag_70\n    /* \"#utility.yul\":2150:2154   */\n  dup3\n    /* \"#utility.yul\":2142:2148   */\n  dup3\n    /* \"#utility.yul\":2122:2155   */\n  tag_35\n  jump\t// in\ntag_70:\n    /* \"#utility.yul\":2032:2161   */\n  swap2\n  swap1\n  pop\n  jump\t// out\n    /* \"#utility.yul\":2167:2475   */\ntag_37:\n    /* \"#utility.yul\":2229:2233   */\n  0x00\n    /* \"#utility.yul\":2319:2337   */\n  0xffffffffffffffff\n    /* \"#utility.yul\":2311:2317   */\n  dup3\n    /* \"#utility.yul\":2308:2338   */\n  gt\n    /* \"#utility.yul\":2305:2361   */\n  iszero\n  tag_72\n  jumpi\n    /* \"#utility.yul\":2341:2359   */\n  tag_73\n  tag_34\n  jump\t// in\ntag_73:\n    /* \"#utility.yul\":2305:2361   */\ntag_72:\n    /* \"#utility.yul\":2379:2408   */\n  tag_74\n    /* \"#utility.yul\":2401:2407   */\n  dup3\n    /* \"#utility.yul\":2379:2408   */\n  tag_33\n  jump\t// in\ntag_74:\n    /* \"#utility.yul\":2371:2408   */\n  swap1\n  pop\n    /* \"#utility.yul\":2463:2467   */\n  0x20\n    /* \"#utility.yul\":2457:2461   */\n  dup2\n    /* \"#utility.yul\":2453:2468   */\n  add\n    /* \"#utility.yul\":2445:2468   */\n  swap1\n  pop\n    /* \"#utility.yul\":2167:2475   */\n  swap2\n  swap1\n  pop\n  jump\t// out\n    /* \"#utility.yul\":2481:2788   */\ntag_38:\n    /* \"#utility.yul\":2549:2550   */\n  0x00\n    /* \"#utility.yul\":2559:2672   */\ntag_76:\n    /* \"#utility.yul\":2573:2579   */\n  dup4\n    /* \"#utility.yul\":2570:2571   */\n  dup2\n    /* \"#utility.yul\":2567:2580   */\n  lt\n    /* \"#utility.yul\":2559:2672   */\n  iszero\n  tag_78\n  jumpi\n    /* \"#utility.yul\":2658:2659   */\n  dup1\n    /* \"#utility.yul\":2653:2656   */\n  dup3\n    /* \"#utility.yul\":2649:2660   */\n  add\n    /* \"#utility.yul\":2643:2661   */\n  mload\n    /* \"#utility.yul\":2639:2640   */\n  dup2\n    /* \"#utility.yul\":2634:2637   */\n  dup5\n    /* \"#utility.yul\":2630:2641   */\n  add\n    /* \"#utility.yul\":2623:2662   */\n  mstore\n    /* \"#utility.yul\":2595:2597   */\n  0x20\n    /* \"#utility.yul\":2592:2593   */\n  dup2\n    /* \"#utility.yul\":2588:2598   */\n  add\n    /* \"#utility.yul\":2583:2598   */\n  swap1\n  pop\n    /* \"#utility.yul\":2559:2672   */\n  jump(tag_76)\ntag_78:\n    /* \"#utility.yul\":2690:2696   */\n  dup4\n    /* \"#utility.yul\":2687:2688   */\n  dup2\n    /* \"#utility.yul\":2684:2697   */\n  gt\n    /* \"#utility.yul\":2681:2782   */\n  iszero\n  tag_79\n  jumpi\n    /* \"#utility.yul\":2770:2771   */\n  0x00\n    /* \"#utility.yul\":2761:2767   */\n  dup5\n    /* \"#utility.yul\":2756:2759   */\n  dup5\n    /* \"#utility.yul\":2752:2768   */\n  add\n    /* \"#utility.yul\":2745:2772   */\n  mstore\n    /* \"#utility.yul\":2681:2782   */\ntag_79:\n    /* \"#utility.yul\":2530:2788   */\n  pop\n    /* \"#utility.yul\":2481:2788   */\n  pop\n  pop\n  pop\n  jump\t// out\n    /* \"#utility.yul\":2794:3215   */\ntag_39:\n    /* \"#utility.yul\":2883:2888   */\n  0x00\n    /* \"#utility.yul\":2908:2974   */\n  tag_81\n    /* \"#utility.yul\":2924:2973   */\n  tag_82\n    /* \"#utility.yul\":2966:2972   */\n  dup5\n    /* \"#utility.yul\":2924:2973   */\n  tag_37\n  jump\t// in\ntag_82:\n    /* \"#utility.yul\":2908:2974   */\n  tag_36\n  jump\t// in\ntag_81:\n    /* \"#utility.yul\":2899:2974   */\n  swap1\n  pop\n    /* \"#utility.yul\":2997:3003   */\n  dup3\n    /* \"#utility.yul\":2990:2995   */\n  dup2\n    /* \"#utility.yul\":2983:3004   */\n  mstore\n    /* \"#utility.yul\":3035:3039   */\n  0x20\n    /* \"#utility.yul\":3028:3033   */\n  dup2\n    /* \"#utility.yul\":3024:3040   */\n  add\n    /* \"#utility.yul\":3073:3076   */\n  dup5\n    /* \"#utility.yul\":3064:3070   */\n  dup5\n    /* \"#utility.yul\":3059:3062   */\n  dup5\n    /* \"#utility.yul\":3055:3071   */\n  add\n    /* \"#utility.yul\":3052:3077   */\n  gt\n    /* \"#utility.yul\":3049:3161   */\n  iszero\n  tag_83\n  jumpi\n    /* \"#utility.yul\":3080:3159   */\n  tag_84\n  tag_32\n  jump\t// in\ntag_84:\n    /* \"#utility.yul\":3049:3161   */\ntag_83:\n    /* \"#utility.yul\":3170:3209   */\n  tag_85\n    /* \"#utility.yul\":3202:3208   */\n  dup5\n    /* \"#utility.yul\":3197:3200   */\n  dup3\n    /* \"#utility.yul\":3192:3195   */\n  dup6\n    /* \"#utility.yul\":3170:3209   */\n  tag_38\n  jump\t// in\ntag_85:\n    /* \"#utility.yul\":2889:3215   */\n  pop\n    /* \"#utility.yul\":2794:3215   */\n  swap4\n  swap3\n  pop\n  pop\n  pop\n  jump\t// out\n    /* \"#utility.yul\":3235:3590   */\ntag_40:\n    /* \"#utility.yul\":3302:3307   */\n  0x00\n    /* \"#utility.yul\":3351:3354   */\n  dup3\n    /* \"#utility.yul\":3344:3348   */\n  0x1f\n    /* \"#utility.yul\":3336:3342   */\n  dup4\n    /* \"#utility.yul\":3332:3349   */\n  add\n    /* \"#utility.yul\":3328:3355   */\n  slt\n    /* \"#utility.yul\":3318:3440   */\n  tag_87\n  jumpi\n    /* \"#utility.yul\":3359:3438   */\n  tag_88\n  tag_31\n  jump\t// in\ntag_88:\n    /* \"#utility.yul\":3318:3440   */\ntag_87:\n    /* \"#utility.yul\":3469:3475   */\n  dup2\n    /* \"#utility.yul\":3463:3476   */\n  mload\n    /* \"#utility.yul\":3494:3584   */\n  tag_89\n    /* \"#utility.yul\":3580:3583   */\n  dup5\n    /* \"#utility.yul\":3572:3578   */\n  dup3\n    /* \"#utility.yul\":3565:3569   */\n  0x20\n    /* \"#utility.yul\":3557:3563   */\n  dup7\n    /* \"#utility.yul\":3553:3570   */\n  add\n    /* \"#utility.yul\":3494:3584   */\n  tag_39\n  jump\t// in\ntag_89:\n    /* \"#utility.yul\":3485:3584   */\n  swap2\n  pop\n    /* \"#utility.yul\":3308:3590   */\n  pop\n    /* \"#utility.yul\":3235:3590   */\n  swap3\n  swap2\n  pop\n  pop\n  jump\t// out\n    /* \"#utility.yul\":3596:4762   */\ntag_3:\n    /* \"#utility.yul\":3713:3719   */\n  0x00\n    /* \"#utility.yul\":3721:3727   */\n  dup1\n    /* \"#utility.yul\":3729:3735   */\n  0x00\n    /* \"#utility.yul\":3737:3743   */\n  dup1\n    /* \"#utility.yul\":3786:3789   */\n  0x80\n    /* \"#utility.yul\":3774:3783   */\n  dup6\n    /* \"#utility.yul\":3765:3772   */\n  dup8\n    /* \"#utility.yul\":3761:3784   */\n  sub\n    /* \"#utility.yul\":3757:3790   */\n  slt\n    /* \"#utility.yul\":3754:3874   */\n  iszero\n  tag_91\n  jumpi\n    /* \"#utility.yul\":3793:3872   */\n  tag_92\n  tag_22\n  jump\t// in\ntag_92:\n    /* \"#utility.yul\":3754:3874   */\ntag_91:\n    /* \"#utility.yul\":3913:3914   */\n  0x00\n    /* \"#utility.yul\":3938:4002   */\n  tag_93\n    /* \"#utility.yul\":3994:4001   */\n  dup8\n    /* \"#utility.yul\":3985:3991   */\n  dup3\n    /* \"#utility.yul\":3974:3983   */\n  dup9\n    /* \"#utility.yul\":3970:3992   */\n  add\n    /* \"#utility.yul\":3938:4002   */\n  tag_26\n  jump\t// in\ntag_93:\n    /* \"#utility.yul\":3928:4002   */\n  swap5\n  pop\n    /* \"#utility.yul\":3884:4012   */\n  pop\n    /* \"#utility.yul\":4051:4053   */\n  0x20\n    /* \"#utility.yul\":4077:4141   */\n  tag_94\n    /* \"#utility.yul\":4133:4140   */\n  dup8\n    /* \"#utility.yul\":4124:4130   */\n  dup3\n    /* \"#utility.yul\":4113:4122   */\n  dup9\n    /* \"#utility.yul\":4109:4131   */\n  add\n    /* \"#utility.yul\":4077:4141   */\n  tag_30\n  jump\t// in\ntag_94:\n    /* \"#utility.yul\":4067:4141   */\n  swap4\n  pop\n    /* \"#utility.yul\":4022:4151   */\n  pop\n    /* \"#utility.yul\":4211:4213   */\n  0x40\n    /* \"#utility.yul\":4200:4209   */\n  dup6\n    /* \"#utility.yul\":4196:4214   */\n  add\n    /* \"#utility.yul\":4190:4215   */\n  mload\n    /* \"#utility.yul\":4242:4260   */\n  0xffffffffffffffff\n    /* \"#utility.yul\":4234:4240   */\n  dup2\n    /* \"#utility.yul\":4231:4261   */\n  gt\n    /* \"#utility.yul\":4228:4345   */\n  iszero\n  tag_95\n  jumpi\n    /* \"#utility.yul\":4264:4343   */\n  tag_96\n  tag_23\n  jump\t// in\ntag_96:\n    /* \"#utility.yul\":4228:4345   */\ntag_95:\n    /* \"#utility.yul\":4369:4443   */\n  tag_97\n    /* \"#utility.yul\":4435:4442   */\n  dup8\n    /* \"#utility.yul\":4426:4432   */\n  dup3\n    /* \"#utility.yul\":4415:4424   */\n  dup9\n    /* \"#utility.yul\":4411:4433   */\n  add\n    /* \"#utility.yul\":4369:4443   */\n  tag_40\n  jump\t// in\ntag_97:\n    /* \"#utility.yul\":4359:4443   */\n  swap3\n  pop\n    /* \"#utility.yul\":4161:4453   */\n  pop\n    /* \"#utility.yul\":4513:4515   */\n  0x60\n    /* \"#utility.yul\":4502:4511   */\n  dup6\n    /* \"#utility.yul\":4498:4516   */\n  add\n    /* \"#utility.yul\":4492:4517   */\n  mload\n    /* \"#utility.yul\":4544:4562   */\n  0xffffffffffffffff\n    /* \"#utility.yul\":4536:4542   */\n  dup2\n    /* \"#utility.yul\":4533:4563   */\n  gt\n    /* \"#utility.yul\":4530:4647   */\n  iszero\n  tag_98\n  jumpi\n    /* \"#utility.yul\":4566:4645   */\n  tag_99\n  tag_23\n  jump\t// in\ntag_99:\n    /* \"#utility.yul\":4530:4647   */\ntag_98:\n    /* \"#utility.yul\":4671:4745   */\n  tag_100\n    /* \"#utility.yul\":4737:4744   */\n  dup8\n    /* \"#utility.yul\":4728:4734   */\n  dup3\n    /* \"#utility.yul\":4717:4726   */\n  dup9\n    /* \"#utility.yul\":4713:4735   */\n  add\n    /* \"#utility.yul\":4671:4745   */\n  tag_40\n  jump\t// in\ntag_100:\n    /* \"#utility.yul\":4661:4745   */\n  swap2\n  pop\n    /* \"#utility.yul\":4463:4755   */\n  pop\n    /* \"#utility.yul\":3596:4762   */\n  swap3\n  swap6\n  swap2\n  swap5\n  pop\n  swap3\n  pop\n  jump\t// out\n    /* \"#utility.yul\":4768:4948   */\ntag_41:\n    /* \"#utility.yul\":4816:4893   */\n  0x4e487b7100000000000000000000000000000000000000000000000000000000\n    /* \"#utility.yul\":4813:4814   */\n  0x00\n    /* \"#utility.yul\":4806:4894   */\n  mstore\n    /* \"#utility.yul\":4913:4917   */\n  0x22\n    /* \"#utility.yul\":4910:4911   */\n  0x04\n    /* \"#utility.yul\":4903:4918   */\n  mstore\n    /* \"#utility.yul\":4937:4941   */\n  0x24\n    /* \"#utility.yul\":4934:4935   */\n  0x00\n    /* \"#utility.yul\":4927:4942   */\n  revert\n    /* \"#utility.yul\":4954:5274   */\ntag_11:\n    /* \"#utility.yul\":4998:5004   */\n  0x00\n    /* \"#utility.yul\":5035:5036   */\n  0x02\n    /* \"#utility.yul\":5029:5033   */\n  dup3\n    /* \"#utility.yul\":5025:5037   */\n  div\n    /* \"#utility.yul\":5015:5037   */\n  swap1\n  pop\n    /* \"#utility.yul\":5082:5083   */\n  0x01\n    /* \"#utility.yul\":5076:5080   */\n  dup3\n    /* \"#utility.yul\":5072:5084   */\n  and\n    /* \"#utility.yul\":5103:5121   */\n  dup1\n    /* \"#utility.yul\":5093:5174   */\n  tag_103\n  jumpi\n    /* \"#utility.yul\":5159:5163   */\n  0x7f\n    /* \"#utility.yul\":5151:5157   */\n  dup3\n    /* \"#utility.yul\":5147:5164   */\n  and\n    /* \"#utility.yul\":5137:5164   */\n  swap2\n  pop\n    /* \"#utility.yul\":5093:5174   */\ntag_103:\n    /* \"#utility.yul\":5221:5223   */\n  0x20\n    /* \"#utility.yul\":5213:5219   */\n  dup3\n    /* \"#utility.yul\":5210:5224   */\n  lt\n    /* \"#utility.yul\":5190:5208   */\n  dup2\n    /* \"#utility.yul\":5187:5225   */\n  eq\n    /* \"#utility.yul\":5184:5268   */\n  iszero\n  tag_104\n  jumpi\n    /* \"#utility.yul\":5240:5258   */\n  tag_105\n  tag_41\n  jump\t// in\ntag_105:\n    /* \"#utility.yul\":5184:5268   */\ntag_104:\n    /* \"#utility.yul\":5005:5274   */\n  pop\n    /* \"#utility.yul\":4954:5274   */\n  swap2\n  swap1\n  pop\n  jump\t// out\n    /* \"campaing.sol\":485:2815  contract Campaing{... */\ntag_9:\n  dataSize(sub_0)\n  dup1\n  dataOffset(sub_0)\n  0x00\n  codecopy\n  0x00\n  return\nstop\n\nsub_0: assembly {\n        /* \"campaing.sol\":485:2815  contract Campaing{... */\n      mstore(0x40, 0x80)\n      jumpi(tag_1, lt(calldatasize, 0x04))\n      shr(0xe0, calldataload(0x00))\n      dup1\n      0x7284e416\n      gt\n      tag_11\n      jumpi\n      dup1\n      0x7284e416\n      eq\n      tag_6\n      jumpi\n      dup1\n      0x75f66b77\n      eq\n      tag_7\n      jumpi\n      dup1\n      0x81d12c58\n      eq\n      tag_8\n      jumpi\n      dup1\n      0xaaffadf3\n      eq\n      tag_9\n      jumpi\n      dup1\n      0xd7bb99ba\n      eq\n      tag_10\n      jumpi\n      jump(tag_1)\n    tag_11:\n      dup1\n      0x06fdde03\n      eq\n      tag_2\n      jumpi\n      dup1\n      0x0a144391\n      eq\n      tag_3\n      jumpi\n      dup1\n      0x0bfd66c9\n      eq\n      tag_4\n      jumpi\n      dup1\n      0x481c6a75\n      eq\n      tag_5\n      jumpi\n    tag_1:\n      0x00\n      dup1\n      revert\n        /* \"campaing.sol\":800:832  string    public            name */\n    tag_2:\n      callvalue\n      dup1\n      iszero\n      tag_12\n      jumpi\n      0x00\n      dup1\n      revert\n    tag_12:\n      pop\n      tag_13\n      tag_14\n      jump\t// in\n    tag_13:\n      mload(0x40)\n      tag_15\n      swap2\n      swap1\n      tag_16\n      jump\t// in\n    tag_15:\n      mload(0x40)\n      dup1\n      swap2\n      sub\n      swap1\n      return\n        /* \"campaing.sol\":1137:1182  mapping(address => bool) public     approvers */\n    tag_3:\n      callvalue\n      dup1\n      iszero\n      tag_17\n      jumpi\n      0x00\n      dup1\n      revert\n    tag_17:\n      pop\n      tag_18\n      0x04\n      dup1\n      calldatasize\n      sub\n      dup2\n      add\n      swap1\n      tag_19\n      swap2\n      swap1\n      tag_20\n      jump\t// in\n    tag_19:\n      tag_21\n      jump\t// in\n    tag_18:\n      mload(0x40)\n      tag_22\n      swap2\n      swap1\n      tag_23\n      jump\t// in\n    tag_22:\n      mload(0x40)\n      dup1\n      swap2\n      sub\n      swap1\n      return\n        /* \"campaing.sol\":1746:2200  function makeRequest(string memory _description, uint  _value,address  _recipent) public restircted{... */\n    tag_4:\n      callvalue\n      dup1\n      iszero\n      tag_24\n      jumpi\n      0x00\n      dup1\n      revert\n    tag_24:\n      pop\n      tag_25\n      0x04\n      dup1\n      calldatasize\n      sub\n      dup2\n      add\n      swap1\n      tag_26\n      swap2\n      swap1\n      tag_27\n      jump\t// in\n    tag_26:\n      tag_28\n      jump\t// in\n    tag_25:\n      stop\n        /* \"campaing.sol\":993:1028  address   public            manager */\n    tag_5:\n      callvalue\n      dup1\n      iszero\n      tag_29\n      jumpi\n      0x00\n      dup1\n      revert\n    tag_29:\n      pop\n      tag_30\n      tag_31\n      jump\t// in\n    tag_30:\n      mload(0x40)\n      tag_32\n      swap2\n      swap1\n      tag_33\n      jump\t// in\n    tag_32:\n      mload(0x40)\n      dup1\n      swap2\n      sub\n      swap1\n      return\n        /* \"campaing.sol\":842:881  string    public            description */\n    tag_6:\n      callvalue\n      dup1\n      iszero\n      tag_34\n      jumpi\n      0x00\n      dup1\n      revert\n    tag_34:\n      pop\n      tag_35\n      tag_36\n      jump\t// in\n    tag_35:\n      mload(0x40)\n      tag_37\n      swap2\n      swap1\n      tag_16\n      jump\t// in\n    tag_37:\n      mload(0x40)\n      dup1\n      swap2\n      sub\n      swap1\n      return\n        /* \"campaing.sol\":2210:2808  function aproveRequest(uint id,bool vote) public  {... */\n    tag_7:\n      callvalue\n      dup1\n      iszero\n      tag_38\n      jumpi\n      0x00\n      dup1\n      revert\n    tag_38:\n      pop\n      tag_39\n      0x04\n      dup1\n      calldatasize\n      sub\n      dup2\n      add\n      swap1\n      tag_40\n      swap2\n      swap1\n      tag_41\n      jump\t// in\n    tag_40:\n      tag_42\n      jump\t// in\n    tag_39:\n      stop\n        /* \"campaing.sol\":1091:1127  Request[] public            requests */\n    tag_8:\n      callvalue\n      dup1\n      iszero\n      tag_43\n      jumpi\n      0x00\n      dup1\n      revert\n    tag_43:\n      pop\n      tag_44\n      0x04\n      dup1\n      calldatasize\n      sub\n      dup2\n      add\n      swap1\n      tag_45\n      swap2\n      swap1\n      tag_46\n      jump\t// in\n    tag_45:\n      tag_47\n      jump\t// in\n    tag_44:\n      mload(0x40)\n      tag_48\n      swap7\n      swap6\n      swap5\n      swap4\n      swap3\n      swap2\n      swap1\n      tag_49\n      jump\t// in\n    tag_48:\n      mload(0x40)\n      dup1\n      swap2\n      sub\n      swap1\n      return\n        /* \"campaing.sol\":1038:1081  uint      public            minContribution */\n    tag_9:\n      callvalue\n      dup1\n      iszero\n      tag_50\n      jumpi\n      0x00\n      dup1\n      revert\n    tag_50:\n      pop\n      tag_51\n      tag_52\n      jump\t// in\n    tag_51:\n      mload(0x40)\n      tag_53\n      swap2\n      swap1\n      tag_54\n      jump\t// in\n    tag_53:\n      mload(0x40)\n      dup1\n      swap2\n      sub\n      swap1\n      return\n        /* \"campaing.sol\":1567:1736  function contribute() public payable {... */\n    tag_10:\n      tag_55\n      tag_56\n      jump\t// in\n    tag_55:\n      stop\n        /* \"campaing.sol\":800:832  string    public            name */\n    tag_14:\n      0x00\n      dup1\n      sload\n      tag_57\n      swap1\n      tag_58\n      jump\t// in\n    tag_57:\n      dup1\n      0x1f\n      add\n      0x20\n      dup1\n      swap2\n      div\n      mul\n      0x20\n      add\n      mload(0x40)\n      swap1\n      dup2\n      add\n      0x40\n      mstore\n      dup1\n      swap3\n      swap2\n      swap1\n      dup2\n      dup2\n      mstore\n      0x20\n      add\n      dup3\n      dup1\n      sload\n      tag_59\n      swap1\n      tag_58\n      jump\t// in\n    tag_59:\n      dup1\n      iszero\n      tag_60\n      jumpi\n      dup1\n      0x1f\n      lt\n      tag_61\n      jumpi\n      0x0100\n      dup1\n      dup4\n      sload\n      div\n      mul\n      dup4\n      mstore\n      swap2\n      0x20\n      add\n      swap2\n      jump(tag_60)\n    tag_61:\n      dup3\n      add\n      swap2\n      swap1\n      0x00\n      mstore\n      keccak256(0x00, 0x20)\n      swap1\n    tag_62:\n      dup2\n      sload\n      dup2\n      mstore\n      swap1\n      0x01\n      add\n      swap1\n      0x20\n      add\n      dup1\n      dup4\n      gt\n      tag_62\n      jumpi\n      dup3\n      swap1\n      sub\n      0x1f\n      and\n      dup3\n      add\n      swap2\n    tag_60:\n      pop\n      pop\n      pop\n      pop\n      pop\n      dup2\n      jump\t// out\n        /* \"campaing.sol\":1137:1182  mapping(address => bool) public     approvers */\n    tag_21:\n      mstore(0x20, 0x07)\n      dup1\n      0x00\n      mstore\n      keccak256(0x00, 0x40)\n      0x00\n      swap2\n      pop\n      sload\n      swap1\n      0x0100\n      exp\n      swap1\n      div\n      0xff\n      and\n      dup2\n      jump\t// out\n        /* \"campaing.sol\":1746:2200  function makeRequest(string memory _description, uint  _value,address  _recipent) public restircted{... */\n    tag_28:\n        /* \"campaing.sol\":1523:1530  manager */\n      0x04\n      0x00\n      swap1\n      sload\n      swap1\n      0x0100\n      exp\n      swap1\n      div\n      0xffffffffffffffffffffffffffffffffffffffff\n      and\n        /* \"campaing.sol\":1509:1530  msg.sender == manager */\n      0xffffffffffffffffffffffffffffffffffffffff\n      and\n        /* \"campaing.sol\":1509:1519  msg.sender */\n      caller\n        /* \"campaing.sol\":1509:1530  msg.sender == manager */\n      0xffffffffffffffffffffffffffffffffffffffff\n      and\n      eq\n        /* \"campaing.sol\":1501:1531  require(msg.sender == manager) */\n      tag_64\n      jumpi\n      0x00\n      dup1\n      revert\n    tag_64:\n        /* \"campaing.sol\":1877:1878  1 */\n      0x01\n        /* \"campaing.sol\":1859:1873  count_requests */\n      0x02\n      0x00\n        /* \"campaing.sol\":1859:1878  count_requests += 1 */\n      dup3\n      dup3\n      sload\n      tag_66\n      swap2\n      swap1\n      tag_67\n      jump\t// in\n    tag_66:\n      swap3\n      pop\n      pop\n      dup2\n      swap1\n      sstore\n      pop\n        /* \"campaing.sol\":1909:1930  address(this).balance */\n      selfbalance\n        /* \"campaing.sol\":1900:1906  _value */\n      dup3\n        /* \"campaing.sol\":1900:1930  _value < address(this).balance */\n      lt\n        /* \"campaing.sol\":1892:1931  require(_value < address(this).balance) */\n      tag_68\n      jumpi\n      0x00\n      dup1\n      revert\n    tag_68:\n        /* \"campaing.sol\":1945:1962  Request storage r */\n      0x00\n        /* \"campaing.sol\":1966:1974  requests */\n      0x06\n        /* \"campaing.sol\":1966:1981  requests.push() */\n      0x01\n      dup2\n      0x01\n      dup2\n      sload\n      add\n      dup1\n      dup3\n      sstore\n      dup1\n      swap2\n      pop\n      pop\n      sub\n      swap1\n      0x00\n      mstore\n      keccak256(0x00, 0x20)\n      swap1\n      0x07\n      mul\n      add\n        /* \"campaing.sol\":1945:1981  Request storage r  = requests.push() */\n      swap1\n      pop\n        /* \"campaing.sol\":2002:2016  count_requests */\n      sload(0x02)\n        /* \"campaing.sol\":1995:1996  r */\n      dup2\n        /* \"campaing.sol\":1995:1999  r.id */\n      0x00\n      add\n        /* \"campaing.sol\":1995:2016  r.id = count_requests */\n      dup2\n      swap1\n      sstore\n      pop\n        /* \"campaing.sol\":2047:2059  _description */\n      dup4\n        /* \"campaing.sol\":2030:2031  r */\n      dup2\n        /* \"campaing.sol\":2030:2043  r.description */\n      0x01\n      add\n        /* \"campaing.sol\":2030:2059  r.description =  _description */\n      swap1\n      dup1\n      mload\n      swap1\n      0x20\n      add\n      swap1\n      tag_70\n      swap3\n      swap2\n      swap1\n      tag_71\n      jump\t// in\n    tag_70:\n      pop\n        /* \"campaing.sol\":2084:2090  _value */\n      dup3\n        /* \"campaing.sol\":2073:2074  r */\n      dup2\n        /* \"campaing.sol\":2073:2080  r.value */\n      0x02\n      add\n        /* \"campaing.sol\":2073:2090  r.value =  _value */\n      dup2\n      swap1\n      sstore\n      pop\n        /* \"campaing.sol\":2118:2127  _recipent */\n      dup2\n        /* \"campaing.sol\":2104:2105  r */\n      dup2\n        /* \"campaing.sol\":2104:2114  r.recipent */\n      0x03\n      add\n      0x00\n        /* \"campaing.sol\":2104:2127  r.recipent =  _recipent */\n      0x0100\n      exp\n      dup2\n      sload\n      dup2\n      0xffffffffffffffffffffffffffffffffffffffff\n      mul\n      not\n      and\n      swap1\n      dup4\n      0xffffffffffffffffffffffffffffffffffffffff\n      and\n      mul\n      or\n      swap1\n      sstore\n      pop\n        /* \"campaing.sol\":2155:2156  0 */\n      0x00\n        /* \"campaing.sol\":2141:2142  r */\n      dup2\n        /* \"campaing.sol\":2141:2151  r.vote_yes */\n      0x04\n      add\n        /* \"campaing.sol\":2141:2156  r.vote_yes =  0 */\n      dup2\n      swap1\n      sstore\n      pop\n        /* \"campaing.sol\":2184:2189  false */\n      0x00\n        /* \"campaing.sol\":2170:2171  r */\n      dup2\n        /* \"campaing.sol\":2170:2180  r.complete */\n      0x05\n      add\n      0x00\n        /* \"campaing.sol\":2170:2189  r.complete =  false */\n      0x0100\n      exp\n      dup2\n      sload\n      dup2\n      0xff\n      mul\n      not\n      and\n      swap1\n      dup4\n      iszero\n      iszero\n      mul\n      or\n      swap1\n      sstore\n      pop\n        /* \"campaing.sol\":1845:2200  {... */\n      pop\n        /* \"campaing.sol\":1746:2200  function makeRequest(string memory _description, uint  _value,address  _recipent) public restircted{... */\n      pop\n      pop\n      pop\n      jump\t// out\n        /* \"campaing.sol\":993:1028  address   public            manager */\n    tag_31:\n      0x04\n      0x00\n      swap1\n      sload\n      swap1\n      0x0100\n      exp\n      swap1\n      div\n      0xffffffffffffffffffffffffffffffffffffffff\n      and\n      dup2\n      jump\t// out\n        /* \"campaing.sol\":842:881  string    public            description */\n    tag_36:\n      0x01\n      dup1\n      sload\n      tag_72\n      swap1\n      tag_58\n      jump\t// in\n    tag_72:\n      dup1\n      0x1f\n      add\n      0x20\n      dup1\n      swap2\n      div\n      mul\n      0x20\n      add\n      mload(0x40)\n      swap1\n      dup2\n      add\n      0x40\n      mstore\n      dup1\n      swap3\n      swap2\n      swap1\n      dup2\n      dup2\n      mstore\n      0x20\n      add\n      dup3\n      dup1\n      sload\n      tag_73\n      swap1\n      tag_58\n      jump\t// in\n    tag_73:\n      dup1\n      iszero\n      tag_74\n      jumpi\n      dup1\n      0x1f\n      lt\n      tag_75\n      jumpi\n      0x0100\n      dup1\n      dup4\n      sload\n      div\n      mul\n      dup4\n      mstore\n      swap2\n      0x20\n      add\n      swap2\n      jump(tag_74)\n    tag_75:\n      dup3\n      add\n      swap2\n      swap1\n      0x00\n      mstore\n      keccak256(0x00, 0x20)\n      swap1\n    tag_76:\n      dup2\n      sload\n      dup2\n      mstore\n      swap1\n      0x01\n      add\n      swap1\n      0x20\n      add\n      dup1\n      dup4\n      gt\n      tag_76\n      jumpi\n      dup3\n      swap1\n      sub\n      0x1f\n      and\n      dup3\n      add\n      swap2\n    tag_74:\n      pop\n      pop\n      pop\n      pop\n      pop\n      dup2\n      jump\t// out\n        /* \"campaing.sol\":2210:2808  function aproveRequest(uint id,bool vote) public  {... */\n    tag_42:\n        /* \"campaing.sol\":2282:2291  approvers */\n      0x07\n        /* \"campaing.sol\":2282:2303  approvers[msg.sender] */\n      0x00\n        /* \"campaing.sol\":2292:2302  msg.sender */\n      caller\n        /* \"campaing.sol\":2282:2303  approvers[msg.sender] */\n      0xffffffffffffffffffffffffffffffffffffffff\n      and\n      0xffffffffffffffffffffffffffffffffffffffff\n      and\n      dup2\n      mstore\n      0x20\n      add\n      swap1\n      dup2\n      mstore\n      0x20\n      add\n      0x00\n      keccak256\n      0x00\n      swap1\n      sload\n      swap1\n      0x0100\n      exp\n      swap1\n      div\n      0xff\n      and\n        /* \"campaing.sol\":2274:2304  require(approvers[msg.sender]) */\n      tag_78\n      jumpi\n      0x00\n      dup1\n      revert\n    tag_78:\n        /* \"campaing.sol\":2364:2372  requests */\n      0x06\n        /* \"campaing.sol\":2373:2375  id */\n      dup3\n        /* \"campaing.sol\":2364:2376  requests[id] */\n      dup2\n      sload\n      dup2\n      lt\n      tag_79\n      jumpi\n      tag_80\n      tag_81\n      jump\t// in\n    tag_80:\n    tag_79:\n      swap1\n      0x00\n      mstore\n      keccak256(0x00, 0x20)\n      swap1\n      0x07\n      mul\n      add\n        /* \"campaing.sol\":2364:2385  requests[id].complete */\n      0x05\n      add\n      0x00\n      swap1\n      sload\n      swap1\n      0x0100\n      exp\n      swap1\n      div\n      0xff\n      and\n        /* \"campaing.sol\":2363:2385  !requests[id].complete */\n      iszero\n        /* \"campaing.sol\":2355:2386  require(!requests[id].complete) */\n      tag_83\n      jumpi\n      0x00\n      dup1\n      revert\n    tag_83:\n        /* \"campaing.sol\":2409:2417  requests */\n      0x06\n        /* \"campaing.sol\":2418:2420  id */\n      dup3\n        /* \"campaing.sol\":2409:2421  requests[id] */\n      dup2\n      sload\n      dup2\n      lt\n      tag_84\n      jumpi\n      tag_85\n      tag_81\n      jump\t// in\n    tag_85:\n    tag_84:\n      swap1\n      0x00\n      mstore\n      keccak256(0x00, 0x20)\n      swap1\n      0x07\n      mul\n      add\n        /* \"campaing.sol\":2409:2431  requests[id].approvals */\n      0x06\n      add\n        /* \"campaing.sol\":2409:2443  requests[id].approvals[msg.sender] */\n      0x00\n        /* \"campaing.sol\":2432:2442  msg.sender */\n      caller\n        /* \"campaing.sol\":2409:2443  requests[id].approvals[msg.sender] */\n      0xffffffffffffffffffffffffffffffffffffffff\n      and\n      0xffffffffffffffffffffffffffffffffffffffff\n      and\n      dup2\n      mstore\n      0x20\n      add\n      swap1\n      dup2\n      mstore\n      0x20\n      add\n      0x00\n      keccak256\n      0x00\n      swap1\n      sload\n      swap1\n      0x0100\n      exp\n      swap1\n      div\n      0xff\n      and\n        /* \"campaing.sol\":2408:2443  !requests[id].approvals[msg.sender] */\n      iszero\n        /* \"campaing.sol\":2400:2444  require(!requests[id].approvals[msg.sender]) */\n      tag_87\n      jumpi\n      0x00\n      dup1\n      revert\n    tag_87:\n        /* \"campaing.sol\":2495:2499  vote */\n      dup1\n        /* \"campaing.sol\":2458:2466  requests */\n      0x06\n        /* \"campaing.sol\":2467:2469  id */\n      dup4\n        /* \"campaing.sol\":2458:2470  requests[id] */\n      dup2\n      sload\n      dup2\n      lt\n      tag_88\n      jumpi\n      tag_89\n      tag_81\n      jump\t// in\n    tag_89:\n    tag_88:\n      swap1\n      0x00\n      mstore\n      keccak256(0x00, 0x20)\n      swap1\n      0x07\n      mul\n      add\n        /* \"campaing.sol\":2458:2480  requests[id].approvals */\n      0x06\n      add\n        /* \"campaing.sol\":2458:2492  requests[id].approvals[msg.sender] */\n      0x00\n        /* \"campaing.sol\":2481:2491  msg.sender */\n      caller\n        /* \"campaing.sol\":2458:2492  requests[id].approvals[msg.sender] */\n      0xffffffffffffffffffffffffffffffffffffffff\n      and\n      0xffffffffffffffffffffffffffffffffffffffff\n      and\n      dup2\n      mstore\n      0x20\n      add\n      swap1\n      dup2\n      mstore\n      0x20\n      add\n      0x00\n      keccak256\n      0x00\n        /* \"campaing.sol\":2458:2499  requests[id].approvals[msg.sender] = vote */\n      0x0100\n      exp\n      dup2\n      sload\n      dup2\n      0xff\n      mul\n      not\n      and\n      swap1\n      dup4\n      iszero\n      iszero\n      mul\n      or\n      swap1\n      sstore\n      pop\n        /* \"campaing.sol\":2516:2520  vote */\n      dup1\n        /* \"campaing.sol\":2513:2590  if(vote)... */\n      iszero\n      tag_91\n      jumpi\n        /* \"campaing.sol\":2552:2560  requests */\n      0x06\n        /* \"campaing.sol\":2561:2563  id */\n      dup3\n        /* \"campaing.sol\":2552:2564  requests[id] */\n      dup2\n      sload\n      dup2\n      lt\n      tag_92\n      jumpi\n      tag_93\n      tag_81\n      jump\t// in\n    tag_93:\n    tag_92:\n      swap1\n      0x00\n      mstore\n      keccak256(0x00, 0x20)\n      swap1\n      0x07\n      mul\n      add\n        /* \"campaing.sol\":2552:2573  requests[id].vote_yes */\n      0x04\n      add\n      0x00\n        /* \"campaing.sol\":2552:2575  requests[id].vote_yes++ */\n      dup2\n      sload\n      dup1\n      swap3\n      swap2\n      swap1\n      tag_95\n      swap1\n      tag_96\n      jump\t// in\n    tag_95:\n      swap2\n      swap1\n      pop\n      sstore\n      pop\n        /* \"campaing.sol\":2513:2590  if(vote)... */\n    tag_91:\n        /* \"campaing.sol\":2645:2646  2 */\n      0x02\n        /* \"campaing.sol\":2630:2642  contributors */\n      sload(0x03)\n        /* \"campaing.sol\":2630:2646  contributors / 2 */\n      tag_97\n      swap2\n      swap1\n      tag_98\n      jump\t// in\n    tag_97:\n        /* \"campaing.sol\":2606:2614  requests */\n      0x06\n        /* \"campaing.sol\":2615:2617  id */\n      dup4\n        /* \"campaing.sol\":2606:2618  requests[id] */\n      dup2\n      sload\n      dup2\n      lt\n      tag_99\n      jumpi\n      tag_100\n      tag_81\n      jump\t// in\n    tag_100:\n    tag_99:\n      swap1\n      0x00\n      mstore\n      keccak256(0x00, 0x20)\n      swap1\n      0x07\n      mul\n      add\n        /* \"campaing.sol\":2606:2627  requests[id].vote_yes */\n      0x04\n      add\n      sload\n        /* \"campaing.sol\":2606:2646  requests[id].vote_yes > contributors / 2 */\n      gt\n        /* \"campaing.sol\":2603:2798  if(requests[id].vote_yes > contributors / 2)... */\n      iszero\n      tag_102\n      jumpi\n        /* \"campaing.sol\":2702:2706  true */\n      0x01\n        /* \"campaing.sol\":2678:2686  requests */\n      0x06\n        /* \"campaing.sol\":2687:2689  id */\n      dup4\n        /* \"campaing.sol\":2678:2690  requests[id] */\n      dup2\n      sload\n      dup2\n      lt\n      tag_103\n      jumpi\n      tag_104\n      tag_81\n      jump\t// in\n    tag_104:\n    tag_103:\n      swap1\n      0x00\n      mstore\n      keccak256(0x00, 0x20)\n      swap1\n      0x07\n      mul\n      add\n        /* \"campaing.sol\":2678:2699  requests[id].complete */\n      0x05\n      add\n      0x00\n        /* \"campaing.sol\":2678:2706  requests[id].complete = true */\n      0x0100\n      exp\n      dup2\n      sload\n      dup2\n      0xff\n      mul\n      not\n      and\n      swap1\n      dup4\n      iszero\n      iszero\n      mul\n      or\n      swap1\n      sstore\n      pop\n        /* \"campaing.sol\":2732:2740  requests */\n      0x06\n        /* \"campaing.sol\":2741:2743  id */\n      dup3\n        /* \"campaing.sol\":2732:2744  requests[id] */\n      dup2\n      sload\n      dup2\n      lt\n      tag_106\n      jumpi\n      tag_107\n      tag_81\n      jump\t// in\n    tag_107:\n    tag_106:\n      swap1\n      0x00\n      mstore\n      keccak256(0x00, 0x20)\n      swap1\n      0x07\n      mul\n      add\n        /* \"campaing.sol\":2732:2753  requests[id].recipent */\n      0x03\n      add\n      0x00\n      swap1\n      sload\n      swap1\n      0x0100\n      exp\n      swap1\n      div\n      0xffffffffffffffffffffffffffffffffffffffff\n      and\n        /* \"campaing.sol\":2724:2763  payable(requests[id].recipent).transfer */\n      0xffffffffffffffffffffffffffffffffffffffff\n      and\n        /* \"campaing.sol\":2724:2783  payable(requests[id].recipent).transfer(requests[id].value) */\n      0x08fc\n        /* \"campaing.sol\":2764:2772  requests */\n      0x06\n        /* \"campaing.sol\":2773:2775  id */\n      dup5\n        /* \"campaing.sol\":2764:2776  requests[id] */\n      dup2\n      sload\n      dup2\n      lt\n      tag_109\n      jumpi\n      tag_110\n      tag_81\n      jump\t// in\n    tag_110:\n    tag_109:\n      swap1\n      0x00\n      mstore\n      keccak256(0x00, 0x20)\n      swap1\n      0x07\n      mul\n      add\n        /* \"campaing.sol\":2764:2782  requests[id].value */\n      0x02\n      add\n      sload\n        /* \"campaing.sol\":2724:2783  payable(requests[id].recipent).transfer(requests[id].value) */\n      swap1\n      dup2\n      iszero\n      mul\n      swap1\n      mload(0x40)\n      0x00\n      mload(0x40)\n      dup1\n      dup4\n      sub\n      dup2\n      dup6\n      dup9\n      dup9\n      call\n      swap4\n      pop\n      pop\n      pop\n      pop\n      iszero\n      dup1\n      iszero\n      tag_113\n      jumpi\n      returndatasize\n      0x00\n      dup1\n      returndatacopy\n      revert(0x00, returndatasize)\n    tag_113:\n      pop\n        /* \"campaing.sol\":2603:2798  if(requests[id].vote_yes > contributors / 2)... */\n    tag_102:\n        /* \"campaing.sol\":2210:2808  function aproveRequest(uint id,bool vote) public  {... */\n      pop\n      pop\n      jump\t// out\n        /* \"campaing.sol\":1091:1127  Request[] public            requests */\n    tag_47:\n      0x06\n      dup2\n      dup2\n      sload\n      dup2\n      lt\n      tag_114\n      jumpi\n      0x00\n      dup1\n      revert\n    tag_114:\n      swap1\n      0x00\n      mstore\n      keccak256(0x00, 0x20)\n      swap1\n      0x07\n      mul\n      add\n      0x00\n      swap2\n      pop\n      swap1\n      pop\n      dup1\n      0x00\n      add\n      sload\n      swap1\n      dup1\n      0x01\n      add\n      dup1\n      sload\n      tag_116\n      swap1\n      tag_58\n      jump\t// in\n    tag_116:\n      dup1\n      0x1f\n      add\n      0x20\n      dup1\n      swap2\n      div\n      mul\n      0x20\n      add\n      mload(0x40)\n      swap1\n      dup2\n      add\n      0x40\n      mstore\n      dup1\n      swap3\n      swap2\n      swap1\n      dup2\n      dup2\n      mstore\n      0x20\n      add\n      dup3\n      dup1\n      sload\n      tag_117\n      swap1\n      tag_58\n      jump\t// in\n    tag_117:\n      dup1\n      iszero\n      tag_118\n      jumpi\n      dup1\n      0x1f\n      lt\n      tag_119\n      jumpi\n      0x0100\n      dup1\n      dup4\n      sload\n      div\n      mul\n      dup4\n      mstore\n      swap2\n      0x20\n      add\n      swap2\n      jump(tag_118)\n    tag_119:\n      dup3\n      add\n      swap2\n      swap1\n      0x00\n      mstore\n      keccak256(0x00, 0x20)\n      swap1\n    tag_120:\n      dup2\n      sload\n      dup2\n      mstore\n      swap1\n      0x01\n      add\n      swap1\n      0x20\n      add\n      dup1\n      dup4\n      gt\n      tag_120\n      jumpi\n      dup3\n      swap1\n      sub\n      0x1f\n      and\n      dup3\n      add\n      swap2\n    tag_118:\n      pop\n      pop\n      pop\n      pop\n      pop\n      swap1\n      dup1\n      0x02\n      add\n      sload\n      swap1\n      dup1\n      0x03\n      add\n      0x00\n      swap1\n      sload\n      swap1\n      0x0100\n      exp\n      swap1\n      div\n      0xffffffffffffffffffffffffffffffffffffffff\n      and\n      swap1\n      dup1\n      0x04\n      add\n      sload\n      swap1\n      dup1\n      0x05\n      add\n      0x00\n      swap1\n      sload\n      swap1\n      0x0100\n      exp\n      swap1\n      div\n      0xff\n      and\n      swap1\n      pop\n      dup7\n      jump\t// out\n        /* \"campaing.sol\":1038:1081  uint      public            minContribution */\n    tag_52:\n      sload(0x05)\n      dup2\n      jump\t// out\n        /* \"campaing.sol\":1567:1736  function contribute() public payable {... */\n    tag_56:\n        /* \"campaing.sol\":1639:1654  minContribution */\n      sload(0x05)\n        /* \"campaing.sol\":1626:1635  msg.value */\n      callvalue\n        /* \"campaing.sol\":1626:1654  msg.value >= minContribution */\n      lt\n      iszero\n        /* \"campaing.sol\":1618:1655  require(msg.value >= minContribution) */\n      tag_122\n      jumpi\n      0x00\n      dup1\n      revert\n    tag_122:\n        /* \"campaing.sol\":1669:1681  contributors */\n      0x03\n      0x00\n        /* \"campaing.sol\":1669:1683  contributors++ */\n      dup2\n      sload\n      dup1\n      swap3\n      swap2\n      swap1\n      tag_123\n      swap1\n      tag_96\n      jump\t// in\n    tag_123:\n      swap2\n      swap1\n      pop\n      sstore\n      pop\n        /* \"campaing.sol\":1721:1725  true */\n      0x01\n        /* \"campaing.sol\":1697:1706  approvers */\n      0x07\n        /* \"campaing.sol\":1697:1718  approvers[msg.sender] */\n      0x00\n        /* \"campaing.sol\":1707:1717  msg.sender */\n      caller\n        /* \"campaing.sol\":1697:1718  approvers[msg.sender] */\n      0xffffffffffffffffffffffffffffffffffffffff\n      and\n      0xffffffffffffffffffffffffffffffffffffffff\n      and\n      dup2\n      mstore\n      0x20\n      add\n      swap1\n      dup2\n      mstore\n      0x20\n      add\n      0x00\n      keccak256\n      0x00\n        /* \"campaing.sol\":1697:1725  approvers[msg.sender] = true */\n      0x0100\n      exp\n      dup2\n      sload\n      dup2\n      0xff\n      mul\n      not\n      and\n      swap1\n      dup4\n      iszero\n      iszero\n      mul\n      or\n      swap1\n      sstore\n      pop\n        /* \"campaing.sol\":1567:1736  function contribute() public payable {... */\n      jump\t// out\n    tag_71:\n      dup3\n      dup1\n      sload\n      tag_124\n      swap1\n      tag_58\n      jump\t// in\n    tag_124:\n      swap1\n      0x00\n      mstore\n      keccak256(0x00, 0x20)\n      swap1\n      0x1f\n      add\n      0x20\n      swap1\n      div\n      dup2\n      add\n      swap3\n      dup3\n      tag_126\n      jumpi\n      0x00\n      dup6\n      sstore\n      jump(tag_125)\n    tag_126:\n      dup3\n      0x1f\n      lt\n      tag_127\n      jumpi\n      dup1\n      mload\n      not(0xff)\n      and\n      dup4\n      dup1\n      add\n      or\n      dup6\n      sstore\n      jump(tag_125)\n    tag_127:\n      dup3\n      dup1\n      add\n      0x01\n      add\n      dup6\n      sstore\n      dup3\n      iszero\n      tag_125\n      jumpi\n      swap2\n      dup3\n      add\n    tag_128:\n      dup3\n      dup2\n      gt\n      iszero\n      tag_129\n      jumpi\n      dup3\n      mload\n      dup3\n      sstore\n      swap2\n      0x20\n      add\n      swap2\n      swap1\n      0x01\n      add\n      swap1\n      jump(tag_128)\n    tag_129:\n    tag_125:\n      pop\n      swap1\n      pop\n      tag_130\n      swap2\n      swap1\n      tag_131\n      jump\t// in\n    tag_130:\n      pop\n      swap1\n      jump\t// out\n    tag_131:\n    tag_132:\n      dup1\n      dup3\n      gt\n      iszero\n      tag_133\n      jumpi\n      0x00\n      dup2\n      0x00\n      swap1\n      sstore\n      pop\n      0x01\n      add\n      jump(tag_132)\n    tag_133:\n      pop\n      swap1\n      jump\t// out\n        /* \"#utility.yul\":7:106   */\n    tag_134:\n        /* \"#utility.yul\":59:65   */\n      0x00\n        /* \"#utility.yul\":93:98   */\n      dup2\n        /* \"#utility.yul\":87:99   */\n      mload\n        /* \"#utility.yul\":77:99   */\n      swap1\n      pop\n        /* \"#utility.yul\":7:106   */\n      swap2\n      swap1\n      pop\n      jump\t// out\n        /* \"#utility.yul\":112:281   */\n    tag_135:\n        /* \"#utility.yul\":196:207   */\n      0x00\n        /* \"#utility.yul\":230:236   */\n      dup3\n        /* \"#utility.yul\":225:228   */\n      dup3\n        /* \"#utility.yul\":218:237   */\n      mstore\n        /* \"#utility.yul\":270:274   */\n      0x20\n        /* \"#utility.yul\":265:268   */\n      dup3\n        /* \"#utility.yul\":261:275   */\n      add\n        /* \"#utility.yul\":246:275   */\n      swap1\n      pop\n        /* \"#utility.yul\":112:281   */\n      swap3\n      swap2\n      pop\n      pop\n      jump\t// out\n        /* \"#utility.yul\":287:594   */\n    tag_136:\n        /* \"#utility.yul\":355:356   */\n      0x00\n        /* \"#utility.yul\":365:478   */\n    tag_171:\n        /* \"#utility.yul\":379:385   */\n      dup4\n        /* \"#utility.yul\":376:377   */\n      dup2\n        /* \"#utility.yul\":373:386   */\n      lt\n        /* \"#utility.yul\":365:478   */\n      iszero\n      tag_173\n      jumpi\n        /* \"#utility.yul\":464:465   */\n      dup1\n        /* \"#utility.yul\":459:462   */\n      dup3\n        /* \"#utility.yul\":455:466   */\n      add\n        /* \"#utility.yul\":449:467   */\n      mload\n        /* \"#utility.yul\":445:446   */\n      dup2\n        /* \"#utility.yul\":440:443   */\n      dup5\n        /* \"#utility.yul\":436:447   */\n      add\n        /* \"#utility.yul\":429:468   */\n      mstore\n        /* \"#utility.yul\":401:403   */\n      0x20\n        /* \"#utility.yul\":398:399   */\n      dup2\n        /* \"#utility.yul\":394:404   */\n      add\n        /* \"#utility.yul\":389:404   */\n      swap1\n      pop\n        /* \"#utility.yul\":365:478   */\n      jump(tag_171)\n    tag_173:\n        /* \"#utility.yul\":496:502   */\n      dup4\n        /* \"#utility.yul\":493:494   */\n      dup2\n        /* \"#utility.yul\":490:503   */\n      gt\n        /* \"#utility.yul\":487:588   */\n      iszero\n      tag_174\n      jumpi\n        /* \"#utility.yul\":576:577   */\n      0x00\n        /* \"#utility.yul\":567:573   */\n      dup5\n        /* \"#utility.yul\":562:565   */\n      dup5\n        /* \"#utility.yul\":558:574   */\n      add\n        /* \"#utility.yul\":551:578   */\n      mstore\n        /* \"#utility.yul\":487:588   */\n    tag_174:\n        /* \"#utility.yul\":336:594   */\n      pop\n        /* \"#utility.yul\":287:594   */\n      pop\n      pop\n      pop\n      jump\t// out\n        /* \"#utility.yul\":600:702   */\n    tag_137:\n        /* \"#utility.yul\":641:647   */\n      0x00\n        /* \"#utility.yul\":692:694   */\n      0x1f\n        /* \"#utility.yul\":688:695   */\n      not\n        /* \"#utility.yul\":683:685   */\n      0x1f\n        /* \"#utility.yul\":676:681   */\n      dup4\n        /* \"#utility.yul\":672:686   */\n      add\n        /* \"#utility.yul\":668:696   */\n      and\n        /* \"#utility.yul\":658:696   */\n      swap1\n      pop\n        /* \"#utility.yul\":600:702   */\n      swap2\n      swap1\n      pop\n      jump\t// out\n        /* \"#utility.yul\":708:1072   */\n    tag_138:\n        /* \"#utility.yul\":796:799   */\n      0x00\n        /* \"#utility.yul\":824:863   */\n      tag_177\n        /* \"#utility.yul\":857:862   */\n      dup3\n        /* \"#utility.yul\":824:863   */\n      tag_134\n      jump\t// in\n    tag_177:\n        /* \"#utility.yul\":879:950   */\n      tag_178\n        /* \"#utility.yul\":943:949   */\n      dup2\n        /* \"#utility.yul\":938:941   */\n      dup6\n        /* \"#utility.yul\":879:950   */\n      tag_135\n      jump\t// in\n    tag_178:\n        /* \"#utility.yul\":872:950   */\n      swap4\n      pop\n        /* \"#utility.yul\":959:1011   */\n      tag_179\n        /* \"#utility.yul\":1004:1010   */\n      dup2\n        /* \"#utility.yul\":999:1002   */\n      dup6\n        /* \"#utility.yul\":992:996   */\n      0x20\n        /* \"#utility.yul\":985:990   */\n      dup7\n        /* \"#utility.yul\":981:997   */\n      add\n        /* \"#utility.yul\":959:1011   */\n      tag_136\n      jump\t// in\n    tag_179:\n        /* \"#utility.yul\":1036:1065   */\n      tag_180\n        /* \"#utility.yul\":1058:1064   */\n      dup2\n        /* \"#utility.yul\":1036:1065   */\n      tag_137\n      jump\t// in\n    tag_180:\n        /* \"#utility.yul\":1031:1034   */\n      dup5\n        /* \"#utility.yul\":1027:1066   */\n      add\n        /* \"#utility.yul\":1020:1066   */\n      swap2\n      pop\n        /* \"#utility.yul\":800:1072   */\n      pop\n        /* \"#utility.yul\":708:1072   */\n      swap3\n      swap2\n      pop\n      pop\n      jump\t// out\n        /* \"#utility.yul\":1078:1391   */\n    tag_16:\n        /* \"#utility.yul\":1191:1195   */\n      0x00\n        /* \"#utility.yul\":1229:1231   */\n      0x20\n        /* \"#utility.yul\":1218:1227   */\n      dup3\n        /* \"#utility.yul\":1214:1232   */\n      add\n        /* \"#utility.yul\":1206:1232   */\n      swap1\n      pop\n        /* \"#utility.yul\":1278:1287   */\n      dup2\n        /* \"#utility.yul\":1272:1276   */\n      dup2\n        /* \"#utility.yul\":1268:1288   */\n      sub\n        /* \"#utility.yul\":1264:1265   */\n      0x00\n        /* \"#utility.yul\":1253:1262   */\n      dup4\n        /* \"#utility.yul\":1249:1266   */\n      add\n        /* \"#utility.yul\":1242:1289   */\n      mstore\n        /* \"#utility.yul\":1306:1384   */\n      tag_182\n        /* \"#utility.yul\":1379:1383   */\n      dup2\n        /* \"#utility.yul\":1370:1376   */\n      dup5\n        /* \"#utility.yul\":1306:1384   */\n      tag_138\n      jump\t// in\n    tag_182:\n        /* \"#utility.yul\":1298:1384   */\n      swap1\n      pop\n        /* \"#utility.yul\":1078:1391   */\n      swap3\n      swap2\n      pop\n      pop\n      jump\t// out\n        /* \"#utility.yul\":1397:1472   */\n    tag_139:\n        /* \"#utility.yul\":1430:1436   */\n      0x00\n        /* \"#utility.yul\":1463:1465   */\n      0x40\n        /* \"#utility.yul\":1457:1466   */\n      mload\n        /* \"#utility.yul\":1447:1466   */\n      swap1\n      pop\n        /* \"#utility.yul\":1397:1472   */\n      swap1\n      jump\t// out\n        /* \"#utility.yul\":1478:1595   */\n    tag_140:\n        /* \"#utility.yul\":1587:1588   */\n      0x00\n        /* \"#utility.yul\":1584:1585   */\n      dup1\n        /* \"#utility.yul\":1577:1589   */\n      revert\n        /* \"#utility.yul\":1601:1718   */\n    tag_141:\n        /* \"#utility.yul\":1710:1711   */\n      0x00\n        /* \"#utility.yul\":1707:1708   */\n      dup1\n        /* \"#utility.yul\":1700:1712   */\n      revert\n        /* \"#utility.yul\":1724:1850   */\n    tag_142:\n        /* \"#utility.yul\":1761:1768   */\n      0x00\n        /* \"#utility.yul\":1801:1843   */\n      0xffffffffffffffffffffffffffffffffffffffff\n        /* \"#utility.yul\":1794:1799   */\n      dup3\n        /* \"#utility.yul\":1790:1844   */\n      and\n        /* \"#utility.yul\":1779:1844   */\n      swap1\n      pop\n        /* \"#utility.yul\":1724:1850   */\n      swap2\n      swap1\n      pop\n      jump\t// out\n        /* \"#utility.yul\":1856:1952   */\n    tag_143:\n        /* \"#utility.yul\":1893:1900   */\n      0x00\n        /* \"#utility.yul\":1922:1946   */\n      tag_188\n        /* \"#utility.yul\":1940:1945   */\n      dup3\n        /* \"#utility.yul\":1922:1946   */\n      tag_142\n      jump\t// in\n    tag_188:\n        /* \"#utility.yul\":1911:1946   */\n      swap1\n      pop\n        /* \"#utility.yul\":1856:1952   */\n      swap2\n      swap1\n      pop\n      jump\t// out\n        /* \"#utility.yul\":1958:2080   */\n    tag_144:\n        /* \"#utility.yul\":2031:2055   */\n      tag_190\n        /* \"#utility.yul\":2049:2054   */\n      dup2\n        /* \"#utility.yul\":2031:2055   */\n      tag_143\n      jump\t// in\n    tag_190:\n        /* \"#utility.yul\":2024:2029   */\n      dup2\n        /* \"#utility.yul\":2021:2056   */\n      eq\n        /* \"#utility.yul\":2011:2074   */\n      tag_191\n      jumpi\n        /* \"#utility.yul\":2070:2071   */\n      0x00\n        /* \"#utility.yul\":2067:2068   */\n      dup1\n        /* \"#utility.yul\":2060:2072   */\n      revert\n        /* \"#utility.yul\":2011:2074   */\n    tag_191:\n        /* \"#utility.yul\":1958:2080   */\n      pop\n      jump\t// out\n        /* \"#utility.yul\":2086:2225   */\n    tag_145:\n        /* \"#utility.yul\":2132:2137   */\n      0x00\n        /* \"#utility.yul\":2170:2176   */\n      dup2\n        /* \"#utility.yul\":2157:2177   */\n      calldataload\n        /* \"#utility.yul\":2148:2177   */\n      swap1\n      pop\n        /* \"#utility.yul\":2186:2219   */\n      tag_193\n        /* \"#utility.yul\":2213:2218   */\n      dup2\n        /* \"#utility.yul\":2186:2219   */\n      tag_144\n      jump\t// in\n    tag_193:\n        /* \"#utility.yul\":2086:2225   */\n      swap3\n      swap2\n      pop\n      pop\n      jump\t// out\n        /* \"#utility.yul\":2231:2560   */\n    tag_20:\n        /* \"#utility.yul\":2290:2296   */\n      0x00\n        /* \"#utility.yul\":2339:2341   */\n      0x20\n        /* \"#utility.yul\":2327:2336   */\n      dup3\n        /* \"#utility.yul\":2318:2325   */\n      dup5\n        /* \"#utility.yul\":2314:2337   */\n      sub\n        /* \"#utility.yul\":2310:2342   */\n      slt\n        /* \"#utility.yul\":2307:2426   */\n      iszero\n      tag_195\n      jumpi\n        /* \"#utility.yul\":2345:2424   */\n      tag_196\n      tag_140\n      jump\t// in\n    tag_196:\n        /* \"#utility.yul\":2307:2426   */\n    tag_195:\n        /* \"#utility.yul\":2465:2466   */\n      0x00\n        /* \"#utility.yul\":2490:2543   */\n      tag_197\n        /* \"#utility.yul\":2535:2542   */\n      dup5\n        /* \"#utility.yul\":2526:2532   */\n      dup3\n        /* \"#utility.yul\":2515:2524   */\n      dup6\n        /* \"#utility.yul\":2511:2533   */\n      add\n        /* \"#utility.yul\":2490:2543   */\n      tag_145\n      jump\t// in\n    tag_197:\n        /* \"#utility.yul\":2480:2543   */\n      swap2\n      pop\n        /* \"#utility.yul\":2436:2553   */\n      pop\n        /* \"#utility.yul\":2231:2560   */\n      swap3\n      swap2\n      pop\n      pop\n      jump\t// out\n        /* \"#utility.yul\":2566:2656   */\n    tag_146:\n        /* \"#utility.yul\":2600:2607   */\n      0x00\n        /* \"#utility.yul\":2643:2648   */\n      dup2\n        /* \"#utility.yul\":2636:2649   */\n      iszero\n        /* \"#utility.yul\":2629:2650   */\n      iszero\n        /* \"#utility.yul\":2618:2650   */\n      swap1\n      pop\n        /* \"#utility.yul\":2566:2656   */\n      swap2\n      swap1\n      pop\n      jump\t// out\n        /* \"#utility.yul\":2662:2771   */\n    tag_147:\n        /* \"#utility.yul\":2743:2764   */\n      tag_200\n        /* \"#utility.yul\":2758:2763   */\n      dup2\n        /* \"#utility.yul\":2743:2764   */\n      tag_146\n      jump\t// in\n    tag_200:\n        /* \"#utility.yul\":2738:2741   */\n      dup3\n        /* \"#utility.yul\":2731:2765   */\n      mstore\n        /* \"#utility.yul\":2662:2771   */\n      pop\n      pop\n      jump\t// out\n        /* \"#utility.yul\":2777:2987   */\n    tag_23:\n        /* \"#utility.yul\":2864:2868   */\n      0x00\n        /* \"#utility.yul\":2902:2904   */\n      0x20\n        /* \"#utility.yul\":2891:2900   */\n      dup3\n        /* \"#utility.yul\":2887:2905   */\n      add\n        /* \"#utility.yul\":2879:2905   */\n      swap1\n      pop\n        /* \"#utility.yul\":2915:2980   */\n      tag_202\n        /* \"#utility.yul\":2977:2978   */\n      0x00\n        /* \"#utility.yul\":2966:2975   */\n      dup4\n        /* \"#utility.yul\":2962:2979   */\n      add\n        /* \"#utility.yul\":2953:2959   */\n      dup5\n        /* \"#utility.yul\":2915:2980   */\n      tag_147\n      jump\t// in\n    tag_202:\n        /* \"#utility.yul\":2777:2987   */\n      swap3\n      swap2\n      pop\n      pop\n      jump\t// out\n        /* \"#utility.yul\":2993:3110   */\n    tag_148:\n        /* \"#utility.yul\":3102:3103   */\n      0x00\n        /* \"#utility.yul\":3099:3100   */\n      dup1\n        /* \"#utility.yul\":3092:3104   */\n      revert\n        /* \"#utility.yul\":3116:3233   */\n    tag_149:\n        /* \"#utility.yul\":3225:3226   */\n      0x00\n        /* \"#utility.yul\":3222:3223   */\n      dup1\n        /* \"#utility.yul\":3215:3227   */\n      revert\n        /* \"#utility.yul\":3239:3419   */\n    tag_150:\n        /* \"#utility.yul\":3287:3364   */\n      0x4e487b7100000000000000000000000000000000000000000000000000000000\n        /* \"#utility.yul\":3284:3285   */\n      0x00\n        /* \"#utility.yul\":3277:3365   */\n      mstore\n        /* \"#utility.yul\":3384:3388   */\n      0x41\n        /* \"#utility.yul\":3381:3382   */\n      0x04\n        /* \"#utility.yul\":3374:3389   */\n      mstore\n        /* \"#utility.yul\":3408:3412   */\n      0x24\n        /* \"#utility.yul\":3405:3406   */\n      0x00\n        /* \"#utility.yul\":3398:3413   */\n      revert\n        /* \"#utility.yul\":3425:3706   */\n    tag_151:\n        /* \"#utility.yul\":3508:3535   */\n      tag_207\n        /* \"#utility.yul\":3530:3534   */\n      dup3\n        /* \"#utility.yul\":3508:3535   */\n      tag_137\n      jump\t// in\n    tag_207:\n        /* \"#utility.yul\":3500:3506   */\n      dup2\n        /* \"#utility.yul\":3496:3536   */\n      add\n        /* \"#utility.yul\":3638:3644   */\n      dup2\n        /* \"#utility.yul\":3626:3636   */\n      dup2\n        /* \"#utility.yul\":3623:3645   */\n      lt\n        /* \"#utility.yul\":3602:3620   */\n      0xffffffffffffffff\n        /* \"#utility.yul\":3590:3600   */\n      dup3\n        /* \"#utility.yul\":3587:3621   */\n      gt\n        /* \"#utility.yul\":3584:3646   */\n      or\n        /* \"#utility.yul\":3581:3669   */\n      iszero\n      tag_208\n      jumpi\n        /* \"#utility.yul\":3649:3667   */\n      tag_209\n      tag_150\n      jump\t// in\n    tag_209:\n        /* \"#utility.yul\":3581:3669   */\n    tag_208:\n        /* \"#utility.yul\":3689:3699   */\n      dup1\n        /* \"#utility.yul\":3685:3687   */\n      0x40\n        /* \"#utility.yul\":3678:3700   */\n      mstore\n        /* \"#utility.yul\":3468:3706   */\n      pop\n        /* \"#utility.yul\":3425:3706   */\n      pop\n      pop\n      jump\t// out\n        /* \"#utility.yul\":3712:3841   */\n    tag_152:\n        /* \"#utility.yul\":3746:3752   */\n      0x00\n        /* \"#utility.yul\":3773:3793   */\n      tag_211\n      tag_139\n      jump\t// in\n    tag_211:\n        /* \"#utility.yul\":3763:3793   */\n      swap1\n      pop\n        /* \"#utility.yul\":3802:3835   */\n      tag_212\n        /* \"#utility.yul\":3830:3834   */\n      dup3\n        /* \"#utility.yul\":3822:3828   */\n      dup3\n        /* \"#utility.yul\":3802:3835   */\n      tag_151\n      jump\t// in\n    tag_212:\n        /* \"#utility.yul\":3712:3841   */\n      swap2\n      swap1\n      pop\n      jump\t// out\n        /* \"#utility.yul\":3847:4155   */\n    tag_153:\n        /* \"#utility.yul\":3909:3913   */\n      0x00\n        /* \"#utility.yul\":3999:4017   */\n      0xffffffffffffffff\n        /* \"#utility.yul\":3991:3997   */\n      dup3\n        /* \"#utility.yul\":3988:4018   */\n      gt\n        /* \"#utility.yul\":3985:4041   */\n      iszero\n      tag_214\n      jumpi\n        /* \"#utility.yul\":4021:4039   */\n      tag_215\n      tag_150\n      jump\t// in\n    tag_215:\n        /* \"#utility.yul\":3985:4041   */\n    tag_214:\n        /* \"#utility.yul\":4059:4088   */\n      tag_216\n        /* \"#utility.yul\":4081:4087   */\n      dup3\n        /* \"#utility.yul\":4059:4088   */\n      tag_137\n      jump\t// in\n    tag_216:\n        /* \"#utility.yul\":4051:4088   */\n      swap1\n      pop\n        /* \"#utility.yul\":4143:4147   */\n      0x20\n        /* \"#utility.yul\":4137:4141   */\n      dup2\n        /* \"#utility.yul\":4133:4148   */\n      add\n        /* \"#utility.yul\":4125:4148   */\n      swap1\n      pop\n        /* \"#utility.yul\":3847:4155   */\n      swap2\n      swap1\n      pop\n      jump\t// out\n        /* \"#utility.yul\":4161:4315   */\n    tag_154:\n        /* \"#utility.yul\":4245:4251   */\n      dup3\n        /* \"#utility.yul\":4240:4243   */\n      dup2\n        /* \"#utility.yul\":4235:4238   */\n      dup4\n        /* \"#utility.yul\":4222:4252   */\n      calldatacopy\n        /* \"#utility.yul\":4307:4308   */\n      0x00\n        /* \"#utility.yul\":4298:4304   */\n      dup4\n        /* \"#utility.yul\":4293:4296   */\n      dup4\n        /* \"#utility.yul\":4289:4305   */\n      add\n        /* \"#utility.yul\":4282:4309   */\n      mstore\n        /* \"#utility.yul\":4161:4315   */\n      pop\n      pop\n      pop\n      jump\t// out\n        /* \"#utility.yul\":4321:4733   */\n    tag_155:\n        /* \"#utility.yul\":4399:4404   */\n      0x00\n        /* \"#utility.yul\":4424:4490   */\n      tag_219\n        /* \"#utility.yul\":4440:4489   */\n      tag_220\n        /* \"#utility.yul\":4482:4488   */\n      dup5\n        /* \"#utility.yul\":4440:4489   */\n      tag_153\n      jump\t// in\n    tag_220:\n        /* \"#utility.yul\":4424:4490   */\n      tag_152\n      jump\t// in\n    tag_219:\n        /* \"#utility.yul\":4415:4490   */\n      swap1\n      pop\n        /* \"#utility.yul\":4513:4519   */\n      dup3\n        /* \"#utility.yul\":4506:4511   */\n      dup2\n        /* \"#utility.yul\":4499:4520   */\n      mstore\n        /* \"#utility.yul\":4551:4555   */\n      0x20\n        /* \"#utility.yul\":4544:4549   */\n      dup2\n        /* \"#utility.yul\":4540:4556   */\n      add\n        /* \"#utility.yul\":4589:4592   */\n      dup5\n        /* \"#utility.yul\":4580:4586   */\n      dup5\n        /* \"#utility.yul\":4575:4578   */\n      dup5\n        /* \"#utility.yul\":4571:4587   */\n      add\n        /* \"#utility.yul\":4568:4593   */\n      gt\n        /* \"#utility.yul\":4565:4677   */\n      iszero\n      tag_221\n      jumpi\n        /* \"#utility.yul\":4596:4675   */\n      tag_222\n      tag_149\n      jump\t// in\n    tag_222:\n        /* \"#utility.yul\":4565:4677   */\n    tag_221:\n        /* \"#utility.yul\":4686:4727   */\n      tag_223\n        /* \"#utility.yul\":4720:4726   */\n      dup5\n        /* \"#utility.yul\":4715:4718   */\n      dup3\n        /* \"#utility.yul\":4710:4713   */\n      dup6\n        /* \"#utility.yul\":4686:4727   */\n      tag_154\n      jump\t// in\n    tag_223:\n        /* \"#utility.yul\":4405:4733   */\n      pop\n        /* \"#utility.yul\":4321:4733   */\n      swap4\n      swap3\n      pop\n      pop\n      pop\n      jump\t// out\n        /* \"#utility.yul\":4753:5093   */\n    tag_156:\n        /* \"#utility.yul\":4809:4814   */\n      0x00\n        /* \"#utility.yul\":4858:4861   */\n      dup3\n        /* \"#utility.yul\":4851:4855   */\n      0x1f\n        /* \"#utility.yul\":4843:4849   */\n      dup4\n        /* \"#utility.yul\":4839:4856   */\n      add\n        /* \"#utility.yul\":4835:4862   */\n      slt\n        /* \"#utility.yul\":4825:4947   */\n      tag_225\n      jumpi\n        /* \"#utility.yul\":4866:4945   */\n      tag_226\n      tag_148\n      jump\t// in\n    tag_226:\n        /* \"#utility.yul\":4825:4947   */\n    tag_225:\n        /* \"#utility.yul\":4983:4989   */\n      dup2\n        /* \"#utility.yul\":4970:4990   */\n      calldataload\n        /* \"#utility.yul\":5008:5087   */\n      tag_227\n        /* \"#utility.yul\":5083:5086   */\n      dup5\n        /* \"#utility.yul\":5075:5081   */\n      dup3\n        /* \"#utility.yul\":5068:5072   */\n      0x20\n        /* \"#utility.yul\":5060:5066   */\n      dup7\n        /* \"#utility.yul\":5056:5073   */\n      add\n        /* \"#utility.yul\":5008:5087   */\n      tag_155\n      jump\t// in\n    tag_227:\n        /* \"#utility.yul\":4999:5087   */\n      swap2\n      pop\n        /* \"#utility.yul\":4815:5093   */\n      pop\n        /* \"#utility.yul\":4753:5093   */\n      swap3\n      swap2\n      pop\n      pop\n      jump\t// out\n        /* \"#utility.yul\":5099:5176   */\n    tag_157:\n        /* \"#utility.yul\":5136:5143   */\n      0x00\n        /* \"#utility.yul\":5165:5170   */\n      dup2\n        /* \"#utility.yul\":5154:5170   */\n      swap1\n      pop\n        /* \"#utility.yul\":5099:5176   */\n      swap2\n      swap1\n      pop\n      jump\t// out\n        /* \"#utility.yul\":5182:5304   */\n    tag_158:\n        /* \"#utility.yul\":5255:5279   */\n      tag_230\n        /* \"#utility.yul\":5273:5278   */\n      dup2\n        /* \"#utility.yul\":5255:5279   */\n      tag_157\n      jump\t// in\n    tag_230:\n        /* \"#utility.yul\":5248:5253   */\n      dup2\n        /* \"#utility.yul\":5245:5280   */\n      eq\n        /* \"#utility.yul\":5235:5298   */\n      tag_231\n      jumpi\n        /* \"#utility.yul\":5294:5295   */\n      0x00\n        /* \"#utility.yul\":5291:5292   */\n      dup1\n        /* \"#utility.yul\":5284:5296   */\n      revert\n        /* \"#utility.yul\":5235:5298   */\n    tag_231:\n        /* \"#utility.yul\":5182:5304   */\n      pop\n      jump\t// out\n        /* \"#utility.yul\":5310:5449   */\n    tag_159:\n        /* \"#utility.yul\":5356:5361   */\n      0x00\n        /* \"#utility.yul\":5394:5400   */\n      dup2\n        /* \"#utility.yul\":5381:5401   */\n      calldataload\n        /* \"#utility.yul\":5372:5401   */\n      swap1\n      pop\n        /* \"#utility.yul\":5410:5443   */\n      tag_233\n        /* \"#utility.yul\":5437:5442   */\n      dup2\n        /* \"#utility.yul\":5410:5443   */\n      tag_158\n      jump\t// in\n    tag_233:\n        /* \"#utility.yul\":5310:5449   */\n      swap3\n      swap2\n      pop\n      pop\n      jump\t// out\n        /* \"#utility.yul\":5455:6254   */\n    tag_27:\n        /* \"#utility.yul\":5542:5548   */\n      0x00\n        /* \"#utility.yul\":5550:5556   */\n      dup1\n        /* \"#utility.yul\":5558:5564   */\n      0x00\n        /* \"#utility.yul\":5607:5609   */\n      0x60\n        /* \"#utility.yul\":5595:5604   */\n      dup5\n        /* \"#utility.yul\":5586:5593   */\n      dup7\n        /* \"#utility.yul\":5582:5605   */\n      sub\n        /* \"#utility.yul\":5578:5610   */\n      slt\n        /* \"#utility.yul\":5575:5694   */\n      iszero\n      tag_235\n      jumpi\n        /* \"#utility.yul\":5613:5692   */\n      tag_236\n      tag_140\n      jump\t// in\n    tag_236:\n        /* \"#utility.yul\":5575:5694   */\n    tag_235:\n        /* \"#utility.yul\":5761:5762   */\n      0x00\n        /* \"#utility.yul\":5750:5759   */\n      dup5\n        /* \"#utility.yul\":5746:5763   */\n      add\n        /* \"#utility.yul\":5733:5764   */\n      calldataload\n        /* \"#utility.yul\":5791:5809   */\n      0xffffffffffffffff\n        /* \"#utility.yul\":5783:5789   */\n      dup2\n        /* \"#utility.yul\":5780:5810   */\n      gt\n        /* \"#utility.yul\":5777:5894   */\n      iszero\n      tag_237\n      jumpi\n        /* \"#utility.yul\":5813:5892   */\n      tag_238\n      tag_141\n      jump\t// in\n    tag_238:\n        /* \"#utility.yul\":5777:5894   */\n    tag_237:\n        /* \"#utility.yul\":5918:5981   */\n      tag_239\n        /* \"#utility.yul\":5973:5980   */\n      dup7\n        /* \"#utility.yul\":5964:5970   */\n      dup3\n        /* \"#utility.yul\":5953:5962   */\n      dup8\n        /* \"#utility.yul\":5949:5971   */\n      add\n        /* \"#utility.yul\":5918:5981   */\n      tag_156\n      jump\t// in\n    tag_239:\n        /* \"#utility.yul\":5908:5981   */\n      swap4\n      pop\n        /* \"#utility.yul\":5704:5991   */\n      pop\n        /* \"#utility.yul\":6030:6032   */\n      0x20\n        /* \"#utility.yul\":6056:6109   */\n      tag_240\n        /* \"#utility.yul\":6101:6108   */\n      dup7\n        /* \"#utility.yul\":6092:6098   */\n      dup3\n        /* \"#utility.yul\":6081:6090   */\n      dup8\n        /* \"#utility.yul\":6077:6099   */\n      add\n        /* \"#utility.yul\":6056:6109   */\n      tag_159\n      jump\t// in\n    tag_240:\n        /* \"#utility.yul\":6046:6109   */\n      swap3\n      pop\n        /* \"#utility.yul\":6001:6119   */\n      pop\n        /* \"#utility.yul\":6158:6160   */\n      0x40\n        /* \"#utility.yul\":6184:6237   */\n      tag_241\n        /* \"#utility.yul\":6229:6236   */\n      dup7\n        /* \"#utility.yul\":6220:6226   */\n      dup3\n        /* \"#utility.yul\":6209:6218   */\n      dup8\n        /* \"#utility.yul\":6205:6227   */\n      add\n        /* \"#utility.yul\":6184:6237   */\n      tag_145\n      jump\t// in\n    tag_241:\n        /* \"#utility.yul\":6174:6237   */\n      swap2\n      pop\n        /* \"#utility.yul\":6129:6247   */\n      pop\n        /* \"#utility.yul\":5455:6254   */\n      swap3\n      pop\n      swap3\n      pop\n      swap3\n      jump\t// out\n        /* \"#utility.yul\":6260:6378   */\n    tag_160:\n        /* \"#utility.yul\":6347:6371   */\n      tag_243\n        /* \"#utility.yul\":6365:6370   */\n      dup2\n        /* \"#utility.yul\":6347:6371   */\n      tag_143\n      jump\t// in\n    tag_243:\n        /* \"#utility.yul\":6342:6345   */\n      dup3\n        /* \"#utility.yul\":6335:6372   */\n      mstore\n        /* \"#utility.yul\":6260:6378   */\n      pop\n      pop\n      jump\t// out\n        /* \"#utility.yul\":6384:6606   */\n    tag_33:\n        /* \"#utility.yul\":6477:6481   */\n      0x00\n        /* \"#utility.yul\":6515:6517   */\n      0x20\n        /* \"#utility.yul\":6504:6513   */\n      dup3\n        /* \"#utility.yul\":6500:6518   */\n      add\n        /* \"#utility.yul\":6492:6518   */\n      swap1\n      pop\n        /* \"#utility.yul\":6528:6599   */\n      tag_245\n        /* \"#utility.yul\":6596:6597   */\n      0x00\n        /* \"#utility.yul\":6585:6594   */\n      dup4\n        /* \"#utility.yul\":6581:6598   */\n      add\n        /* \"#utility.yul\":6572:6578   */\n      dup5\n        /* \"#utility.yul\":6528:6599   */\n      tag_160\n      jump\t// in\n    tag_245:\n        /* \"#utility.yul\":6384:6606   */\n      swap3\n      swap2\n      pop\n      pop\n      jump\t// out\n        /* \"#utility.yul\":6612:6728   */\n    tag_161:\n        /* \"#utility.yul\":6682:6703   */\n      tag_247\n        /* \"#utility.yul\":6697:6702   */\n      dup2\n        /* \"#utility.yul\":6682:6703   */\n      tag_146\n      jump\t// in\n    tag_247:\n        /* \"#utility.yul\":6675:6680   */\n      dup2\n        /* \"#utility.yul\":6672:6704   */\n      eq\n        /* \"#utility.yul\":6662:6722   */\n      tag_248\n      jumpi\n        /* \"#utility.yul\":6718:6719   */\n      0x00\n        /* \"#utility.yul\":6715:6716   */\n      dup1\n        /* \"#utility.yul\":6708:6720   */\n      revert\n        /* \"#utility.yul\":6662:6722   */\n    tag_248:\n        /* \"#utility.yul\":6612:6728   */\n      pop\n      jump\t// out\n        /* \"#utility.yul\":6734:6867   */\n    tag_162:\n        /* \"#utility.yul\":6777:6782   */\n      0x00\n        /* \"#utility.yul\":6815:6821   */\n      dup2\n        /* \"#utility.yul\":6802:6822   */\n      calldataload\n        /* \"#utility.yul\":6793:6822   */\n      swap1\n      pop\n        /* \"#utility.yul\":6831:6861   */\n      tag_250\n        /* \"#utility.yul\":6855:6860   */\n      dup2\n        /* \"#utility.yul\":6831:6861   */\n      tag_161\n      jump\t// in\n    tag_250:\n        /* \"#utility.yul\":6734:6867   */\n      swap3\n      swap2\n      pop\n      pop\n      jump\t// out\n        /* \"#utility.yul\":6873:7341   */\n    tag_41:\n        /* \"#utility.yul\":6938:6944   */\n      0x00\n        /* \"#utility.yul\":6946:6952   */\n      dup1\n        /* \"#utility.yul\":6995:6997   */\n      0x40\n        /* \"#utility.yul\":6983:6992   */\n      dup4\n        /* \"#utility.yul\":6974:6981   */\n      dup6\n        /* \"#utility.yul\":6970:6993   */\n      sub\n        /* \"#utility.yul\":6966:6998   */\n      slt\n        /* \"#utility.yul\":6963:7082   */\n      iszero\n      tag_252\n      jumpi\n        /* \"#utility.yul\":7001:7080   */\n      tag_253\n      tag_140\n      jump\t// in\n    tag_253:\n        /* \"#utility.yul\":6963:7082   */\n    tag_252:\n        /* \"#utility.yul\":7121:7122   */\n      0x00\n        /* \"#utility.yul\":7146:7199   */\n      tag_254\n        /* \"#utility.yul\":7191:7198   */\n      dup6\n        /* \"#utility.yul\":7182:7188   */\n      dup3\n        /* \"#utility.yul\":7171:7180   */\n      dup7\n        /* \"#utility.yul\":7167:7189   */\n      add\n        /* \"#utility.yul\":7146:7199   */\n      tag_159\n      jump\t// in\n    tag_254:\n        /* \"#utility.yul\":7136:7199   */\n      swap3\n      pop\n        /* \"#utility.yul\":7092:7209   */\n      pop\n        /* \"#utility.yul\":7248:7250   */\n      0x20\n        /* \"#utility.yul\":7274:7324   */\n      tag_255\n        /* \"#utility.yul\":7316:7323   */\n      dup6\n        /* \"#utility.yul\":7307:7313   */\n      dup3\n        /* \"#utility.yul\":7296:7305   */\n      dup7\n        /* \"#utility.yul\":7292:7314   */\n      add\n        /* \"#utility.yul\":7274:7324   */\n      tag_162\n      jump\t// in\n    tag_255:\n        /* \"#utility.yul\":7264:7324   */\n      swap2\n      pop\n        /* \"#utility.yul\":7219:7334   */\n      pop\n        /* \"#utility.yul\":6873:7341   */\n      swap3\n      pop\n      swap3\n      swap1\n      pop\n      jump\t// out\n        /* \"#utility.yul\":7347:7676   */\n    tag_46:\n        /* \"#utility.yul\":7406:7412   */\n      0x00\n        /* \"#utility.yul\":7455:7457   */\n      0x20\n        /* \"#utility.yul\":7443:7452   */\n      dup3\n        /* \"#utility.yul\":7434:7441   */\n      dup5\n        /* \"#utility.yul\":7430:7453   */\n      sub\n        /* \"#utility.yul\":7426:7458   */\n      slt\n        /* \"#utility.yul\":7423:7542   */\n      iszero\n      tag_257\n      jumpi\n        /* \"#utility.yul\":7461:7540   */\n      tag_258\n      tag_140\n      jump\t// in\n    tag_258:\n        /* \"#utility.yul\":7423:7542   */\n    tag_257:\n        /* \"#utility.yul\":7581:7582   */\n      0x00\n        /* \"#utility.yul\":7606:7659   */\n      tag_259\n        /* \"#utility.yul\":7651:7658   */\n      dup5\n        /* \"#utility.yul\":7642:7648   */\n      dup3\n        /* \"#utility.yul\":7631:7640   */\n      dup6\n        /* \"#utility.yul\":7627:7649   */\n      add\n        /* \"#utility.yul\":7606:7659   */\n      tag_159\n      jump\t// in\n    tag_259:\n        /* \"#utility.yul\":7596:7659   */\n      swap2\n      pop\n        /* \"#utility.yul\":7552:7669   */\n      pop\n        /* \"#utility.yul\":7347:7676   */\n      swap3\n      swap2\n      pop\n      pop\n      jump\t// out\n        /* \"#utility.yul\":7682:7800   */\n    tag_163:\n        /* \"#utility.yul\":7769:7793   */\n      tag_261\n        /* \"#utility.yul\":7787:7792   */\n      dup2\n        /* \"#utility.yul\":7769:7793   */\n      tag_157\n      jump\t// in\n    tag_261:\n        /* \"#utility.yul\":7764:7767   */\n      dup3\n        /* \"#utility.yul\":7757:7794   */\n      mstore\n        /* \"#utility.yul\":7682:7800   */\n      pop\n      pop\n      jump\t// out\n        /* \"#utility.yul\":7806:8660   */\n    tag_49:\n        /* \"#utility.yul\":8053:8057   */\n      0x00\n        /* \"#utility.yul\":8091:8094   */\n      0xc0\n        /* \"#utility.yul\":8080:8089   */\n      dup3\n        /* \"#utility.yul\":8076:8095   */\n      add\n        /* \"#utility.yul\":8068:8095   */\n      swap1\n      pop\n        /* \"#utility.yul\":8105:8176   */\n      tag_263\n        /* \"#utility.yul\":8173:8174   */\n      0x00\n        /* \"#utility.yul\":8162:8171   */\n      dup4\n        /* \"#utility.yul\":8158:8175   */\n      add\n        /* \"#utility.yul\":8149:8155   */\n      dup10\n        /* \"#utility.yul\":8105:8176   */\n      tag_163\n      jump\t// in\n    tag_263:\n        /* \"#utility.yul\":8223:8232   */\n      dup2\n        /* \"#utility.yul\":8217:8221   */\n      dup2\n        /* \"#utility.yul\":8213:8233   */\n      sub\n        /* \"#utility.yul\":8208:8210   */\n      0x20\n        /* \"#utility.yul\":8197:8206   */\n      dup4\n        /* \"#utility.yul\":8193:8211   */\n      add\n        /* \"#utility.yul\":8186:8234   */\n      mstore\n        /* \"#utility.yul\":8251:8329   */\n      tag_264\n        /* \"#utility.yul\":8324:8328   */\n      dup2\n        /* \"#utility.yul\":8315:8321   */\n      dup9\n        /* \"#utility.yul\":8251:8329   */\n      tag_138\n      jump\t// in\n    tag_264:\n        /* \"#utility.yul\":8243:8329   */\n      swap1\n      pop\n        /* \"#utility.yul\":8339:8411   */\n      tag_265\n        /* \"#utility.yul\":8407:8409   */\n      0x40\n        /* \"#utility.yul\":8396:8405   */\n      dup4\n        /* \"#utility.yul\":8392:8410   */\n      add\n        /* \"#utility.yul\":8383:8389   */\n      dup8\n        /* \"#utility.yul\":8339:8411   */\n      tag_163\n      jump\t// in\n    tag_265:\n        /* \"#utility.yul\":8421:8493   */\n      tag_266\n        /* \"#utility.yul\":8489:8491   */\n      0x60\n        /* \"#utility.yul\":8478:8487   */\n      dup4\n        /* \"#utility.yul\":8474:8492   */\n      add\n        /* \"#utility.yul\":8465:8471   */\n      dup7\n        /* \"#utility.yul\":8421:8493   */\n      tag_160\n      jump\t// in\n    tag_266:\n        /* \"#utility.yul\":8503:8576   */\n      tag_267\n        /* \"#utility.yul\":8571:8574   */\n      0x80\n        /* \"#utility.yul\":8560:8569   */\n      dup4\n        /* \"#utility.yul\":8556:8575   */\n      add\n        /* \"#utility.yul\":8547:8553   */\n      dup6\n        /* \"#utility.yul\":8503:8576   */\n      tag_163\n      jump\t// in\n    tag_267:\n        /* \"#utility.yul\":8586:8653   */\n      tag_268\n        /* \"#utility.yul\":8648:8651   */\n      0xa0\n        /* \"#utility.yul\":8637:8646   */\n      dup4\n        /* \"#utility.yul\":8633:8652   */\n      add\n        /* \"#utility.yul\":8624:8630   */\n      dup5\n        /* \"#utility.yul\":8586:8653   */\n      tag_147\n      jump\t// in\n    tag_268:\n        /* \"#utility.yul\":7806:8660   */\n      swap8\n      swap7\n      pop\n      pop\n      pop\n      pop\n      pop\n      pop\n      pop\n      jump\t// out\n        /* \"#utility.yul\":8666:8888   */\n    tag_54:\n        /* \"#utility.yul\":8759:8763   */\n      0x00\n        /* \"#utility.yul\":8797:8799   */\n      0x20\n        /* \"#utility.yul\":8786:8795   */\n      dup3\n        /* \"#utility.yul\":8782:8800   */\n      add\n        /* \"#utility.yul\":8774:8800   */\n      swap1\n      pop\n        /* \"#utility.yul\":8810:8881   */\n      tag_270\n        /* \"#utility.yul\":8878:8879   */\n      0x00\n        /* \"#utility.yul\":8867:8876   */\n      dup4\n        /* \"#utility.yul\":8863:8880   */\n      add\n        /* \"#utility.yul\":8854:8860   */\n      dup5\n        /* \"#utility.yul\":8810:8881   */\n      tag_163\n      jump\t// in\n    tag_270:\n        /* \"#utility.yul\":8666:8888   */\n      swap3\n      swap2\n      pop\n      pop\n      jump\t// out\n        /* \"#utility.yul\":8894:9074   */\n    tag_164:\n        /* \"#utility.yul\":8942:9019   */\n      0x4e487b7100000000000000000000000000000000000000000000000000000000\n        /* \"#utility.yul\":8939:8940   */\n      0x00\n        /* \"#utility.yul\":8932:9020   */\n      mstore\n        /* \"#utility.yul\":9039:9043   */\n      0x22\n        /* \"#utility.yul\":9036:9037   */\n      0x04\n        /* \"#utility.yul\":9029:9044   */\n      mstore\n        /* \"#utility.yul\":9063:9067   */\n      0x24\n        /* \"#utility.yul\":9060:9061   */\n      0x00\n        /* \"#utility.yul\":9053:9068   */\n      revert\n        /* \"#utility.yul\":9080:9400   */\n    tag_58:\n        /* \"#utility.yul\":9124:9130   */\n      0x00\n        /* \"#utility.yul\":9161:9162   */\n      0x02\n        /* \"#utility.yul\":9155:9159   */\n      dup3\n        /* \"#utility.yul\":9151:9163   */\n      div\n        /* \"#utility.yul\":9141:9163   */\n      swap1\n      pop\n        /* \"#utility.yul\":9208:9209   */\n      0x01\n        /* \"#utility.yul\":9202:9206   */\n      dup3\n        /* \"#utility.yul\":9198:9210   */\n      and\n        /* \"#utility.yul\":9229:9247   */\n      dup1\n        /* \"#utility.yul\":9219:9300   */\n      tag_273\n      jumpi\n        /* \"#utility.yul\":9285:9289   */\n      0x7f\n        /* \"#utility.yul\":9277:9283   */\n      dup3\n        /* \"#utility.yul\":9273:9290   */\n      and\n        /* \"#utility.yul\":9263:9290   */\n      swap2\n      pop\n        /* \"#utility.yul\":9219:9300   */\n    tag_273:\n        /* \"#utility.yul\":9347:9349   */\n      0x20\n        /* \"#utility.yul\":9339:9345   */\n      dup3\n        /* \"#utility.yul\":9336:9350   */\n      lt\n        /* \"#utility.yul\":9316:9334   */\n      dup2\n        /* \"#utility.yul\":9313:9351   */\n      eq\n        /* \"#utility.yul\":9310:9394   */\n      iszero\n      tag_274\n      jumpi\n        /* \"#utility.yul\":9366:9384   */\n      tag_275\n      tag_164\n      jump\t// in\n    tag_275:\n        /* \"#utility.yul\":9310:9394   */\n    tag_274:\n        /* \"#utility.yul\":9131:9400   */\n      pop\n        /* \"#utility.yul\":9080:9400   */\n      swap2\n      swap1\n      pop\n      jump\t// out\n        /* \"#utility.yul\":9406:9586   */\n    tag_165:\n        /* \"#utility.yul\":9454:9531   */\n      0x4e487b7100000000000000000000000000000000000000000000000000000000\n        /* \"#utility.yul\":9451:9452   */\n      0x00\n        /* \"#utility.yul\":9444:9532   */\n      mstore\n        /* \"#utility.yul\":9551:9555   */\n      0x11\n        /* \"#utility.yul\":9548:9549   */\n      0x04\n        /* \"#utility.yul\":9541:9556   */\n      mstore\n        /* \"#utility.yul\":9575:9579   */\n      0x24\n        /* \"#utility.yul\":9572:9573   */\n      0x00\n        /* \"#utility.yul\":9565:9580   */\n      revert\n        /* \"#utility.yul\":9592:9897   */\n    tag_67:\n        /* \"#utility.yul\":9632:9635   */\n      0x00\n        /* \"#utility.yul\":9651:9671   */\n      tag_278\n        /* \"#utility.yul\":9669:9670   */\n      dup3\n        /* \"#utility.yul\":9651:9671   */\n      tag_157\n      jump\t// in\n    tag_278:\n        /* \"#utility.yul\":9646:9671   */\n      swap2\n      pop\n        /* \"#utility.yul\":9685:9705   */\n      tag_279\n        /* \"#utility.yul\":9703:9704   */\n      dup4\n        /* \"#utility.yul\":9685:9705   */\n      tag_157\n      jump\t// in\n    tag_279:\n        /* \"#utility.yul\":9680:9705   */\n      swap3\n      pop\n        /* \"#utility.yul\":9839:9840   */\n      dup3\n        /* \"#utility.yul\":9771:9837   */\n      0xffffffffffffffffffffffffffffffffffffffffffffffffffffffffffffffff\n        /* \"#utility.yul\":9767:9841   */\n      sub\n        /* \"#utility.yul\":9764:9765   */\n      dup3\n        /* \"#utility.yul\":9761:9842   */\n      gt\n        /* \"#utility.yul\":9758:9865   */\n      iszero\n      tag_280\n      jumpi\n        /* \"#utility.yul\":9845:9863   */\n      tag_281\n      tag_165\n      jump\t// in\n    tag_281:\n        /* \"#utility.yul\":9758:9865   */\n    tag_280:\n        /* \"#utility.yul\":9889:9890   */\n      dup3\n        /* \"#utility.yul\":9886:9887   */\n      dup3\n        /* \"#utility.yul\":9882:9891   */\n      add\n        /* \"#utility.yul\":9875:9891   */\n      swap1\n      pop\n        /* \"#utility.yul\":9592:9897   */\n      swap3\n      swap2\n      pop\n      pop\n      jump\t// out\n        /* \"#utility.yul\":9903:10083   */\n    tag_81:\n        /* \"#utility.yul\":9951:10028   */\n      0x4e487b7100000000000000000000000000000000000000000000000000000000\n        /* \"#utility.yul\":9948:9949   */\n      0x00\n        /* \"#utility.yul\":9941:10029   */\n      mstore\n        /* \"#utility.yul\":10048:10052   */\n      0x32\n        /* \"#utility.yul\":10045:10046   */\n      0x04\n        /* \"#utility.yul\":10038:10053   */\n      mstore\n        /* \"#utility.yul\":10072:10076   */\n      0x24\n        /* \"#utility.yul\":10069:10070   */\n      0x00\n        /* \"#utility.yul\":10062:10077   */\n      revert\n        /* \"#utility.yul\":10089:10322   */\n    tag_96:\n        /* \"#utility.yul\":10128:10131   */\n      0x00\n        /* \"#utility.yul\":10151:10175   */\n      tag_284\n        /* \"#utility.yul\":10169:10174   */\n      dup3\n        /* \"#utility.yul\":10151:10175   */\n      tag_157\n      jump\t// in\n    tag_284:\n        /* \"#utility.yul\":10142:10175   */\n      swap2\n      pop\n        /* \"#utility.yul\":10197:10263   */\n      0xffffffffffffffffffffffffffffffffffffffffffffffffffffffffffffffff\n        /* \"#utility.yul\":10190:10195   */\n      dup3\n        /* \"#utility.yul\":10187:10264   */\n      eq\n        /* \"#utility.yul\":10184:10287   */\n      iszero\n      tag_285\n      jumpi\n        /* \"#utility.yul\":10267:10285   */\n      tag_286\n      tag_165\n      jump\t// in\n    tag_286:\n        /* \"#utility.yul\":10184:10287   */\n    tag_285:\n        /* \"#utility.yul\":10314:10315   */\n      0x01\n        /* \"#utility.yul\":10307:10312   */\n      dup3\n        /* \"#utility.yul\":10303:10316   */\n      add\n        /* \"#utility.yul\":10296:10316   */\n      swap1\n      pop\n        /* \"#utility.yul\":10089:10322   */\n      swap2\n      swap1\n      pop\n      jump\t// out\n        /* \"#utility.yul\":10328:10508   */\n    tag_166:\n        /* \"#utility.yul\":10376:10453   */\n      0x4e487b7100000000000000000000000000000000000000000000000000000000\n        /* \"#utility.yul\":10373:10374   */\n      0x00\n        /* \"#utility.yul\":10366:10454   */\n      mstore\n        /* \"#utility.yul\":10473:10477   */\n      0x12\n        /* \"#utility.yul\":10470:10471   */\n      0x04\n        /* \"#utility.yul\":10463:10478   */\n      mstore\n        /* \"#utility.yul\":10497:10501   */\n      0x24\n        /* \"#utility.yul\":10494:10495   */\n      0x00\n        /* \"#utility.yul\":10487:10502   */\n      revert\n        /* \"#utility.yul\":10514:10699   */\n    tag_98:\n        /* \"#utility.yul\":10554:10555   */\n      0x00\n        /* \"#utility.yul\":10571:10591   */\n      tag_289\n        /* \"#utility.yul\":10589:10590   */\n      dup3\n        /* \"#utility.yul\":10571:10591   */\n      tag_157\n      jump\t// in\n    tag_289:\n        /* \"#utility.yul\":10566:10591   */\n      swap2\n      pop\n        /* \"#utility.yul\":10605:10625   */\n      tag_290\n        /* \"#utility.yul\":10623:10624   */\n      dup4\n        /* \"#utility.yul\":10605:10625   */\n      tag_157\n      jump\t// in\n    tag_290:\n        /* \"#utility.yul\":10600:10625   */\n      swap3\n      pop\n        /* \"#utility.yul\":10644:10645   */\n      dup3\n        /* \"#utility.yul\":10634:10669   */\n      tag_291\n      jumpi\n        /* \"#utility.yul\":10649:10667   */\n      tag_292\n      tag_166\n      jump\t// in\n    tag_292:\n        /* \"#utility.yul\":10634:10669   */\n    tag_291:\n        /* \"#utility.yul\":10691:10692   */\n      dup3\n        /* \"#utility.yul\":10688:10689   */\n      dup3\n        /* \"#utility.yul\":10684:10693   */\n      div\n        /* \"#utility.yul\":10679:10693   */\n      swap1\n      pop\n        /* \"#utility.yul\":10514:10699   */\n      swap3\n      swap2\n      pop\n      pop\n      jump\t// out\n\n    auxdata: 0xa26469706673582212209b099755cd2819332c531f5dcaedce1272bc537a94be8784fd787235657e830e64736f6c634300080b0033\n}\n","bytecode":{"linkReferences":{},"object":"60806040523480156200001157600080fd5b5060405162001558380380620015588339818101604052810190620000379190620003a8565b82600460006101000a81548173ffffffffffffffffffffffffffffffffffffffff021916908373ffffffffffffffffffffffffffffffffffffffff160217905550816000908051906020019062000090929190620000bb565b508060019080519060200190620000a9929190620000bb565b508360058190555050505050620004bd565b828054620000c99062000487565b90600052602060002090601f016020900481019282620000ed576000855562000139565b82601f106200010857805160ff191683800117855562000139565b8280016001018555821562000139579182015b82811115620001385782518255916020019190600101906200011b565b5b5090506200014891906200014c565b5090565b5b80821115620001675760008160009055506001016200014d565b5090565b6000604051905090565b600080fd5b600080fd5b6000819050919050565b62000194816200017f565b8114620001a057600080fd5b50565b600081519050620001b48162000189565b92915050565b600073ffffffffffffffffffffffffffffffffffffffff82169050919050565b6000620001e782620001ba565b9050919050565b620001f981620001da565b81146200020557600080fd5b50565b6000815190506200021981620001ee565b92915050565b600080fd5b600080fd5b6000601f19601f8301169050919050565b7f4e487b7100000000000000000000000000000000000000000000000000000000600052604160045260246000fd5b620002748262000229565b810181811067ffffffffffffffff821117156200029657620002956200023a565b5b80604052505050565b6000620002ab6200016b565b9050620002b9828262000269565b919050565b600067ffffffffffffffff821115620002dc57620002db6200023a565b5b620002e78262000229565b9050602081019050919050565b60005b8381101562000314578082015181840152602081019050620002f7565b8381111562000324576000848401525b50505050565b6000620003416200033b84620002be565b6200029f565b90508281526020810184848401111562000360576200035f62000224565b5b6200036d848285620002f4565b509392505050565b600082601f8301126200038d576200038c6200021f565b5b81516200039f8482602086016200032a565b91505092915050565b60008060008060808587031215620003c557620003c462000175565b5b6000620003d587828801620001a3565b9450506020620003e88782880162000208565b935050604085015167ffffffffffffffff8111156200040c576200040b6200017a565b5b6200041a8782880162000375565b925050606085015167ffffffffffffffff8111156200043e576200043d6200017a565b5b6200044c8782880162000375565b91505092959194509250565b7f4e487b7100000000000000000000000000000000000000000000000000000000600052602260045260246000fd5b60006002820490506001821680620004a057607f821691505b60208210811415620004b757620004b662000458565b5b50919050565b61108b80620004cd6000396000f3fe6080604052600436106100865760003560e01c80637284e416116100595780637284e4161461014757806375f66b771461017257806381d12c581461019b578063aaffadf3146101dd578063d7bb99ba1461020857610086565b806306fdde031461008b5780630a144391146100b65780630bfd66c9146100f3578063481c6a751461011c575b600080fd5b34801561009757600080fd5b506100a0610212565b6040516100ad9190610a71565b60405180910390f35b3480156100c257600080fd5b506100dd60048036038101906100d89190610b05565b6102a0565b6040516100ea9190610b4d565b60405180910390f35b3480156100ff57600080fd5b5061011a60048036038101906101159190610cd3565b6102c0565b005b34801561012857600080fd5b50610131610401565b60405161013e9190610d51565b60405180910390f35b34801561015357600080fd5b5061015c610427565b6040516101699190610a71565b60405180910390f35b34801561017e57600080fd5b5061019960048036038101906101949190610d98565b6104b5565b005b3480156101a757600080fd5b506101c260048036038101906101bd9190610dd8565b6107ad565b6040516101d496959493929190610e14565b60405180910390f35b3480156101e957600080fd5b506101f26108ae565b6040516101ff9190610e7c565b60405180910390f35b6102106108b4565b005b6000805461021f90610ec6565b80601f016020809104026020016040519081016040528092919081815260200182805461024b90610ec6565b80156102985780601f1061026d57610100808354040283529160200191610298565b820191906000526020600020905b81548152906001019060200180831161027b57829003601f168201915b505050505081565b60076020528060005260406000206000915054906101000a900460ff1681565b600460009054906101000a900473ffffffffffffffffffffffffffffffffffffffff1673ffffffffffffffffffffffffffffffffffffffff163373ffffffffffffffffffffffffffffffffffffffff161461031a57600080fd5b60016002600082825461032d9190610f27565b9250508190555047821061034057600080fd5b600060066001816001815401808255809150500390600052602060002090600702019050600254816000018190555083816001019080519060200190610387929190610935565b50828160020181905550818160030160006101000a81548173ffffffffffffffffffffffffffffffffffffffff021916908373ffffffffffffffffffffffffffffffffffffffff1602179055506000816004018190555060008160050160006101000a81548160ff02191690831515021790555050505050565b600460009054906101000a900473ffffffffffffffffffffffffffffffffffffffff1681565b6001805461043490610ec6565b80601f016020809104026020016040519081016040528092919081815260200182805461046090610ec6565b80156104ad5780601f10610482576101008083540402835291602001916104ad565b820191906000526020600020905b81548152906001019060200180831161049057829003601f168201915b505050505081565b600760003373ffffffffffffffffffffffffffffffffffffffff1673ffffffffffffffffffffffffffffffffffffffff16815260200190815260200160002060009054906101000a900460ff1661050b57600080fd5b6006828154811061051f5761051e610f7d565b5b906000526020600020906007020160050160009054906101000a900460ff161561054857600080fd5b6006828154811061055c5761055b610f7d565b5b906000526020600020906007020160060160003373ffffffffffffffffffffffffffffffffffffffff1673ffffffffffffffffffffffffffffffffffffffff16815260200190815260200160002060009054906101000a900460ff16156105c257600080fd5b80600683815481106105d7576105d6610f7d565b5b906000526020600020906007020160060160003373ffffffffffffffffffffffffffffffffffffffff1673ffffffffffffffffffffffffffffffffffffffff16815260200190815260200160002060006101000a81548160ff021916908315150217905550801561067e576006828154811061065657610655610f7d565b5b9060005260206000209060070201600401600081548092919061067890610fac565b91905055505b600260035461068d9190611024565b600683815481106106a1576106a0610f7d565b5b90600052602060002090600702016004015411156107a9576001600683815481106106cf576106ce610f7d565b5b906000526020600020906007020160050160006101000a81548160ff0219169083151502179055506006828154811061070b5761070a610f7d565b5b906000526020600020906007020160030160009054906101000a900473ffffffffffffffffffffffffffffffffffffffff1673ffffffffffffffffffffffffffffffffffffffff166108fc6006848154811061076a57610769610f7d565b5b9060005260206000209060070201600201549081150290604051600060405180830381858888f193505050501580156107a7573d6000803e3d6000fd5b505b5050565b600681815481106107bd57600080fd5b90600052602060002090600702016000915090508060000154908060010180546107e690610ec6565b80601f016020809104026020016040519081016040528092919081815260200182805461081290610ec6565b801561085f5780601f106108345761010080835404028352916020019161085f565b820191906000526020600020905b81548152906001019060200180831161084257829003601f168201915b5050505050908060020154908060030160009054906101000a900473ffffffffffffffffffffffffffffffffffffffff16908060040154908060050160009054906101000a900460ff16905086565b60055481565b6005543410156108c357600080fd5b600360008154809291906108d690610fac565b91905055506001600760003373ffffffffffffffffffffffffffffffffffffffff1673ffffffffffffffffffffffffffffffffffffffff16815260200190815260200160002060006101000a81548160ff021916908315150217905550565b82805461094190610ec6565b90600052602060002090601f01602090048101928261096357600085556109aa565b82601f1061097c57805160ff19168380011785556109aa565b828001600101855582156109aa579182015b828111156109a957825182559160200191906001019061098e565b5b5090506109b791906109bb565b5090565b5b808211156109d45760008160009055506001016109bc565b5090565b600081519050919050565b600082825260208201905092915050565b60005b83811015610a125780820151818401526020810190506109f7565b83811115610a21576000848401525b50505050565b6000601f19601f8301169050919050565b6000610a43826109d8565b610a4d81856109e3565b9350610a5d8185602086016109f4565b610a6681610a27565b840191505092915050565b60006020820190508181036000830152610a8b8184610a38565b905092915050565b6000604051905090565b600080fd5b600080fd5b600073ffffffffffffffffffffffffffffffffffffffff82169050919050565b6000610ad282610aa7565b9050919050565b610ae281610ac7565b8114610aed57600080fd5b50565b600081359050610aff81610ad9565b92915050565b600060208284031215610b1b57610b1a610a9d565b5b6000610b2984828501610af0565b91505092915050565b60008115159050919050565b610b4781610b32565b82525050565b6000602082019050610b626000830184610b3e565b92915050565b600080fd5b600080fd5b7f4e487b7100000000000000000000000000000000000000000000000000000000600052604160045260246000fd5b610baa82610a27565b810181811067ffffffffffffffff82111715610bc957610bc8610b72565b5b80604052505050565b6000610bdc610a93565b9050610be88282610ba1565b919050565b600067ffffffffffffffff821115610c0857610c07610b72565b5b610c1182610a27565b9050602081019050919050565b82818337600083830152505050565b6000610c40610c3b84610bed565b610bd2565b905082815260208101848484011115610c5c57610c5b610b6d565b5b610c67848285610c1e565b509392505050565b600082601f830112610c8457610c83610b68565b5b8135610c94848260208601610c2d565b91505092915050565b6000819050919050565b610cb081610c9d565b8114610cbb57600080fd5b50565b600081359050610ccd81610ca7565b92915050565b600080600060608486031215610cec57610ceb610a9d565b5b600084013567ffffffffffffffff811115610d0a57610d09610aa2565b5b610d1686828701610c6f565b9350506020610d2786828701610cbe565b9250506040610d3886828701610af0565b9150509250925092565b610d4b81610ac7565b82525050565b6000602082019050610d666000830184610d42565b92915050565b610d7581610b32565b8114610d8057600080fd5b50565b600081359050610d9281610d6c565b92915050565b60008060408385031215610daf57610dae610a9d565b5b6000610dbd85828601610cbe565b9250506020610dce85828601610d83565b9150509250929050565b600060208284031215610dee57610ded610a9d565b5b6000610dfc84828501610cbe565b91505092915050565b610e0e81610c9d565b82525050565b600060c082019050610e296000830189610e05565b8181036020830152610e3b8188610a38565b9050610e4a6040830187610e05565b610e576060830186610d42565b610e646080830185610e05565b610e7160a0830184610b3e565b979650505050505050565b6000602082019050610e916000830184610e05565b92915050565b7f4e487b7100000000000000000000000000000000000000000000000000000000600052602260045260246000fd5b60006002820490506001821680610ede57607f821691505b60208210811415610ef257610ef1610e97565b5b50919050565b7f4e487b7100000000000000000000000000000000000000000000000000000000600052601160045260246000fd5b6000610f3282610c9d565b9150610f3d83610c9d565b9250827fffffffffffffffffffffffffffffffffffffffffffffffffffffffffffffffff03821115610f7257610f71610ef8565b5b828201905092915050565b7f4e487b7100000000000000000000000000000000000000000000000000000000600052603260045260246000fd5b6000610fb782610c9d565b91507fffffffffffffffffffffffffffffffffffffffffffffffffffffffffffffffff821415610fea57610fe9610ef8565b5b600182019050919050565b7f4e487b7100000000000000000000000000000000000000000000000000000000600052601260045260246000fd5b600061102f82610c9d565b915061103a83610c9d565b92508261104a57611049610ff5565b5b82820490509291505056fea26469706673582212209b099755cd2819332c531f5dcaedce1272bc537a94be8784fd787235657e830e64736f6c634300080b0033","opcodes":"PUSH1 0x80 PUSH1 0x40 MSTORE CALLVALUE DUP1 ISZERO PUSH3 0x11 JUMPI PUSH1 0x0 DUP1 REVERT JUMPDEST POP PUSH1 0x40 MLOAD PUSH3 0x1558 CODESIZE SUB DUP1 PUSH3 0x1558 DUP4 CODECOPY DUP2 DUP2 ADD PUSH1 0x40 MSTORE DUP2 ADD SWAP1 PUSH3 0x37 SWAP2 SWAP1 PUSH3 0x3A8 JUMP JUMPDEST DUP3 PUSH1 0x4 PUSH1 0x0 PUSH2 0x100 EXP DUP2 SLOAD DUP2 PUSH20 0xFFFFFFFFFFFFFFFFFFFFFFFFFFFFFFFFFFFFFFFF MUL NOT AND SWAP1 DUP4 PUSH20 0xFFFFFFFFFFFFFFFFFFFFFFFFFFFFFFFFFFFFFFFF AND MUL OR SWAP1 SSTORE POP DUP2 PUSH1 0x0 SWAP1 DUP1 MLOAD SWAP1 PUSH1 0x20 ADD SWAP1 PUSH3 0x90 SWAP3 SWAP2 SWAP1 PUSH3 0xBB JUMP JUMPDEST POP DUP1 PUSH1 0x1 SWAP1 DUP1 MLOAD SWAP1 PUSH1 0x20 ADD SWAP1 PUSH3 0xA9 SWAP3 SWAP2 SWAP1 PUSH3 0xBB JUMP JUMPDEST POP DUP4 PUSH1 0x5 DUP2 SWAP1 SSTORE POP POP POP POP POP PUSH3 0x4BD JUMP JUMPDEST DUP3 DUP1 SLOAD PUSH3 0xC9 SWAP1 PUSH3 0x487 JUMP JUMPDEST SWAP1 PUSH1 0x0 MSTORE PUSH1 0x20 PUSH1 0x0 KECCAK256 SWAP1 PUSH1 0x1F ADD PUSH1 0x20 SWAP1 DIV DUP2 ADD SWAP3 DUP3 PUSH3 0xED JUMPI PUSH1 0x0 DUP6 SSTORE PUSH3 0x139 JUMP JUMPDEST DUP3 PUSH1 0x1F LT PUSH3 0x108 JUMPI DUP1 MLOAD PUSH1 0xFF NOT AND DUP4 DUP1 ADD OR DUP6 SSTORE PUSH3 0x139 JUMP JUMPDEST DUP3 DUP1 ADD PUSH1 0x1 ADD DUP6 SSTORE DUP3 ISZERO PUSH3 0x139 JUMPI SWAP2 DUP3 ADD JUMPDEST DUP3 DUP2 GT ISZERO PUSH3 0x138 JUMPI DUP3 MLOAD DUP3 SSTORE SWAP2 PUSH1 0x20 ADD SWAP2 SWAP1 PUSH1 0x1 ADD SWAP1 PUSH3 0x11B JUMP JUMPDEST JUMPDEST POP SWAP1 POP PUSH3 0x148 SWAP2 SWAP1 PUSH3 0x14C JUMP JUMPDEST POP SWAP1 JUMP JUMPDEST JUMPDEST DUP1 DUP3 GT ISZERO PUSH3 0x167 JUMPI PUSH1 0x0 DUP2 PUSH1 0x0 SWAP1 SSTORE POP PUSH1 0x1 ADD PUSH3 0x14D JUMP JUMPDEST POP SWAP1 JUMP JUMPDEST PUSH1 0x0 PUSH1 0x40 MLOAD SWAP1 POP SWAP1 JUMP JUMPDEST PUSH1 0x0 DUP1 REVERT JUMPDEST PUSH1 0x0 DUP1 REVERT JUMPDEST PUSH1 0x0 DUP2 SWAP1 POP SWAP2 SWAP1 POP JUMP JUMPDEST PUSH3 0x194 DUP2 PUSH3 0x17F JUMP JUMPDEST DUP2 EQ PUSH3 0x1A0 JUMPI PUSH1 0x0 DUP1 REVERT JUMPDEST POP JUMP JUMPDEST PUSH1 0x0 DUP2 MLOAD SWAP1 POP PUSH3 0x1B4 DUP2 PUSH3 0x189 JUMP JUMPDEST SWAP3 SWAP2 POP POP JUMP JUMPDEST PUSH1 0x0 PUSH20 0xFFFFFFFFFFFFFFFFFFFFFFFFFFFFFFFFFFFFFFFF DUP3 AND SWAP1 POP SWAP2 SWAP1 POP JUMP JUMPDEST PUSH1 0x0 PUSH3 0x1E7 DUP3 PUSH3 0x1BA JUMP JUMPDEST SWAP1 POP SWAP2 SWAP1 POP JUMP JUMPDEST PUSH3 0x1F9 DUP2 PUSH3 0x1DA JUMP JUMPDEST DUP2 EQ PUSH3 0x205 JUMPI PUSH1 0x0 DUP1 REVERT JUMPDEST POP JUMP JUMPDEST PUSH1 0x0 DUP2 MLOAD SWAP1 POP PUSH3 0x219 DUP2 PUSH3 0x1EE JUMP JUMPDEST SWAP3 SWAP2 POP POP JUMP JUMPDEST PUSH1 0x0 DUP1 REVERT JUMPDEST PUSH1 0x0 DUP1 REVERT JUMPDEST PUSH1 0x0 PUSH1 0x1F NOT PUSH1 0x1F DUP4 ADD AND SWAP1 POP SWAP2 SWAP1 POP JUMP JUMPDEST PUSH32 0x4E487B7100000000000000000000000000000000000000000000000000000000 PUSH1 0x0 MSTORE PUSH1 0x41 PUSH1 0x4 MSTORE PUSH1 0x24 PUSH1 0x0 REVERT JUMPDEST PUSH3 0x274 DUP3 PUSH3 0x229 JUMP JUMPDEST DUP2 ADD DUP2 DUP2 LT PUSH8 0xFFFFFFFFFFFFFFFF DUP3 GT OR ISZERO PUSH3 0x296 JUMPI PUSH3 0x295 PUSH3 0x23A JUMP JUMPDEST JUMPDEST DUP1 PUSH1 0x40 MSTORE POP POP POP JUMP JUMPDEST PUSH1 0x0 PUSH3 0x2AB PUSH3 0x16B JUMP JUMPDEST SWAP1 POP PUSH3 0x2B9 DUP3 DUP3 PUSH3 0x269 JUMP JUMPDEST SWAP2 SWAP1 POP JUMP JUMPDEST PUSH1 0x0 PUSH8 0xFFFFFFFFFFFFFFFF DUP3 GT ISZERO PUSH3 0x2DC JUMPI PUSH3 0x2DB PUSH3 0x23A JUMP JUMPDEST JUMPDEST PUSH3 0x2E7 DUP3 PUSH3 0x229 JUMP JUMPDEST SWAP1 POP PUSH1 0x20 DUP2 ADD SWAP1 POP SWAP2 SWAP1 POP JUMP JUMPDEST PUSH1 0x0 JUMPDEST DUP4 DUP2 LT ISZERO PUSH3 0x314 JUMPI DUP1 DUP3 ADD MLOAD DUP2 DUP5 ADD MSTORE PUSH1 0x20 DUP2 ADD SWAP1 POP PUSH3 0x2F7 JUMP JUMPDEST DUP4 DUP2 GT ISZERO PUSH3 0x324 JUMPI PUSH1 0x0 DUP5 DUP5 ADD MSTORE JUMPDEST POP POP POP POP JUMP JUMPDEST PUSH1 0x0 PUSH3 0x341 PUSH3 0x33B DUP5 PUSH3 0x2BE JUMP JUMPDEST PUSH3 0x29F JUMP JUMPDEST SWAP1 POP DUP3 DUP2 MSTORE PUSH1 0x20 DUP2 ADD DUP5 DUP5 DUP5 ADD GT ISZERO PUSH3 0x360 JUMPI PUSH3 0x35F PUSH3 0x224 JUMP JUMPDEST JUMPDEST PUSH3 0x36D DUP5 DUP3 DUP6 PUSH3 0x2F4 JUMP JUMPDEST POP SWAP4 SWAP3 POP POP POP JUMP JUMPDEST PUSH1 0x0 DUP3 PUSH1 0x1F DUP4 ADD SLT PUSH3 0x38D JUMPI PUSH3 0x38C PUSH3 0x21F JUMP JUMPDEST JUMPDEST DUP2 MLOAD PUSH3 0x39F DUP5 DUP3 PUSH1 0x20 DUP7 ADD PUSH3 0x32A JUMP JUMPDEST SWAP2 POP POP SWAP3 SWAP2 POP POP JUMP JUMPDEST PUSH1 0x0 DUP1 PUSH1 0x0 DUP1 PUSH1 0x80 DUP6 DUP8 SUB SLT ISZERO PUSH3 0x3C5 JUMPI PUSH3 0x3C4 PUSH3 0x175 JUMP JUMPDEST JUMPDEST PUSH1 0x0 PUSH3 0x3D5 DUP8 DUP3 DUP9 ADD PUSH3 0x1A3 JUMP JUMPDEST SWAP5 POP POP PUSH1 0x20 PUSH3 0x3E8 DUP8 DUP3 DUP9 ADD PUSH3 0x208 JUMP JUMPDEST SWAP4 POP POP PUSH1 0x40 DUP6 ADD MLOAD PUSH8 0xFFFFFFFFFFFFFFFF DUP2 GT ISZERO PUSH3 0x40C JUMPI PUSH3 0x40B PUSH3 0x17A JUMP JUMPDEST JUMPDEST PUSH3 0x41A DUP8 DUP3 DUP9 ADD PUSH3 0x375 JUMP JUMPDEST SWAP3 POP POP PUSH1 0x60 DUP6 ADD MLOAD PUSH8 0xFFFFFFFFFFFFFFFF DUP2 GT ISZERO PUSH3 0x43E JUMPI PUSH3 0x43D PUSH3 0x17A JUMP JUMPDEST JUMPDEST PUSH3 0x44C DUP8 DUP3 DUP9 ADD PUSH3 0x375 JUMP JUMPDEST SWAP2 POP POP SWAP3 SWAP6 SWAP2 SWAP5 POP SWAP3 POP JUMP JUMPDEST PUSH32 0x4E487B7100000000000000000000000000000000000000000000000000000000 PUSH1 0x0 MSTORE PUSH1 0x22 PUSH1 0x4 MSTORE PUSH1 0x24 PUSH1 0x0 REVERT JUMPDEST PUSH1 0x0 PUSH1 0x2 DUP3 DIV SWAP1 POP PUSH1 0x1 DUP3 AND DUP1 PUSH3 0x4A0 JUMPI PUSH1 0x7F DUP3 AND SWAP2 POP JUMPDEST PUSH1 0x20 DUP3 LT DUP2 EQ ISZERO PUSH3 0x4B7 JUMPI PUSH3 0x4B6 PUSH3 0x458 JUMP JUMPDEST JUMPDEST POP SWAP2 SWAP1 POP JUMP JUMPDEST PUSH2 0x108B DUP1 PUSH3 0x4CD PUSH1 0x0 CODECOPY PUSH1 0x0 RETURN INVALID PUSH1 0x80 PUSH1 0x40 MSTORE PUSH1 0x4 CALLDATASIZE LT PUSH2 0x86 JUMPI PUSH1 0x0 CALLDATALOAD PUSH1 0xE0 SHR DUP1 PUSH4 0x7284E416 GT PUSH2 0x59 JUMPI DUP1 PUSH4 0x7284E416 EQ PUSH2 0x147 JUMPI DUP1 PUSH4 0x75F66B77 EQ PUSH2 0x172 JUMPI DUP1 PUSH4 0x81D12C58 EQ PUSH2 0x19B JUMPI DUP1 PUSH4 0xAAFFADF3 EQ PUSH2 0x1DD JUMPI DUP1 PUSH4 0xD7BB99BA EQ PUSH2 0x208 JUMPI PUSH2 0x86 JUMP JUMPDEST DUP1 PUSH4 0x6FDDE03 EQ PUSH2 0x8B JUMPI DUP1 PUSH4 0xA144391 EQ PUSH2 0xB6 JUMPI DUP1 PUSH4 0xBFD66C9 EQ PUSH2 0xF3 JUMPI DUP1 PUSH4 0x481C6A75 EQ PUSH2 0x11C JUMPI JUMPDEST PUSH1 0x0 DUP1 REVERT JUMPDEST CALLVALUE DUP1 ISZERO PUSH2 0x97 JUMPI PUSH1 0x0 DUP1 REVERT JUMPDEST POP PUSH2 0xA0 PUSH2 0x212 JUMP JUMPDEST PUSH1 0x40 MLOAD PUSH2 0xAD SWAP2 SWAP1 PUSH2 0xA71 JUMP JUMPDEST PUSH1 0x40 MLOAD DUP1 SWAP2 SUB SWAP1 RETURN JUMPDEST CALLVALUE DUP1 ISZERO PUSH2 0xC2 JUMPI PUSH1 0x0 DUP1 REVERT JUMPDEST POP PUSH2 0xDD PUSH1 0x4 DUP1 CALLDATASIZE SUB DUP2 ADD SWAP1 PUSH2 0xD8 SWAP2 SWAP1 PUSH2 0xB05 JUMP JUMPDEST PUSH2 0x2A0 JUMP JUMPDEST PUSH1 0x40 MLOAD PUSH2 0xEA SWAP2 SWAP1 PUSH2 0xB4D JUMP JUMPDEST PUSH1 0x40 MLOAD DUP1 SWAP2 SUB SWAP1 RETURN JUMPDEST CALLVALUE DUP1 ISZERO PUSH2 0xFF JUMPI PUSH1 0x0 DUP1 REVERT JUMPDEST POP PUSH2 0x11A PUSH1 0x4 DUP1 CALLDATASIZE SUB DUP2 ADD SWAP1 PUSH2 0x115 SWAP2 SWAP1 PUSH2 0xCD3 JUMP JUMPDEST PUSH2 0x2C0 JUMP JUMPDEST STOP JUMPDEST CALLVALUE DUP1 ISZERO PUSH2 0x128 JUMPI PUSH1 0x0 DUP1 REVERT JUMPDEST POP PUSH2 0x131 PUSH2 0x401 JUMP JUMPDEST PUSH1 0x40 MLOAD PUSH2 0x13E SWAP2 SWAP1 PUSH2 0xD51 JUMP JUMPDEST PUSH1 0x40 MLOAD DUP1 SWAP2 SUB SWAP1 RETURN JUMPDEST CALLVALUE DUP1 ISZERO PUSH2 0x153 JUMPI PUSH1 0x0 DUP1 REVERT JUMPDEST POP PUSH2 0x15C PUSH2 0x427 JUMP JUMPDEST PUSH1 0x40 MLOAD PUSH2 0x169 SWAP2 SWAP1 PUSH2 0xA71 JUMP JUMPDEST PUSH1 0x40 MLOAD DUP1 SWAP2 SUB SWAP1 RETURN JUMPDEST CALLVALUE DUP1 ISZERO PUSH2 0x17E JUMPI PUSH1 0x0 DUP1 REVERT JUMPDEST POP PUSH2 0x199 PUSH1 0x4 DUP1 CALLDATASIZE SUB DUP2 ADD SWAP1 PUSH2 0x194 SWAP2 SWAP1 PUSH2 0xD98 JUMP JUMPDEST PUSH2 0x4B5 JUMP JUMPDEST STOP JUMPDEST CALLVALUE DUP1 ISZERO PUSH2 0x1A7 JUMPI PUSH1 0x0 DUP1 REVERT JUMPDEST POP PUSH2 0x1C2 PUSH1 0x4 DUP1 CALLDATASIZE SUB DUP2 ADD SWAP1 PUSH2 0x1BD SWAP2 SWAP1 PUSH2 0xDD8 JUMP JUMPDEST PUSH2 0x7AD JUMP JUMPDEST PUSH1 0x40 MLOAD PUSH2 0x1D4 SWAP7 SWAP6 SWAP5 SWAP4 SWAP3 SWAP2 SWAP1 PUSH2 0xE14 JUMP JUMPDEST PUSH1 0x40 MLOAD DUP1 SWAP2 SUB SWAP1 RETURN JUMPDEST CALLVALUE DUP1 ISZERO PUSH2 0x1E9 JUMPI PUSH1 0x0 DUP1 REVERT JUMPDEST POP PUSH2 0x1F2 PUSH2 0x8AE JUMP JUMPDEST PUSH1 0x40 MLOAD PUSH2 0x1FF SWAP2 SWAP1 PUSH2 0xE7C JUMP JUMPDEST PUSH1 0x40 MLOAD DUP1 SWAP2 SUB SWAP1 RETURN JUMPDEST PUSH2 0x210 PUSH2 0x8B4 JUMP JUMPDEST STOP JUMPDEST PUSH1 0x0 DUP1 SLOAD PUSH2 0x21F SWAP1 PUSH2 0xEC6 JUMP JUMPDEST DUP1 PUSH1 0x1F ADD PUSH1 0x20 DUP1 SWAP2 DIV MUL PUSH1 0x20 ADD PUSH1 0x40 MLOAD SWAP1 DUP2 ADD PUSH1 0x40 MSTORE DUP1 SWAP3 SWAP2 SWAP1 DUP2 DUP2 MSTORE PUSH1 0x20 ADD DUP3 DUP1 SLOAD PUSH2 0x24B SWAP1 PUSH2 0xEC6 JUMP JUMPDEST DUP1 ISZERO PUSH2 0x298 JUMPI DUP1 PUSH1 0x1F LT PUSH2 0x26D JUMPI PUSH2 0x100 DUP1 DUP4 SLOAD DIV MUL DUP4 MSTORE SWAP2 PUSH1 0x20 ADD SWAP2 PUSH2 0x298 JUMP JUMPDEST DUP3 ADD SWAP2 SWAP1 PUSH1 0x0 MSTORE PUSH1 0x20 PUSH1 0x0 KECCAK256 SWAP1 JUMPDEST DUP2 SLOAD DUP2 MSTORE SWAP1 PUSH1 0x1 ADD SWAP1 PUSH1 0x20 ADD DUP1 DUP4 GT PUSH2 0x27B JUMPI DUP3 SWAP1 SUB PUSH1 0x1F AND DUP3 ADD SWAP2 JUMPDEST POP POP POP POP POP DUP2 JUMP JUMPDEST PUSH1 0x7 PUSH1 0x20 MSTORE DUP1 PUSH1 0x0 MSTORE PUSH1 0x40 PUSH1 0x0 KECCAK256 PUSH1 0x0 SWAP2 POP SLOAD SWAP1 PUSH2 0x100 EXP SWAP1 DIV PUSH1 0xFF AND DUP2 JUMP JUMPDEST PUSH1 0x4 PUSH1 0x0 SWAP1 SLOAD SWAP1 PUSH2 0x100 EXP SWAP1 DIV PUSH20 0xFFFFFFFFFFFFFFFFFFFFFFFFFFFFFFFFFFFFFFFF AND PUSH20 0xFFFFFFFFFFFFFFFFFFFFFFFFFFFFFFFFFFFFFFFF AND CALLER PUSH20 0xFFFFFFFFFFFFFFFFFFFFFFFFFFFFFFFFFFFFFFFF AND EQ PUSH2 0x31A JUMPI PUSH1 0x0 DUP1 REVERT JUMPDEST PUSH1 0x1 PUSH1 0x2 PUSH1 0x0 DUP3 DUP3 SLOAD PUSH2 0x32D SWAP2 SWAP1 PUSH2 0xF27 JUMP JUMPDEST SWAP3 POP POP DUP2 SWAP1 SSTORE POP SELFBALANCE DUP3 LT PUSH2 0x340 JUMPI PUSH1 0x0 DUP1 REVERT JUMPDEST PUSH1 0x0 PUSH1 0x6 PUSH1 0x1 DUP2 PUSH1 0x1 DUP2 SLOAD ADD DUP1 DUP3 SSTORE DUP1 SWAP2 POP POP SUB SWAP1 PUSH1 0x0 MSTORE PUSH1 0x20 PUSH1 0x0 KECCAK256 SWAP1 PUSH1 0x7 MUL ADD SWAP1 POP PUSH1 0x2 SLOAD DUP2 PUSH1 0x0 ADD DUP2 SWAP1 SSTORE POP DUP4 DUP2 PUSH1 0x1 ADD SWAP1 DUP1 MLOAD SWAP1 PUSH1 0x20 ADD SWAP1 PUSH2 0x387 SWAP3 SWAP2 SWAP1 PUSH2 0x935 JUMP JUMPDEST POP DUP3 DUP2 PUSH1 0x2 ADD DUP2 SWAP1 SSTORE POP DUP2 DUP2 PUSH1 0x3 ADD PUSH1 0x0 PUSH2 0x100 EXP DUP2 SLOAD DUP2 PUSH20 0xFFFFFFFFFFFFFFFFFFFFFFFFFFFFFFFFFFFFFFFF MUL NOT AND SWAP1 DUP4 PUSH20 0xFFFFFFFFFFFFFFFFFFFFFFFFFFFFFFFFFFFFFFFF AND MUL OR SWAP1 SSTORE POP PUSH1 0x0 DUP2 PUSH1 0x4 ADD DUP2 SWAP1 SSTORE POP PUSH1 0x0 DUP2 PUSH1 0x5 ADD PUSH1 0x0 PUSH2 0x100 EXP DUP2 SLOAD DUP2 PUSH1 0xFF MUL NOT AND SWAP1 DUP4 ISZERO ISZERO MUL OR SWAP1 SSTORE POP POP POP POP POP JUMP JUMPDEST PUSH1 0x4 PUSH1 0x0 SWAP1 SLOAD SWAP1 PUSH2 0x100 EXP SWAP1 DIV PUSH20 0xFFFFFFFFFFFFFFFFFFFFFFFFFFFFFFFFFFFFFFFF AND DUP2 JUMP JUMPDEST PUSH1 0x1 DUP1 SLOAD PUSH2 0x434 SWAP1 PUSH2 0xEC6 JUMP JUMPDEST DUP1 PUSH1 0x1F ADD PUSH1 0x20 DUP1 SWAP2 DIV MUL PUSH1 0x20 ADD PUSH1 0x40 MLOAD SWAP1 DUP2 ADD PUSH1 0x40 MSTORE DUP1 SWAP3 SWAP2 SWAP1 DUP2 DUP2 MSTORE PUSH1 0x20 ADD DUP3 DUP1 SLOAD PUSH2 0x460 SWAP1 PUSH2 0xEC6 JUMP JUMPDEST DUP1 ISZERO PUSH2 0x4AD JUMPI DUP1 PUSH1 0x1F LT PUSH2 0x482 JUMPI PUSH2 0x100 DUP1 DUP4 SLOAD DIV MUL DUP4 MSTORE SWAP2 PUSH1 0x20 ADD SWAP2 PUSH2 0x4AD JUMP JUMPDEST DUP3 ADD SWAP2 SWAP1 PUSH1 0x0 MSTORE PUSH1 0x20 PUSH1 0x0 KECCAK256 SWAP1 JUMPDEST DUP2 SLOAD DUP2 MSTORE SWAP1 PUSH1 0x1 ADD SWAP1 PUSH1 0x20 ADD DUP1 DUP4 GT PUSH2 0x490 JUMPI DUP3 SWAP1 SUB PUSH1 0x1F AND DUP3 ADD SWAP2 JUMPDEST POP POP POP POP POP DUP2 JUMP JUMPDEST PUSH1 0x7 PUSH1 0x0 CALLER PUSH20 0xFFFFFFFFFFFFFFFFFFFFFFFFFFFFFFFFFFFFFFFF AND PUSH20 0xFFFFFFFFFFFFFFFFFFFFFFFFFFFFFFFFFFFFFFFF AND DUP2 MSTORE PUSH1 0x20 ADD SWAP1 DUP2 MSTORE PUSH1 0x20 ADD PUSH1 0x0 KECCAK256 PUSH1 0x0 SWAP1 SLOAD SWAP1 PUSH2 0x100 EXP SWAP1 DIV PUSH1 0xFF AND PUSH2 0x50B JUMPI PUSH1 0x0 DUP1 REVERT JUMPDEST PUSH1 0x6 DUP3 DUP2 SLOAD DUP2 LT PUSH2 0x51F JUMPI PUSH2 0x51E PUSH2 0xF7D JUMP JUMPDEST JUMPDEST SWAP1 PUSH1 0x0 MSTORE PUSH1 0x20 PUSH1 0x0 KECCAK256 SWAP1 PUSH1 0x7 MUL ADD PUSH1 0x5 ADD PUSH1 0x0 SWAP1 SLOAD SWAP1 PUSH2 0x100 EXP SWAP1 DIV PUSH1 0xFF AND ISZERO PUSH2 0x548 JUMPI PUSH1 0x0 DUP1 REVERT JUMPDEST PUSH1 0x6 DUP3 DUP2 SLOAD DUP2 LT PUSH2 0x55C JUMPI PUSH2 0x55B PUSH2 0xF7D JUMP JUMPDEST JUMPDEST SWAP1 PUSH1 0x0 MSTORE PUSH1 0x20 PUSH1 0x0 KECCAK256 SWAP1 PUSH1 0x7 MUL ADD PUSH1 0x6 ADD PUSH1 0x0 CALLER PUSH20 0xFFFFFFFFFFFFFFFFFFFFFFFFFFFFFFFFFFFFFFFF AND PUSH20 0xFFFFFFFFFFFFFFFFFFFFFFFFFFFFFFFFFFFFFFFF AND DUP2 MSTORE PUSH1 0x20 ADD SWAP1 DUP2 MSTORE PUSH1 0x20 ADD PUSH1 0x0 KECCAK256 PUSH1 0x0 SWAP1 SLOAD SWAP1 PUSH2 0x100 EXP SWAP1 DIV PUSH1 0xFF AND ISZERO PUSH2 0x5C2 JUMPI PUSH1 0x0 DUP1 REVERT JUMPDEST DUP1 PUSH1 0x6 DUP4 DUP2 SLOAD DUP2 LT PUSH2 0x5D7 JUMPI PUSH2 0x5D6 PUSH2 0xF7D JUMP JUMPDEST JUMPDEST SWAP1 PUSH1 0x0 MSTORE PUSH1 0x20 PUSH1 0x0 KECCAK256 SWAP1 PUSH1 0x7 MUL ADD PUSH1 0x6 ADD PUSH1 0x0 CALLER PUSH20 0xFFFFFFFFFFFFFFFFFFFFFFFFFFFFFFFFFFFFFFFF AND PUSH20 0xFFFFFFFFFFFFFFFFFFFFFFFFFFFFFFFFFFFFFFFF AND DUP2 MSTORE PUSH1 0x20 ADD SWAP1 DUP2 MSTORE PUSH1 0x20 ADD PUSH1 0x0 KECCAK256 PUSH1 0x0 PUSH2 0x100 EXP DUP2 SLOAD DUP2 PUSH1 0xFF MUL NOT AND SWAP1 DUP4 ISZERO ISZERO MUL OR SWAP1 SSTORE POP DUP1 ISZERO PUSH2 0x67E JUMPI PUSH1 0x6 DUP3 DUP2 SLOAD DUP2 LT PUSH2 0x656 JUMPI PUSH2 0x655 PUSH2 0xF7D JUMP JUMPDEST JUMPDEST SWAP1 PUSH1 0x0 MSTORE PUSH1 0x20 PUSH1 0x0 KECCAK256 SWAP1 PUSH1 0x7 MUL ADD PUSH1 0x4 ADD PUSH1 0x0 DUP2 SLOAD DUP1 SWAP3 SWAP2 SWAP1 PUSH2 0x678 SWAP1 PUSH2 0xFAC JUMP JUMPDEST SWAP2 SWAP1 POP SSTORE POP JUMPDEST PUSH1 0x2 PUSH1 0x3 SLOAD PUSH2 0x68D SWAP2 SWAP1 PUSH2 0x1024 JUMP JUMPDEST PUSH1 0x6 DUP4 DUP2 SLOAD DUP2 LT PUSH2 0x6A1 JUMPI PUSH2 0x6A0 PUSH2 0xF7D JUMP JUMPDEST JUMPDEST SWAP1 PUSH1 0x0 MSTORE PUSH1 0x20 PUSH1 0x0 KECCAK256 SWAP1 PUSH1 0x7 MUL ADD PUSH1 0x4 ADD SLOAD GT ISZERO PUSH2 0x7A9 JUMPI PUSH1 0x1 PUSH1 0x6 DUP4 DUP2 SLOAD DUP2 LT PUSH2 0x6CF JUMPI PUSH2 0x6CE PUSH2 0xF7D JUMP JUMPDEST JUMPDEST SWAP1 PUSH1 0x0 MSTORE PUSH1 0x20 PUSH1 0x0 KECCAK256 SWAP1 PUSH1 0x7 MUL ADD PUSH1 0x5 ADD PUSH1 0x0 PUSH2 0x100 EXP DUP2 SLOAD DUP2 PUSH1 0xFF MUL NOT AND SWAP1 DUP4 ISZERO ISZERO MUL OR SWAP1 SSTORE POP PUSH1 0x6 DUP3 DUP2 SLOAD DUP2 LT PUSH2 0x70B JUMPI PUSH2 0x70A PUSH2 0xF7D JUMP JUMPDEST JUMPDEST SWAP1 PUSH1 0x0 MSTORE PUSH1 0x20 PUSH1 0x0 KECCAK256 SWAP1 PUSH1 0x7 MUL ADD PUSH1 0x3 ADD PUSH1 0x0 SWAP1 SLOAD SWAP1 PUSH2 0x100 EXP SWAP1 DIV PUSH20 0xFFFFFFFFFFFFFFFFFFFFFFFFFFFFFFFFFFFFFFFF AND PUSH20 0xFFFFFFFFFFFFFFFFFFFFFFFFFFFFFFFFFFFFFFFF AND PUSH2 0x8FC PUSH1 0x6 DUP5 DUP2 SLOAD DUP2 LT PUSH2 0x76A JUMPI PUSH2 0x769 PUSH2 0xF7D JUMP JUMPDEST JUMPDEST SWAP1 PUSH1 0x0 MSTORE PUSH1 0x20 PUSH1 0x0 KECCAK256 SWAP1 PUSH1 0x7 MUL ADD PUSH1 0x2 ADD SLOAD SWAP1 DUP2 ISZERO MUL SWAP1 PUSH1 0x40 MLOAD PUSH1 0x0 PUSH1 0x40 MLOAD DUP1 DUP4 SUB DUP2 DUP6 DUP9 DUP9 CALL SWAP4 POP POP POP POP ISZERO DUP1 ISZERO PUSH2 0x7A7 JUMPI RETURNDATASIZE PUSH1 0x0 DUP1 RETURNDATACOPY RETURNDATASIZE PUSH1 0x0 REVERT JUMPDEST POP JUMPDEST POP POP JUMP JUMPDEST PUSH1 0x6 DUP2 DUP2 SLOAD DUP2 LT PUSH2 0x7BD JUMPI PUSH1 0x0 DUP1 REVERT JUMPDEST SWAP1 PUSH1 0x0 MSTORE PUSH1 0x20 PUSH1 0x0 KECCAK256 SWAP1 PUSH1 0x7 MUL ADD PUSH1 0x0 SWAP2 POP SWAP1 POP DUP1 PUSH1 0x0 ADD SLOAD SWAP1 DUP1 PUSH1 0x1 ADD DUP1 SLOAD PUSH2 0x7E6 SWAP1 PUSH2 0xEC6 JUMP JUMPDEST DUP1 PUSH1 0x1F ADD PUSH1 0x20 DUP1 SWAP2 DIV MUL PUSH1 0x20 ADD PUSH1 0x40 MLOAD SWAP1 DUP2 ADD PUSH1 0x40 MSTORE DUP1 SWAP3 SWAP2 SWAP1 DUP2 DUP2 MSTORE PUSH1 0x20 ADD DUP3 DUP1 SLOAD PUSH2 0x812 SWAP1 PUSH2 0xEC6 JUMP JUMPDEST DUP1 ISZERO PUSH2 0x85F JUMPI DUP1 PUSH1 0x1F LT PUSH2 0x834 JUMPI PUSH2 0x100 DUP1 DUP4 SLOAD DIV MUL DUP4 MSTORE SWAP2 PUSH1 0x20 ADD SWAP2 PUSH2 0x85F JUMP JUMPDEST DUP3 ADD SWAP2 SWAP1 PUSH1 0x0 MSTORE PUSH1 0x20 PUSH1 0x0 KECCAK256 SWAP1 JUMPDEST DUP2 SLOAD DUP2 MSTORE SWAP1 PUSH1 0x1 ADD SWAP1 PUSH1 0x20 ADD DUP1 DUP4 GT PUSH2 0x842 JUMPI DUP3 SWAP1 SUB PUSH1 0x1F AND DUP3 ADD SWAP2 JUMPDEST POP POP POP POP POP SWAP1 DUP1 PUSH1 0x2 ADD SLOAD SWAP1 DUP1 PUSH1 0x3 ADD PUSH1 0x0 SWAP1 SLOAD SWAP1 PUSH2 0x100 EXP SWAP1 DIV PUSH20 0xFFFFFFFFFFFFFFFFFFFFFFFFFFFFFFFFFFFFFFFF AND SWAP1 DUP1 PUSH1 0x4 ADD SLOAD SWAP1 DUP1 PUSH1 0x5 ADD PUSH1 0x0 SWAP1 SLOAD SWAP1 PUSH2 0x100 EXP SWAP1 DIV PUSH1 0xFF AND SWAP1 POP DUP7 JUMP JUMPDEST PUSH1 0x5 SLOAD DUP2 JUMP JUMPDEST PUSH1 0x5 SLOAD CALLVALUE LT ISZERO PUSH2 0x8C3 JUMPI PUSH1 0x0 DUP1 REVERT JUMPDEST PUSH1 0x3 PUSH1 0x0 DUP2 SLOAD DUP1 SWAP3 SWAP2 SWAP1 PUSH2 0x8D6 SWAP1 PUSH2 0xFAC JUMP JUMPDEST SWAP2 SWAP1 POP SSTORE POP PUSH1 0x1 PUSH1 0x7 PUSH1 0x0 CALLER PUSH20 0xFFFFFFFFFFFFFFFFFFFFFFFFFFFFFFFFFFFFFFFF AND PUSH20 0xFFFFFFFFFFFFFFFFFFFFFFFFFFFFFFFFFFFFFFFF AND DUP2 MSTORE PUSH1 0x20 ADD SWAP1 DUP2 MSTORE PUSH1 0x20 ADD PUSH1 0x0 KECCAK256 PUSH1 0x0 PUSH2 0x100 EXP DUP2 SLOAD DUP2 PUSH1 0xFF MUL NOT AND SWAP1 DUP4 ISZERO ISZERO MUL OR SWAP1 SSTORE POP JUMP JUMPDEST DUP3 DUP1 SLOAD PUSH2 0x941 SWAP1 PUSH2 0xEC6 JUMP JUMPDEST SWAP1 PUSH1 0x0 MSTORE PUSH1 0x20 PUSH1 0x0 KECCAK256 SWAP1 PUSH1 0x1F ADD PUSH1 0x20 SWAP1 DIV DUP2 ADD SWAP3 DUP3 PUSH2 0x963 JUMPI PUSH1 0x0 DUP6 SSTORE PUSH2 0x9AA JUMP JUMPDEST DUP3 PUSH1 0x1F LT PUSH2 0x97C JUMPI DUP1 MLOAD PUSH1 0xFF NOT AND DUP4 DUP1 ADD OR DUP6 SSTORE PUSH2 0x9AA JUMP JUMPDEST DUP3 DUP1 ADD PUSH1 0x1 ADD DUP6 SSTORE DUP3 ISZERO PUSH2 0x9AA JUMPI SWAP2 DUP3 ADD JUMPDEST DUP3 DUP2 GT ISZERO PUSH2 0x9A9 JUMPI DUP3 MLOAD DUP3 SSTORE SWAP2 PUSH1 0x20 ADD SWAP2 SWAP1 PUSH1 0x1 ADD SWAP1 PUSH2 0x98E JUMP JUMPDEST JUMPDEST POP SWAP1 POP PUSH2 0x9B7 SWAP2 SWAP1 PUSH2 0x9BB JUMP JUMPDEST POP SWAP1 JUMP JUMPDEST JUMPDEST DUP1 DUP3 GT ISZERO PUSH2 0x9D4 JUMPI PUSH1 0x0 DUP2 PUSH1 0x0 SWAP1 SSTORE POP PUSH1 0x1 ADD PUSH2 0x9BC JUMP JUMPDEST POP SWAP1 JUMP JUMPDEST PUSH1 0x0 DUP2 MLOAD SWAP1 POP SWAP2 SWAP1 POP JUMP JUMPDEST PUSH1 0x0 DUP3 DUP3 MSTORE PUSH1 0x20 DUP3 ADD SWAP1 POP SWAP3 SWAP2 POP POP JUMP JUMPDEST PUSH1 0x0 JUMPDEST DUP4 DUP2 LT ISZERO PUSH2 0xA12 JUMPI DUP1 DUP3 ADD MLOAD DUP2 DUP5 ADD MSTORE PUSH1 0x20 DUP2 ADD SWAP1 POP PUSH2 0x9F7 JUMP JUMPDEST DUP4 DUP2 GT ISZERO PUSH2 0xA21 JUMPI PUSH1 0x0 DUP5 DUP5 ADD MSTORE JUMPDEST POP POP POP POP JUMP JUMPDEST PUSH1 0x0 PUSH1 0x1F NOT PUSH1 0x1F DUP4 ADD AND SWAP1 POP SWAP2 SWAP1 POP JUMP JUMPDEST PUSH1 0x0 PUSH2 0xA43 DUP3 PUSH2 0x9D8 JUMP JUMPDEST PUSH2 0xA4D DUP2 DUP6 PUSH2 0x9E3 JUMP JUMPDEST SWAP4 POP PUSH2 0xA5D DUP2 DUP6 PUSH1 0x20 DUP7 ADD PUSH2 0x9F4 JUMP JUMPDEST PUSH2 0xA66 DUP2 PUSH2 0xA27 JUMP JUMPDEST DUP5 ADD SWAP2 POP POP SWAP3 SWAP2 POP POP JUMP JUMPDEST PUSH1 0x0 PUSH1 0x20 DUP3 ADD SWAP1 POP DUP2 DUP2 SUB PUSH1 0x0 DUP4 ADD MSTORE PUSH2 0xA8B DUP2 DUP5 PUSH2 0xA38 JUMP JUMPDEST SWAP1 POP SWAP3 SWAP2 POP POP JUMP JUMPDEST PUSH1 0x0 PUSH1 0x40 MLOAD SWAP1 POP SWAP1 JUMP JUMPDEST PUSH1 0x0 DUP1 REVERT JUMPDEST PUSH1 0x0 DUP1 REVERT JUMPDEST PUSH1 0x0 PUSH20 0xFFFFFFFFFFFFFFFFFFFFFFFFFFFFFFFFFFFFFFFF DUP3 AND SWAP1 POP SWAP2 SWAP1 POP JUMP JUMPDEST PUSH1 0x0 PUSH2 0xAD2 DUP3 PUSH2 0xAA7 JUMP JUMPDEST SWAP1 POP SWAP2 SWAP1 POP JUMP JUMPDEST PUSH2 0xAE2 DUP2 PUSH2 0xAC7 JUMP JUMPDEST DUP2 EQ PUSH2 0xAED JUMPI PUSH1 0x0 DUP1 REVERT JUMPDEST POP JUMP JUMPDEST PUSH1 0x0 DUP2 CALLDATALOAD SWAP1 POP PUSH2 0xAFF DUP2 PUSH2 0xAD9 JUMP JUMPDEST SWAP3 SWAP2 POP POP JUMP JUMPDEST PUSH1 0x0 PUSH1 0x20 DUP3 DUP5 SUB SLT ISZERO PUSH2 0xB1B JUMPI PUSH2 0xB1A PUSH2 0xA9D JUMP JUMPDEST JUMPDEST PUSH1 0x0 PUSH2 0xB29 DUP5 DUP3 DUP6 ADD PUSH2 0xAF0 JUMP JUMPDEST SWAP2 POP POP SWAP3 SWAP2 POP POP JUMP JUMPDEST PUSH1 0x0 DUP2 ISZERO ISZERO SWAP1 POP SWAP2 SWAP1 POP JUMP JUMPDEST PUSH2 0xB47 DUP2 PUSH2 0xB32 JUMP JUMPDEST DUP3 MSTORE POP POP JUMP JUMPDEST PUSH1 0x0 PUSH1 0x20 DUP3 ADD SWAP1 POP PUSH2 0xB62 PUSH1 0x0 DUP4 ADD DUP5 PUSH2 0xB3E JUMP JUMPDEST SWAP3 SWAP2 POP POP JUMP JUMPDEST PUSH1 0x0 DUP1 REVERT JUMPDEST PUSH1 0x0 DUP1 REVERT JUMPDEST PUSH32 0x4E487B7100000000000000000000000000000000000000000000000000000000 PUSH1 0x0 MSTORE PUSH1 0x41 PUSH1 0x4 MSTORE PUSH1 0x24 PUSH1 0x0 REVERT JUMPDEST PUSH2 0xBAA DUP3 PUSH2 0xA27 JUMP JUMPDEST DUP2 ADD DUP2 DUP2 LT PUSH8 0xFFFFFFFFFFFFFFFF DUP3 GT OR ISZERO PUSH2 0xBC9 JUMPI PUSH2 0xBC8 PUSH2 0xB72 JUMP JUMPDEST JUMPDEST DUP1 PUSH1 0x40 MSTORE POP POP POP JUMP JUMPDEST PUSH1 0x0 PUSH2 0xBDC PUSH2 0xA93 JUMP JUMPDEST SWAP1 POP PUSH2 0xBE8 DUP3 DUP3 PUSH2 0xBA1 JUMP JUMPDEST SWAP2 SWAP1 POP JUMP JUMPDEST PUSH1 0x0 PUSH8 0xFFFFFFFFFFFFFFFF DUP3 GT ISZERO PUSH2 0xC08 JUMPI PUSH2 0xC07 PUSH2 0xB72 JUMP JUMPDEST JUMPDEST PUSH2 0xC11 DUP3 PUSH2 0xA27 JUMP JUMPDEST SWAP1 POP PUSH1 0x20 DUP2 ADD SWAP1 POP SWAP2 SWAP1 POP JUMP JUMPDEST DUP3 DUP2 DUP4 CALLDATACOPY PUSH1 0x0 DUP4 DUP4 ADD MSTORE POP POP POP JUMP JUMPDEST PUSH1 0x0 PUSH2 0xC40 PUSH2 0xC3B DUP5 PUSH2 0xBED JUMP JUMPDEST PUSH2 0xBD2 JUMP JUMPDEST SWAP1 POP DUP3 DUP2 MSTORE PUSH1 0x20 DUP2 ADD DUP5 DUP5 DUP5 ADD GT ISZERO PUSH2 0xC5C JUMPI PUSH2 0xC5B PUSH2 0xB6D JUMP JUMPDEST JUMPDEST PUSH2 0xC67 DUP5 DUP3 DUP6 PUSH2 0xC1E JUMP JUMPDEST POP SWAP4 SWAP3 POP POP POP JUMP JUMPDEST PUSH1 0x0 DUP3 PUSH1 0x1F DUP4 ADD SLT PUSH2 0xC84 JUMPI PUSH2 0xC83 PUSH2 0xB68 JUMP JUMPDEST JUMPDEST DUP2 CALLDATALOAD PUSH2 0xC94 DUP5 DUP3 PUSH1 0x20 DUP7 ADD PUSH2 0xC2D JUMP JUMPDEST SWAP2 POP POP SWAP3 SWAP2 POP POP JUMP JUMPDEST PUSH1 0x0 DUP2 SWAP1 POP SWAP2 SWAP1 POP JUMP JUMPDEST PUSH2 0xCB0 DUP2 PUSH2 0xC9D JUMP JUMPDEST DUP2 EQ PUSH2 0xCBB JUMPI PUSH1 0x0 DUP1 REVERT JUMPDEST POP JUMP JUMPDEST PUSH1 0x0 DUP2 CALLDATALOAD SWAP1 POP PUSH2 0xCCD DUP2 PUSH2 0xCA7 JUMP JUMPDEST SWAP3 SWAP2 POP POP JUMP JUMPDEST PUSH1 0x0 DUP1 PUSH1 0x0 PUSH1 0x60 DUP5 DUP7 SUB SLT ISZERO PUSH2 0xCEC JUMPI PUSH2 0xCEB PUSH2 0xA9D JUMP JUMPDEST JUMPDEST PUSH1 0x0 DUP5 ADD CALLDATALOAD PUSH8 0xFFFFFFFFFFFFFFFF DUP2 GT ISZERO PUSH2 0xD0A JUMPI PUSH2 0xD09 PUSH2 0xAA2 JUMP JUMPDEST JUMPDEST PUSH2 0xD16 DUP7 DUP3 DUP8 ADD PUSH2 0xC6F JUMP JUMPDEST SWAP4 POP POP PUSH1 0x20 PUSH2 0xD27 DUP7 DUP3 DUP8 ADD PUSH2 0xCBE JUMP JUMPDEST SWAP3 POP POP PUSH1 0x40 PUSH2 0xD38 DUP7 DUP3 DUP8 ADD PUSH2 0xAF0 JUMP JUMPDEST SWAP2 POP POP SWAP3 POP SWAP3 POP SWAP3 JUMP JUMPDEST PUSH2 0xD4B DUP2 PUSH2 0xAC7 JUMP JUMPDEST DUP3 MSTORE POP POP JUMP JUMPDEST PUSH1 0x0 PUSH1 0x20 DUP3 ADD SWAP1 POP PUSH2 0xD66 PUSH1 0x0 DUP4 ADD DUP5 PUSH2 0xD42 JUMP JUMPDEST SWAP3 SWAP2 POP POP JUMP JUMPDEST PUSH2 0xD75 DUP2 PUSH2 0xB32 JUMP JUMPDEST DUP2 EQ PUSH2 0xD80 JUMPI PUSH1 0x0 DUP1 REVERT JUMPDEST POP JUMP JUMPDEST PUSH1 0x0 DUP2 CALLDATALOAD SWAP1 POP PUSH2 0xD92 DUP2 PUSH2 0xD6C JUMP JUMPDEST SWAP3 SWAP2 POP POP JUMP JUMPDEST PUSH1 0x0 DUP1 PUSH1 0x40 DUP4 DUP6 SUB SLT ISZERO PUSH2 0xDAF JUMPI PUSH2 0xDAE PUSH2 0xA9D JUMP JUMPDEST JUMPDEST PUSH1 0x0 PUSH2 0xDBD DUP6 DUP3 DUP7 ADD PUSH2 0xCBE JUMP JUMPDEST SWAP3 POP POP PUSH1 0x20 PUSH2 0xDCE DUP6 DUP3 DUP7 ADD PUSH2 0xD83 JUMP JUMPDEST SWAP2 POP POP SWAP3 POP SWAP3 SWAP1 POP JUMP JUMPDEST PUSH1 0x0 PUSH1 0x20 DUP3 DUP5 SUB SLT ISZERO PUSH2 0xDEE JUMPI PUSH2 0xDED PUSH2 0xA9D JUMP JUMPDEST JUMPDEST PUSH1 0x0 PUSH2 0xDFC DUP5 DUP3 DUP6 ADD PUSH2 0xCBE JUMP JUMPDEST SWAP2 POP POP SWAP3 SWAP2 POP POP JUMP JUMPDEST PUSH2 0xE0E DUP2 PUSH2 0xC9D JUMP JUMPDEST DUP3 MSTORE POP POP JUMP JUMPDEST PUSH1 0x0 PUSH1 0xC0 DUP3 ADD SWAP1 POP PUSH2 0xE29 PUSH1 0x0 DUP4 ADD DUP10 PUSH2 0xE05 JUMP JUMPDEST DUP2 DUP2 SUB PUSH1 0x20 DUP4 ADD MSTORE PUSH2 0xE3B DUP2 DUP9 PUSH2 0xA38 JUMP JUMPDEST SWAP1 POP PUSH2 0xE4A PUSH1 0x40 DUP4 ADD DUP8 PUSH2 0xE05 JUMP JUMPDEST PUSH2 0xE57 PUSH1 0x60 DUP4 ADD DUP7 PUSH2 0xD42 JUMP JUMPDEST PUSH2 0xE64 PUSH1 0x80 DUP4 ADD DUP6 PUSH2 0xE05 JUMP JUMPDEST PUSH2 0xE71 PUSH1 0xA0 DUP4 ADD DUP5 PUSH2 0xB3E JUMP JUMPDEST SWAP8 SWAP7 POP POP POP POP POP POP POP JUMP JUMPDEST PUSH1 0x0 PUSH1 0x20 DUP3 ADD SWAP1 POP PUSH2 0xE91 PUSH1 0x0 DUP4 ADD DUP5 PUSH2 0xE05 JUMP JUMPDEST SWAP3 SWAP2 POP POP JUMP JUMPDEST PUSH32 0x4E487B7100000000000000000000000000000000000000000000000000000000 PUSH1 0x0 MSTORE PUSH1 0x22 PUSH1 0x4 MSTORE PUSH1 0x24 PUSH1 0x0 REVERT JUMPDEST PUSH1 0x0 PUSH1 0x2 DUP3 DIV SWAP1 POP PUSH1 0x1 DUP3 AND DUP1 PUSH2 0xEDE JUMPI PUSH1 0x7F DUP3 AND SWAP2 POP JUMPDEST PUSH1 0x20 DUP3 LT DUP2 EQ ISZERO PUSH2 0xEF2 JUMPI PUSH2 0xEF1 PUSH2 0xE97 JUMP JUMPDEST JUMPDEST POP SWAP2 SWAP1 POP JUMP JUMPDEST PUSH32 0x4E487B7100000000000000000000000000000000000000000000000000000000 PUSH1 0x0 MSTORE PUSH1 0x11 PUSH1 0x4 MSTORE PUSH1 0x24 PUSH1 0x0 REVERT JUMPDEST PUSH1 0x0 PUSH2 0xF32 DUP3 PUSH2 0xC9D JUMP JUMPDEST SWAP2 POP PUSH2 0xF3D DUP4 PUSH2 0xC9D JUMP JUMPDEST SWAP3 POP DUP3 PUSH32 0xFFFFFFFFFFFFFFFFFFFFFFFFFFFFFFFFFFFFFFFFFFFFFFFFFFFFFFFFFFFFFFFF SUB DUP3 GT ISZERO PUSH2 0xF72 JUMPI PUSH2 0xF71 PUSH2 0xEF8 JUMP JUMPDEST JUMPDEST DUP3 DUP3 ADD SWAP1 POP SWAP3 SWAP2 POP POP JUMP JUMPDEST PUSH32 0x4E487B7100000000000000000000000000000000000000000000000000000000 PUSH1 0x0 MSTORE PUSH1 0x32 PUSH1 0x4 MSTORE PUSH1 0x24 PUSH1 0x0 REVERT JUMPDEST PUSH1 0x0 PUSH2 0xFB7 DUP3 PUSH2 0xC9D JUMP JUMPDEST SWAP2 POP PUSH32 0xFFFFFFFFFFFFFFFFFFFFFFFFFFFFFFFFFFFFFFFFFFFFFFFFFFFFFFFFFFFFFFFF DUP3 EQ ISZERO PUSH2 0xFEA JUMPI PUSH2 0xFE9 PUSH2 0xEF8 JUMP JUMPDEST JUMPDEST PUSH1 0x1 DUP3 ADD SWAP1 POP SWAP2 SWAP1 POP JUMP JUMPDEST PUSH32 0x4E487B7100000000000000000000000000000000000000000000000000000000 PUSH1 0x0 MSTORE PUSH1 0x12 PUSH1 0x4 MSTORE PUSH1 0x24 PUSH1 0x0 REVERT JUMPDEST PUSH1 0x0 PUSH2 0x102F DUP3 PUSH2 0xC9D JUMP JUMPDEST SWAP2 POP PUSH2 0x103A DUP4 PUSH2 0xC9D JUMP JUMPDEST SWAP3 POP DUP3 PUSH2 0x104A JUMPI PUSH2 0x1049 PUSH2 0xFF5 JUMP JUMPDEST JUMPDEST DUP3 DUP3 DIV SWAP1 POP SWAP3 SWAP2 POP POP JUMP INVALID LOG2 PUSH5 0x6970667358 0x22 SLT KECCAK256 SWAP12 MULMOD SWAP8 SSTORE 0xCD 0x28 NOT CALLER 0x2C MSTORE8 0x1F 0x5D 0xCA 0xED 0xCE SLT PUSH19 0xBC537A94BE8784FD787235657E830E64736F6C PUSH4 0x4300080B STOP CALLER "},"gasEstimates":{"creation":{"codeDepositCost":"847000","executionCost":"infinite","totalCost":"infinite"},"external":{"approvers(address)":"2868","aproveRequest(uint256,bool)":"infinite","contribute()":"51049","description()":"infinite","makeRequest(string,uint256,address)":"infinite","manager()":"2581","minContribution()":"2495","name()":"infinite","requests(uint256)":"infinite"}},"methodIdentifiers":{"approvers(address)":"0a144391","aproveRequest(uint256,bool)":"75f66b77","contribute()":"d7bb99ba","description()":"7284e416","makeRequest(string,uint256,address)":"0bfd66c9","manager()":"481c6a75","minContribution()":"aaffadf3","name()":"06fdde03","requests(uint256)":"81d12c58"}},"storageLayout":{"storage":[{"astId":64,"contract":"campaing.sol:Campaing","label":"name","offset":0,"slot":"0","type":"t_string_storage"},{"astId":66,"contract":"campaing.sol:Campaing","label":"description","offset":0,"slot":"1","type":"t_string_storage"},{"astId":68,"contract":"campaing.sol:Campaing","label":"count_requests","offset":0,"slot":"2","type":"t_uint256"},{"astId":70,"contract":"campaing.sol:Campaing","label":"contributors","offset":0,"slot":"3","type":"t_uint256"},{"astId":72,"contract":"campaing.sol:Campaing","label":"manager","offset":0,"slot":"4","type":"t_address"},{"astId":74,"contract":"campaing.sol:Campaing","label":"minContribution","offset":0,"slot":"5","type":"t_uint256"},{"astId":78,"contract":"campaing.sol:Campaing","label":"requests","offset":0,"slot":"6","type":"t_array(t_struct(Request)62_storage)dyn_storage"},{"astId":82,"contract":"campaing.sol:Campaing","label":"approvers","offset":0,"slot":"7","type":"t_mapping(t_address,t_bool)"}],"types":{"t_address":{"encoding":"inplace","label":"address","numberOfBytes":"20"},"t_array(t_struct(Request)62_storage)dyn_storage":{"base":"t_struct(Request)62_storage","encoding":"dynamic_array","label":"struct Campaing.Request[]","numberOfBytes":"32"},"t_bool":{"encoding":"inplace","label":"bool","numberOfBytes":"1"},"t_mapping(t_address,t_bool)":{"encoding":"mapping","key":"t_address","label":"mapping(address => bool)","numberOfBytes":"32","value":"t_bool"},"t_string_storage":{"encoding":"bytes","label":"string","numberOfBytes":"32"},"t_struct(Request)62_storage":{"encoding":"inplace","label":"struct Campaing.Request","members":[{"astId":47,"contract":"campaing.sol:Campaing","label":"id","offset":0,"slot":"0","type":"t_uint256"},{"astId":49,"contract":"campaing.sol:Campaing","label":"description","offset":0,"slot":"1","type":"t_string_storage"},{"astId":51,"contract":"campaing.sol:Campaing","label":"value","offset":0,"slot":"2","type":"t_uint256"},{"astId":53,"contract":"campaing.sol:Campaing","label":"recipent","offset":0,"slot":"3","type":"t_address"},{"astId":55,"contract":"campaing.sol:Campaing","label":"vote_yes","offset":0,"slot":"4","type":"t_uint256"},{"astId":57,"contract":"campaing.sol:Campaing","label":"complete","offset":0,"slot":"5","type":"t_bool"},{"astId":61,"contract":"campaing.sol:Campaing","label":"approvals","offset":0,"slot":"6","type":"t_mapping(t_address,t_bool)"}],"numberOfBytes":"224"},"t_uint256":{"encoding":"inplace","label":"uint256","numberOfBytes":"32"}}},"userdoc":{"kind":"user","methods":{},"version":1}}