{"abi":[{"inputs":[{"internalType":"uint256","name":"","type":"uint256"}],"name":"campaings","outputs":[{"internalType":"contract Campaing","name":"","type":"address"}],"stateMutability":"view","type":"function"},{"inputs":[{"internalType":"uint256","name":"min","type":"uint256"}],"name":"createCampaing","outputs":[],"stateMutability":"nonpayable","type":"function"},{"inputs":[],"name":"getCampaings","outputs":[{"internalType":"contract Campaing[]","name":"","type":"address[]"}],"stateMutability":"view","type":"function"}],"devdoc":{"kind":"dev","methods":{},"version":1},"evm":{"assembly":"    /* \"campaing.sol\":83:416  contract CampaingFactory {... */\n  mstore(0x40, 0x80)\n  callvalue\n  dup1\n  iszero\n  tag_1\n  jumpi\n  0x00\n  dup1\n  revert\ntag_1:\n  pop\n  dataSize(sub_0)\n  dup1\n  dataOffset(sub_0)\n  0x00\n  codecopy\n  0x00\n  return\nstop\n\nsub_0: assembly {\n        /* \"campaing.sol\":83:416  contract CampaingFactory {... */\n      mstore(0x40, 0x80)\n      callvalue\n      dup1\n      iszero\n      tag_1\n      jumpi\n      0x00\n      dup1\n      revert\n    tag_1:\n      pop\n      jumpi(tag_2, lt(calldatasize, 0x04))\n      shr(0xe0, calldataload(0x00))\n      dup1\n      0x2a3a4d8a\n      eq\n      tag_3\n      jumpi\n      dup1\n      0xb2395a14\n      eq\n      tag_4\n      jumpi\n      dup1\n      0xcaa04b61\n      eq\n      tag_5\n      jumpi\n    tag_2:\n      0x00\n      dup1\n      revert\n        /* \"campaing.sol\":304:410  function getCampaings() public view returns (Campaing[] memory ) {... */\n    tag_3:\n      tag_6\n      tag_7\n      jump\t// in\n    tag_6:\n      mload(0x40)\n      tag_8\n      swap2\n      swap1\n      tag_9\n      jump\t// in\n    tag_8:\n      mload(0x40)\n      dup1\n      swap2\n      sub\n      swap1\n      return\n        /* \"campaing.sol\":118:145  Campaing[] public campaings */\n    tag_4:\n      tag_10\n      0x04\n      dup1\n      calldatasize\n      sub\n      dup2\n      add\n      swap1\n      tag_11\n      swap2\n      swap1\n      tag_12\n      jump\t// in\n    tag_11:\n      tag_13\n      jump\t// in\n    tag_10:\n      mload(0x40)\n      tag_14\n      swap2\n      swap1\n      tag_15\n      jump\t// in\n    tag_14:\n      mload(0x40)\n      dup1\n      swap2\n      sub\n      swap1\n      return\n        /* \"campaing.sol\":156:294  function createCampaing(uint min) public {... */\n    tag_5:\n      tag_16\n      0x04\n      dup1\n      calldatasize\n      sub\n      dup2\n      add\n      swap1\n      tag_17\n      swap2\n      swap1\n      tag_12\n      jump\t// in\n    tag_17:\n      tag_18\n      jump\t// in\n    tag_16:\n      stop\n        /* \"campaing.sol\":304:410  function getCampaings() public view returns (Campaing[] memory ) {... */\n    tag_7:\n        /* \"campaing.sol\":349:366  Campaing[] memory */\n      0x60\n        /* \"campaing.sol\":390:399  campaings */\n      0x00\n        /* \"campaing.sol\":383:399  return campaings */\n      dup1\n      sload\n      dup1\n      0x20\n      mul\n      0x20\n      add\n      mload(0x40)\n      swap1\n      dup2\n      add\n      0x40\n      mstore\n      dup1\n      swap3\n      swap2\n      swap1\n      dup2\n      dup2\n      mstore\n      0x20\n      add\n      dup3\n      dup1\n      sload\n      dup1\n      iszero\n      tag_20\n      jumpi\n      0x20\n      mul\n      dup3\n      add\n      swap2\n      swap1\n      0x00\n      mstore\n      keccak256(0x00, 0x20)\n      swap1\n    tag_21:\n      dup2\n      0x00\n      swap1\n      sload\n      swap1\n      0x0100\n      exp\n      swap1\n      div\n      0xffffffffffffffffffffffffffffffffffffffff\n      and\n      0xffffffffffffffffffffffffffffffffffffffff\n      and\n      dup2\n      mstore\n      0x20\n      add\n      swap1\n      0x01\n      add\n      swap1\n      dup1\n      dup4\n      gt\n      tag_21\n      jumpi\n    tag_20:\n      pop\n      pop\n      pop\n      pop\n      pop\n      swap1\n      pop\n        /* \"campaing.sol\":304:410  function getCampaings() public view returns (Campaing[] memory ) {... */\n      swap1\n      jump\t// out\n        /* \"campaing.sol\":118:145  Campaing[] public campaings */\n    tag_13:\n      0x00\n      dup2\n      dup2\n      sload\n      dup2\n      lt\n      tag_22\n      jumpi\n      0x00\n      dup1\n      revert\n    tag_22:\n      swap1\n      0x00\n      mstore\n      keccak256(0x00, 0x20)\n      add\n      0x00\n      swap2\n      pop\n      sload\n      swap1\n      0x0100\n      exp\n      swap1\n      div\n      0xffffffffffffffffffffffffffffffffffffffff\n      and\n      dup2\n      jump\t// out\n        /* \"campaing.sol\":156:294  function createCampaing(uint min) public {... */\n    tag_18:\n        /* \"campaing.sol\":211:221  Campaing c */\n      0x00\n        /* \"campaing.sol\":237:240  min */\n      dup2\n        /* \"campaing.sol\":241:251  msg.sender */\n      caller\n        /* \"campaing.sol\":224:252  new Campaing(min,msg.sender) */\n      mload(0x40)\n      tag_25\n      swap1\n      tag_26\n      jump\t// in\n    tag_25:\n      tag_27\n      swap3\n      swap2\n      swap1\n      tag_28\n      jump\t// in\n    tag_27:\n      mload(0x40)\n      dup1\n      swap2\n      sub\n      swap1\n      0x00\n      create\n      dup1\n      iszero\n      dup1\n      iszero\n      tag_29\n      jumpi\n      returndatasize\n      0x00\n      dup1\n      returndatacopy\n      revert(0x00, returndatasize)\n    tag_29:\n      pop\n        /* \"campaing.sol\":211:252  Campaing c = new Campaing(min,msg.sender) */\n      swap1\n      pop\n        /* \"campaing.sol\":266:275  campaings */\n      0x00\n        /* \"campaing.sol\":281:282  c */\n      dup2\n        /* \"campaing.sol\":266:283  campaings.push(c) */\n      swap1\n      dup1\n      0x01\n      dup2\n      sload\n      add\n      dup1\n      dup3\n      sstore\n      dup1\n      swap2\n      pop\n      pop\n      0x01\n      swap1\n      sub\n      swap1\n      0x00\n      mstore\n      keccak256(0x00, 0x20)\n      add\n      0x00\n      swap1\n      swap2\n      swap1\n      swap2\n      swap1\n      swap2\n      0x0100\n      exp\n      dup2\n      sload\n      dup2\n      0xffffffffffffffffffffffffffffffffffffffff\n      mul\n      not\n      and\n      swap1\n      dup4\n      0xffffffffffffffffffffffffffffffffffffffff\n      and\n      mul\n      or\n      swap1\n      sstore\n      pop\n        /* \"campaing.sol\":197:294  {... */\n      pop\n        /* \"campaing.sol\":156:294  function createCampaing(uint min) public {... */\n      pop\n      jump\t// out\n    tag_26:\n      dataSize(sub_0)\n      dup1\n      dataOffset(sub_0)\n      dup4\n      codecopy\n      add\n      swap1\n      jump\t// out\n        /* \"#utility.yul\":7:137   */\n    tag_31:\n        /* \"#utility.yul\":90:96   */\n      0x00\n        /* \"#utility.yul\":124:129   */\n      dup2\n        /* \"#utility.yul\":118:130   */\n      mload\n        /* \"#utility.yul\":108:130   */\n      swap1\n      pop\n        /* \"#utility.yul\":7:137   */\n      swap2\n      swap1\n      pop\n      jump\t// out\n        /* \"#utility.yul\":143:327   */\n    tag_32:\n        /* \"#utility.yul\":242:253   */\n      0x00\n        /* \"#utility.yul\":276:282   */\n      dup3\n        /* \"#utility.yul\":271:274   */\n      dup3\n        /* \"#utility.yul\":264:283   */\n      mstore\n        /* \"#utility.yul\":316:320   */\n      0x20\n        /* \"#utility.yul\":311:314   */\n      dup3\n        /* \"#utility.yul\":307:321   */\n      add\n        /* \"#utility.yul\":292:321   */\n      swap1\n      pop\n        /* \"#utility.yul\":143:327   */\n      swap3\n      swap2\n      pop\n      pop\n      jump\t// out\n        /* \"#utility.yul\":333:481   */\n    tag_33:\n        /* \"#utility.yul\":416:420   */\n      0x00\n        /* \"#utility.yul\":439:442   */\n      dup2\n        /* \"#utility.yul\":431:442   */\n      swap1\n      pop\n        /* \"#utility.yul\":469:473   */\n      0x20\n        /* \"#utility.yul\":464:467   */\n      dup3\n        /* \"#utility.yul\":460:474   */\n      add\n        /* \"#utility.yul\":452:474   */\n      swap1\n      pop\n        /* \"#utility.yul\":333:481   */\n      swap2\n      swap1\n      pop\n      jump\t// out\n        /* \"#utility.yul\":487:613   */\n    tag_34:\n        /* \"#utility.yul\":524:531   */\n      0x00\n        /* \"#utility.yul\":564:606   */\n      0xffffffffffffffffffffffffffffffffffffffff\n        /* \"#utility.yul\":557:562   */\n      dup3\n        /* \"#utility.yul\":553:607   */\n      and\n        /* \"#utility.yul\":542:607   */\n      swap1\n      pop\n        /* \"#utility.yul\":487:613   */\n      swap2\n      swap1\n      pop\n      jump\t// out\n        /* \"#utility.yul\":619:679   */\n    tag_35:\n        /* \"#utility.yul\":647:650   */\n      0x00\n        /* \"#utility.yul\":668:673   */\n      dup2\n        /* \"#utility.yul\":661:673   */\n      swap1\n      pop\n        /* \"#utility.yul\":619:679   */\n      swap2\n      swap1\n      pop\n      jump\t// out\n        /* \"#utility.yul\":685:827   */\n    tag_36:\n        /* \"#utility.yul\":735:744   */\n      0x00\n        /* \"#utility.yul\":768:821   */\n      tag_60\n        /* \"#utility.yul\":786:820   */\n      tag_61\n        /* \"#utility.yul\":795:819   */\n      tag_62\n        /* \"#utility.yul\":813:818   */\n      dup5\n        /* \"#utility.yul\":795:819   */\n      tag_34\n      jump\t// in\n    tag_62:\n        /* \"#utility.yul\":786:820   */\n      tag_35\n      jump\t// in\n    tag_61:\n        /* \"#utility.yul\":768:821   */\n      tag_34\n      jump\t// in\n    tag_60:\n        /* \"#utility.yul\":755:821   */\n      swap1\n      pop\n        /* \"#utility.yul\":685:827   */\n      swap2\n      swap1\n      pop\n      jump\t// out\n        /* \"#utility.yul\":833:959   */\n    tag_37:\n        /* \"#utility.yul\":883:892   */\n      0x00\n        /* \"#utility.yul\":916:953   */\n      tag_64\n        /* \"#utility.yul\":947:952   */\n      dup3\n        /* \"#utility.yul\":916:953   */\n      tag_36\n      jump\t// in\n    tag_64:\n        /* \"#utility.yul\":903:953   */\n      swap1\n      pop\n        /* \"#utility.yul\":833:959   */\n      swap2\n      swap1\n      pop\n      jump\t// out\n        /* \"#utility.yul\":965:1107   */\n    tag_38:\n        /* \"#utility.yul\":1031:1040   */\n      0x00\n        /* \"#utility.yul\":1064:1101   */\n      tag_66\n        /* \"#utility.yul\":1095:1100   */\n      dup3\n        /* \"#utility.yul\":1064:1101   */\n      tag_37\n      jump\t// in\n    tag_66:\n        /* \"#utility.yul\":1051:1101   */\n      swap1\n      pop\n        /* \"#utility.yul\":965:1107   */\n      swap2\n      swap1\n      pop\n      jump\t// out\n        /* \"#utility.yul\":1113:1266   */\n    tag_39:\n        /* \"#utility.yul\":1206:1259   */\n      tag_68\n        /* \"#utility.yul\":1253:1258   */\n      dup2\n        /* \"#utility.yul\":1206:1259   */\n      tag_38\n      jump\t// in\n    tag_68:\n        /* \"#utility.yul\":1201:1204   */\n      dup3\n        /* \"#utility.yul\":1194:1260   */\n      mstore\n        /* \"#utility.yul\":1113:1266   */\n      pop\n      pop\n      jump\t// out\n        /* \"#utility.yul\":1272:1483   */\n    tag_40:\n        /* \"#utility.yul\":1357:1367   */\n      0x00\n        /* \"#utility.yul\":1378:1440   */\n      tag_70\n        /* \"#utility.yul\":1436:1439   */\n      dup4\n        /* \"#utility.yul\":1428:1434   */\n      dup4\n        /* \"#utility.yul\":1378:1440   */\n      tag_39\n      jump\t// in\n    tag_70:\n        /* \"#utility.yul\":1472:1476   */\n      0x20\n        /* \"#utility.yul\":1467:1470   */\n      dup4\n        /* \"#utility.yul\":1463:1477   */\n      add\n        /* \"#utility.yul\":1449:1477   */\n      swap1\n      pop\n        /* \"#utility.yul\":1272:1483   */\n      swap3\n      swap2\n      pop\n      pop\n      jump\t// out\n        /* \"#utility.yul\":1489:1618   */\n    tag_41:\n        /* \"#utility.yul\":1575:1579   */\n      0x00\n        /* \"#utility.yul\":1607:1611   */\n      0x20\n        /* \"#utility.yul\":1602:1605   */\n      dup3\n        /* \"#utility.yul\":1598:1612   */\n      add\n        /* \"#utility.yul\":1590:1612   */\n      swap1\n      pop\n        /* \"#utility.yul\":1489:1618   */\n      swap2\n      swap1\n      pop\n      jump\t// out\n        /* \"#utility.yul\":1664:2476   */\n    tag_42:\n        /* \"#utility.yul\":1799:1802   */\n      0x00\n        /* \"#utility.yul\":1828:1898   */\n      tag_73\n        /* \"#utility.yul\":1892:1897   */\n      dup3\n        /* \"#utility.yul\":1828:1898   */\n      tag_31\n      jump\t// in\n    tag_73:\n        /* \"#utility.yul\":1914:2000   */\n      tag_74\n        /* \"#utility.yul\":1993:1999   */\n      dup2\n        /* \"#utility.yul\":1988:1991   */\n      dup6\n        /* \"#utility.yul\":1914:2000   */\n      tag_32\n      jump\t// in\n    tag_74:\n        /* \"#utility.yul\":1907:2000   */\n      swap4\n      pop\n        /* \"#utility.yul\":2024:2096   */\n      tag_75\n        /* \"#utility.yul\":2090:2095   */\n      dup4\n        /* \"#utility.yul\":2024:2096   */\n      tag_33\n      jump\t// in\n    tag_75:\n        /* \"#utility.yul\":2119:2126   */\n      dup1\n        /* \"#utility.yul\":2150:2151   */\n      0x00\n        /* \"#utility.yul\":2135:2451   */\n    tag_76:\n        /* \"#utility.yul\":2160:2166   */\n      dup4\n        /* \"#utility.yul\":2157:2158   */\n      dup2\n        /* \"#utility.yul\":2154:2167   */\n      lt\n        /* \"#utility.yul\":2135:2451   */\n      iszero\n      tag_78\n      jumpi\n        /* \"#utility.yul\":2236:2242   */\n      dup2\n        /* \"#utility.yul\":2230:2243   */\n      mload\n        /* \"#utility.yul\":2263:2342   */\n      tag_79\n        /* \"#utility.yul\":2338:2341   */\n      dup9\n        /* \"#utility.yul\":2323:2336   */\n      dup3\n        /* \"#utility.yul\":2263:2342   */\n      tag_40\n      jump\t// in\n    tag_79:\n        /* \"#utility.yul\":2256:2342   */\n      swap8\n      pop\n        /* \"#utility.yul\":2365:2441   */\n      tag_80\n        /* \"#utility.yul\":2434:2440   */\n      dup4\n        /* \"#utility.yul\":2365:2441   */\n      tag_41\n      jump\t// in\n    tag_80:\n        /* \"#utility.yul\":2355:2441   */\n      swap3\n      pop\n        /* \"#utility.yul\":2195:2451   */\n      pop\n        /* \"#utility.yul\":2182:2183   */\n      0x01\n        /* \"#utility.yul\":2179:2180   */\n      dup2\n        /* \"#utility.yul\":2175:2184   */\n      add\n        /* \"#utility.yul\":2170:2184   */\n      swap1\n      pop\n        /* \"#utility.yul\":2135:2451   */\n      jump(tag_76)\n    tag_78:\n        /* \"#utility.yul\":2139:2153   */\n      pop\n        /* \"#utility.yul\":2467:2470   */\n      dup6\n        /* \"#utility.yul\":2460:2470   */\n      swap4\n      pop\n        /* \"#utility.yul\":1804:2476   */\n      pop\n      pop\n      pop\n        /* \"#utility.yul\":1664:2476   */\n      swap3\n      swap2\n      pop\n      pop\n      jump\t// out\n        /* \"#utility.yul\":2482:2887   */\n    tag_9:\n        /* \"#utility.yul\":2641:2645   */\n      0x00\n        /* \"#utility.yul\":2679:2681   */\n      0x20\n        /* \"#utility.yul\":2668:2677   */\n      dup3\n        /* \"#utility.yul\":2664:2682   */\n      add\n        /* \"#utility.yul\":2656:2682   */\n      swap1\n      pop\n        /* \"#utility.yul\":2728:2737   */\n      dup2\n        /* \"#utility.yul\":2722:2726   */\n      dup2\n        /* \"#utility.yul\":2718:2738   */\n      sub\n        /* \"#utility.yul\":2714:2715   */\n      0x00\n        /* \"#utility.yul\":2703:2712   */\n      dup4\n        /* \"#utility.yul\":2699:2716   */\n      add\n        /* \"#utility.yul\":2692:2739   */\n      mstore\n        /* \"#utility.yul\":2756:2880   */\n      tag_82\n        /* \"#utility.yul\":2875:2879   */\n      dup2\n        /* \"#utility.yul\":2866:2872   */\n      dup5\n        /* \"#utility.yul\":2756:2880   */\n      tag_42\n      jump\t// in\n    tag_82:\n        /* \"#utility.yul\":2748:2880   */\n      swap1\n      pop\n        /* \"#utility.yul\":2482:2887   */\n      swap3\n      swap2\n      pop\n      pop\n      jump\t// out\n        /* \"#utility.yul\":2974:3091   */\n    tag_44:\n        /* \"#utility.yul\":3083:3084   */\n      0x00\n        /* \"#utility.yul\":3080:3081   */\n      dup1\n        /* \"#utility.yul\":3073:3085   */\n      revert\n        /* \"#utility.yul\":3220:3297   */\n    tag_46:\n        /* \"#utility.yul\":3257:3264   */\n      0x00\n        /* \"#utility.yul\":3286:3291   */\n      dup2\n        /* \"#utility.yul\":3275:3291   */\n      swap1\n      pop\n        /* \"#utility.yul\":3220:3297   */\n      swap2\n      swap1\n      pop\n      jump\t// out\n        /* \"#utility.yul\":3303:3425   */\n    tag_47:\n        /* \"#utility.yul\":3376:3400   */\n      tag_88\n        /* \"#utility.yul\":3394:3399   */\n      dup2\n        /* \"#utility.yul\":3376:3400   */\n      tag_46\n      jump\t// in\n    tag_88:\n        /* \"#utility.yul\":3369:3374   */\n      dup2\n        /* \"#utility.yul\":3366:3401   */\n      eq\n        /* \"#utility.yul\":3356:3419   */\n      tag_89\n      jumpi\n        /* \"#utility.yul\":3415:3416   */\n      0x00\n        /* \"#utility.yul\":3412:3413   */\n      dup1\n        /* \"#utility.yul\":3405:3417   */\n      revert\n        /* \"#utility.yul\":3356:3419   */\n    tag_89:\n        /* \"#utility.yul\":3303:3425   */\n      pop\n      jump\t// out\n        /* \"#utility.yul\":3431:3570   */\n    tag_48:\n        /* \"#utility.yul\":3477:3482   */\n      0x00\n        /* \"#utility.yul\":3515:3521   */\n      dup2\n        /* \"#utility.yul\":3502:3522   */\n      calldataload\n        /* \"#utility.yul\":3493:3522   */\n      swap1\n      pop\n        /* \"#utility.yul\":3531:3564   */\n      tag_91\n        /* \"#utility.yul\":3558:3563   */\n      dup2\n        /* \"#utility.yul\":3531:3564   */\n      tag_47\n      jump\t// in\n    tag_91:\n        /* \"#utility.yul\":3431:3570   */\n      swap3\n      swap2\n      pop\n      pop\n      jump\t// out\n        /* \"#utility.yul\":3576:3905   */\n    tag_12:\n        /* \"#utility.yul\":3635:3641   */\n      0x00\n        /* \"#utility.yul\":3684:3686   */\n      0x20\n        /* \"#utility.yul\":3672:3681   */\n      dup3\n        /* \"#utility.yul\":3663:3670   */\n      dup5\n        /* \"#utility.yul\":3659:3682   */\n      sub\n        /* \"#utility.yul\":3655:3687   */\n      slt\n        /* \"#utility.yul\":3652:3771   */\n      iszero\n      tag_93\n      jumpi\n        /* \"#utility.yul\":3690:3769   */\n      tag_94\n      tag_44\n      jump\t// in\n    tag_94:\n        /* \"#utility.yul\":3652:3771   */\n    tag_93:\n        /* \"#utility.yul\":3810:3811   */\n      0x00\n        /* \"#utility.yul\":3835:3888   */\n      tag_95\n        /* \"#utility.yul\":3880:3887   */\n      dup5\n        /* \"#utility.yul\":3871:3877   */\n      dup3\n        /* \"#utility.yul\":3860:3869   */\n      dup6\n        /* \"#utility.yul\":3856:3878   */\n      add\n        /* \"#utility.yul\":3835:3888   */\n      tag_48\n      jump\t// in\n    tag_95:\n        /* \"#utility.yul\":3825:3888   */\n      swap2\n      pop\n        /* \"#utility.yul\":3781:3898   */\n      pop\n        /* \"#utility.yul\":3576:3905   */\n      swap3\n      swap2\n      pop\n      pop\n      jump\t// out\n        /* \"#utility.yul\":3911:4074   */\n    tag_49:\n        /* \"#utility.yul\":4014:4067   */\n      tag_97\n        /* \"#utility.yul\":4061:4066   */\n      dup2\n        /* \"#utility.yul\":4014:4067   */\n      tag_38\n      jump\t// in\n    tag_97:\n        /* \"#utility.yul\":4009:4012   */\n      dup3\n        /* \"#utility.yul\":4002:4068   */\n      mstore\n        /* \"#utility.yul\":3911:4074   */\n      pop\n      pop\n      jump\t// out\n        /* \"#utility.yul\":4080:4334   */\n    tag_15:\n        /* \"#utility.yul\":4189:4193   */\n      0x00\n        /* \"#utility.yul\":4227:4229   */\n      0x20\n        /* \"#utility.yul\":4216:4225   */\n      dup3\n        /* \"#utility.yul\":4212:4230   */\n      add\n        /* \"#utility.yul\":4204:4230   */\n      swap1\n      pop\n        /* \"#utility.yul\":4240:4327   */\n      tag_99\n        /* \"#utility.yul\":4324:4325   */\n      0x00\n        /* \"#utility.yul\":4313:4322   */\n      dup4\n        /* \"#utility.yul\":4309:4326   */\n      add\n        /* \"#utility.yul\":4300:4306   */\n      dup5\n        /* \"#utility.yul\":4240:4327   */\n      tag_49\n      jump\t// in\n    tag_99:\n        /* \"#utility.yul\":4080:4334   */\n      swap3\n      swap2\n      pop\n      pop\n      jump\t// out\n        /* \"#utility.yul\":4340:4458   */\n    tag_50:\n        /* \"#utility.yul\":4427:4451   */\n      tag_101\n        /* \"#utility.yul\":4445:4450   */\n      dup2\n        /* \"#utility.yul\":4427:4451   */\n      tag_46\n      jump\t// in\n    tag_101:\n        /* \"#utility.yul\":4422:4425   */\n      dup3\n        /* \"#utility.yul\":4415:4452   */\n      mstore\n        /* \"#utility.yul\":4340:4458   */\n      pop\n      pop\n      jump\t// out\n        /* \"#utility.yul\":4464:4560   */\n    tag_51:\n        /* \"#utility.yul\":4501:4508   */\n      0x00\n        /* \"#utility.yul\":4530:4554   */\n      tag_103\n        /* \"#utility.yul\":4548:4553   */\n      dup3\n        /* \"#utility.yul\":4530:4554   */\n      tag_34\n      jump\t// in\n    tag_103:\n        /* \"#utility.yul\":4519:4554   */\n      swap1\n      pop\n        /* \"#utility.yul\":4464:4560   */\n      swap2\n      swap1\n      pop\n      jump\t// out\n        /* \"#utility.yul\":4566:4684   */\n    tag_52:\n        /* \"#utility.yul\":4653:4677   */\n      tag_105\n        /* \"#utility.yul\":4671:4676   */\n      dup2\n        /* \"#utility.yul\":4653:4677   */\n      tag_51\n      jump\t// in\n    tag_105:\n        /* \"#utility.yul\":4648:4651   */\n      dup3\n        /* \"#utility.yul\":4641:4678   */\n      mstore\n        /* \"#utility.yul\":4566:4684   */\n      pop\n      pop\n      jump\t// out\n        /* \"#utility.yul\":4690:5022   */\n    tag_28:\n        /* \"#utility.yul\":4811:4815   */\n      0x00\n        /* \"#utility.yul\":4849:4851   */\n      0x40\n        /* \"#utility.yul\":4838:4847   */\n      dup3\n        /* \"#utility.yul\":4834:4852   */\n      add\n        /* \"#utility.yul\":4826:4852   */\n      swap1\n      pop\n        /* \"#utility.yul\":4862:4933   */\n      tag_107\n        /* \"#utility.yul\":4930:4931   */\n      0x00\n        /* \"#utility.yul\":4919:4928   */\n      dup4\n        /* \"#utility.yul\":4915:4932   */\n      add\n        /* \"#utility.yul\":4906:4912   */\n      dup6\n        /* \"#utility.yul\":4862:4933   */\n      tag_50\n      jump\t// in\n    tag_107:\n        /* \"#utility.yul\":4943:5015   */\n      tag_108\n        /* \"#utility.yul\":5011:5013   */\n      0x20\n        /* \"#utility.yul\":5000:5009   */\n      dup4\n        /* \"#utility.yul\":4996:5014   */\n      add\n        /* \"#utility.yul\":4987:4993   */\n      dup5\n        /* \"#utility.yul\":4943:5015   */\n      tag_52\n      jump\t// in\n    tag_108:\n        /* \"#utility.yul\":4690:5022   */\n      swap4\n      swap3\n      pop\n      pop\n      pop\n      jump\t// out\n    stop\n\n    sub_0: assembly {\n            /* \"campaing.sol\":422:2547  contract Campaing{... */\n          mstore(0x40, 0x80)\n            /* \"campaing.sol\":1040:1187  constructor(uint _min_contribution,address _manager) {... */\n          callvalue\n          dup1\n          iszero\n          tag_1\n          jumpi\n          0x00\n          dup1\n          revert\n        tag_1:\n          pop\n          mload(0x40)\n          sub(codesize, bytecodeSize)\n          dup1\n          bytecodeSize\n          dup4\n          codecopy\n          dup2\n          dup2\n          add\n          0x40\n          mstore\n          dup2\n          add\n          swap1\n          tag_2\n          swap2\n          swap1\n          tag_3\n          jump\t// in\n        tag_2:\n            /* \"campaing.sol\":1118:1126  _manager */\n          dup1\n            /* \"campaing.sol\":1108:1115  manager */\n          0x02\n          0x00\n            /* \"campaing.sol\":1108:1126  manager = _manager */\n          0x0100\n          exp\n          dup2\n          sload\n          dup2\n          0xffffffffffffffffffffffffffffffffffffffff\n          mul\n          not\n          and\n          swap1\n          dup4\n          0xffffffffffffffffffffffffffffffffffffffff\n          and\n          mul\n          or\n          swap1\n          sstore\n          pop\n            /* \"campaing.sol\":1158:1175  _min_contribution */\n          dup2\n            /* \"campaing.sol\":1140:1155  minContribution */\n          0x03\n            /* \"campaing.sol\":1140:1175  minContribution = _min_contribution */\n          dup2\n          swap1\n          sstore\n          pop\n            /* \"campaing.sol\":1040:1187  constructor(uint _min_contribution,address _manager) {... */\n          pop\n          pop\n            /* \"campaing.sol\":422:2547  contract Campaing{... */\n          jump(tag_6)\n            /* \"#utility.yul\":88:205   */\n        tag_8:\n            /* \"#utility.yul\":197:198   */\n          0x00\n            /* \"#utility.yul\":194:195   */\n          dup1\n            /* \"#utility.yul\":187:199   */\n          revert\n            /* \"#utility.yul\":334:411   */\n        tag_10:\n            /* \"#utility.yul\":371:378   */\n          0x00\n            /* \"#utility.yul\":400:405   */\n          dup2\n            /* \"#utility.yul\":389:405   */\n          swap1\n          pop\n            /* \"#utility.yul\":334:411   */\n          swap2\n          swap1\n          pop\n          jump\t// out\n            /* \"#utility.yul\":417:539   */\n        tag_11:\n            /* \"#utility.yul\":490:514   */\n          tag_23\n            /* \"#utility.yul\":508:513   */\n          dup2\n            /* \"#utility.yul\":490:514   */\n          tag_10\n          jump\t// in\n        tag_23:\n            /* \"#utility.yul\":483:488   */\n          dup2\n            /* \"#utility.yul\":480:515   */\n          eq\n            /* \"#utility.yul\":470:533   */\n          tag_24\n          jumpi\n            /* \"#utility.yul\":529:530   */\n          0x00\n            /* \"#utility.yul\":526:527   */\n          dup1\n            /* \"#utility.yul\":519:531   */\n          revert\n            /* \"#utility.yul\":470:533   */\n        tag_24:\n            /* \"#utility.yul\":417:539   */\n          pop\n          jump\t// out\n            /* \"#utility.yul\":545:688   */\n        tag_12:\n            /* \"#utility.yul\":602:607   */\n          0x00\n            /* \"#utility.yul\":633:639   */\n          dup2\n            /* \"#utility.yul\":627:640   */\n          mload\n            /* \"#utility.yul\":618:640   */\n          swap1\n          pop\n            /* \"#utility.yul\":649:682   */\n          tag_26\n            /* \"#utility.yul\":676:681   */\n          dup2\n            /* \"#utility.yul\":649:682   */\n          tag_11\n          jump\t// in\n        tag_26:\n            /* \"#utility.yul\":545:688   */\n          swap3\n          swap2\n          pop\n          pop\n          jump\t// out\n            /* \"#utility.yul\":694:820   */\n        tag_13:\n            /* \"#utility.yul\":731:738   */\n          0x00\n            /* \"#utility.yul\":771:813   */\n          0xffffffffffffffffffffffffffffffffffffffff\n            /* \"#utility.yul\":764:769   */\n          dup3\n            /* \"#utility.yul\":760:814   */\n          and\n            /* \"#utility.yul\":749:814   */\n          swap1\n          pop\n            /* \"#utility.yul\":694:820   */\n          swap2\n          swap1\n          pop\n          jump\t// out\n            /* \"#utility.yul\":826:922   */\n        tag_14:\n            /* \"#utility.yul\":863:870   */\n          0x00\n            /* \"#utility.yul\":892:916   */\n          tag_29\n            /* \"#utility.yul\":910:915   */\n          dup3\n            /* \"#utility.yul\":892:916   */\n          tag_13\n          jump\t// in\n        tag_29:\n            /* \"#utility.yul\":881:916   */\n          swap1\n          pop\n            /* \"#utility.yul\":826:922   */\n          swap2\n          swap1\n          pop\n          jump\t// out\n            /* \"#utility.yul\":928:1050   */\n        tag_15:\n            /* \"#utility.yul\":1001:1025   */\n          tag_31\n            /* \"#utility.yul\":1019:1024   */\n          dup2\n            /* \"#utility.yul\":1001:1025   */\n          tag_14\n          jump\t// in\n        tag_31:\n            /* \"#utility.yul\":994:999   */\n          dup2\n            /* \"#utility.yul\":991:1026   */\n          eq\n            /* \"#utility.yul\":981:1044   */\n          tag_32\n          jumpi\n            /* \"#utility.yul\":1040:1041   */\n          0x00\n            /* \"#utility.yul\":1037:1038   */\n          dup1\n            /* \"#utility.yul\":1030:1042   */\n          revert\n            /* \"#utility.yul\":981:1044   */\n        tag_32:\n            /* \"#utility.yul\":928:1050   */\n          pop\n          jump\t// out\n            /* \"#utility.yul\":1056:1199   */\n        tag_16:\n            /* \"#utility.yul\":1113:1118   */\n          0x00\n            /* \"#utility.yul\":1144:1150   */\n          dup2\n            /* \"#utility.yul\":1138:1151   */\n          mload\n            /* \"#utility.yul\":1129:1151   */\n          swap1\n          pop\n            /* \"#utility.yul\":1160:1193   */\n          tag_34\n            /* \"#utility.yul\":1187:1192   */\n          dup2\n            /* \"#utility.yul\":1160:1193   */\n          tag_15\n          jump\t// in\n        tag_34:\n            /* \"#utility.yul\":1056:1199   */\n          swap3\n          swap2\n          pop\n          pop\n          jump\t// out\n            /* \"#utility.yul\":1205:1712   */\n        tag_3:\n            /* \"#utility.yul\":1284:1290   */\n          0x00\n            /* \"#utility.yul\":1292:1298   */\n          dup1\n            /* \"#utility.yul\":1341:1343   */\n          0x40\n            /* \"#utility.yul\":1329:1338   */\n          dup4\n            /* \"#utility.yul\":1320:1327   */\n          dup6\n            /* \"#utility.yul\":1316:1339   */\n          sub\n            /* \"#utility.yul\":1312:1344   */\n          slt\n            /* \"#utility.yul\":1309:1428   */\n          iszero\n          tag_36\n          jumpi\n            /* \"#utility.yul\":1347:1426   */\n          tag_37\n          tag_8\n          jump\t// in\n        tag_37:\n            /* \"#utility.yul\":1309:1428   */\n        tag_36:\n            /* \"#utility.yul\":1467:1468   */\n          0x00\n            /* \"#utility.yul\":1492:1556   */\n          tag_38\n            /* \"#utility.yul\":1548:1555   */\n          dup6\n            /* \"#utility.yul\":1539:1545   */\n          dup3\n            /* \"#utility.yul\":1528:1537   */\n          dup7\n            /* \"#utility.yul\":1524:1546   */\n          add\n            /* \"#utility.yul\":1492:1556   */\n          tag_12\n          jump\t// in\n        tag_38:\n            /* \"#utility.yul\":1482:1556   */\n          swap3\n          pop\n            /* \"#utility.yul\":1438:1566   */\n          pop\n            /* \"#utility.yul\":1605:1607   */\n          0x20\n            /* \"#utility.yul\":1631:1695   */\n          tag_39\n            /* \"#utility.yul\":1687:1694   */\n          dup6\n            /* \"#utility.yul\":1678:1684   */\n          dup3\n            /* \"#utility.yul\":1667:1676   */\n          dup7\n            /* \"#utility.yul\":1663:1685   */\n          add\n            /* \"#utility.yul\":1631:1695   */\n          tag_16\n          jump\t// in\n        tag_39:\n            /* \"#utility.yul\":1621:1695   */\n          swap2\n          pop\n            /* \"#utility.yul\":1576:1705   */\n          pop\n            /* \"#utility.yul\":1205:1712   */\n          swap3\n          pop\n          swap3\n          swap1\n          pop\n          jump\t// out\n            /* \"campaing.sol\":422:2547  contract Campaing{... */\n        tag_6:\n          dataSize(sub_0)\n          dup1\n          dataOffset(sub_0)\n          0x00\n          codecopy\n          0x00\n          return\n        stop\n\n        sub_0: assembly {\n                /* \"campaing.sol\":422:2547  contract Campaing{... */\n              mstore(0x40, 0x80)\n              jumpi(tag_1, lt(calldatasize, 0x04))\n              shr(0xe0, calldataload(0x00))\n              dup1\n              0x75f66b77\n              gt\n              tag_9\n              jumpi\n              dup1\n              0x75f66b77\n              eq\n              tag_5\n              jumpi\n              dup1\n              0x81d12c58\n              eq\n              tag_6\n              jumpi\n              dup1\n              0xaaffadf3\n              eq\n              tag_7\n              jumpi\n              dup1\n              0xd7bb99ba\n              eq\n              tag_8\n              jumpi\n              jump(tag_1)\n            tag_9:\n              dup1\n              0x0a144391\n              eq\n              tag_2\n              jumpi\n              dup1\n              0x0bfd66c9\n              eq\n              tag_3\n              jumpi\n              dup1\n              0x481c6a75\n              eq\n              tag_4\n              jumpi\n            tag_1:\n              0x00\n              dup1\n              revert\n                /* \"campaing.sol\":984:1029  mapping(address => bool) public     approvers */\n            tag_2:\n              callvalue\n              dup1\n              iszero\n              tag_10\n              jumpi\n              0x00\n              dup1\n              revert\n            tag_10:\n              pop\n              tag_11\n              0x04\n              dup1\n              calldatasize\n              sub\n              dup2\n              add\n              swap1\n              tag_12\n              swap2\n              swap1\n              tag_13\n              jump\t// in\n            tag_12:\n              tag_14\n              jump\t// in\n            tag_11:\n              mload(0x40)\n              tag_15\n              swap2\n              swap1\n              tag_16\n              jump\t// in\n            tag_15:\n              mload(0x40)\n              dup1\n              swap2\n              sub\n              swap1\n              return\n                /* \"campaing.sol\":1478:1932  function makeRequest(string memory _description, uint  _value,address  _recipent) public restircted{... */\n            tag_3:\n              callvalue\n              dup1\n              iszero\n              tag_17\n              jumpi\n              0x00\n              dup1\n              revert\n            tag_17:\n              pop\n              tag_18\n              0x04\n              dup1\n              calldatasize\n              sub\n              dup2\n              add\n              swap1\n              tag_19\n              swap2\n              swap1\n              tag_20\n              jump\t// in\n            tag_19:\n              tag_21\n              jump\t// in\n            tag_18:\n              stop\n                /* \"campaing.sol\":840:875  address   public            manager */\n            tag_4:\n              callvalue\n              dup1\n              iszero\n              tag_22\n              jumpi\n              0x00\n              dup1\n              revert\n            tag_22:\n              pop\n              tag_23\n              tag_24\n              jump\t// in\n            tag_23:\n              mload(0x40)\n              tag_25\n              swap2\n              swap1\n              tag_26\n              jump\t// in\n            tag_25:\n              mload(0x40)\n              dup1\n              swap2\n              sub\n              swap1\n              return\n                /* \"campaing.sol\":1942:2540  function aproveRequest(uint id,bool vote) public  {... */\n            tag_5:\n              callvalue\n              dup1\n              iszero\n              tag_27\n              jumpi\n              0x00\n              dup1\n              revert\n            tag_27:\n              pop\n              tag_28\n              0x04\n              dup1\n              calldatasize\n              sub\n              dup2\n              add\n              swap1\n              tag_29\n              swap2\n              swap1\n              tag_30\n              jump\t// in\n            tag_29:\n              tag_31\n              jump\t// in\n            tag_28:\n              stop\n                /* \"campaing.sol\":938:974  Request[] public            requests */\n            tag_6:\n              callvalue\n              dup1\n              iszero\n              tag_32\n              jumpi\n              0x00\n              dup1\n              revert\n            tag_32:\n              pop\n              tag_33\n              0x04\n              dup1\n              calldatasize\n              sub\n              dup2\n              add\n              swap1\n              tag_34\n              swap2\n              swap1\n              tag_35\n              jump\t// in\n            tag_34:\n              tag_36\n              jump\t// in\n            tag_33:\n              mload(0x40)\n              tag_37\n              swap7\n              swap6\n              swap5\n              swap4\n              swap3\n              swap2\n              swap1\n              tag_38\n              jump\t// in\n            tag_37:\n              mload(0x40)\n              dup1\n              swap2\n              sub\n              swap1\n              return\n                /* \"campaing.sol\":885:928  uint      public            minContribution */\n            tag_7:\n              callvalue\n              dup1\n              iszero\n              tag_39\n              jumpi\n              0x00\n              dup1\n              revert\n            tag_39:\n              pop\n              tag_40\n              tag_41\n              jump\t// in\n            tag_40:\n              mload(0x40)\n              tag_42\n              swap2\n              swap1\n              tag_43\n              jump\t// in\n            tag_42:\n              mload(0x40)\n              dup1\n              swap2\n              sub\n              swap1\n              return\n                /* \"campaing.sol\":1299:1468  function contribute() public payable {... */\n            tag_8:\n              tag_44\n              tag_45\n              jump\t// in\n            tag_44:\n              stop\n                /* \"campaing.sol\":984:1029  mapping(address => bool) public     approvers */\n            tag_14:\n              mstore(0x20, 0x05)\n              dup1\n              0x00\n              mstore\n              keccak256(0x00, 0x40)\n              0x00\n              swap2\n              pop\n              sload\n              swap1\n              0x0100\n              exp\n              swap1\n              div\n              0xff\n              and\n              dup2\n              jump\t// out\n                /* \"campaing.sol\":1478:1932  function makeRequest(string memory _description, uint  _value,address  _recipent) public restircted{... */\n            tag_21:\n                /* \"campaing.sol\":1255:1262  manager */\n              0x02\n              0x00\n              swap1\n              sload\n              swap1\n              0x0100\n              exp\n              swap1\n              div\n              0xffffffffffffffffffffffffffffffffffffffff\n              and\n                /* \"campaing.sol\":1241:1262  msg.sender == manager */\n              0xffffffffffffffffffffffffffffffffffffffff\n              and\n                /* \"campaing.sol\":1241:1251  msg.sender */\n              caller\n                /* \"campaing.sol\":1241:1262  msg.sender == manager */\n              0xffffffffffffffffffffffffffffffffffffffff\n              and\n              eq\n                /* \"campaing.sol\":1233:1263  require(msg.sender == manager) */\n              tag_47\n              jumpi\n              0x00\n              dup1\n              revert\n            tag_47:\n                /* \"campaing.sol\":1609:1610  1 */\n              0x01\n                /* \"campaing.sol\":1591:1605  count_requests */\n              0x00\n              dup1\n                /* \"campaing.sol\":1591:1610  count_requests += 1 */\n              dup3\n              dup3\n              sload\n              tag_49\n              swap2\n              swap1\n              tag_50\n              jump\t// in\n            tag_49:\n              swap3\n              pop\n              pop\n              dup2\n              swap1\n              sstore\n              pop\n                /* \"campaing.sol\":1641:1662  address(this).balance */\n              selfbalance\n                /* \"campaing.sol\":1632:1638  _value */\n              dup3\n                /* \"campaing.sol\":1632:1662  _value < address(this).balance */\n              lt\n                /* \"campaing.sol\":1624:1663  require(_value < address(this).balance) */\n              tag_51\n              jumpi\n              0x00\n              dup1\n              revert\n            tag_51:\n                /* \"campaing.sol\":1677:1694  Request storage r */\n              0x00\n                /* \"campaing.sol\":1698:1706  requests */\n              0x04\n                /* \"campaing.sol\":1698:1713  requests.push() */\n              0x01\n              dup2\n              0x01\n              dup2\n              sload\n              add\n              dup1\n              dup3\n              sstore\n              dup1\n              swap2\n              pop\n              pop\n              sub\n              swap1\n              0x00\n              mstore\n              keccak256(0x00, 0x20)\n              swap1\n              0x07\n              mul\n              add\n                /* \"campaing.sol\":1677:1713  Request storage r  = requests.push() */\n              swap1\n              pop\n                /* \"campaing.sol\":1734:1748  count_requests */\n              sload(0x00)\n                /* \"campaing.sol\":1727:1728  r */\n              dup2\n                /* \"campaing.sol\":1727:1731  r.id */\n              0x00\n              add\n                /* \"campaing.sol\":1727:1748  r.id = count_requests */\n              dup2\n              swap1\n              sstore\n              pop\n                /* \"campaing.sol\":1779:1791  _description */\n              dup4\n                /* \"campaing.sol\":1762:1763  r */\n              dup2\n                /* \"campaing.sol\":1762:1775  r.description */\n              0x01\n              add\n                /* \"campaing.sol\":1762:1791  r.description =  _description */\n              swap1\n              dup1\n              mload\n              swap1\n              0x20\n              add\n              swap1\n              tag_53\n              swap3\n              swap2\n              swap1\n              tag_54\n              jump\t// in\n            tag_53:\n              pop\n                /* \"campaing.sol\":1816:1822  _value */\n              dup3\n                /* \"campaing.sol\":1805:1806  r */\n              dup2\n                /* \"campaing.sol\":1805:1812  r.value */\n              0x02\n              add\n                /* \"campaing.sol\":1805:1822  r.value =  _value */\n              dup2\n              swap1\n              sstore\n              pop\n                /* \"campaing.sol\":1850:1859  _recipent */\n              dup2\n                /* \"campaing.sol\":1836:1837  r */\n              dup2\n                /* \"campaing.sol\":1836:1846  r.recipent */\n              0x03\n              add\n              0x00\n                /* \"campaing.sol\":1836:1859  r.recipent =  _recipent */\n              0x0100\n              exp\n              dup2\n              sload\n              dup2\n              0xffffffffffffffffffffffffffffffffffffffff\n              mul\n              not\n              and\n              swap1\n              dup4\n              0xffffffffffffffffffffffffffffffffffffffff\n              and\n              mul\n              or\n              swap1\n              sstore\n              pop\n                /* \"campaing.sol\":1887:1888  0 */\n              0x00\n                /* \"campaing.sol\":1873:1874  r */\n              dup2\n                /* \"campaing.sol\":1873:1883  r.vote_yes */\n              0x04\n              add\n                /* \"campaing.sol\":1873:1888  r.vote_yes =  0 */\n              dup2\n              swap1\n              sstore\n              pop\n                /* \"campaing.sol\":1916:1921  false */\n              0x00\n                /* \"campaing.sol\":1902:1903  r */\n              dup2\n                /* \"campaing.sol\":1902:1912  r.complete */\n              0x05\n              add\n              0x00\n                /* \"campaing.sol\":1902:1921  r.complete =  false */\n              0x0100\n              exp\n              dup2\n              sload\n              dup2\n              0xff\n              mul\n              not\n              and\n              swap1\n              dup4\n              iszero\n              iszero\n              mul\n              or\n              swap1\n              sstore\n              pop\n                /* \"campaing.sol\":1577:1932  {... */\n              pop\n                /* \"campaing.sol\":1478:1932  function makeRequest(string memory _description, uint  _value,address  _recipent) public restircted{... */\n              pop\n              pop\n              pop\n              jump\t// out\n                /* \"campaing.sol\":840:875  address   public            manager */\n            tag_24:\n              0x02\n              0x00\n              swap1\n              sload\n              swap1\n              0x0100\n              exp\n              swap1\n              div\n              0xffffffffffffffffffffffffffffffffffffffff\n              and\n              dup2\n              jump\t// out\n                /* \"campaing.sol\":1942:2540  function aproveRequest(uint id,bool vote) public  {... */\n            tag_31:\n                /* \"campaing.sol\":2014:2023  approvers */\n              0x05\n                /* \"campaing.sol\":2014:2035  approvers[msg.sender] */\n              0x00\n                /* \"campaing.sol\":2024:2034  msg.sender */\n              caller\n                /* \"campaing.sol\":2014:2035  approvers[msg.sender] */\n              0xffffffffffffffffffffffffffffffffffffffff\n              and\n              0xffffffffffffffffffffffffffffffffffffffff\n              and\n              dup2\n              mstore\n              0x20\n              add\n              swap1\n              dup2\n              mstore\n              0x20\n              add\n              0x00\n              keccak256\n              0x00\n              swap1\n              sload\n              swap1\n              0x0100\n              exp\n              swap1\n              div\n              0xff\n              and\n                /* \"campaing.sol\":2006:2036  require(approvers[msg.sender]) */\n              tag_56\n              jumpi\n              0x00\n              dup1\n              revert\n            tag_56:\n                /* \"campaing.sol\":2096:2104  requests */\n              0x04\n                /* \"campaing.sol\":2105:2107  id */\n              dup3\n                /* \"campaing.sol\":2096:2108  requests[id] */\n              dup2\n              sload\n              dup2\n              lt\n              tag_57\n              jumpi\n              tag_58\n              tag_59\n              jump\t// in\n            tag_58:\n            tag_57:\n              swap1\n              0x00\n              mstore\n              keccak256(0x00, 0x20)\n              swap1\n              0x07\n              mul\n              add\n                /* \"campaing.sol\":2096:2117  requests[id].complete */\n              0x05\n              add\n              0x00\n              swap1\n              sload\n              swap1\n              0x0100\n              exp\n              swap1\n              div\n              0xff\n              and\n                /* \"campaing.sol\":2095:2117  !requests[id].complete */\n              iszero\n                /* \"campaing.sol\":2087:2118  require(!requests[id].complete) */\n              tag_61\n              jumpi\n              0x00\n              dup1\n              revert\n            tag_61:\n                /* \"campaing.sol\":2141:2149  requests */\n              0x04\n                /* \"campaing.sol\":2150:2152  id */\n              dup3\n                /* \"campaing.sol\":2141:2153  requests[id] */\n              dup2\n              sload\n              dup2\n              lt\n              tag_62\n              jumpi\n              tag_63\n              tag_59\n              jump\t// in\n            tag_63:\n            tag_62:\n              swap1\n              0x00\n              mstore\n              keccak256(0x00, 0x20)\n              swap1\n              0x07\n              mul\n              add\n                /* \"campaing.sol\":2141:2163  requests[id].approvals */\n              0x06\n              add\n                /* \"campaing.sol\":2141:2175  requests[id].approvals[msg.sender] */\n              0x00\n                /* \"campaing.sol\":2164:2174  msg.sender */\n              caller\n                /* \"campaing.sol\":2141:2175  requests[id].approvals[msg.sender] */\n              0xffffffffffffffffffffffffffffffffffffffff\n              and\n              0xffffffffffffffffffffffffffffffffffffffff\n              and\n              dup2\n              mstore\n              0x20\n              add\n              swap1\n              dup2\n              mstore\n              0x20\n              add\n              0x00\n              keccak256\n              0x00\n              swap1\n              sload\n              swap1\n              0x0100\n              exp\n              swap1\n              div\n              0xff\n              and\n                /* \"campaing.sol\":2140:2175  !requests[id].approvals[msg.sender] */\n              iszero\n                /* \"campaing.sol\":2132:2176  require(!requests[id].approvals[msg.sender]) */\n              tag_65\n              jumpi\n              0x00\n              dup1\n              revert\n            tag_65:\n                /* \"campaing.sol\":2227:2231  vote */\n              dup1\n                /* \"campaing.sol\":2190:2198  requests */\n              0x04\n                /* \"campaing.sol\":2199:2201  id */\n              dup4\n                /* \"campaing.sol\":2190:2202  requests[id] */\n              dup2\n              sload\n              dup2\n              lt\n              tag_66\n              jumpi\n              tag_67\n              tag_59\n              jump\t// in\n            tag_67:\n            tag_66:\n              swap1\n              0x00\n              mstore\n              keccak256(0x00, 0x20)\n              swap1\n              0x07\n              mul\n              add\n                /* \"campaing.sol\":2190:2212  requests[id].approvals */\n              0x06\n              add\n                /* \"campaing.sol\":2190:2224  requests[id].approvals[msg.sender] */\n              0x00\n                /* \"campaing.sol\":2213:2223  msg.sender */\n              caller\n                /* \"campaing.sol\":2190:2224  requests[id].approvals[msg.sender] */\n              0xffffffffffffffffffffffffffffffffffffffff\n              and\n              0xffffffffffffffffffffffffffffffffffffffff\n              and\n              dup2\n              mstore\n              0x20\n              add\n              swap1\n              dup2\n              mstore\n              0x20\n              add\n              0x00\n              keccak256\n              0x00\n                /* \"campaing.sol\":2190:2231  requests[id].approvals[msg.sender] = vote */\n              0x0100\n              exp\n              dup2\n              sload\n              dup2\n              0xff\n              mul\n              not\n              and\n              swap1\n              dup4\n              iszero\n              iszero\n              mul\n              or\n              swap1\n              sstore\n              pop\n                /* \"campaing.sol\":2248:2252  vote */\n              dup1\n                /* \"campaing.sol\":2245:2322  if(vote)... */\n              iszero\n              tag_69\n              jumpi\n                /* \"campaing.sol\":2284:2292  requests */\n              0x04\n                /* \"campaing.sol\":2293:2295  id */\n              dup3\n                /* \"campaing.sol\":2284:2296  requests[id] */\n              dup2\n              sload\n              dup2\n              lt\n              tag_70\n              jumpi\n              tag_71\n              tag_59\n              jump\t// in\n            tag_71:\n            tag_70:\n              swap1\n              0x00\n              mstore\n              keccak256(0x00, 0x20)\n              swap1\n              0x07\n              mul\n              add\n                /* \"campaing.sol\":2284:2305  requests[id].vote_yes */\n              0x04\n              add\n              0x00\n                /* \"campaing.sol\":2284:2307  requests[id].vote_yes++ */\n              dup2\n              sload\n              dup1\n              swap3\n              swap2\n              swap1\n              tag_73\n              swap1\n              tag_74\n              jump\t// in\n            tag_73:\n              swap2\n              swap1\n              pop\n              sstore\n              pop\n                /* \"campaing.sol\":2245:2322  if(vote)... */\n            tag_69:\n                /* \"campaing.sol\":2377:2378  2 */\n              0x02\n                /* \"campaing.sol\":2362:2374  contributors */\n              sload(0x01)\n                /* \"campaing.sol\":2362:2378  contributors / 2 */\n              tag_75\n              swap2\n              swap1\n              tag_76\n              jump\t// in\n            tag_75:\n                /* \"campaing.sol\":2338:2346  requests */\n              0x04\n                /* \"campaing.sol\":2347:2349  id */\n              dup4\n                /* \"campaing.sol\":2338:2350  requests[id] */\n              dup2\n              sload\n              dup2\n              lt\n              tag_77\n              jumpi\n              tag_78\n              tag_59\n              jump\t// in\n            tag_78:\n            tag_77:\n              swap1\n              0x00\n              mstore\n              keccak256(0x00, 0x20)\n              swap1\n              0x07\n              mul\n              add\n                /* \"campaing.sol\":2338:2359  requests[id].vote_yes */\n              0x04\n              add\n              sload\n                /* \"campaing.sol\":2338:2378  requests[id].vote_yes > contributors / 2 */\n              gt\n                /* \"campaing.sol\":2335:2530  if(requests[id].vote_yes > contributors / 2)... */\n              iszero\n              tag_80\n              jumpi\n                /* \"campaing.sol\":2434:2438  true */\n              0x01\n                /* \"campaing.sol\":2410:2418  requests */\n              0x04\n                /* \"campaing.sol\":2419:2421  id */\n              dup4\n                /* \"campaing.sol\":2410:2422  requests[id] */\n              dup2\n              sload\n              dup2\n              lt\n              tag_81\n              jumpi\n              tag_82\n              tag_59\n              jump\t// in\n            tag_82:\n            tag_81:\n              swap1\n              0x00\n              mstore\n              keccak256(0x00, 0x20)\n              swap1\n              0x07\n              mul\n              add\n                /* \"campaing.sol\":2410:2431  requests[id].complete */\n              0x05\n              add\n              0x00\n                /* \"campaing.sol\":2410:2438  requests[id].complete = true */\n              0x0100\n              exp\n              dup2\n              sload\n              dup2\n              0xff\n              mul\n              not\n              and\n              swap1\n              dup4\n              iszero\n              iszero\n              mul\n              or\n              swap1\n              sstore\n              pop\n                /* \"campaing.sol\":2464:2472  requests */\n              0x04\n                /* \"campaing.sol\":2473:2475  id */\n              dup3\n                /* \"campaing.sol\":2464:2476  requests[id] */\n              dup2\n              sload\n              dup2\n              lt\n              tag_84\n              jumpi\n              tag_85\n              tag_59\n              jump\t// in\n            tag_85:\n            tag_84:\n              swap1\n              0x00\n              mstore\n              keccak256(0x00, 0x20)\n              swap1\n              0x07\n              mul\n              add\n                /* \"campaing.sol\":2464:2485  requests[id].recipent */\n              0x03\n              add\n              0x00\n              swap1\n              sload\n              swap1\n              0x0100\n              exp\n              swap1\n              div\n              0xffffffffffffffffffffffffffffffffffffffff\n              and\n                /* \"campaing.sol\":2456:2495  payable(requests[id].recipent).transfer */\n              0xffffffffffffffffffffffffffffffffffffffff\n              and\n                /* \"campaing.sol\":2456:2515  payable(requests[id].recipent).transfer(requests[id].value) */\n              0x08fc\n                /* \"campaing.sol\":2496:2504  requests */\n              0x04\n                /* \"campaing.sol\":2505:2507  id */\n              dup5\n                /* \"campaing.sol\":2496:2508  requests[id] */\n              dup2\n              sload\n              dup2\n              lt\n              tag_87\n              jumpi\n              tag_88\n              tag_59\n              jump\t// in\n            tag_88:\n            tag_87:\n              swap1\n              0x00\n              mstore\n              keccak256(0x00, 0x20)\n              swap1\n              0x07\n              mul\n              add\n                /* \"campaing.sol\":2496:2514  requests[id].value */\n              0x02\n              add\n              sload\n                /* \"campaing.sol\":2456:2515  payable(requests[id].recipent).transfer(requests[id].value) */\n              swap1\n              dup2\n              iszero\n              mul\n              swap1\n              mload(0x40)\n              0x00\n              mload(0x40)\n              dup1\n              dup4\n              sub\n              dup2\n              dup6\n              dup9\n              dup9\n              call\n              swap4\n              pop\n              pop\n              pop\n              pop\n              iszero\n              dup1\n              iszero\n              tag_91\n              jumpi\n              returndatasize\n              0x00\n              dup1\n              returndatacopy\n              revert(0x00, returndatasize)\n            tag_91:\n              pop\n                /* \"campaing.sol\":2335:2530  if(requests[id].vote_yes > contributors / 2)... */\n            tag_80:\n                /* \"campaing.sol\":1942:2540  function aproveRequest(uint id,bool vote) public  {... */\n              pop\n              pop\n              jump\t// out\n                /* \"campaing.sol\":938:974  Request[] public            requests */\n            tag_36:\n              0x04\n              dup2\n              dup2\n              sload\n              dup2\n              lt\n              tag_92\n              jumpi\n              0x00\n              dup1\n              revert\n            tag_92:\n              swap1\n              0x00\n              mstore\n              keccak256(0x00, 0x20)\n              swap1\n              0x07\n              mul\n              add\n              0x00\n              swap2\n              pop\n              swap1\n              pop\n              dup1\n              0x00\n              add\n              sload\n              swap1\n              dup1\n              0x01\n              add\n              dup1\n              sload\n              tag_94\n              swap1\n              tag_95\n              jump\t// in\n            tag_94:\n              dup1\n              0x1f\n              add\n              0x20\n              dup1\n              swap2\n              div\n              mul\n              0x20\n              add\n              mload(0x40)\n              swap1\n              dup2\n              add\n              0x40\n              mstore\n              dup1\n              swap3\n              swap2\n              swap1\n              dup2\n              dup2\n              mstore\n              0x20\n              add\n              dup3\n              dup1\n              sload\n              tag_96\n              swap1\n              tag_95\n              jump\t// in\n            tag_96:\n              dup1\n              iszero\n              tag_97\n              jumpi\n              dup1\n              0x1f\n              lt\n              tag_98\n              jumpi\n              0x0100\n              dup1\n              dup4\n              sload\n              div\n              mul\n              dup4\n              mstore\n              swap2\n              0x20\n              add\n              swap2\n              jump(tag_97)\n            tag_98:\n              dup3\n              add\n              swap2\n              swap1\n              0x00\n              mstore\n              keccak256(0x00, 0x20)\n              swap1\n            tag_99:\n              dup2\n              sload\n              dup2\n              mstore\n              swap1\n              0x01\n              add\n              swap1\n              0x20\n              add\n              dup1\n              dup4\n              gt\n              tag_99\n              jumpi\n              dup3\n              swap1\n              sub\n              0x1f\n              and\n              dup3\n              add\n              swap2\n            tag_97:\n              pop\n              pop\n              pop\n              pop\n              pop\n              swap1\n              dup1\n              0x02\n              add\n              sload\n              swap1\n              dup1\n              0x03\n              add\n              0x00\n              swap1\n              sload\n              swap1\n              0x0100\n              exp\n              swap1\n              div\n              0xffffffffffffffffffffffffffffffffffffffff\n              and\n              swap1\n              dup1\n              0x04\n              add\n              sload\n              swap1\n              dup1\n              0x05\n              add\n              0x00\n              swap1\n              sload\n              swap1\n              0x0100\n              exp\n              swap1\n              div\n              0xff\n              and\n              swap1\n              pop\n              dup7\n              jump\t// out\n                /* \"campaing.sol\":885:928  uint      public            minContribution */\n            tag_41:\n              sload(0x03)\n              dup2\n              jump\t// out\n                /* \"campaing.sol\":1299:1468  function contribute() public payable {... */\n            tag_45:\n                /* \"campaing.sol\":1371:1386  minContribution */\n              sload(0x03)\n                /* \"campaing.sol\":1358:1367  msg.value */\n              callvalue\n                /* \"campaing.sol\":1358:1386  msg.value >= minContribution */\n              lt\n              iszero\n                /* \"campaing.sol\":1350:1387  require(msg.value >= minContribution) */\n              tag_101\n              jumpi\n              0x00\n              dup1\n              revert\n            tag_101:\n                /* \"campaing.sol\":1401:1413  contributors */\n              0x01\n              0x00\n                /* \"campaing.sol\":1401:1415  contributors++ */\n              dup2\n              sload\n              dup1\n              swap3\n              swap2\n              swap1\n              tag_102\n              swap1\n              tag_74\n              jump\t// in\n            tag_102:\n              swap2\n              swap1\n              pop\n              sstore\n              pop\n                /* \"campaing.sol\":1453:1457  true */\n              0x01\n                /* \"campaing.sol\":1429:1438  approvers */\n              0x05\n                /* \"campaing.sol\":1429:1450  approvers[msg.sender] */\n              0x00\n                /* \"campaing.sol\":1439:1449  msg.sender */\n              caller\n                /* \"campaing.sol\":1429:1450  approvers[msg.sender] */\n              0xffffffffffffffffffffffffffffffffffffffff\n              and\n              0xffffffffffffffffffffffffffffffffffffffff\n              and\n              dup2\n              mstore\n              0x20\n              add\n              swap1\n              dup2\n              mstore\n              0x20\n              add\n              0x00\n              keccak256\n              0x00\n                /* \"campaing.sol\":1429:1457  approvers[msg.sender] = true */\n              0x0100\n              exp\n              dup2\n              sload\n              dup2\n              0xff\n              mul\n              not\n              and\n              swap1\n              dup4\n              iszero\n              iszero\n              mul\n              or\n              swap1\n              sstore\n              pop\n                /* \"campaing.sol\":1299:1468  function contribute() public payable {... */\n              jump\t// out\n            tag_54:\n              dup3\n              dup1\n              sload\n              tag_103\n              swap1\n              tag_95\n              jump\t// in\n            tag_103:\n              swap1\n              0x00\n              mstore\n              keccak256(0x00, 0x20)\n              swap1\n              0x1f\n              add\n              0x20\n              swap1\n              div\n              dup2\n              add\n              swap3\n              dup3\n              tag_105\n              jumpi\n              0x00\n              dup6\n              sstore\n              jump(tag_104)\n            tag_105:\n              dup3\n              0x1f\n              lt\n              tag_106\n              jumpi\n              dup1\n              mload\n              not(0xff)\n              and\n              dup4\n              dup1\n              add\n              or\n              dup6\n              sstore\n              jump(tag_104)\n            tag_106:\n              dup3\n              dup1\n              add\n              0x01\n              add\n              dup6\n              sstore\n              dup3\n              iszero\n              tag_104\n              jumpi\n              swap2\n              dup3\n              add\n            tag_107:\n              dup3\n              dup2\n              gt\n              iszero\n              tag_108\n              jumpi\n              dup3\n              mload\n              dup3\n              sstore\n              swap2\n              0x20\n              add\n              swap2\n              swap1\n              0x01\n              add\n              swap1\n              jump(tag_107)\n            tag_108:\n            tag_104:\n              pop\n              swap1\n              pop\n              tag_109\n              swap2\n              swap1\n              tag_110\n              jump\t// in\n            tag_109:\n              pop\n              swap1\n              jump\t// out\n            tag_110:\n            tag_111:\n              dup1\n              dup3\n              gt\n              iszero\n              tag_112\n              jumpi\n              0x00\n              dup2\n              0x00\n              swap1\n              sstore\n              pop\n              0x01\n              add\n              jump(tag_111)\n            tag_112:\n              pop\n              swap1\n              jump\t// out\n                /* \"#utility.yul\":7:82   */\n            tag_113:\n                /* \"#utility.yul\":40:46   */\n              0x00\n                /* \"#utility.yul\":73:75   */\n              0x40\n                /* \"#utility.yul\":67:76   */\n              mload\n                /* \"#utility.yul\":57:76   */\n              swap1\n              pop\n                /* \"#utility.yul\":7:82   */\n              swap1\n              jump\t// out\n                /* \"#utility.yul\":88:205   */\n            tag_114:\n                /* \"#utility.yul\":197:198   */\n              0x00\n                /* \"#utility.yul\":194:195   */\n              dup1\n                /* \"#utility.yul\":187:199   */\n              revert\n                /* \"#utility.yul\":211:328   */\n            tag_115:\n                /* \"#utility.yul\":320:321   */\n              0x00\n                /* \"#utility.yul\":317:318   */\n              dup1\n                /* \"#utility.yul\":310:322   */\n              revert\n                /* \"#utility.yul\":334:460   */\n            tag_116:\n                /* \"#utility.yul\":371:378   */\n              0x00\n                /* \"#utility.yul\":411:453   */\n              0xffffffffffffffffffffffffffffffffffffffff\n                /* \"#utility.yul\":404:409   */\n              dup3\n                /* \"#utility.yul\":400:454   */\n              and\n                /* \"#utility.yul\":389:454   */\n              swap1\n              pop\n                /* \"#utility.yul\":334:460   */\n              swap2\n              swap1\n              pop\n              jump\t// out\n                /* \"#utility.yul\":466:562   */\n            tag_117:\n                /* \"#utility.yul\":503:510   */\n              0x00\n                /* \"#utility.yul\":532:556   */\n              tag_152\n                /* \"#utility.yul\":550:555   */\n              dup3\n                /* \"#utility.yul\":532:556   */\n              tag_116\n              jump\t// in\n            tag_152:\n                /* \"#utility.yul\":521:556   */\n              swap1\n              pop\n                /* \"#utility.yul\":466:562   */\n              swap2\n              swap1\n              pop\n              jump\t// out\n                /* \"#utility.yul\":568:690   */\n            tag_118:\n                /* \"#utility.yul\":641:665   */\n              tag_154\n                /* \"#utility.yul\":659:664   */\n              dup2\n                /* \"#utility.yul\":641:665   */\n              tag_117\n              jump\t// in\n            tag_154:\n                /* \"#utility.yul\":634:639   */\n              dup2\n                /* \"#utility.yul\":631:666   */\n              eq\n                /* \"#utility.yul\":621:684   */\n              tag_155\n              jumpi\n                /* \"#utility.yul\":680:681   */\n              0x00\n                /* \"#utility.yul\":677:678   */\n              dup1\n                /* \"#utility.yul\":670:682   */\n              revert\n                /* \"#utility.yul\":621:684   */\n            tag_155:\n                /* \"#utility.yul\":568:690   */\n              pop\n              jump\t// out\n                /* \"#utility.yul\":696:835   */\n            tag_119:\n                /* \"#utility.yul\":742:747   */\n              0x00\n                /* \"#utility.yul\":780:786   */\n              dup2\n                /* \"#utility.yul\":767:787   */\n              calldataload\n                /* \"#utility.yul\":758:787   */\n              swap1\n              pop\n                /* \"#utility.yul\":796:829   */\n              tag_157\n                /* \"#utility.yul\":823:828   */\n              dup2\n                /* \"#utility.yul\":796:829   */\n              tag_118\n              jump\t// in\n            tag_157:\n                /* \"#utility.yul\":696:835   */\n              swap3\n              swap2\n              pop\n              pop\n              jump\t// out\n                /* \"#utility.yul\":841:1170   */\n            tag_13:\n                /* \"#utility.yul\":900:906   */\n              0x00\n                /* \"#utility.yul\":949:951   */\n              0x20\n                /* \"#utility.yul\":937:946   */\n              dup3\n                /* \"#utility.yul\":928:935   */\n              dup5\n                /* \"#utility.yul\":924:947   */\n              sub\n                /* \"#utility.yul\":920:952   */\n              slt\n                /* \"#utility.yul\":917:1036   */\n              iszero\n              tag_159\n              jumpi\n                /* \"#utility.yul\":955:1034   */\n              tag_160\n              tag_114\n              jump\t// in\n            tag_160:\n                /* \"#utility.yul\":917:1036   */\n            tag_159:\n                /* \"#utility.yul\":1075:1076   */\n              0x00\n                /* \"#utility.yul\":1100:1153   */\n              tag_161\n                /* \"#utility.yul\":1145:1152   */\n              dup5\n                /* \"#utility.yul\":1136:1142   */\n              dup3\n                /* \"#utility.yul\":1125:1134   */\n              dup6\n                /* \"#utility.yul\":1121:1143   */\n              add\n                /* \"#utility.yul\":1100:1153   */\n              tag_119\n              jump\t// in\n            tag_161:\n                /* \"#utility.yul\":1090:1153   */\n              swap2\n              pop\n                /* \"#utility.yul\":1046:1163   */\n              pop\n                /* \"#utility.yul\":841:1170   */\n              swap3\n              swap2\n              pop\n              pop\n              jump\t// out\n                /* \"#utility.yul\":1176:1266   */\n            tag_120:\n                /* \"#utility.yul\":1210:1217   */\n              0x00\n                /* \"#utility.yul\":1253:1258   */\n              dup2\n                /* \"#utility.yul\":1246:1259   */\n              iszero\n                /* \"#utility.yul\":1239:1260   */\n              iszero\n                /* \"#utility.yul\":1228:1260   */\n              swap1\n              pop\n                /* \"#utility.yul\":1176:1266   */\n              swap2\n              swap1\n              pop\n              jump\t// out\n                /* \"#utility.yul\":1272:1381   */\n            tag_121:\n                /* \"#utility.yul\":1353:1374   */\n              tag_164\n                /* \"#utility.yul\":1368:1373   */\n              dup2\n                /* \"#utility.yul\":1353:1374   */\n              tag_120\n              jump\t// in\n            tag_164:\n                /* \"#utility.yul\":1348:1351   */\n              dup3\n                /* \"#utility.yul\":1341:1375   */\n              mstore\n                /* \"#utility.yul\":1272:1381   */\n              pop\n              pop\n              jump\t// out\n                /* \"#utility.yul\":1387:1597   */\n            tag_16:\n                /* \"#utility.yul\":1474:1478   */\n              0x00\n                /* \"#utility.yul\":1512:1514   */\n              0x20\n                /* \"#utility.yul\":1501:1510   */\n              dup3\n                /* \"#utility.yul\":1497:1515   */\n              add\n                /* \"#utility.yul\":1489:1515   */\n              swap1\n              pop\n                /* \"#utility.yul\":1525:1590   */\n              tag_166\n                /* \"#utility.yul\":1587:1588   */\n              0x00\n                /* \"#utility.yul\":1576:1585   */\n              dup4\n                /* \"#utility.yul\":1572:1589   */\n              add\n                /* \"#utility.yul\":1563:1569   */\n              dup5\n                /* \"#utility.yul\":1525:1590   */\n              tag_121\n              jump\t// in\n            tag_166:\n                /* \"#utility.yul\":1387:1597   */\n              swap3\n              swap2\n              pop\n              pop\n              jump\t// out\n                /* \"#utility.yul\":1603:1720   */\n            tag_122:\n                /* \"#utility.yul\":1712:1713   */\n              0x00\n                /* \"#utility.yul\":1709:1710   */\n              dup1\n                /* \"#utility.yul\":1702:1714   */\n              revert\n                /* \"#utility.yul\":1726:1843   */\n            tag_123:\n                /* \"#utility.yul\":1835:1836   */\n              0x00\n                /* \"#utility.yul\":1832:1833   */\n              dup1\n                /* \"#utility.yul\":1825:1837   */\n              revert\n                /* \"#utility.yul\":1849:1951   */\n            tag_124:\n                /* \"#utility.yul\":1890:1896   */\n              0x00\n                /* \"#utility.yul\":1941:1943   */\n              0x1f\n                /* \"#utility.yul\":1937:1944   */\n              not\n                /* \"#utility.yul\":1932:1934   */\n              0x1f\n                /* \"#utility.yul\":1925:1930   */\n              dup4\n                /* \"#utility.yul\":1921:1935   */\n              add\n                /* \"#utility.yul\":1917:1945   */\n              and\n                /* \"#utility.yul\":1907:1945   */\n              swap1\n              pop\n                /* \"#utility.yul\":1849:1951   */\n              swap2\n              swap1\n              pop\n              jump\t// out\n                /* \"#utility.yul\":1957:2137   */\n            tag_125:\n                /* \"#utility.yul\":2005:2082   */\n              0x4e487b7100000000000000000000000000000000000000000000000000000000\n                /* \"#utility.yul\":2002:2003   */\n              0x00\n                /* \"#utility.yul\":1995:2083   */\n              mstore\n                /* \"#utility.yul\":2102:2106   */\n              0x41\n                /* \"#utility.yul\":2099:2100   */\n              0x04\n                /* \"#utility.yul\":2092:2107   */\n              mstore\n                /* \"#utility.yul\":2126:2130   */\n              0x24\n                /* \"#utility.yul\":2123:2124   */\n              0x00\n                /* \"#utility.yul\":2116:2131   */\n              revert\n                /* \"#utility.yul\":2143:2424   */\n            tag_126:\n                /* \"#utility.yul\":2226:2253   */\n              tag_172\n                /* \"#utility.yul\":2248:2252   */\n              dup3\n                /* \"#utility.yul\":2226:2253   */\n              tag_124\n              jump\t// in\n            tag_172:\n                /* \"#utility.yul\":2218:2224   */\n              dup2\n                /* \"#utility.yul\":2214:2254   */\n              add\n                /* \"#utility.yul\":2356:2362   */\n              dup2\n                /* \"#utility.yul\":2344:2354   */\n              dup2\n                /* \"#utility.yul\":2341:2363   */\n              lt\n                /* \"#utility.yul\":2320:2338   */\n              0xffffffffffffffff\n                /* \"#utility.yul\":2308:2318   */\n              dup3\n                /* \"#utility.yul\":2305:2339   */\n              gt\n                /* \"#utility.yul\":2302:2364   */\n              or\n                /* \"#utility.yul\":2299:2387   */\n              iszero\n              tag_173\n              jumpi\n                /* \"#utility.yul\":2367:2385   */\n              tag_174\n              tag_125\n              jump\t// in\n            tag_174:\n                /* \"#utility.yul\":2299:2387   */\n            tag_173:\n                /* \"#utility.yul\":2407:2417   */\n              dup1\n                /* \"#utility.yul\":2403:2405   */\n              0x40\n                /* \"#utility.yul\":2396:2418   */\n              mstore\n                /* \"#utility.yul\":2186:2424   */\n              pop\n                /* \"#utility.yul\":2143:2424   */\n              pop\n              pop\n              jump\t// out\n                /* \"#utility.yul\":2430:2559   */\n            tag_127:\n                /* \"#utility.yul\":2464:2470   */\n              0x00\n                /* \"#utility.yul\":2491:2511   */\n              tag_176\n              tag_113\n              jump\t// in\n            tag_176:\n                /* \"#utility.yul\":2481:2511   */\n              swap1\n              pop\n                /* \"#utility.yul\":2520:2553   */\n              tag_177\n                /* \"#utility.yul\":2548:2552   */\n              dup3\n                /* \"#utility.yul\":2540:2546   */\n              dup3\n                /* \"#utility.yul\":2520:2553   */\n              tag_126\n              jump\t// in\n            tag_177:\n                /* \"#utility.yul\":2430:2559   */\n              swap2\n              swap1\n              pop\n              jump\t// out\n                /* \"#utility.yul\":2565:2873   */\n            tag_128:\n                /* \"#utility.yul\":2627:2631   */\n              0x00\n                /* \"#utility.yul\":2717:2735   */\n              0xffffffffffffffff\n                /* \"#utility.yul\":2709:2715   */\n              dup3\n                /* \"#utility.yul\":2706:2736   */\n              gt\n                /* \"#utility.yul\":2703:2759   */\n              iszero\n              tag_179\n              jumpi\n                /* \"#utility.yul\":2739:2757   */\n              tag_180\n              tag_125\n              jump\t// in\n            tag_180:\n                /* \"#utility.yul\":2703:2759   */\n            tag_179:\n                /* \"#utility.yul\":2777:2806   */\n              tag_181\n                /* \"#utility.yul\":2799:2805   */\n              dup3\n                /* \"#utility.yul\":2777:2806   */\n              tag_124\n              jump\t// in\n            tag_181:\n                /* \"#utility.yul\":2769:2806   */\n              swap1\n              pop\n                /* \"#utility.yul\":2861:2865   */\n              0x20\n                /* \"#utility.yul\":2855:2859   */\n              dup2\n                /* \"#utility.yul\":2851:2866   */\n              add\n                /* \"#utility.yul\":2843:2866   */\n              swap1\n              pop\n                /* \"#utility.yul\":2565:2873   */\n              swap2\n              swap1\n              pop\n              jump\t// out\n                /* \"#utility.yul\":2879:3033   */\n            tag_129:\n                /* \"#utility.yul\":2963:2969   */\n              dup3\n                /* \"#utility.yul\":2958:2961   */\n              dup2\n                /* \"#utility.yul\":2953:2956   */\n              dup4\n                /* \"#utility.yul\":2940:2970   */\n              calldatacopy\n                /* \"#utility.yul\":3025:3026   */\n              0x00\n                /* \"#utility.yul\":3016:3022   */\n              dup4\n                /* \"#utility.yul\":3011:3014   */\n              dup4\n                /* \"#utility.yul\":3007:3023   */\n              add\n                /* \"#utility.yul\":3000:3027   */\n              mstore\n                /* \"#utility.yul\":2879:3033   */\n              pop\n              pop\n              pop\n              jump\t// out\n                /* \"#utility.yul\":3039:3451   */\n            tag_130:\n                /* \"#utility.yul\":3117:3122   */\n              0x00\n                /* \"#utility.yul\":3142:3208   */\n              tag_184\n                /* \"#utility.yul\":3158:3207   */\n              tag_185\n                /* \"#utility.yul\":3200:3206   */\n              dup5\n                /* \"#utility.yul\":3158:3207   */\n              tag_128\n              jump\t// in\n            tag_185:\n                /* \"#utility.yul\":3142:3208   */\n              tag_127\n              jump\t// in\n            tag_184:\n                /* \"#utility.yul\":3133:3208   */\n              swap1\n              pop\n                /* \"#utility.yul\":3231:3237   */\n              dup3\n                /* \"#utility.yul\":3224:3229   */\n              dup2\n                /* \"#utility.yul\":3217:3238   */\n              mstore\n                /* \"#utility.yul\":3269:3273   */\n              0x20\n                /* \"#utility.yul\":3262:3267   */\n              dup2\n                /* \"#utility.yul\":3258:3274   */\n              add\n                /* \"#utility.yul\":3307:3310   */\n              dup5\n                /* \"#utility.yul\":3298:3304   */\n              dup5\n                /* \"#utility.yul\":3293:3296   */\n              dup5\n                /* \"#utility.yul\":3289:3305   */\n              add\n                /* \"#utility.yul\":3286:3311   */\n              gt\n                /* \"#utility.yul\":3283:3395   */\n              iszero\n              tag_186\n              jumpi\n                /* \"#utility.yul\":3314:3393   */\n              tag_187\n              tag_123\n              jump\t// in\n            tag_187:\n                /* \"#utility.yul\":3283:3395   */\n            tag_186:\n                /* \"#utility.yul\":3404:3445   */\n              tag_188\n                /* \"#utility.yul\":3438:3444   */\n              dup5\n                /* \"#utility.yul\":3433:3436   */\n              dup3\n                /* \"#utility.yul\":3428:3431   */\n              dup6\n                /* \"#utility.yul\":3404:3445   */\n              tag_129\n              jump\t// in\n            tag_188:\n                /* \"#utility.yul\":3123:3451   */\n              pop\n                /* \"#utility.yul\":3039:3451   */\n              swap4\n              swap3\n              pop\n              pop\n              pop\n              jump\t// out\n                /* \"#utility.yul\":3471:3811   */\n            tag_131:\n                /* \"#utility.yul\":3527:3532   */\n              0x00\n                /* \"#utility.yul\":3576:3579   */\n              dup3\n                /* \"#utility.yul\":3569:3573   */\n              0x1f\n                /* \"#utility.yul\":3561:3567   */\n              dup4\n                /* \"#utility.yul\":3557:3574   */\n              add\n                /* \"#utility.yul\":3553:3580   */\n              slt\n                /* \"#utility.yul\":3543:3665   */\n              tag_190\n              jumpi\n                /* \"#utility.yul\":3584:3663   */\n              tag_191\n              tag_122\n              jump\t// in\n            tag_191:\n                /* \"#utility.yul\":3543:3665   */\n            tag_190:\n                /* \"#utility.yul\":3701:3707   */\n              dup2\n                /* \"#utility.yul\":3688:3708   */\n              calldataload\n                /* \"#utility.yul\":3726:3805   */\n              tag_192\n                /* \"#utility.yul\":3801:3804   */\n              dup5\n                /* \"#utility.yul\":3793:3799   */\n              dup3\n                /* \"#utility.yul\":3786:3790   */\n              0x20\n                /* \"#utility.yul\":3778:3784   */\n              dup7\n                /* \"#utility.yul\":3774:3791   */\n              add\n                /* \"#utility.yul\":3726:3805   */\n              tag_130\n              jump\t// in\n            tag_192:\n                /* \"#utility.yul\":3717:3805   */\n              swap2\n              pop\n                /* \"#utility.yul\":3533:3811   */\n              pop\n                /* \"#utility.yul\":3471:3811   */\n              swap3\n              swap2\n              pop\n              pop\n              jump\t// out\n                /* \"#utility.yul\":3817:3894   */\n            tag_132:\n                /* \"#utility.yul\":3854:3861   */\n              0x00\n                /* \"#utility.yul\":3883:3888   */\n              dup2\n                /* \"#utility.yul\":3872:3888   */\n              swap1\n              pop\n                /* \"#utility.yul\":3817:3894   */\n              swap2\n              swap1\n              pop\n              jump\t// out\n                /* \"#utility.yul\":3900:4022   */\n            tag_133:\n                /* \"#utility.yul\":3973:3997   */\n              tag_195\n                /* \"#utility.yul\":3991:3996   */\n              dup2\n                /* \"#utility.yul\":3973:3997   */\n              tag_132\n              jump\t// in\n            tag_195:\n                /* \"#utility.yul\":3966:3971   */\n              dup2\n                /* \"#utility.yul\":3963:3998   */\n              eq\n                /* \"#utility.yul\":3953:4016   */\n              tag_196\n              jumpi\n                /* \"#utility.yul\":4012:4013   */\n              0x00\n                /* \"#utility.yul\":4009:4010   */\n              dup1\n                /* \"#utility.yul\":4002:4014   */\n              revert\n                /* \"#utility.yul\":3953:4016   */\n            tag_196:\n                /* \"#utility.yul\":3900:4022   */\n              pop\n              jump\t// out\n                /* \"#utility.yul\":4028:4167   */\n            tag_134:\n                /* \"#utility.yul\":4074:4079   */\n              0x00\n                /* \"#utility.yul\":4112:4118   */\n              dup2\n                /* \"#utility.yul\":4099:4119   */\n              calldataload\n                /* \"#utility.yul\":4090:4119   */\n              swap1\n              pop\n                /* \"#utility.yul\":4128:4161   */\n              tag_198\n                /* \"#utility.yul\":4155:4160   */\n              dup2\n                /* \"#utility.yul\":4128:4161   */\n              tag_133\n              jump\t// in\n            tag_198:\n                /* \"#utility.yul\":4028:4167   */\n              swap3\n              swap2\n              pop\n              pop\n              jump\t// out\n                /* \"#utility.yul\":4173:4972   */\n            tag_20:\n                /* \"#utility.yul\":4260:4266   */\n              0x00\n                /* \"#utility.yul\":4268:4274   */\n              dup1\n                /* \"#utility.yul\":4276:4282   */\n              0x00\n                /* \"#utility.yul\":4325:4327   */\n              0x60\n                /* \"#utility.yul\":4313:4322   */\n              dup5\n                /* \"#utility.yul\":4304:4311   */\n              dup7\n                /* \"#utility.yul\":4300:4323   */\n              sub\n                /* \"#utility.yul\":4296:4328   */\n              slt\n                /* \"#utility.yul\":4293:4412   */\n              iszero\n              tag_200\n              jumpi\n                /* \"#utility.yul\":4331:4410   */\n              tag_201\n              tag_114\n              jump\t// in\n            tag_201:\n                /* \"#utility.yul\":4293:4412   */\n            tag_200:\n                /* \"#utility.yul\":4479:4480   */\n              0x00\n                /* \"#utility.yul\":4468:4477   */\n              dup5\n                /* \"#utility.yul\":4464:4481   */\n              add\n                /* \"#utility.yul\":4451:4482   */\n              calldataload\n                /* \"#utility.yul\":4509:4527   */\n              0xffffffffffffffff\n                /* \"#utility.yul\":4501:4507   */\n              dup2\n                /* \"#utility.yul\":4498:4528   */\n              gt\n                /* \"#utility.yul\":4495:4612   */\n              iszero\n              tag_202\n              jumpi\n                /* \"#utility.yul\":4531:4610   */\n              tag_203\n              tag_115\n              jump\t// in\n            tag_203:\n                /* \"#utility.yul\":4495:4612   */\n            tag_202:\n                /* \"#utility.yul\":4636:4699   */\n              tag_204\n                /* \"#utility.yul\":4691:4698   */\n              dup7\n                /* \"#utility.yul\":4682:4688   */\n              dup3\n                /* \"#utility.yul\":4671:4680   */\n              dup8\n                /* \"#utility.yul\":4667:4689   */\n              add\n                /* \"#utility.yul\":4636:4699   */\n              tag_131\n              jump\t// in\n            tag_204:\n                /* \"#utility.yul\":4626:4699   */\n              swap4\n              pop\n                /* \"#utility.yul\":4422:4709   */\n              pop\n                /* \"#utility.yul\":4748:4750   */\n              0x20\n                /* \"#utility.yul\":4774:4827   */\n              tag_205\n                /* \"#utility.yul\":4819:4826   */\n              dup7\n                /* \"#utility.yul\":4810:4816   */\n              dup3\n                /* \"#utility.yul\":4799:4808   */\n              dup8\n                /* \"#utility.yul\":4795:4817   */\n              add\n                /* \"#utility.yul\":4774:4827   */\n              tag_134\n              jump\t// in\n            tag_205:\n                /* \"#utility.yul\":4764:4827   */\n              swap3\n              pop\n                /* \"#utility.yul\":4719:4837   */\n              pop\n                /* \"#utility.yul\":4876:4878   */\n              0x40\n                /* \"#utility.yul\":4902:4955   */\n              tag_206\n                /* \"#utility.yul\":4947:4954   */\n              dup7\n                /* \"#utility.yul\":4938:4944   */\n              dup3\n                /* \"#utility.yul\":4927:4936   */\n              dup8\n                /* \"#utility.yul\":4923:4945   */\n              add\n                /* \"#utility.yul\":4902:4955   */\n              tag_119\n              jump\t// in\n            tag_206:\n                /* \"#utility.yul\":4892:4955   */\n              swap2\n              pop\n                /* \"#utility.yul\":4847:4965   */\n              pop\n                /* \"#utility.yul\":4173:4972   */\n              swap3\n              pop\n              swap3\n              pop\n              swap3\n              jump\t// out\n                /* \"#utility.yul\":4978:5096   */\n            tag_135:\n                /* \"#utility.yul\":5065:5089   */\n              tag_208\n                /* \"#utility.yul\":5083:5088   */\n              dup2\n                /* \"#utility.yul\":5065:5089   */\n              tag_117\n              jump\t// in\n            tag_208:\n                /* \"#utility.yul\":5060:5063   */\n              dup3\n                /* \"#utility.yul\":5053:5090   */\n              mstore\n                /* \"#utility.yul\":4978:5096   */\n              pop\n              pop\n              jump\t// out\n                /* \"#utility.yul\":5102:5324   */\n            tag_26:\n                /* \"#utility.yul\":5195:5199   */\n              0x00\n                /* \"#utility.yul\":5233:5235   */\n              0x20\n                /* \"#utility.yul\":5222:5231   */\n              dup3\n                /* \"#utility.yul\":5218:5236   */\n              add\n                /* \"#utility.yul\":5210:5236   */\n              swap1\n              pop\n                /* \"#utility.yul\":5246:5317   */\n              tag_210\n                /* \"#utility.yul\":5314:5315   */\n              0x00\n                /* \"#utility.yul\":5303:5312   */\n              dup4\n                /* \"#utility.yul\":5299:5316   */\n              add\n                /* \"#utility.yul\":5290:5296   */\n              dup5\n                /* \"#utility.yul\":5246:5317   */\n              tag_135\n              jump\t// in\n            tag_210:\n                /* \"#utility.yul\":5102:5324   */\n              swap3\n              swap2\n              pop\n              pop\n              jump\t// out\n                /* \"#utility.yul\":5330:5446   */\n            tag_136:\n                /* \"#utility.yul\":5400:5421   */\n              tag_212\n                /* \"#utility.yul\":5415:5420   */\n              dup2\n                /* \"#utility.yul\":5400:5421   */\n              tag_120\n              jump\t// in\n            tag_212:\n                /* \"#utility.yul\":5393:5398   */\n              dup2\n                /* \"#utility.yul\":5390:5422   */\n              eq\n                /* \"#utility.yul\":5380:5440   */\n              tag_213\n              jumpi\n                /* \"#utility.yul\":5436:5437   */\n              0x00\n                /* \"#utility.yul\":5433:5434   */\n              dup1\n                /* \"#utility.yul\":5426:5438   */\n              revert\n                /* \"#utility.yul\":5380:5440   */\n            tag_213:\n                /* \"#utility.yul\":5330:5446   */\n              pop\n              jump\t// out\n                /* \"#utility.yul\":5452:5585   */\n            tag_137:\n                /* \"#utility.yul\":5495:5500   */\n              0x00\n                /* \"#utility.yul\":5533:5539   */\n              dup2\n                /* \"#utility.yul\":5520:5540   */\n              calldataload\n                /* \"#utility.yul\":5511:5540   */\n              swap1\n              pop\n                /* \"#utility.yul\":5549:5579   */\n              tag_215\n                /* \"#utility.yul\":5573:5578   */\n              dup2\n                /* \"#utility.yul\":5549:5579   */\n              tag_136\n              jump\t// in\n            tag_215:\n                /* \"#utility.yul\":5452:5585   */\n              swap3\n              swap2\n              pop\n              pop\n              jump\t// out\n                /* \"#utility.yul\":5591:6059   */\n            tag_30:\n                /* \"#utility.yul\":5656:5662   */\n              0x00\n                /* \"#utility.yul\":5664:5670   */\n              dup1\n                /* \"#utility.yul\":5713:5715   */\n              0x40\n                /* \"#utility.yul\":5701:5710   */\n              dup4\n                /* \"#utility.yul\":5692:5699   */\n              dup6\n                /* \"#utility.yul\":5688:5711   */\n              sub\n                /* \"#utility.yul\":5684:5716   */\n              slt\n                /* \"#utility.yul\":5681:5800   */\n              iszero\n              tag_217\n              jumpi\n                /* \"#utility.yul\":5719:5798   */\n              tag_218\n              tag_114\n              jump\t// in\n            tag_218:\n                /* \"#utility.yul\":5681:5800   */\n            tag_217:\n                /* \"#utility.yul\":5839:5840   */\n              0x00\n                /* \"#utility.yul\":5864:5917   */\n              tag_219\n                /* \"#utility.yul\":5909:5916   */\n              dup6\n                /* \"#utility.yul\":5900:5906   */\n              dup3\n                /* \"#utility.yul\":5889:5898   */\n              dup7\n                /* \"#utility.yul\":5885:5907   */\n              add\n                /* \"#utility.yul\":5864:5917   */\n              tag_134\n              jump\t// in\n            tag_219:\n                /* \"#utility.yul\":5854:5917   */\n              swap3\n              pop\n                /* \"#utility.yul\":5810:5927   */\n              pop\n                /* \"#utility.yul\":5966:5968   */\n              0x20\n                /* \"#utility.yul\":5992:6042   */\n              tag_220\n                /* \"#utility.yul\":6034:6041   */\n              dup6\n                /* \"#utility.yul\":6025:6031   */\n              dup3\n                /* \"#utility.yul\":6014:6023   */\n              dup7\n                /* \"#utility.yul\":6010:6032   */\n              add\n                /* \"#utility.yul\":5992:6042   */\n              tag_137\n              jump\t// in\n            tag_220:\n                /* \"#utility.yul\":5982:6042   */\n              swap2\n              pop\n                /* \"#utility.yul\":5937:6052   */\n              pop\n                /* \"#utility.yul\":5591:6059   */\n              swap3\n              pop\n              swap3\n              swap1\n              pop\n              jump\t// out\n                /* \"#utility.yul\":6065:6394   */\n            tag_35:\n                /* \"#utility.yul\":6124:6130   */\n              0x00\n                /* \"#utility.yul\":6173:6175   */\n              0x20\n                /* \"#utility.yul\":6161:6170   */\n              dup3\n                /* \"#utility.yul\":6152:6159   */\n              dup5\n                /* \"#utility.yul\":6148:6171   */\n              sub\n                /* \"#utility.yul\":6144:6176   */\n              slt\n                /* \"#utility.yul\":6141:6260   */\n              iszero\n              tag_222\n              jumpi\n                /* \"#utility.yul\":6179:6258   */\n              tag_223\n              tag_114\n              jump\t// in\n            tag_223:\n                /* \"#utility.yul\":6141:6260   */\n            tag_222:\n                /* \"#utility.yul\":6299:6300   */\n              0x00\n                /* \"#utility.yul\":6324:6377   */\n              tag_224\n                /* \"#utility.yul\":6369:6376   */\n              dup5\n                /* \"#utility.yul\":6360:6366   */\n              dup3\n                /* \"#utility.yul\":6349:6358   */\n              dup6\n                /* \"#utility.yul\":6345:6367   */\n              add\n                /* \"#utility.yul\":6324:6377   */\n              tag_134\n              jump\t// in\n            tag_224:\n                /* \"#utility.yul\":6314:6377   */\n              swap2\n              pop\n                /* \"#utility.yul\":6270:6387   */\n              pop\n                /* \"#utility.yul\":6065:6394   */\n              swap3\n              swap2\n              pop\n              pop\n              jump\t// out\n                /* \"#utility.yul\":6400:6518   */\n            tag_138:\n                /* \"#utility.yul\":6487:6511   */\n              tag_226\n                /* \"#utility.yul\":6505:6510   */\n              dup2\n                /* \"#utility.yul\":6487:6511   */\n              tag_132\n              jump\t// in\n            tag_226:\n                /* \"#utility.yul\":6482:6485   */\n              dup3\n                /* \"#utility.yul\":6475:6512   */\n              mstore\n                /* \"#utility.yul\":6400:6518   */\n              pop\n              pop\n              jump\t// out\n                /* \"#utility.yul\":6524:6623   */\n            tag_139:\n                /* \"#utility.yul\":6576:6582   */\n              0x00\n                /* \"#utility.yul\":6610:6615   */\n              dup2\n                /* \"#utility.yul\":6604:6616   */\n              mload\n                /* \"#utility.yul\":6594:6616   */\n              swap1\n              pop\n                /* \"#utility.yul\":6524:6623   */\n              swap2\n              swap1\n              pop\n              jump\t// out\n                /* \"#utility.yul\":6629:6798   */\n            tag_140:\n                /* \"#utility.yul\":6713:6724   */\n              0x00\n                /* \"#utility.yul\":6747:6753   */\n              dup3\n                /* \"#utility.yul\":6742:6745   */\n              dup3\n                /* \"#utility.yul\":6735:6754   */\n              mstore\n                /* \"#utility.yul\":6787:6791   */\n              0x20\n                /* \"#utility.yul\":6782:6785   */\n              dup3\n                /* \"#utility.yul\":6778:6792   */\n              add\n                /* \"#utility.yul\":6763:6792   */\n              swap1\n              pop\n                /* \"#utility.yul\":6629:6798   */\n              swap3\n              swap2\n              pop\n              pop\n              jump\t// out\n                /* \"#utility.yul\":6804:7111   */\n            tag_141:\n                /* \"#utility.yul\":6872:6873   */\n              0x00\n                /* \"#utility.yul\":6882:6995   */\n            tag_230:\n                /* \"#utility.yul\":6896:6902   */\n              dup4\n                /* \"#utility.yul\":6893:6894   */\n              dup2\n                /* \"#utility.yul\":6890:6903   */\n              lt\n                /* \"#utility.yul\":6882:6995   */\n              iszero\n              tag_232\n              jumpi\n                /* \"#utility.yul\":6981:6982   */\n              dup1\n                /* \"#utility.yul\":6976:6979   */\n              dup3\n                /* \"#utility.yul\":6972:6983   */\n              add\n                /* \"#utility.yul\":6966:6984   */\n              mload\n                /* \"#utility.yul\":6962:6963   */\n              dup2\n                /* \"#utility.yul\":6957:6960   */\n              dup5\n                /* \"#utility.yul\":6953:6964   */\n              add\n                /* \"#utility.yul\":6946:6985   */\n              mstore\n                /* \"#utility.yul\":6918:6920   */\n              0x20\n                /* \"#utility.yul\":6915:6916   */\n              dup2\n                /* \"#utility.yul\":6911:6921   */\n              add\n                /* \"#utility.yul\":6906:6921   */\n              swap1\n              pop\n                /* \"#utility.yul\":6882:6995   */\n              jump(tag_230)\n            tag_232:\n                /* \"#utility.yul\":7013:7019   */\n              dup4\n                /* \"#utility.yul\":7010:7011   */\n              dup2\n                /* \"#utility.yul\":7007:7020   */\n              gt\n                /* \"#utility.yul\":7004:7105   */\n              iszero\n              tag_233\n              jumpi\n                /* \"#utility.yul\":7093:7094   */\n              0x00\n                /* \"#utility.yul\":7084:7090   */\n              dup5\n                /* \"#utility.yul\":7079:7082   */\n              dup5\n                /* \"#utility.yul\":7075:7091   */\n              add\n                /* \"#utility.yul\":7068:7095   */\n              mstore\n                /* \"#utility.yul\":7004:7105   */\n            tag_233:\n                /* \"#utility.yul\":6853:7111   */\n              pop\n                /* \"#utility.yul\":6804:7111   */\n              pop\n              pop\n              pop\n              jump\t// out\n                /* \"#utility.yul\":7117:7481   */\n            tag_142:\n                /* \"#utility.yul\":7205:7208   */\n              0x00\n                /* \"#utility.yul\":7233:7272   */\n              tag_235\n                /* \"#utility.yul\":7266:7271   */\n              dup3\n                /* \"#utility.yul\":7233:7272   */\n              tag_139\n              jump\t// in\n            tag_235:\n                /* \"#utility.yul\":7288:7359   */\n              tag_236\n                /* \"#utility.yul\":7352:7358   */\n              dup2\n                /* \"#utility.yul\":7347:7350   */\n              dup6\n                /* \"#utility.yul\":7288:7359   */\n              tag_140\n              jump\t// in\n            tag_236:\n                /* \"#utility.yul\":7281:7359   */\n              swap4\n              pop\n                /* \"#utility.yul\":7368:7420   */\n              tag_237\n                /* \"#utility.yul\":7413:7419   */\n              dup2\n                /* \"#utility.yul\":7408:7411   */\n              dup6\n                /* \"#utility.yul\":7401:7405   */\n              0x20\n                /* \"#utility.yul\":7394:7399   */\n              dup7\n                /* \"#utility.yul\":7390:7406   */\n              add\n                /* \"#utility.yul\":7368:7420   */\n              tag_141\n              jump\t// in\n            tag_237:\n                /* \"#utility.yul\":7445:7474   */\n              tag_238\n                /* \"#utility.yul\":7467:7473   */\n              dup2\n                /* \"#utility.yul\":7445:7474   */\n              tag_124\n              jump\t// in\n            tag_238:\n                /* \"#utility.yul\":7440:7443   */\n              dup5\n                /* \"#utility.yul\":7436:7475   */\n              add\n                /* \"#utility.yul\":7429:7475   */\n              swap2\n              pop\n                /* \"#utility.yul\":7209:7481   */\n              pop\n                /* \"#utility.yul\":7117:7481   */\n              swap3\n              swap2\n              pop\n              pop\n              jump\t// out\n                /* \"#utility.yul\":7487:8341   */\n            tag_38:\n                /* \"#utility.yul\":7734:7738   */\n              0x00\n                /* \"#utility.yul\":7772:7775   */\n              0xc0\n                /* \"#utility.yul\":7761:7770   */\n              dup3\n                /* \"#utility.yul\":7757:7776   */\n              add\n                /* \"#utility.yul\":7749:7776   */\n              swap1\n              pop\n                /* \"#utility.yul\":7786:7857   */\n              tag_240\n                /* \"#utility.yul\":7854:7855   */\n              0x00\n                /* \"#utility.yul\":7843:7852   */\n              dup4\n                /* \"#utility.yul\":7839:7856   */\n              add\n                /* \"#utility.yul\":7830:7836   */\n              dup10\n                /* \"#utility.yul\":7786:7857   */\n              tag_138\n              jump\t// in\n            tag_240:\n                /* \"#utility.yul\":7904:7913   */\n              dup2\n                /* \"#utility.yul\":7898:7902   */\n              dup2\n                /* \"#utility.yul\":7894:7914   */\n              sub\n                /* \"#utility.yul\":7889:7891   */\n              0x20\n                /* \"#utility.yul\":7878:7887   */\n              dup4\n                /* \"#utility.yul\":7874:7892   */\n              add\n                /* \"#utility.yul\":7867:7915   */\n              mstore\n                /* \"#utility.yul\":7932:8010   */\n              tag_241\n                /* \"#utility.yul\":8005:8009   */\n              dup2\n                /* \"#utility.yul\":7996:8002   */\n              dup9\n                /* \"#utility.yul\":7932:8010   */\n              tag_142\n              jump\t// in\n            tag_241:\n                /* \"#utility.yul\":7924:8010   */\n              swap1\n              pop\n                /* \"#utility.yul\":8020:8092   */\n              tag_242\n                /* \"#utility.yul\":8088:8090   */\n              0x40\n                /* \"#utility.yul\":8077:8086   */\n              dup4\n                /* \"#utility.yul\":8073:8091   */\n              add\n                /* \"#utility.yul\":8064:8070   */\n              dup8\n                /* \"#utility.yul\":8020:8092   */\n              tag_138\n              jump\t// in\n            tag_242:\n                /* \"#utility.yul\":8102:8174   */\n              tag_243\n                /* \"#utility.yul\":8170:8172   */\n              0x60\n                /* \"#utility.yul\":8159:8168   */\n              dup4\n                /* \"#utility.yul\":8155:8173   */\n              add\n                /* \"#utility.yul\":8146:8152   */\n              dup7\n                /* \"#utility.yul\":8102:8174   */\n              tag_135\n              jump\t// in\n            tag_243:\n                /* \"#utility.yul\":8184:8257   */\n              tag_244\n                /* \"#utility.yul\":8252:8255   */\n              0x80\n                /* \"#utility.yul\":8241:8250   */\n              dup4\n                /* \"#utility.yul\":8237:8256   */\n              add\n                /* \"#utility.yul\":8228:8234   */\n              dup6\n                /* \"#utility.yul\":8184:8257   */\n              tag_138\n              jump\t// in\n            tag_244:\n                /* \"#utility.yul\":8267:8334   */\n              tag_245\n                /* \"#utility.yul\":8329:8332   */\n              0xa0\n                /* \"#utility.yul\":8318:8327   */\n              dup4\n                /* \"#utility.yul\":8314:8333   */\n              add\n                /* \"#utility.yul\":8305:8311   */\n              dup5\n                /* \"#utility.yul\":8267:8334   */\n              tag_121\n              jump\t// in\n            tag_245:\n                /* \"#utility.yul\":7487:8341   */\n              swap8\n              swap7\n              pop\n              pop\n              pop\n              pop\n              pop\n              pop\n              pop\n              jump\t// out\n                /* \"#utility.yul\":8347:8569   */\n            tag_43:\n                /* \"#utility.yul\":8440:8444   */\n              0x00\n                /* \"#utility.yul\":8478:8480   */\n              0x20\n                /* \"#utility.yul\":8467:8476   */\n              dup3\n                /* \"#utility.yul\":8463:8481   */\n              add\n                /* \"#utility.yul\":8455:8481   */\n              swap1\n              pop\n                /* \"#utility.yul\":8491:8562   */\n              tag_247\n                /* \"#utility.yul\":8559:8560   */\n              0x00\n                /* \"#utility.yul\":8548:8557   */\n              dup4\n                /* \"#utility.yul\":8544:8561   */\n              add\n                /* \"#utility.yul\":8535:8541   */\n              dup5\n                /* \"#utility.yul\":8491:8562   */\n              tag_138\n              jump\t// in\n            tag_247:\n                /* \"#utility.yul\":8347:8569   */\n              swap3\n              swap2\n              pop\n              pop\n              jump\t// out\n                /* \"#utility.yul\":8575:8755   */\n            tag_143:\n                /* \"#utility.yul\":8623:8700   */\n              0x4e487b7100000000000000000000000000000000000000000000000000000000\n                /* \"#utility.yul\":8620:8621   */\n              0x00\n                /* \"#utility.yul\":8613:8701   */\n              mstore\n                /* \"#utility.yul\":8720:8724   */\n              0x11\n                /* \"#utility.yul\":8717:8718   */\n              0x04\n                /* \"#utility.yul\":8710:8725   */\n              mstore\n                /* \"#utility.yul\":8744:8748   */\n              0x24\n                /* \"#utility.yul\":8741:8742   */\n              0x00\n                /* \"#utility.yul\":8734:8749   */\n              revert\n                /* \"#utility.yul\":8761:9066   */\n            tag_50:\n                /* \"#utility.yul\":8801:8804   */\n              0x00\n                /* \"#utility.yul\":8820:8840   */\n              tag_250\n                /* \"#utility.yul\":8838:8839   */\n              dup3\n                /* \"#utility.yul\":8820:8840   */\n              tag_132\n              jump\t// in\n            tag_250:\n                /* \"#utility.yul\":8815:8840   */\n              swap2\n              pop\n                /* \"#utility.yul\":8854:8874   */\n              tag_251\n                /* \"#utility.yul\":8872:8873   */\n              dup4\n                /* \"#utility.yul\":8854:8874   */\n              tag_132\n              jump\t// in\n            tag_251:\n                /* \"#utility.yul\":8849:8874   */\n              swap3\n              pop\n                /* \"#utility.yul\":9008:9009   */\n              dup3\n                /* \"#utility.yul\":8940:9006   */\n              0xffffffffffffffffffffffffffffffffffffffffffffffffffffffffffffffff\n                /* \"#utility.yul\":8936:9010   */\n              sub\n                /* \"#utility.yul\":8933:8934   */\n              dup3\n                /* \"#utility.yul\":8930:9011   */\n              gt\n                /* \"#utility.yul\":8927:9034   */\n              iszero\n              tag_252\n              jumpi\n                /* \"#utility.yul\":9014:9032   */\n              tag_253\n              tag_143\n              jump\t// in\n            tag_253:\n                /* \"#utility.yul\":8927:9034   */\n            tag_252:\n                /* \"#utility.yul\":9058:9059   */\n              dup3\n                /* \"#utility.yul\":9055:9056   */\n              dup3\n                /* \"#utility.yul\":9051:9060   */\n              add\n                /* \"#utility.yul\":9044:9060   */\n              swap1\n              pop\n                /* \"#utility.yul\":8761:9066   */\n              swap3\n              swap2\n              pop\n              pop\n              jump\t// out\n                /* \"#utility.yul\":9072:9252   */\n            tag_59:\n                /* \"#utility.yul\":9120:9197   */\n              0x4e487b7100000000000000000000000000000000000000000000000000000000\n                /* \"#utility.yul\":9117:9118   */\n              0x00\n                /* \"#utility.yul\":9110:9198   */\n              mstore\n                /* \"#utility.yul\":9217:9221   */\n              0x32\n                /* \"#utility.yul\":9214:9215   */\n              0x04\n                /* \"#utility.yul\":9207:9222   */\n              mstore\n                /* \"#utility.yul\":9241:9245   */\n              0x24\n                /* \"#utility.yul\":9238:9239   */\n              0x00\n                /* \"#utility.yul\":9231:9246   */\n              revert\n                /* \"#utility.yul\":9258:9491   */\n            tag_74:\n                /* \"#utility.yul\":9297:9300   */\n              0x00\n                /* \"#utility.yul\":9320:9344   */\n              tag_256\n                /* \"#utility.yul\":9338:9343   */\n              dup3\n                /* \"#utility.yul\":9320:9344   */\n              tag_132\n              jump\t// in\n            tag_256:\n                /* \"#utility.yul\":9311:9344   */\n              swap2\n              pop\n                /* \"#utility.yul\":9366:9432   */\n              0xffffffffffffffffffffffffffffffffffffffffffffffffffffffffffffffff\n                /* \"#utility.yul\":9359:9364   */\n              dup3\n                /* \"#utility.yul\":9356:9433   */\n              eq\n                /* \"#utility.yul\":9353:9456   */\n              iszero\n              tag_257\n              jumpi\n                /* \"#utility.yul\":9436:9454   */\n              tag_258\n              tag_143\n              jump\t// in\n            tag_258:\n                /* \"#utility.yul\":9353:9456   */\n            tag_257:\n                /* \"#utility.yul\":9483:9484   */\n              0x01\n                /* \"#utility.yul\":9476:9481   */\n              dup3\n                /* \"#utility.yul\":9472:9485   */\n              add\n                /* \"#utility.yul\":9465:9485   */\n              swap1\n              pop\n                /* \"#utility.yul\":9258:9491   */\n              swap2\n              swap1\n              pop\n              jump\t// out\n                /* \"#utility.yul\":9497:9677   */\n            tag_144:\n                /* \"#utility.yul\":9545:9622   */\n              0x4e487b7100000000000000000000000000000000000000000000000000000000\n                /* \"#utility.yul\":9542:9543   */\n              0x00\n                /* \"#utility.yul\":9535:9623   */\n              mstore\n                /* \"#utility.yul\":9642:9646   */\n              0x12\n                /* \"#utility.yul\":9639:9640   */\n              0x04\n                /* \"#utility.yul\":9632:9647   */\n              mstore\n                /* \"#utility.yul\":9666:9670   */\n              0x24\n                /* \"#utility.yul\":9663:9664   */\n              0x00\n                /* \"#utility.yul\":9656:9671   */\n              revert\n                /* \"#utility.yul\":9683:9868   */\n            tag_76:\n                /* \"#utility.yul\":9723:9724   */\n              0x00\n                /* \"#utility.yul\":9740:9760   */\n              tag_261\n                /* \"#utility.yul\":9758:9759   */\n              dup3\n                /* \"#utility.yul\":9740:9760   */\n              tag_132\n              jump\t// in\n            tag_261:\n                /* \"#utility.yul\":9735:9760   */\n              swap2\n              pop\n                /* \"#utility.yul\":9774:9794   */\n              tag_262\n                /* \"#utility.yul\":9792:9793   */\n              dup4\n                /* \"#utility.yul\":9774:9794   */\n              tag_132\n              jump\t// in\n            tag_262:\n                /* \"#utility.yul\":9769:9794   */\n              swap3\n              pop\n                /* \"#utility.yul\":9813:9814   */\n              dup3\n                /* \"#utility.yul\":9803:9838   */\n              tag_263\n              jumpi\n                /* \"#utility.yul\":9818:9836   */\n              tag_264\n              tag_144\n              jump\t// in\n            tag_264:\n                /* \"#utility.yul\":9803:9838   */\n            tag_263:\n                /* \"#utility.yul\":9860:9861   */\n              dup3\n                /* \"#utility.yul\":9857:9858   */\n              dup3\n                /* \"#utility.yul\":9853:9862   */\n              div\n                /* \"#utility.yul\":9848:9862   */\n              swap1\n              pop\n                /* \"#utility.yul\":9683:9868   */\n              swap3\n              swap2\n              pop\n              pop\n              jump\t// out\n                /* \"#utility.yul\":9874:10054   */\n            tag_145:\n                /* \"#utility.yul\":9922:9999   */\n              0x4e487b7100000000000000000000000000000000000000000000000000000000\n                /* \"#utility.yul\":9919:9920   */\n              0x00\n                /* \"#utility.yul\":9912:10000   */\n              mstore\n                /* \"#utility.yul\":10019:10023   */\n              0x22\n                /* \"#utility.yul\":10016:10017   */\n              0x04\n                /* \"#utility.yul\":10009:10024   */\n              mstore\n                /* \"#utility.yul\":10043:10047   */\n              0x24\n                /* \"#utility.yul\":10040:10041   */\n              0x00\n                /* \"#utility.yul\":10033:10048   */\n              revert\n                /* \"#utility.yul\":10060:10380   */\n            tag_95:\n                /* \"#utility.yul\":10104:10110   */\n              0x00\n                /* \"#utility.yul\":10141:10142   */\n              0x02\n                /* \"#utility.yul\":10135:10139   */\n              dup3\n                /* \"#utility.yul\":10131:10143   */\n              div\n                /* \"#utility.yul\":10121:10143   */\n              swap1\n              pop\n                /* \"#utility.yul\":10188:10189   */\n              0x01\n                /* \"#utility.yul\":10182:10186   */\n              dup3\n                /* \"#utility.yul\":10178:10190   */\n              and\n                /* \"#utility.yul\":10209:10227   */\n              dup1\n                /* \"#utility.yul\":10199:10280   */\n              tag_267\n              jumpi\n                /* \"#utility.yul\":10265:10269   */\n              0x7f\n                /* \"#utility.yul\":10257:10263   */\n              dup3\n                /* \"#utility.yul\":10253:10270   */\n              and\n                /* \"#utility.yul\":10243:10270   */\n              swap2\n              pop\n                /* \"#utility.yul\":10199:10280   */\n            tag_267:\n                /* \"#utility.yul\":10327:10329   */\n              0x20\n                /* \"#utility.yul\":10319:10325   */\n              dup3\n                /* \"#utility.yul\":10316:10330   */\n              lt\n                /* \"#utility.yul\":10296:10314   */\n              dup2\n                /* \"#utility.yul\":10293:10331   */\n              eq\n                /* \"#utility.yul\":10290:10374   */\n              iszero\n              tag_268\n              jumpi\n                /* \"#utility.yul\":10346:10364   */\n              tag_269\n              tag_145\n              jump\t// in\n            tag_269:\n                /* \"#utility.yul\":10290:10374   */\n            tag_268:\n                /* \"#utility.yul\":10111:10380   */\n              pop\n                /* \"#utility.yul\":10060:10380   */\n              swap2\n              swap1\n              pop\n              jump\t// out\n\n            auxdata: 0xa264697066735822122010959fea4b27d96475952e8fe57653203173ab5fda7c7e97700f5551fd61892f64736f6c634300080b0033\n        }\n    }\n\n    auxdata: 0xa26469706673582212200a7e9d0c9f9c9368e1f0cfad63e6a1dc43297fae476986e86692d93c811f9ea864736f6c634300080b0033\n}\n","bytecode":{"linkReferences":{},"object":"608060405234801561001057600080fd5b506114ff806100206000396000f3fe608060405234801561001057600080fd5b50600436106100415760003560e01c80632a3a4d8a14610046578063b2395a1414610064578063caa04b6114610094575b600080fd5b61004e6100b0565b60405161005b9190610359565b60405180910390f35b61007e600480360381019061007991906103b6565b61013e565b60405161008b91906103f2565b60405180910390f35b6100ae60048036038101906100a991906103b6565b61017d565b005b6060600080548060200260200160405190810160405280929190818152602001828054801561013457602002820191906000526020600020905b8160009054906101000a900473ffffffffffffffffffffffffffffffffffffffff1673ffffffffffffffffffffffffffffffffffffffff16815260200190600101908083116100ea575b5050505050905090565b6000818154811061014e57600080fd5b906000526020600020016000915054906101000a900473ffffffffffffffffffffffffffffffffffffffff1681565b6000813360405161018d9061021e565b61019892919061043d565b604051809103906000f0801580156101b4573d6000803e3d6000fd5b5090506000819080600181540180825580915050600190039060005260206000200160009091909190916101000a81548173ffffffffffffffffffffffffffffffffffffffff021916908373ffffffffffffffffffffffffffffffffffffffff1602179055505050565b6110638061046783390190565b600081519050919050565b600082825260208201905092915050565b6000819050602082019050919050565b600073ffffffffffffffffffffffffffffffffffffffff82169050919050565b6000819050919050565b600061029c61029761029284610257565b610277565b610257565b9050919050565b60006102ae82610281565b9050919050565b60006102c0826102a3565b9050919050565b6102d0816102b5565b82525050565b60006102e283836102c7565b60208301905092915050565b6000602082019050919050565b60006103068261022b565b6103108185610236565b935061031b83610247565b8060005b8381101561034c57815161033388826102d6565b975061033e836102ee565b92505060018101905061031f565b5085935050505092915050565b6000602082019050818103600083015261037381846102fb565b905092915050565b600080fd5b6000819050919050565b61039381610380565b811461039e57600080fd5b50565b6000813590506103b08161038a565b92915050565b6000602082840312156103cc576103cb61037b565b5b60006103da848285016103a1565b91505092915050565b6103ec816102b5565b82525050565b600060208201905061040760008301846103e3565b92915050565b61041681610380565b82525050565b600061042782610257565b9050919050565b6104378161041c565b82525050565b6000604082019050610452600083018561040d565b61045f602083018461042e565b939250505056fe60806040523480156200001157600080fd5b50604051620010633803806200106383398181016040528101906200003791906200012c565b80600260006101000a81548173ffffffffffffffffffffffffffffffffffffffff021916908373ffffffffffffffffffffffffffffffffffffffff16021790555081600381905550505062000173565b600080fd5b6000819050919050565b620000a1816200008c565b8114620000ad57600080fd5b50565b600081519050620000c18162000096565b92915050565b600073ffffffffffffffffffffffffffffffffffffffff82169050919050565b6000620000f482620000c7565b9050919050565b6200010681620000e7565b81146200011257600080fd5b50565b6000815190506200012681620000fb565b92915050565b6000806040838503121562000146576200014562000087565b5b60006200015685828601620000b0565b9250506020620001698582860162000115565b9150509250929050565b610ee080620001836000396000f3fe6080604052600436106100705760003560e01c806375f66b771161004e57806375f66b771461010657806381d12c581461012f578063aaffadf314610171578063d7bb99ba1461019c57610070565b80630a144391146100755780630bfd66c9146100b2578063481c6a75146100db575b600080fd5b34801561008157600080fd5b5061009c600480360381019061009791906108c1565b6101a6565b6040516100a99190610909565b60405180910390f35b3480156100be57600080fd5b506100d960048036038101906100d49190610aa0565b6101c6565b005b3480156100e757600080fd5b506100f0610306565b6040516100fd9190610b1e565b60405180910390f35b34801561011257600080fd5b5061012d60048036038101906101289190610b65565b61032c565b005b34801561013b57600080fd5b5061015660048036038101906101519190610ba5565b610624565b60405161016896959493929190610c69565b60405180910390f35b34801561017d57600080fd5b50610186610725565b6040516101939190610cd1565b60405180910390f35b6101a461072b565b005b60056020528060005260406000206000915054906101000a900460ff1681565b600260009054906101000a900473ffffffffffffffffffffffffffffffffffffffff1673ffffffffffffffffffffffffffffffffffffffff163373ffffffffffffffffffffffffffffffffffffffff161461022057600080fd5b60016000808282546102329190610d1b565b9250508190555047821061024557600080fd5b60006004600181600181540180825580915050039060005260206000209060070201905060005481600001819055508381600101908051906020019061028c9291906107ac565b50828160020181905550818160030160006101000a81548173ffffffffffffffffffffffffffffffffffffffff021916908373ffffffffffffffffffffffffffffffffffffffff1602179055506000816004018190555060008160050160006101000a81548160ff02191690831515021790555050505050565b600260009054906101000a900473ffffffffffffffffffffffffffffffffffffffff1681565b600560003373ffffffffffffffffffffffffffffffffffffffff1673ffffffffffffffffffffffffffffffffffffffff16815260200190815260200160002060009054906101000a900460ff1661038257600080fd5b6004828154811061039657610395610d71565b5b906000526020600020906007020160050160009054906101000a900460ff16156103bf57600080fd5b600482815481106103d3576103d2610d71565b5b906000526020600020906007020160060160003373ffffffffffffffffffffffffffffffffffffffff1673ffffffffffffffffffffffffffffffffffffffff16815260200190815260200160002060009054906101000a900460ff161561043957600080fd5b806004838154811061044e5761044d610d71565b5b906000526020600020906007020160060160003373ffffffffffffffffffffffffffffffffffffffff1673ffffffffffffffffffffffffffffffffffffffff16815260200190815260200160002060006101000a81548160ff02191690831515021790555080156104f557600482815481106104cd576104cc610d71565b5b906000526020600020906007020160040160008154809291906104ef90610da0565b91905055505b60026001546105049190610e18565b6004838154811061051857610517610d71565b5b90600052602060002090600702016004015411156106205760016004838154811061054657610545610d71565b5b906000526020600020906007020160050160006101000a81548160ff0219169083151502179055506004828154811061058257610581610d71565b5b906000526020600020906007020160030160009054906101000a900473ffffffffffffffffffffffffffffffffffffffff1673ffffffffffffffffffffffffffffffffffffffff166108fc600484815481106105e1576105e0610d71565b5b9060005260206000209060070201600201549081150290604051600060405180830381858888f1935050505015801561061e573d6000803e3d6000fd5b505b5050565b6004818154811061063457600080fd5b906000526020600020906007020160009150905080600001549080600101805461065d90610e78565b80601f016020809104026020016040519081016040528092919081815260200182805461068990610e78565b80156106d65780601f106106ab576101008083540402835291602001916106d6565b820191906000526020600020905b8154815290600101906020018083116106b957829003601f168201915b5050505050908060020154908060030160009054906101000a900473ffffffffffffffffffffffffffffffffffffffff16908060040154908060050160009054906101000a900460ff16905086565b60035481565b60035434101561073a57600080fd5b6001600081548092919061074d90610da0565b91905055506001600560003373ffffffffffffffffffffffffffffffffffffffff1673ffffffffffffffffffffffffffffffffffffffff16815260200190815260200160002060006101000a81548160ff021916908315150217905550565b8280546107b890610e78565b90600052602060002090601f0160209004810192826107da5760008555610821565b82601f106107f357805160ff1916838001178555610821565b82800160010185558215610821579182015b82811115610820578251825591602001919060010190610805565b5b50905061082e9190610832565b5090565b5b8082111561084b576000816000905550600101610833565b5090565b6000604051905090565b600080fd5b600080fd5b600073ffffffffffffffffffffffffffffffffffffffff82169050919050565b600061088e82610863565b9050919050565b61089e81610883565b81146108a957600080fd5b50565b6000813590506108bb81610895565b92915050565b6000602082840312156108d7576108d6610859565b5b60006108e5848285016108ac565b91505092915050565b60008115159050919050565b610903816108ee565b82525050565b600060208201905061091e60008301846108fa565b92915050565b600080fd5b600080fd5b6000601f19601f8301169050919050565b7f4e487b7100000000000000000000000000000000000000000000000000000000600052604160045260246000fd5b6109778261092e565b810181811067ffffffffffffffff821117156109965761099561093f565b5b80604052505050565b60006109a961084f565b90506109b5828261096e565b919050565b600067ffffffffffffffff8211156109d5576109d461093f565b5b6109de8261092e565b9050602081019050919050565b82818337600083830152505050565b6000610a0d610a08846109ba565b61099f565b905082815260208101848484011115610a2957610a28610929565b5b610a348482856109eb565b509392505050565b600082601f830112610a5157610a50610924565b5b8135610a618482602086016109fa565b91505092915050565b6000819050919050565b610a7d81610a6a565b8114610a8857600080fd5b50565b600081359050610a9a81610a74565b92915050565b600080600060608486031215610ab957610ab8610859565b5b600084013567ffffffffffffffff811115610ad757610ad661085e565b5b610ae386828701610a3c565b9350506020610af486828701610a8b565b9250506040610b05868287016108ac565b9150509250925092565b610b1881610883565b82525050565b6000602082019050610b336000830184610b0f565b92915050565b610b42816108ee565b8114610b4d57600080fd5b50565b600081359050610b5f81610b39565b92915050565b60008060408385031215610b7c57610b7b610859565b5b6000610b8a85828601610a8b565b9250506020610b9b85828601610b50565b9150509250929050565b600060208284031215610bbb57610bba610859565b5b6000610bc984828501610a8b565b91505092915050565b610bdb81610a6a565b82525050565b600081519050919050565b600082825260208201905092915050565b60005b83811015610c1b578082015181840152602081019050610c00565b83811115610c2a576000848401525b50505050565b6000610c3b82610be1565b610c458185610bec565b9350610c55818560208601610bfd565b610c5e8161092e565b840191505092915050565b600060c082019050610c7e6000830189610bd2565b8181036020830152610c908188610c30565b9050610c9f6040830187610bd2565b610cac6060830186610b0f565b610cb96080830185610bd2565b610cc660a08301846108fa565b979650505050505050565b6000602082019050610ce66000830184610bd2565b92915050565b7f4e487b7100000000000000000000000000000000000000000000000000000000600052601160045260246000fd5b6000610d2682610a6a565b9150610d3183610a6a565b9250827fffffffffffffffffffffffffffffffffffffffffffffffffffffffffffffffff03821115610d6657610d65610cec565b5b828201905092915050565b7f4e487b7100000000000000000000000000000000000000000000000000000000600052603260045260246000fd5b6000610dab82610a6a565b91507fffffffffffffffffffffffffffffffffffffffffffffffffffffffffffffffff821415610dde57610ddd610cec565b5b600182019050919050565b7f4e487b7100000000000000000000000000000000000000000000000000000000600052601260045260246000fd5b6000610e2382610a6a565b9150610e2e83610a6a565b925082610e3e57610e3d610de9565b5b828204905092915050565b7f4e487b7100000000000000000000000000000000000000000000000000000000600052602260045260246000fd5b60006002820490506001821680610e9057607f821691505b60208210811415610ea457610ea3610e49565b5b5091905056fea264697066735822122010959fea4b27d96475952e8fe57653203173ab5fda7c7e97700f5551fd61892f64736f6c634300080b0033a26469706673582212200a7e9d0c9f9c9368e1f0cfad63e6a1dc43297fae476986e86692d93c811f9ea864736f6c634300080b0033","opcodes":"PUSH1 0x80 PUSH1 0x40 MSTORE CALLVALUE DUP1 ISZERO PUSH2 0x10 JUMPI PUSH1 0x0 DUP1 REVERT JUMPDEST POP PUSH2 0x14FF DUP1 PUSH2 0x20 PUSH1 0x0 CODECOPY PUSH1 0x0 RETURN INVALID PUSH1 0x80 PUSH1 0x40 MSTORE CALLVALUE DUP1 ISZERO PUSH2 0x10 JUMPI PUSH1 0x0 DUP1 REVERT JUMPDEST POP PUSH1 0x4 CALLDATASIZE LT PUSH2 0x41 JUMPI PUSH1 0x0 CALLDATALOAD PUSH1 0xE0 SHR DUP1 PUSH4 0x2A3A4D8A EQ PUSH2 0x46 JUMPI DUP1 PUSH4 0xB2395A14 EQ PUSH2 0x64 JUMPI DUP1 PUSH4 0xCAA04B61 EQ PUSH2 0x94 JUMPI JUMPDEST PUSH1 0x0 DUP1 REVERT JUMPDEST PUSH2 0x4E PUSH2 0xB0 JUMP JUMPDEST PUSH1 0x40 MLOAD PUSH2 0x5B SWAP2 SWAP1 PUSH2 0x359 JUMP JUMPDEST PUSH1 0x40 MLOAD DUP1 SWAP2 SUB SWAP1 RETURN JUMPDEST PUSH2 0x7E PUSH1 0x4 DUP1 CALLDATASIZE SUB DUP2 ADD SWAP1 PUSH2 0x79 SWAP2 SWAP1 PUSH2 0x3B6 JUMP JUMPDEST PUSH2 0x13E JUMP JUMPDEST PUSH1 0x40 MLOAD PUSH2 0x8B SWAP2 SWAP1 PUSH2 0x3F2 JUMP JUMPDEST PUSH1 0x40 MLOAD DUP1 SWAP2 SUB SWAP1 RETURN JUMPDEST PUSH2 0xAE PUSH1 0x4 DUP1 CALLDATASIZE SUB DUP2 ADD SWAP1 PUSH2 0xA9 SWAP2 SWAP1 PUSH2 0x3B6 JUMP JUMPDEST PUSH2 0x17D JUMP JUMPDEST STOP JUMPDEST PUSH1 0x60 PUSH1 0x0 DUP1 SLOAD DUP1 PUSH1 0x20 MUL PUSH1 0x20 ADD PUSH1 0x40 MLOAD SWAP1 DUP2 ADD PUSH1 0x40 MSTORE DUP1 SWAP3 SWAP2 SWAP1 DUP2 DUP2 MSTORE PUSH1 0x20 ADD DUP3 DUP1 SLOAD DUP1 ISZERO PUSH2 0x134 JUMPI PUSH1 0x20 MUL DUP3 ADD SWAP2 SWAP1 PUSH1 0x0 MSTORE PUSH1 0x20 PUSH1 0x0 KECCAK256 SWAP1 JUMPDEST DUP2 PUSH1 0x0 SWAP1 SLOAD SWAP1 PUSH2 0x100 EXP SWAP1 DIV PUSH20 0xFFFFFFFFFFFFFFFFFFFFFFFFFFFFFFFFFFFFFFFF AND PUSH20 0xFFFFFFFFFFFFFFFFFFFFFFFFFFFFFFFFFFFFFFFF AND DUP2 MSTORE PUSH1 0x20 ADD SWAP1 PUSH1 0x1 ADD SWAP1 DUP1 DUP4 GT PUSH2 0xEA JUMPI JUMPDEST POP POP POP POP POP SWAP1 POP SWAP1 JUMP JUMPDEST PUSH1 0x0 DUP2 DUP2 SLOAD DUP2 LT PUSH2 0x14E JUMPI PUSH1 0x0 DUP1 REVERT JUMPDEST SWAP1 PUSH1 0x0 MSTORE PUSH1 0x20 PUSH1 0x0 KECCAK256 ADD PUSH1 0x0 SWAP2 POP SLOAD SWAP1 PUSH2 0x100 EXP SWAP1 DIV PUSH20 0xFFFFFFFFFFFFFFFFFFFFFFFFFFFFFFFFFFFFFFFF AND DUP2 JUMP JUMPDEST PUSH1 0x0 DUP2 CALLER PUSH1 0x40 MLOAD PUSH2 0x18D SWAP1 PUSH2 0x21E JUMP JUMPDEST PUSH2 0x198 SWAP3 SWAP2 SWAP1 PUSH2 0x43D JUMP JUMPDEST PUSH1 0x40 MLOAD DUP1 SWAP2 SUB SWAP1 PUSH1 0x0 CREATE DUP1 ISZERO DUP1 ISZERO PUSH2 0x1B4 JUMPI RETURNDATASIZE PUSH1 0x0 DUP1 RETURNDATACOPY RETURNDATASIZE PUSH1 0x0 REVERT JUMPDEST POP SWAP1 POP PUSH1 0x0 DUP2 SWAP1 DUP1 PUSH1 0x1 DUP2 SLOAD ADD DUP1 DUP3 SSTORE DUP1 SWAP2 POP POP PUSH1 0x1 SWAP1 SUB SWAP1 PUSH1 0x0 MSTORE PUSH1 0x20 PUSH1 0x0 KECCAK256 ADD PUSH1 0x0 SWAP1 SWAP2 SWAP1 SWAP2 SWAP1 SWAP2 PUSH2 0x100 EXP DUP2 SLOAD DUP2 PUSH20 0xFFFFFFFFFFFFFFFFFFFFFFFFFFFFFFFFFFFFFFFF MUL NOT AND SWAP1 DUP4 PUSH20 0xFFFFFFFFFFFFFFFFFFFFFFFFFFFFFFFFFFFFFFFF AND MUL OR SWAP1 SSTORE POP POP POP JUMP JUMPDEST PUSH2 0x1063 DUP1 PUSH2 0x467 DUP4 CODECOPY ADD SWAP1 JUMP JUMPDEST PUSH1 0x0 DUP2 MLOAD SWAP1 POP SWAP2 SWAP1 POP JUMP JUMPDEST PUSH1 0x0 DUP3 DUP3 MSTORE PUSH1 0x20 DUP3 ADD SWAP1 POP SWAP3 SWAP2 POP POP JUMP JUMPDEST PUSH1 0x0 DUP2 SWAP1 POP PUSH1 0x20 DUP3 ADD SWAP1 POP SWAP2 SWAP1 POP JUMP JUMPDEST PUSH1 0x0 PUSH20 0xFFFFFFFFFFFFFFFFFFFFFFFFFFFFFFFFFFFFFFFF DUP3 AND SWAP1 POP SWAP2 SWAP1 POP JUMP JUMPDEST PUSH1 0x0 DUP2 SWAP1 POP SWAP2 SWAP1 POP JUMP JUMPDEST PUSH1 0x0 PUSH2 0x29C PUSH2 0x297 PUSH2 0x292 DUP5 PUSH2 0x257 JUMP JUMPDEST PUSH2 0x277 JUMP JUMPDEST PUSH2 0x257 JUMP JUMPDEST SWAP1 POP SWAP2 SWAP1 POP JUMP JUMPDEST PUSH1 0x0 PUSH2 0x2AE DUP3 PUSH2 0x281 JUMP JUMPDEST SWAP1 POP SWAP2 SWAP1 POP JUMP JUMPDEST PUSH1 0x0 PUSH2 0x2C0 DUP3 PUSH2 0x2A3 JUMP JUMPDEST SWAP1 POP SWAP2 SWAP1 POP JUMP JUMPDEST PUSH2 0x2D0 DUP2 PUSH2 0x2B5 JUMP JUMPDEST DUP3 MSTORE POP POP JUMP JUMPDEST PUSH1 0x0 PUSH2 0x2E2 DUP4 DUP4 PUSH2 0x2C7 JUMP JUMPDEST PUSH1 0x20 DUP4 ADD SWAP1 POP SWAP3 SWAP2 POP POP JUMP JUMPDEST PUSH1 0x0 PUSH1 0x20 DUP3 ADD SWAP1 POP SWAP2 SWAP1 POP JUMP JUMPDEST PUSH1 0x0 PUSH2 0x306 DUP3 PUSH2 0x22B JUMP JUMPDEST PUSH2 0x310 DUP2 DUP6 PUSH2 0x236 JUMP JUMPDEST SWAP4 POP PUSH2 0x31B DUP4 PUSH2 0x247 JUMP JUMPDEST DUP1 PUSH1 0x0 JUMPDEST DUP4 DUP2 LT ISZERO PUSH2 0x34C JUMPI DUP2 MLOAD PUSH2 0x333 DUP9 DUP3 PUSH2 0x2D6 JUMP JUMPDEST SWAP8 POP PUSH2 0x33E DUP4 PUSH2 0x2EE JUMP JUMPDEST SWAP3 POP POP PUSH1 0x1 DUP2 ADD SWAP1 POP PUSH2 0x31F JUMP JUMPDEST POP DUP6 SWAP4 POP POP POP POP SWAP3 SWAP2 POP POP JUMP JUMPDEST PUSH1 0x0 PUSH1 0x20 DUP3 ADD SWAP1 POP DUP2 DUP2 SUB PUSH1 0x0 DUP4 ADD MSTORE PUSH2 0x373 DUP2 DUP5 PUSH2 0x2FB JUMP JUMPDEST SWAP1 POP SWAP3 SWAP2 POP POP JUMP JUMPDEST PUSH1 0x0 DUP1 REVERT JUMPDEST PUSH1 0x0 DUP2 SWAP1 POP SWAP2 SWAP1 POP JUMP JUMPDEST PUSH2 0x393 DUP2 PUSH2 0x380 JUMP JUMPDEST DUP2 EQ PUSH2 0x39E JUMPI PUSH1 0x0 DUP1 REVERT JUMPDEST POP JUMP JUMPDEST PUSH1 0x0 DUP2 CALLDATALOAD SWAP1 POP PUSH2 0x3B0 DUP2 PUSH2 0x38A JUMP JUMPDEST SWAP3 SWAP2 POP POP JUMP JUMPDEST PUSH1 0x0 PUSH1 0x20 DUP3 DUP5 SUB SLT ISZERO PUSH2 0x3CC JUMPI PUSH2 0x3CB PUSH2 0x37B JUMP JUMPDEST JUMPDEST PUSH1 0x0 PUSH2 0x3DA DUP5 DUP3 DUP6 ADD PUSH2 0x3A1 JUMP JUMPDEST SWAP2 POP POP SWAP3 SWAP2 POP POP JUMP JUMPDEST PUSH2 0x3EC DUP2 PUSH2 0x2B5 JUMP JUMPDEST DUP3 MSTORE POP POP JUMP JUMPDEST PUSH1 0x0 PUSH1 0x20 DUP3 ADD SWAP1 POP PUSH2 0x407 PUSH1 0x0 DUP4 ADD DUP5 PUSH2 0x3E3 JUMP JUMPDEST SWAP3 SWAP2 POP POP JUMP JUMPDEST PUSH2 0x416 DUP2 PUSH2 0x380 JUMP JUMPDEST DUP3 MSTORE POP POP JUMP JUMPDEST PUSH1 0x0 PUSH2 0x427 DUP3 PUSH2 0x257 JUMP JUMPDEST SWAP1 POP SWAP2 SWAP1 POP JUMP JUMPDEST PUSH2 0x437 DUP2 PUSH2 0x41C JUMP JUMPDEST DUP3 MSTORE POP POP JUMP JUMPDEST PUSH1 0x0 PUSH1 0x40 DUP3 ADD SWAP1 POP PUSH2 0x452 PUSH1 0x0 DUP4 ADD DUP6 PUSH2 0x40D JUMP JUMPDEST PUSH2 0x45F PUSH1 0x20 DUP4 ADD DUP5 PUSH2 0x42E JUMP JUMPDEST SWAP4 SWAP3 POP POP POP JUMP INVALID PUSH1 0x80 PUSH1 0x40 MSTORE CALLVALUE DUP1 ISZERO PUSH3 0x11 JUMPI PUSH1 0x0 DUP1 REVERT JUMPDEST POP PUSH1 0x40 MLOAD PUSH3 0x1063 CODESIZE SUB DUP1 PUSH3 0x1063 DUP4 CODECOPY DUP2 DUP2 ADD PUSH1 0x40 MSTORE DUP2 ADD SWAP1 PUSH3 0x37 SWAP2 SWAP1 PUSH3 0x12C JUMP JUMPDEST DUP1 PUSH1 0x2 PUSH1 0x0 PUSH2 0x100 EXP DUP2 SLOAD DUP2 PUSH20 0xFFFFFFFFFFFFFFFFFFFFFFFFFFFFFFFFFFFFFFFF MUL NOT AND SWAP1 DUP4 PUSH20 0xFFFFFFFFFFFFFFFFFFFFFFFFFFFFFFFFFFFFFFFF AND MUL OR SWAP1 SSTORE POP DUP2 PUSH1 0x3 DUP2 SWAP1 SSTORE POP POP POP PUSH3 0x173 JUMP JUMPDEST PUSH1 0x0 DUP1 REVERT JUMPDEST PUSH1 0x0 DUP2 SWAP1 POP SWAP2 SWAP1 POP JUMP JUMPDEST PUSH3 0xA1 DUP2 PUSH3 0x8C JUMP JUMPDEST DUP2 EQ PUSH3 0xAD JUMPI PUSH1 0x0 DUP1 REVERT JUMPDEST POP JUMP JUMPDEST PUSH1 0x0 DUP2 MLOAD SWAP1 POP PUSH3 0xC1 DUP2 PUSH3 0x96 JUMP JUMPDEST SWAP3 SWAP2 POP POP JUMP JUMPDEST PUSH1 0x0 PUSH20 0xFFFFFFFFFFFFFFFFFFFFFFFFFFFFFFFFFFFFFFFF DUP3 AND SWAP1 POP SWAP2 SWAP1 POP JUMP JUMPDEST PUSH1 0x0 PUSH3 0xF4 DUP3 PUSH3 0xC7 JUMP JUMPDEST SWAP1 POP SWAP2 SWAP1 POP JUMP JUMPDEST PUSH3 0x106 DUP2 PUSH3 0xE7 JUMP JUMPDEST DUP2 EQ PUSH3 0x112 JUMPI PUSH1 0x0 DUP1 REVERT JUMPDEST POP JUMP JUMPDEST PUSH1 0x0 DUP2 MLOAD SWAP1 POP PUSH3 0x126 DUP2 PUSH3 0xFB JUMP JUMPDEST SWAP3 SWAP2 POP POP JUMP JUMPDEST PUSH1 0x0 DUP1 PUSH1 0x40 DUP4 DUP6 SUB SLT ISZERO PUSH3 0x146 JUMPI PUSH3 0x145 PUSH3 0x87 JUMP JUMPDEST JUMPDEST PUSH1 0x0 PUSH3 0x156 DUP6 DUP3 DUP7 ADD PUSH3 0xB0 JUMP JUMPDEST SWAP3 POP POP PUSH1 0x20 PUSH3 0x169 DUP6 DUP3 DUP7 ADD PUSH3 0x115 JUMP JUMPDEST SWAP2 POP POP SWAP3 POP SWAP3 SWAP1 POP JUMP JUMPDEST PUSH2 0xEE0 DUP1 PUSH3 0x183 PUSH1 0x0 CODECOPY PUSH1 0x0 RETURN INVALID PUSH1 0x80 PUSH1 0x40 MSTORE PUSH1 0x4 CALLDATASIZE LT PUSH2 0x70 JUMPI PUSH1 0x0 CALLDATALOAD PUSH1 0xE0 SHR DUP1 PUSH4 0x75F66B77 GT PUSH2 0x4E JUMPI DUP1 PUSH4 0x75F66B77 EQ PUSH2 0x106 JUMPI DUP1 PUSH4 0x81D12C58 EQ PUSH2 0x12F JUMPI DUP1 PUSH4 0xAAFFADF3 EQ PUSH2 0x171 JUMPI DUP1 PUSH4 0xD7BB99BA EQ PUSH2 0x19C JUMPI PUSH2 0x70 JUMP JUMPDEST DUP1 PUSH4 0xA144391 EQ PUSH2 0x75 JUMPI DUP1 PUSH4 0xBFD66C9 EQ PUSH2 0xB2 JUMPI DUP1 PUSH4 0x481C6A75 EQ PUSH2 0xDB JUMPI JUMPDEST PUSH1 0x0 DUP1 REVERT JUMPDEST CALLVALUE DUP1 ISZERO PUSH2 0x81 JUMPI PUSH1 0x0 DUP1 REVERT JUMPDEST POP PUSH2 0x9C PUSH1 0x4 DUP1 CALLDATASIZE SUB DUP2 ADD SWAP1 PUSH2 0x97 SWAP2 SWAP1 PUSH2 0x8C1 JUMP JUMPDEST PUSH2 0x1A6 JUMP JUMPDEST PUSH1 0x40 MLOAD PUSH2 0xA9 SWAP2 SWAP1 PUSH2 0x909 JUMP JUMPDEST PUSH1 0x40 MLOAD DUP1 SWAP2 SUB SWAP1 RETURN JUMPDEST CALLVALUE DUP1 ISZERO PUSH2 0xBE JUMPI PUSH1 0x0 DUP1 REVERT JUMPDEST POP PUSH2 0xD9 PUSH1 0x4 DUP1 CALLDATASIZE SUB DUP2 ADD SWAP1 PUSH2 0xD4 SWAP2 SWAP1 PUSH2 0xAA0 JUMP JUMPDEST PUSH2 0x1C6 JUMP JUMPDEST STOP JUMPDEST CALLVALUE DUP1 ISZERO PUSH2 0xE7 JUMPI PUSH1 0x0 DUP1 REVERT JUMPDEST POP PUSH2 0xF0 PUSH2 0x306 JUMP JUMPDEST PUSH1 0x40 MLOAD PUSH2 0xFD SWAP2 SWAP1 PUSH2 0xB1E JUMP JUMPDEST PUSH1 0x40 MLOAD DUP1 SWAP2 SUB SWAP1 RETURN JUMPDEST CALLVALUE DUP1 ISZERO PUSH2 0x112 JUMPI PUSH1 0x0 DUP1 REVERT JUMPDEST POP PUSH2 0x12D PUSH1 0x4 DUP1 CALLDATASIZE SUB DUP2 ADD SWAP1 PUSH2 0x128 SWAP2 SWAP1 PUSH2 0xB65 JUMP JUMPDEST PUSH2 0x32C JUMP JUMPDEST STOP JUMPDEST CALLVALUE DUP1 ISZERO PUSH2 0x13B JUMPI PUSH1 0x0 DUP1 REVERT JUMPDEST POP PUSH2 0x156 PUSH1 0x4 DUP1 CALLDATASIZE SUB DUP2 ADD SWAP1 PUSH2 0x151 SWAP2 SWAP1 PUSH2 0xBA5 JUMP JUMPDEST PUSH2 0x624 JUMP JUMPDEST PUSH1 0x40 MLOAD PUSH2 0x168 SWAP7 SWAP6 SWAP5 SWAP4 SWAP3 SWAP2 SWAP1 PUSH2 0xC69 JUMP JUMPDEST PUSH1 0x40 MLOAD DUP1 SWAP2 SUB SWAP1 RETURN JUMPDEST CALLVALUE DUP1 ISZERO PUSH2 0x17D JUMPI PUSH1 0x0 DUP1 REVERT JUMPDEST POP PUSH2 0x186 PUSH2 0x725 JUMP JUMPDEST PUSH1 0x40 MLOAD PUSH2 0x193 SWAP2 SWAP1 PUSH2 0xCD1 JUMP JUMPDEST PUSH1 0x40 MLOAD DUP1 SWAP2 SUB SWAP1 RETURN JUMPDEST PUSH2 0x1A4 PUSH2 0x72B JUMP JUMPDEST STOP JUMPDEST PUSH1 0x5 PUSH1 0x20 MSTORE DUP1 PUSH1 0x0 MSTORE PUSH1 0x40 PUSH1 0x0 KECCAK256 PUSH1 0x0 SWAP2 POP SLOAD SWAP1 PUSH2 0x100 EXP SWAP1 DIV PUSH1 0xFF AND DUP2 JUMP JUMPDEST PUSH1 0x2 PUSH1 0x0 SWAP1 SLOAD SWAP1 PUSH2 0x100 EXP SWAP1 DIV PUSH20 0xFFFFFFFFFFFFFFFFFFFFFFFFFFFFFFFFFFFFFFFF AND PUSH20 0xFFFFFFFFFFFFFFFFFFFFFFFFFFFFFFFFFFFFFFFF AND CALLER PUSH20 0xFFFFFFFFFFFFFFFFFFFFFFFFFFFFFFFFFFFFFFFF AND EQ PUSH2 0x220 JUMPI PUSH1 0x0 DUP1 REVERT JUMPDEST PUSH1 0x1 PUSH1 0x0 DUP1 DUP3 DUP3 SLOAD PUSH2 0x232 SWAP2 SWAP1 PUSH2 0xD1B JUMP JUMPDEST SWAP3 POP POP DUP2 SWAP1 SSTORE POP SELFBALANCE DUP3 LT PUSH2 0x245 JUMPI PUSH1 0x0 DUP1 REVERT JUMPDEST PUSH1 0x0 PUSH1 0x4 PUSH1 0x1 DUP2 PUSH1 0x1 DUP2 SLOAD ADD DUP1 DUP3 SSTORE DUP1 SWAP2 POP POP SUB SWAP1 PUSH1 0x0 MSTORE PUSH1 0x20 PUSH1 0x0 KECCAK256 SWAP1 PUSH1 0x7 MUL ADD SWAP1 POP PUSH1 0x0 SLOAD DUP2 PUSH1 0x0 ADD DUP2 SWAP1 SSTORE POP DUP4 DUP2 PUSH1 0x1 ADD SWAP1 DUP1 MLOAD SWAP1 PUSH1 0x20 ADD SWAP1 PUSH2 0x28C SWAP3 SWAP2 SWAP1 PUSH2 0x7AC JUMP JUMPDEST POP DUP3 DUP2 PUSH1 0x2 ADD DUP2 SWAP1 SSTORE POP DUP2 DUP2 PUSH1 0x3 ADD PUSH1 0x0 PUSH2 0x100 EXP DUP2 SLOAD DUP2 PUSH20 0xFFFFFFFFFFFFFFFFFFFFFFFFFFFFFFFFFFFFFFFF MUL NOT AND SWAP1 DUP4 PUSH20 0xFFFFFFFFFFFFFFFFFFFFFFFFFFFFFFFFFFFFFFFF AND MUL OR SWAP1 SSTORE POP PUSH1 0x0 DUP2 PUSH1 0x4 ADD DUP2 SWAP1 SSTORE POP PUSH1 0x0 DUP2 PUSH1 0x5 ADD PUSH1 0x0 PUSH2 0x100 EXP DUP2 SLOAD DUP2 PUSH1 0xFF MUL NOT AND SWAP1 DUP4 ISZERO ISZERO MUL OR SWAP1 SSTORE POP POP POP POP POP JUMP JUMPDEST PUSH1 0x2 PUSH1 0x0 SWAP1 SLOAD SWAP1 PUSH2 0x100 EXP SWAP1 DIV PUSH20 0xFFFFFFFFFFFFFFFFFFFFFFFFFFFFFFFFFFFFFFFF AND DUP2 JUMP JUMPDEST PUSH1 0x5 PUSH1 0x0 CALLER PUSH20 0xFFFFFFFFFFFFFFFFFFFFFFFFFFFFFFFFFFFFFFFF AND PUSH20 0xFFFFFFFFFFFFFFFFFFFFFFFFFFFFFFFFFFFFFFFF AND DUP2 MSTORE PUSH1 0x20 ADD SWAP1 DUP2 MSTORE PUSH1 0x20 ADD PUSH1 0x0 KECCAK256 PUSH1 0x0 SWAP1 SLOAD SWAP1 PUSH2 0x100 EXP SWAP1 DIV PUSH1 0xFF AND PUSH2 0x382 JUMPI PUSH1 0x0 DUP1 REVERT JUMPDEST PUSH1 0x4 DUP3 DUP2 SLOAD DUP2 LT PUSH2 0x396 JUMPI PUSH2 0x395 PUSH2 0xD71 JUMP JUMPDEST JUMPDEST SWAP1 PUSH1 0x0 MSTORE PUSH1 0x20 PUSH1 0x0 KECCAK256 SWAP1 PUSH1 0x7 MUL ADD PUSH1 0x5 ADD PUSH1 0x0 SWAP1 SLOAD SWAP1 PUSH2 0x100 EXP SWAP1 DIV PUSH1 0xFF AND ISZERO PUSH2 0x3BF JUMPI PUSH1 0x0 DUP1 REVERT JUMPDEST PUSH1 0x4 DUP3 DUP2 SLOAD DUP2 LT PUSH2 0x3D3 JUMPI PUSH2 0x3D2 PUSH2 0xD71 JUMP JUMPDEST JUMPDEST SWAP1 PUSH1 0x0 MSTORE PUSH1 0x20 PUSH1 0x0 KECCAK256 SWAP1 PUSH1 0x7 MUL ADD PUSH1 0x6 ADD PUSH1 0x0 CALLER PUSH20 0xFFFFFFFFFFFFFFFFFFFFFFFFFFFFFFFFFFFFFFFF AND PUSH20 0xFFFFFFFFFFFFFFFFFFFFFFFFFFFFFFFFFFFFFFFF AND DUP2 MSTORE PUSH1 0x20 ADD SWAP1 DUP2 MSTORE PUSH1 0x20 ADD PUSH1 0x0 KECCAK256 PUSH1 0x0 SWAP1 SLOAD SWAP1 PUSH2 0x100 EXP SWAP1 DIV PUSH1 0xFF AND ISZERO PUSH2 0x439 JUMPI PUSH1 0x0 DUP1 REVERT JUMPDEST DUP1 PUSH1 0x4 DUP4 DUP2 SLOAD DUP2 LT PUSH2 0x44E JUMPI PUSH2 0x44D PUSH2 0xD71 JUMP JUMPDEST JUMPDEST SWAP1 PUSH1 0x0 MSTORE PUSH1 0x20 PUSH1 0x0 KECCAK256 SWAP1 PUSH1 0x7 MUL ADD PUSH1 0x6 ADD PUSH1 0x0 CALLER PUSH20 0xFFFFFFFFFFFFFFFFFFFFFFFFFFFFFFFFFFFFFFFF AND PUSH20 0xFFFFFFFFFFFFFFFFFFFFFFFFFFFFFFFFFFFFFFFF AND DUP2 MSTORE PUSH1 0x20 ADD SWAP1 DUP2 MSTORE PUSH1 0x20 ADD PUSH1 0x0 KECCAK256 PUSH1 0x0 PUSH2 0x100 EXP DUP2 SLOAD DUP2 PUSH1 0xFF MUL NOT AND SWAP1 DUP4 ISZERO ISZERO MUL OR SWAP1 SSTORE POP DUP1 ISZERO PUSH2 0x4F5 JUMPI PUSH1 0x4 DUP3 DUP2 SLOAD DUP2 LT PUSH2 0x4CD JUMPI PUSH2 0x4CC PUSH2 0xD71 JUMP JUMPDEST JUMPDEST SWAP1 PUSH1 0x0 MSTORE PUSH1 0x20 PUSH1 0x0 KECCAK256 SWAP1 PUSH1 0x7 MUL ADD PUSH1 0x4 ADD PUSH1 0x0 DUP2 SLOAD DUP1 SWAP3 SWAP2 SWAP1 PUSH2 0x4EF SWAP1 PUSH2 0xDA0 JUMP JUMPDEST SWAP2 SWAP1 POP SSTORE POP JUMPDEST PUSH1 0x2 PUSH1 0x1 SLOAD PUSH2 0x504 SWAP2 SWAP1 PUSH2 0xE18 JUMP JUMPDEST PUSH1 0x4 DUP4 DUP2 SLOAD DUP2 LT PUSH2 0x518 JUMPI PUSH2 0x517 PUSH2 0xD71 JUMP JUMPDEST JUMPDEST SWAP1 PUSH1 0x0 MSTORE PUSH1 0x20 PUSH1 0x0 KECCAK256 SWAP1 PUSH1 0x7 MUL ADD PUSH1 0x4 ADD SLOAD GT ISZERO PUSH2 0x620 JUMPI PUSH1 0x1 PUSH1 0x4 DUP4 DUP2 SLOAD DUP2 LT PUSH2 0x546 JUMPI PUSH2 0x545 PUSH2 0xD71 JUMP JUMPDEST JUMPDEST SWAP1 PUSH1 0x0 MSTORE PUSH1 0x20 PUSH1 0x0 KECCAK256 SWAP1 PUSH1 0x7 MUL ADD PUSH1 0x5 ADD PUSH1 0x0 PUSH2 0x100 EXP DUP2 SLOAD DUP2 PUSH1 0xFF MUL NOT AND SWAP1 DUP4 ISZERO ISZERO MUL OR SWAP1 SSTORE POP PUSH1 0x4 DUP3 DUP2 SLOAD DUP2 LT PUSH2 0x582 JUMPI PUSH2 0x581 PUSH2 0xD71 JUMP JUMPDEST JUMPDEST SWAP1 PUSH1 0x0 MSTORE PUSH1 0x20 PUSH1 0x0 KECCAK256 SWAP1 PUSH1 0x7 MUL ADD PUSH1 0x3 ADD PUSH1 0x0 SWAP1 SLOAD SWAP1 PUSH2 0x100 EXP SWAP1 DIV PUSH20 0xFFFFFFFFFFFFFFFFFFFFFFFFFFFFFFFFFFFFFFFF AND PUSH20 0xFFFFFFFFFFFFFFFFFFFFFFFFFFFFFFFFFFFFFFFF AND PUSH2 0x8FC PUSH1 0x4 DUP5 DUP2 SLOAD DUP2 LT PUSH2 0x5E1 JUMPI PUSH2 0x5E0 PUSH2 0xD71 JUMP JUMPDEST JUMPDEST SWAP1 PUSH1 0x0 MSTORE PUSH1 0x20 PUSH1 0x0 KECCAK256 SWAP1 PUSH1 0x7 MUL ADD PUSH1 0x2 ADD SLOAD SWAP1 DUP2 ISZERO MUL SWAP1 PUSH1 0x40 MLOAD PUSH1 0x0 PUSH1 0x40 MLOAD DUP1 DUP4 SUB DUP2 DUP6 DUP9 DUP9 CALL SWAP4 POP POP POP POP ISZERO DUP1 ISZERO PUSH2 0x61E JUMPI RETURNDATASIZE PUSH1 0x0 DUP1 RETURNDATACOPY RETURNDATASIZE PUSH1 0x0 REVERT JUMPDEST POP JUMPDEST POP POP JUMP JUMPDEST PUSH1 0x4 DUP2 DUP2 SLOAD DUP2 LT PUSH2 0x634 JUMPI PUSH1 0x0 DUP1 REVERT JUMPDEST SWAP1 PUSH1 0x0 MSTORE PUSH1 0x20 PUSH1 0x0 KECCAK256 SWAP1 PUSH1 0x7 MUL ADD PUSH1 0x0 SWAP2 POP SWAP1 POP DUP1 PUSH1 0x0 ADD SLOAD SWAP1 DUP1 PUSH1 0x1 ADD DUP1 SLOAD PUSH2 0x65D SWAP1 PUSH2 0xE78 JUMP JUMPDEST DUP1 PUSH1 0x1F ADD PUSH1 0x20 DUP1 SWAP2 DIV MUL PUSH1 0x20 ADD PUSH1 0x40 MLOAD SWAP1 DUP2 ADD PUSH1 0x40 MSTORE DUP1 SWAP3 SWAP2 SWAP1 DUP2 DUP2 MSTORE PUSH1 0x20 ADD DUP3 DUP1 SLOAD PUSH2 0x689 SWAP1 PUSH2 0xE78 JUMP JUMPDEST DUP1 ISZERO PUSH2 0x6D6 JUMPI DUP1 PUSH1 0x1F LT PUSH2 0x6AB JUMPI PUSH2 0x100 DUP1 DUP4 SLOAD DIV MUL DUP4 MSTORE SWAP2 PUSH1 0x20 ADD SWAP2 PUSH2 0x6D6 JUMP JUMPDEST DUP3 ADD SWAP2 SWAP1 PUSH1 0x0 MSTORE PUSH1 0x20 PUSH1 0x0 KECCAK256 SWAP1 JUMPDEST DUP2 SLOAD DUP2 MSTORE SWAP1 PUSH1 0x1 ADD SWAP1 PUSH1 0x20 ADD DUP1 DUP4 GT PUSH2 0x6B9 JUMPI DUP3 SWAP1 SUB PUSH1 0x1F AND DUP3 ADD SWAP2 JUMPDEST POP POP POP POP POP SWAP1 DUP1 PUSH1 0x2 ADD SLOAD SWAP1 DUP1 PUSH1 0x3 ADD PUSH1 0x0 SWAP1 SLOAD SWAP1 PUSH2 0x100 EXP SWAP1 DIV PUSH20 0xFFFFFFFFFFFFFFFFFFFFFFFFFFFFFFFFFFFFFFFF AND SWAP1 DUP1 PUSH1 0x4 ADD SLOAD SWAP1 DUP1 PUSH1 0x5 ADD PUSH1 0x0 SWAP1 SLOAD SWAP1 PUSH2 0x100 EXP SWAP1 DIV PUSH1 0xFF AND SWAP1 POP DUP7 JUMP JUMPDEST PUSH1 0x3 SLOAD DUP2 JUMP JUMPDEST PUSH1 0x3 SLOAD CALLVALUE LT ISZERO PUSH2 0x73A JUMPI PUSH1 0x0 DUP1 REVERT JUMPDEST PUSH1 0x1 PUSH1 0x0 DUP2 SLOAD DUP1 SWAP3 SWAP2 SWAP1 PUSH2 0x74D SWAP1 PUSH2 0xDA0 JUMP JUMPDEST SWAP2 SWAP1 POP SSTORE POP PUSH1 0x1 PUSH1 0x5 PUSH1 0x0 CALLER PUSH20 0xFFFFFFFFFFFFFFFFFFFFFFFFFFFFFFFFFFFFFFFF AND PUSH20 0xFFFFFFFFFFFFFFFFFFFFFFFFFFFFFFFFFFFFFFFF AND DUP2 MSTORE PUSH1 0x20 ADD SWAP1 DUP2 MSTORE PUSH1 0x20 ADD PUSH1 0x0 KECCAK256 PUSH1 0x0 PUSH2 0x100 EXP DUP2 SLOAD DUP2 PUSH1 0xFF MUL NOT AND SWAP1 DUP4 ISZERO ISZERO MUL OR SWAP1 SSTORE POP JUMP JUMPDEST DUP3 DUP1 SLOAD PUSH2 0x7B8 SWAP1 PUSH2 0xE78 JUMP JUMPDEST SWAP1 PUSH1 0x0 MSTORE PUSH1 0x20 PUSH1 0x0 KECCAK256 SWAP1 PUSH1 0x1F ADD PUSH1 0x20 SWAP1 DIV DUP2 ADD SWAP3 DUP3 PUSH2 0x7DA JUMPI PUSH1 0x0 DUP6 SSTORE PUSH2 0x821 JUMP JUMPDEST DUP3 PUSH1 0x1F LT PUSH2 0x7F3 JUMPI DUP1 MLOAD PUSH1 0xFF NOT AND DUP4 DUP1 ADD OR DUP6 SSTORE PUSH2 0x821 JUMP JUMPDEST DUP3 DUP1 ADD PUSH1 0x1 ADD DUP6 SSTORE DUP3 ISZERO PUSH2 0x821 JUMPI SWAP2 DUP3 ADD JUMPDEST DUP3 DUP2 GT ISZERO PUSH2 0x820 JUMPI DUP3 MLOAD DUP3 SSTORE SWAP2 PUSH1 0x20 ADD SWAP2 SWAP1 PUSH1 0x1 ADD SWAP1 PUSH2 0x805 JUMP JUMPDEST JUMPDEST POP SWAP1 POP PUSH2 0x82E SWAP2 SWAP1 PUSH2 0x832 JUMP JUMPDEST POP SWAP1 JUMP JUMPDEST JUMPDEST DUP1 DUP3 GT ISZERO PUSH2 0x84B JUMPI PUSH1 0x0 DUP2 PUSH1 0x0 SWAP1 SSTORE POP PUSH1 0x1 ADD PUSH2 0x833 JUMP JUMPDEST POP SWAP1 JUMP JUMPDEST PUSH1 0x0 PUSH1 0x40 MLOAD SWAP1 POP SWAP1 JUMP JUMPDEST PUSH1 0x0 DUP1 REVERT JUMPDEST PUSH1 0x0 DUP1 REVERT JUMPDEST PUSH1 0x0 PUSH20 0xFFFFFFFFFFFFFFFFFFFFFFFFFFFFFFFFFFFFFFFF DUP3 AND SWAP1 POP SWAP2 SWAP1 POP JUMP JUMPDEST PUSH1 0x0 PUSH2 0x88E DUP3 PUSH2 0x863 JUMP JUMPDEST SWAP1 POP SWAP2 SWAP1 POP JUMP JUMPDEST PUSH2 0x89E DUP2 PUSH2 0x883 JUMP JUMPDEST DUP2 EQ PUSH2 0x8A9 JUMPI PUSH1 0x0 DUP1 REVERT JUMPDEST POP JUMP JUMPDEST PUSH1 0x0 DUP2 CALLDATALOAD SWAP1 POP PUSH2 0x8BB DUP2 PUSH2 0x895 JUMP JUMPDEST SWAP3 SWAP2 POP POP JUMP JUMPDEST PUSH1 0x0 PUSH1 0x20 DUP3 DUP5 SUB SLT ISZERO PUSH2 0x8D7 JUMPI PUSH2 0x8D6 PUSH2 0x859 JUMP JUMPDEST JUMPDEST PUSH1 0x0 PUSH2 0x8E5 DUP5 DUP3 DUP6 ADD PUSH2 0x8AC JUMP JUMPDEST SWAP2 POP POP SWAP3 SWAP2 POP POP JUMP JUMPDEST PUSH1 0x0 DUP2 ISZERO ISZERO SWAP1 POP SWAP2 SWAP1 POP JUMP JUMPDEST PUSH2 0x903 DUP2 PUSH2 0x8EE JUMP JUMPDEST DUP3 MSTORE POP POP JUMP JUMPDEST PUSH1 0x0 PUSH1 0x20 DUP3 ADD SWAP1 POP PUSH2 0x91E PUSH1 0x0 DUP4 ADD DUP5 PUSH2 0x8FA JUMP JUMPDEST SWAP3 SWAP2 POP POP JUMP JUMPDEST PUSH1 0x0 DUP1 REVERT JUMPDEST PUSH1 0x0 DUP1 REVERT JUMPDEST PUSH1 0x0 PUSH1 0x1F NOT PUSH1 0x1F DUP4 ADD AND SWAP1 POP SWAP2 SWAP1 POP JUMP JUMPDEST PUSH32 0x4E487B7100000000000000000000000000000000000000000000000000000000 PUSH1 0x0 MSTORE PUSH1 0x41 PUSH1 0x4 MSTORE PUSH1 0x24 PUSH1 0x0 REVERT JUMPDEST PUSH2 0x977 DUP3 PUSH2 0x92E JUMP JUMPDEST DUP2 ADD DUP2 DUP2 LT PUSH8 0xFFFFFFFFFFFFFFFF DUP3 GT OR ISZERO PUSH2 0x996 JUMPI PUSH2 0x995 PUSH2 0x93F JUMP JUMPDEST JUMPDEST DUP1 PUSH1 0x40 MSTORE POP POP POP JUMP JUMPDEST PUSH1 0x0 PUSH2 0x9A9 PUSH2 0x84F JUMP JUMPDEST SWAP1 POP PUSH2 0x9B5 DUP3 DUP3 PUSH2 0x96E JUMP JUMPDEST SWAP2 SWAP1 POP JUMP JUMPDEST PUSH1 0x0 PUSH8 0xFFFFFFFFFFFFFFFF DUP3 GT ISZERO PUSH2 0x9D5 JUMPI PUSH2 0x9D4 PUSH2 0x93F JUMP JUMPDEST JUMPDEST PUSH2 0x9DE DUP3 PUSH2 0x92E JUMP JUMPDEST SWAP1 POP PUSH1 0x20 DUP2 ADD SWAP1 POP SWAP2 SWAP1 POP JUMP JUMPDEST DUP3 DUP2 DUP4 CALLDATACOPY PUSH1 0x0 DUP4 DUP4 ADD MSTORE POP POP POP JUMP JUMPDEST PUSH1 0x0 PUSH2 0xA0D PUSH2 0xA08 DUP5 PUSH2 0x9BA JUMP JUMPDEST PUSH2 0x99F JUMP JUMPDEST SWAP1 POP DUP3 DUP2 MSTORE PUSH1 0x20 DUP2 ADD DUP5 DUP5 DUP5 ADD GT ISZERO PUSH2 0xA29 JUMPI PUSH2 0xA28 PUSH2 0x929 JUMP JUMPDEST JUMPDEST PUSH2 0xA34 DUP5 DUP3 DUP6 PUSH2 0x9EB JUMP JUMPDEST POP SWAP4 SWAP3 POP POP POP JUMP JUMPDEST PUSH1 0x0 DUP3 PUSH1 0x1F DUP4 ADD SLT PUSH2 0xA51 JUMPI PUSH2 0xA50 PUSH2 0x924 JUMP JUMPDEST JUMPDEST DUP2 CALLDATALOAD PUSH2 0xA61 DUP5 DUP3 PUSH1 0x20 DUP7 ADD PUSH2 0x9FA JUMP JUMPDEST SWAP2 POP POP SWAP3 SWAP2 POP POP JUMP JUMPDEST PUSH1 0x0 DUP2 SWAP1 POP SWAP2 SWAP1 POP JUMP JUMPDEST PUSH2 0xA7D DUP2 PUSH2 0xA6A JUMP JUMPDEST DUP2 EQ PUSH2 0xA88 JUMPI PUSH1 0x0 DUP1 REVERT JUMPDEST POP JUMP JUMPDEST PUSH1 0x0 DUP2 CALLDATALOAD SWAP1 POP PUSH2 0xA9A DUP2 PUSH2 0xA74 JUMP JUMPDEST SWAP3 SWAP2 POP POP JUMP JUMPDEST PUSH1 0x0 DUP1 PUSH1 0x0 PUSH1 0x60 DUP5 DUP7 SUB SLT ISZERO PUSH2 0xAB9 JUMPI PUSH2 0xAB8 PUSH2 0x859 JUMP JUMPDEST JUMPDEST PUSH1 0x0 DUP5 ADD CALLDATALOAD PUSH8 0xFFFFFFFFFFFFFFFF DUP2 GT ISZERO PUSH2 0xAD7 JUMPI PUSH2 0xAD6 PUSH2 0x85E JUMP JUMPDEST JUMPDEST PUSH2 0xAE3 DUP7 DUP3 DUP8 ADD PUSH2 0xA3C JUMP JUMPDEST SWAP4 POP POP PUSH1 0x20 PUSH2 0xAF4 DUP7 DUP3 DUP8 ADD PUSH2 0xA8B JUMP JUMPDEST SWAP3 POP POP PUSH1 0x40 PUSH2 0xB05 DUP7 DUP3 DUP8 ADD PUSH2 0x8AC JUMP JUMPDEST SWAP2 POP POP SWAP3 POP SWAP3 POP SWAP3 JUMP JUMPDEST PUSH2 0xB18 DUP2 PUSH2 0x883 JUMP JUMPDEST DUP3 MSTORE POP POP JUMP JUMPDEST PUSH1 0x0 PUSH1 0x20 DUP3 ADD SWAP1 POP PUSH2 0xB33 PUSH1 0x0 DUP4 ADD DUP5 PUSH2 0xB0F JUMP JUMPDEST SWAP3 SWAP2 POP POP JUMP JUMPDEST PUSH2 0xB42 DUP2 PUSH2 0x8EE JUMP JUMPDEST DUP2 EQ PUSH2 0xB4D JUMPI PUSH1 0x0 DUP1 REVERT JUMPDEST POP JUMP JUMPDEST PUSH1 0x0 DUP2 CALLDATALOAD SWAP1 POP PUSH2 0xB5F DUP2 PUSH2 0xB39 JUMP JUMPDEST SWAP3 SWAP2 POP POP JUMP JUMPDEST PUSH1 0x0 DUP1 PUSH1 0x40 DUP4 DUP6 SUB SLT ISZERO PUSH2 0xB7C JUMPI PUSH2 0xB7B PUSH2 0x859 JUMP JUMPDEST JUMPDEST PUSH1 0x0 PUSH2 0xB8A DUP6 DUP3 DUP7 ADD PUSH2 0xA8B JUMP JUMPDEST SWAP3 POP POP PUSH1 0x20 PUSH2 0xB9B DUP6 DUP3 DUP7 ADD PUSH2 0xB50 JUMP JUMPDEST SWAP2 POP POP SWAP3 POP SWAP3 SWAP1 POP JUMP JUMPDEST PUSH1 0x0 PUSH1 0x20 DUP3 DUP5 SUB SLT ISZERO PUSH2 0xBBB JUMPI PUSH2 0xBBA PUSH2 0x859 JUMP JUMPDEST JUMPDEST PUSH1 0x0 PUSH2 0xBC9 DUP5 DUP3 DUP6 ADD PUSH2 0xA8B JUMP JUMPDEST SWAP2 POP POP SWAP3 SWAP2 POP POP JUMP JUMPDEST PUSH2 0xBDB DUP2 PUSH2 0xA6A JUMP JUMPDEST DUP3 MSTORE POP POP JUMP JUMPDEST PUSH1 0x0 DUP2 MLOAD SWAP1 POP SWAP2 SWAP1 POP JUMP JUMPDEST PUSH1 0x0 DUP3 DUP3 MSTORE PUSH1 0x20 DUP3 ADD SWAP1 POP SWAP3 SWAP2 POP POP JUMP JUMPDEST PUSH1 0x0 JUMPDEST DUP4 DUP2 LT ISZERO PUSH2 0xC1B JUMPI DUP1 DUP3 ADD MLOAD DUP2 DUP5 ADD MSTORE PUSH1 0x20 DUP2 ADD SWAP1 POP PUSH2 0xC00 JUMP JUMPDEST DUP4 DUP2 GT ISZERO PUSH2 0xC2A JUMPI PUSH1 0x0 DUP5 DUP5 ADD MSTORE JUMPDEST POP POP POP POP JUMP JUMPDEST PUSH1 0x0 PUSH2 0xC3B DUP3 PUSH2 0xBE1 JUMP JUMPDEST PUSH2 0xC45 DUP2 DUP6 PUSH2 0xBEC JUMP JUMPDEST SWAP4 POP PUSH2 0xC55 DUP2 DUP6 PUSH1 0x20 DUP7 ADD PUSH2 0xBFD JUMP JUMPDEST PUSH2 0xC5E DUP2 PUSH2 0x92E JUMP JUMPDEST DUP5 ADD SWAP2 POP POP SWAP3 SWAP2 POP POP JUMP JUMPDEST PUSH1 0x0 PUSH1 0xC0 DUP3 ADD SWAP1 POP PUSH2 0xC7E PUSH1 0x0 DUP4 ADD DUP10 PUSH2 0xBD2 JUMP JUMPDEST DUP2 DUP2 SUB PUSH1 0x20 DUP4 ADD MSTORE PUSH2 0xC90 DUP2 DUP9 PUSH2 0xC30 JUMP JUMPDEST SWAP1 POP PUSH2 0xC9F PUSH1 0x40 DUP4 ADD DUP8 PUSH2 0xBD2 JUMP JUMPDEST PUSH2 0xCAC PUSH1 0x60 DUP4 ADD DUP7 PUSH2 0xB0F JUMP JUMPDEST PUSH2 0xCB9 PUSH1 0x80 DUP4 ADD DUP6 PUSH2 0xBD2 JUMP JUMPDEST PUSH2 0xCC6 PUSH1 0xA0 DUP4 ADD DUP5 PUSH2 0x8FA JUMP JUMPDEST SWAP8 SWAP7 POP POP POP POP POP POP POP JUMP JUMPDEST PUSH1 0x0 PUSH1 0x20 DUP3 ADD SWAP1 POP PUSH2 0xCE6 PUSH1 0x0 DUP4 ADD DUP5 PUSH2 0xBD2 JUMP JUMPDEST SWAP3 SWAP2 POP POP JUMP JUMPDEST PUSH32 0x4E487B7100000000000000000000000000000000000000000000000000000000 PUSH1 0x0 MSTORE PUSH1 0x11 PUSH1 0x4 MSTORE PUSH1 0x24 PUSH1 0x0 REVERT JUMPDEST PUSH1 0x0 PUSH2 0xD26 DUP3 PUSH2 0xA6A JUMP JUMPDEST SWAP2 POP PUSH2 0xD31 DUP4 PUSH2 0xA6A JUMP JUMPDEST SWAP3 POP DUP3 PUSH32 0xFFFFFFFFFFFFFFFFFFFFFFFFFFFFFFFFFFFFFFFFFFFFFFFFFFFFFFFFFFFFFFFF SUB DUP3 GT ISZERO PUSH2 0xD66 JUMPI PUSH2 0xD65 PUSH2 0xCEC JUMP JUMPDEST JUMPDEST DUP3 DUP3 ADD SWAP1 POP SWAP3 SWAP2 POP POP JUMP JUMPDEST PUSH32 0x4E487B7100000000000000000000000000000000000000000000000000000000 PUSH1 0x0 MSTORE PUSH1 0x32 PUSH1 0x4 MSTORE PUSH1 0x24 PUSH1 0x0 REVERT JUMPDEST PUSH1 0x0 PUSH2 0xDAB DUP3 PUSH2 0xA6A JUMP JUMPDEST SWAP2 POP PUSH32 0xFFFFFFFFFFFFFFFFFFFFFFFFFFFFFFFFFFFFFFFFFFFFFFFFFFFFFFFFFFFFFFFF DUP3 EQ ISZERO PUSH2 0xDDE JUMPI PUSH2 0xDDD PUSH2 0xCEC JUMP JUMPDEST JUMPDEST PUSH1 0x1 DUP3 ADD SWAP1 POP SWAP2 SWAP1 POP JUMP JUMPDEST PUSH32 0x4E487B7100000000000000000000000000000000000000000000000000000000 PUSH1 0x0 MSTORE PUSH1 0x12 PUSH1 0x4 MSTORE PUSH1 0x24 PUSH1 0x0 REVERT JUMPDEST PUSH1 0x0 PUSH2 0xE23 DUP3 PUSH2 0xA6A JUMP JUMPDEST SWAP2 POP PUSH2 0xE2E DUP4 PUSH2 0xA6A JUMP JUMPDEST SWAP3 POP DUP3 PUSH2 0xE3E JUMPI PUSH2 0xE3D PUSH2 0xDE9 JUMP JUMPDEST JUMPDEST DUP3 DUP3 DIV SWAP1 POP SWAP3 SWAP2 POP POP JUMP JUMPDEST PUSH32 0x4E487B7100000000000000000000000000000000000000000000000000000000 PUSH1 0x0 MSTORE PUSH1 0x22 PUSH1 0x4 MSTORE PUSH1 0x24 PUSH1 0x0 REVERT JUMPDEST PUSH1 0x0 PUSH1 0x2 DUP3 DIV SWAP1 POP PUSH1 0x1 DUP3 AND DUP1 PUSH2 0xE90 JUMPI PUSH1 0x7F DUP3 AND SWAP2 POP JUMPDEST PUSH1 0x20 DUP3 LT DUP2 EQ ISZERO PUSH2 0xEA4 JUMPI PUSH2 0xEA3 PUSH2 0xE49 JUMP JUMPDEST JUMPDEST POP SWAP2 SWAP1 POP JUMP INVALID LOG2 PUSH5 0x6970667358 0x22 SLT KECCAK256 LT SWAP6 SWAP16 0xEA 0x4B 0x27 0xD9 PUSH5 0x75952E8FE5 PUSH23 0x53203173AB5FDA7C7E97700F5551FD61892F64736F6C63 NUMBER STOP ADDMOD SIGNEXTEND STOP CALLER LOG2 PUSH5 0x6970667358 0x22 SLT KECCAK256 EXP PUSH31 0x9D0C9F9C9368E1F0CFAD63E6A1DC43297FAE476986E86692D93C811F9EA864 PUSH20 0x6F6C634300080B00330000000000000000000000 "},"gasEstimates":{"creation":{"codeDepositCost":"1075000","executionCost":"1114","totalCost":"1076114"},"external":{"campaings(uint256)":"infinite","createCampaing(uint256)":"infinite","getCampaings()":"infinite"}},"methodIdentifiers":{"campaings(uint256)":"b2395a14","createCampaing(uint256)":"caa04b61","getCampaings()":"2a3a4d8a"}},"storageLayout":{"storage":[{"astId":5,"contract":"campaing.sol:CampaingFactory","label":"campaings","offset":0,"slot":"0","type":"t_array(t_contract(Campaing)274)dyn_storage"}],"types":{"t_array(t_contract(Campaing)274)dyn_storage":{"base":"t_contract(Campaing)274","encoding":"dynamic_array","label":"contract Campaing[]","numberOfBytes":"32"},"t_contract(Campaing)274":{"encoding":"inplace","label":"contract Campaing","numberOfBytes":"20"}}},"userdoc":{"kind":"user","methods":{},"version":1}}